:100000000C9424130C9455130C9455130C94551301
:100010000C9455130C9455130C9455130C945513C0
:100020000C9455130C9455130C9455130C945513B0
:100030000C9455130C9455130C9455130C945513A0
:100040000C9455130C9455130C9455130C94551390
:100050000C9455130C9455130C9455130C94AF2910
:100060000C9455130C94441B0C941A1B0C945513AC
:100070000C9455130C9455130C9455130C94551360
:100080000C9455130C9455130C9455130C94551350
:100090000C9455130C9455130C9455130C94551340
:1000A0000C9455130C9455130C9455130C94551330
:1000B0000C9455130C9455130C9455130C94551320
:1000C0000C9455130C9455130C9455130C94551310
:1000D0000C9455130C9455130C9455130C94551300
:1000E0000C9455130C9436150C9493140C944515DC
:1000F0000C9438140C94BE1B0C94BD140C941D1558
:100100000C9409180C9435180C9413150C942215A2
:100110000C9471180C94A8140C94FB150C94AF1546
:100120000C9440150C94B9380C944F150C94B313DF
:100130000C9482130C943B150C942C150C94801782
:100140000C94B51B0C943C160C94DD170C94A7145E
:100150000C9457130C94EB130C9418150C94A513D2
:100160000C944A150C941F1C0C94AF170C94B117E7
:100170000C94A9140C94B51A0C9491130C94581364
:100180000C9431150C9427150C94A1140C946E1535
:100190000C94A6140C94AA180C94BE140000210010
:1001A000240027002A002D00300033000101000048
:1001B000040107010A0100000A0B02090C0D0E08D8
:1001C0000703040100000000000000000000000020
:1001D000000000000000000000000000000000001F
:1001E00000001211100000000000000000000000DC
:1001F00000000000000000000000000001021020CC
:10020000200808102040102040800201020108044C
:1002100002010102040810204080804020100804E0
:100220000201800402018040201008040201080439
:10023000020101020408102040800102040810207D
:10024000408000002200250028002B002E003100F5
:10025000340002010000050108010B010505050538
:10026000070508080808020202020A0A080804042E
:10027000040401010101010101010303030303035C
:100280000303040707070C0C0C0C0C0C0C0C0202EB
:10029000020206060606060606060B0B0B0B0B0BE8
:1002A0000B0B1820205F0000000000000000000081
:1002B000000000000000000000000000000000003E
:1002C000000000000000000000000000000000002E
:1002D000000000000000000000000000000000001E
:1002E000000000000000000000000000000000000E
:1002F00000000000000000000000000000000000FE
:10030000000000000000000000001C00001C0000B5
:100310001C00001C00001C00001C00001C00001C35
:1003200000001C00001C00001C00001C00001C0041
:10033000001C00001C00001800000000000000006D
:100340000000001C00003E00003E00003E00001CBB
:10035000000000000000000000000000000000009D
:1003600000000000000000000001C0E003E1F00315
:10037000E1F003E1F001E0F000E07001C0E003C152
:10038000E00F87C00E070000000000000000000022
:10039000000000000000000000000000000000005D
:1003A000000000000000000000000000000000004D
:1003B000000000000000000000000000000000003D
:1003C0000000000000000000000000000038700085
:1003D00038700070E00070E00070E00070E00FFF27
:1003E000F80FFFF80FFFF800E1C000E1C000E1C026
:1003F00001C38001C38001C3800FFFF80FFFF80F16
:10040000FFF8038700038700038700038700070EB8
:1004100000070E00000000000000000000000000C7
:10042000000000000000000000003800003800005C
:100430003800003800007F0001FFC003FFC00780C4
:100440008007000007000007000007800003C000CD
:1004500003F80001FE00007F80000FC00003C00011
:1004600001E00000E00000E00000E00201C007FF42
:10047000C007FF8001FE000038000038000038008F
:100480000038000000000000000780700FC0E00C82
:10049000C0E01861C018638018638018670018678F
:1004A00000186E000CDC000FDC0007B800003BC039
:1004B0000077E000766000EC3001CC3001CC3003F6
:1004C0008C30038C30070C300E06600E07E01C03E6
:1004D000C00000000000000000000000000000005C
:1004E000000000000000000000007C0000FF000190
:1004F000FF0003C780038380038380038380038717
:100500000001CF0001FE0000FC0001F07003F87054
:1005100003BC70071E600E0FE00E07E00E03C00E56
:1005200001C00F03E0078FE007FF7003FE7000F8C3
:100530003800000000000000000000000000000083
:10054000000000000000000000001800003C000057
:100550001E00000E00000700000200000000000066
:10056000000000000000000000000000000000008B
:10057000000000000000000000000000000000007B
:10058000000000000000000000000000000000006B
:10059000000000000000000000000000000000005B
:1005A000000000000000000700000F80000F0000A6
:1005B0001E00003C0000380000700000700000E0E9
:1005C0000000E00000E00001C00001C00001C00028
:1005D00001C00001C00001C00001C00001C0000155
:1005E000C00000E00000E00000E0000070000070CB
:1005F00000003800003C00001E00000F00000780D3
:1006000000030000010000600000F000007800001E
:100610003C00001E00000E00000700000700000361
:10062000800003800003800001C00001C00001C001
:100630000001C00001C00001C00001C00001C000F5
:1006400001C0000380000380000380000700000752
:1006500000000E00001E00003C0000780000F000CA
:1006600000600000400000000000000000000000EA
:100670000000000000000000000000001C00001C42
:1006800000001C00021C2003C9E007FFF001FFC0AE
:10069000001C0000360000770000F38001E3C0007A
:1006A000E3800041000000000000000000000000A6
:1006B000000000000000000000000000000000003A
:1006C000000000000000000000000000000000002A
:1006D000000000000000380000380000380000383A
:1006E000000038000038000038000FFFE00FFFE086
:1006F0000FFFE0003800003800003800003800002C
:100700003800003800003800000000000000000041
:1007100000000000000000000000000000000000D9
:1007200000000000000000000000000000000000C9
:1007300000000000000000000000000000000000B9
:1007400000000000000000000000000000000000A9
:100750000000000000000000000000000000000099
:100760000000000000000E00001F00001F00001F1E
:1007700000000F00000700000E00001C00007800C1
:1007800000700000000000000000000000000000F9
:100790000000000000000000000000000000000059
:1007A0000000000000000000000000FF0000FF004B
:1007B00000FF00000000000000000000000000003A
:1007C0000000000000000000000000000000000029
:1007D0000000000000000000000000000000000019
:1007E0000000000000000000000000000000000009
:1007F00000000000000000000000000000000000F9
:1008000000000000000000000000000000000000E8
:1008100000000000000000000000000000000000D8
:100820000000000000000000001C00003E00003E30
:1008300000003E00001C000000000000000000005E
:100840000000000000000001C000038000038000E1
:100850000380000700000700000700000E00000EE4
:1008600000000E00000E00001C00001C00001C0018
:1008700000380000380000380000700000700000F0
:10088000700000E00000E00000E00000E00001C0B7
:100890000001C00001C0000380000380000380004D
:1008A000070000070000000000000000007C0001BD
:1008B000FF0003FF8003C7800783C00701C0070153
:1008C000C00E00E00E00E00E30E00E78E00E78E0A2
:1008D0000E78E00E30E00E00E00E00E00E00E007C3
:1008E00001C00701C00783C003C78003FF8001FF69
:1008F00000007C000000000000000000000000007C
:10090000000000000000000000000000001C0000CB
:100910001C00007C0000FC0003FC00079C00021C83
:1009200000001C00001C00001C00001C00001C003B
:10093000001C00001C00001C00001C00001C00002B
:100940001C00001C00001C00001C0003FFC003FF73
:10095000C003FFC000000000000000000000000015
:1009600000000000000000000000000000FC000388
:10097000FF0007FF800787C00203C00001C000011D
:10098000C00001C00001C000038000078000070014
:10099000000E00001C0000380000700000E00001A4
:1009A000C00003800003800007000007FFE007FF8E
:1009B000E007FFE000000000000000000000000071
:1009C00000000000000000000000000001FC000F1B
:1009D000FF000FFF800607800003C00001C0000178
:1009E000C00001C00003C000078000FF0000FF003E
:1009F00000FF800007C00001E00000E00000E00010
:100A000000E00000E00001E00403C00FFF800FFFE2
:100A10000003FC00000000000000000000000000D7
:100A2000000000000000000000000000000780003F
:100A30000F80001F80003F80003B8000738000F328
:100A40008001E38001C380038380038380070380E8
:100A50000F03800E03801E03801FFFF01FFFF01F97
:100A6000FFF0000380000380000380000380000388
:100A70008000038000000000000000000000000073
:100A800000000000000000000000000003FF8003E1
:100A9000FF8003FF80030000030000030000030049
:100AA0000007000007000007F00007FE0007FF0036
:100AB000001F800007800003C00001C00001C000CB
:100AC00001C00001C00003C00C07800FFF000FFE33
:100AD0000003F8000000000000000000000000001B
:100AE0000000000000000000000000000003C00043
:100AF0001FC0007FC000FC0001E00003C0000380B5
:100B000000070000070000067E000FFF800FFFC0F7
:100B10000F03C00E01E00E00E00E00E00E00E00E3C
:100B200000E00700E00701C007C3C003FF8001FF2A
:100B300000007E0000000000000000000000000037
:100B40000000000000000000000000000FFFE00FA8
:100B5000FFE00FFFE00000E00001C00003800003A1
:100B600080000700000700000E00000E00001C00BF
:100B7000001C000038000038000038000070000041
:100B8000700000700000700000E00000E00000E075
:100B90000000E00000000000000000000000000075
:100BA000000000000000000000000000007C0001C8
:100BB000FF0003FF8003C7C00703C00701C0070190
:100BC000C00701C00781C003C38003F70001FE0016
:100BD00001FF8003CFC00703C00601E00E00E00E56
:100BE00000E00E00E00F01E00783C007FFC003FF35
:100BF0008000FE0000000000000000000000000077
:100C000000000000000000000000000000FC0001E7
:100C1000FF0003FF800787C00701C00E01C00E0060
:100C2000E00E00E00E00E00E00E00F00E00781E0C3
:100C300007FFE003FFE000FEE00001C00001C0008C
:100C400003C0000780000F00007E0007FC0007F8CB
:100C50000007C000000000000000000000000000CD
:100C60000000000000000000000000000000000084
:100C7000000000000000000000000000000000383C
:100C800000007C00007C00007C00003800000000B8
:100C90000000000000000000000000000000000054
:100CA0000000003800007C00007C00007C00003860
:100CB0000000000000000000000000000000000034
:100CC0000000000000000000000000000000000024
:100CD00000000000000000000000000000000038DC
:100CE00000007C00007C00007C0000380000000058
:100CF00000000000000000000000000000000000F4
:100D00000000003800007C00007C00007C00003CFB
:100D100000001C0000380000700001E00001C0006D
:100D200000000000000000000000000000000000C3
:100D300000000000000000000000000000000000B3
:100D4000400001E0000FE0003FC000FE0003F8009B
:100D50000FC0000F00000FC00007F80000FE0000E9
:100D60003FC0000FE00001E0000040000000000074
:100D70000000000000000000000000000000000073
:100D80000000000000000000000000000000000063
:100D90000000000000000000000000000000000053
:100DA000000000000FFFE00FFFE00FFFE000000079
:100DB0000000000000000000000000000FFFE00F36
:100DC000FFE00FFFE0000000000000000000000056
:100DD0000000000000000000000000000000000013
:100DE0000000000000000000000000000000000003
:100DF00000000000000000000000000000000400EF
:100E0000000F00000FE00007F80000FE00003F8028
:100E10000007E00001E00007E0003FC000FE00071F
:100E2000F8000FE0000F00000400000000000000C8
:100E300000000000000000000000000000000000B2
:100E400000000000000000000000FE0003FF80031F
:100E5000FFC00103E00000E00000E00000E000004F
:100E6000E00001C0000380000700000E00001C002D
:100E7000003C0000380000380000000000000000C6
:100E80000000003800007C00007C00007C0000387E
:100E90000000000000000000000000000000000052
:100EA000000000000000000000003F0000FF800183
:100EB000FFC001E1E00380E00380700700700700DD
:100EC000700707F00E1FF00E3FF00E3C700E7870AA
:100ED0000E70700E70700E70700E70700E78700E56
:100EE0003870073FF0071FF00707E007800003C0D6
:100EF0000003C00001F00000FFC0007FC0001FC061
:100F0000000000000000000000007E00007E0000E5
:100F10007E0000FF0000F70000E70000E70001E7A7
:100F20008001C38001C38003C3C003C1C00381C06B
:100F30000381C00781E007FFE007FFE007FFE00F44
:100F400000F00E00700E00700E00701E00781C0085
:100F50003800000000000000000000000000000059
:100F60000000000000000000000000000FFC000F67
:100F7000FF000FFF800E07C00E03C00E01C00E0160
:100F8000C00E01C00E03800E07800FFF000FFF0090
:100F90000FFF800E03C00E01E00E00E00E00E00E19
:100FA00000E00E00E00E01E00E07C00FFFC00FFFD3
:100FB000000FFC0000000000000000000000000026
:100FC000000000000000000000003F80007FE00102
:100FD000FFE003E04003C0000780000700000700B7
:100FE000000E00000E00000E00000E00000E0000BB
:100FF0000E00000E00000E00000F000007000007AA
:10100000800003C00003E04001FFE000FFE0003F7C
:101010008000000000000000000000000000000050
:101020000000000000000000000FF0000FFE000FA5
:10103000FF000E0F800E03800E03C00E01C00E01D4
:10104000E00E00E00E00E00E00E00E00E00E00E01A
:101050000E00E00E00E00E00E00E01E00E01C00EFA
:1010600003C00E03800E0F800FFF000FFE000FF075
:101070000000000000000000000000000000000070
:1010800000000000000000000007FFC007FFC007CD
:10109000FFC007000007000007000007000007006E
:1010A0000007000007000007FF8007FF8007FF80A0
:1010B0000700000700000700000700000700000706
:1010C000000007000007000007FFE007FFE007FF40
:1010D000E000000000000000000000000000000030
:1010E00000000000000000000007FFE007FFE0072D
:1010F000FFE00700000700000700000700000700EE
:101100000007000007000007FFC007FFC007FFC07F
:1011100007000007000007000007000007000007A5
:10112000000007000007000007000007000007009C
:1011300000000000000000000000000000000000AF
:10114000000000000000000000003F8000FFC00120
:10115000FFE003E0C003C040078000070000070075
:10116000000E00000E00000E00000E00000E00E059
:101170000E00E00E00E00E00E00F00E00700E007C8
:1011800080E003C0E003E0E001FFE000FFE0003F9B
:1011900080000000000000000000000000000000CF
:1011A0000000000000000000000E00E00E00E00E55
:1011B00000E00E00E00E00E00E00E00E00E00E0089
:1011C000E00E00E00E00E00FFFE00FFFE00FFFE099
:1011D0000E00E00E00E00E00E00E00E00E00E00E5B
:1011E00000E00E00E00E00E00E00E00E00E00E0059
:1011F000E00000000000000000000000000000000F
:1012000000000000000000000007FFC007FFC0074B
:10121000FFC00038000038000038000038000038F7
:1012200000003800003800003800003800003800A6
:101230000038000038000038000038000038000096
:10124000380000380000380007FFC007FFC007FF64
:10125000C0000000000000000000000000000000CE
:1012600000000000000000000001FFC001FFC001FD
:10127000FFC00001C00001C00001C00001C00001AA
:10128000C00001C00001C00001C00001C00001C0D9
:101290000001C00001C00001C00001C00001C00089
:1012A00001C00403C00707800FFF0007FE0001FC18
:1012B000000000000000000000000000000000002E
:1012C0000000000000000000000E01E00E03C00E50
:1012D00003800E07800E0F000E0E000E1C000E3C49
:1012E000000E78000EF0000FE0000FE0000FF0009D
:1012F0000EF8000E7C000E3E000E1E000E0F000EBB
:1013000007800E03C00E03C00E01E00E00E00E00C9
:10131000F0000000000000000000000000000000DD
:1013200000000000000000000007000007000007A8
:10133000000007000007000007000007000007008A
:10134000000700000700000700000700000700007A
:101350000700000700000700000700000700000763
:10136000000007000007000007FFE007FFE007FF9D
:10137000E00000000000000000000000000000008D
:101380000000000000000000000300600380F00780
:1013900080F00780F006C1B006C1B006E3B0066376
:1013A00030066330067730063630063630063E307B
:1013B000061C380E1C380E00380E00380E00380E91
:1013C00000380E00380E00380E00380E00380E00BF
:1013D00038000000000000000000000000000000D5
:1013E00000000000000000000007807007C07007C8
:1013F000C07007E07007E07007F07007707007704A
:1014000070073870073870071C70071C70070E7063
:10141000070E700706700707700707700703F007CD
:1014200003F00701F00701F00700F00700F00700E4
:10143000F0000000000000000000000000000000BC
:10144000000000000000000000007C0001FF00031D
:10145000FF800783C00F01E00E00E00E00E01C00DB
:10146000F01C00701C00701C00701C00701C0070D0
:101470001C00701C00701C00701C00F00E00E00EC0
:1014800000E00F01E00783C003FF8001FF00007C44
:10149000000000000000000000000000000000004C
:1014A00000000000000000000007FC0007FF00072C
:1014B000FF800703C00701E00700E00700E0070026
:1014C000E00700E00700E00701E00703C007FF8036
:1014D00007FF0007FC0007000007000007000007E7
:1014E00000000700000700000700000700000700D9
:1014F00000000000000000000000000000000000EC
:10150000000000000000000000007C0001FF00035C
:10151000FF800783C00F01E00E00E00E00E01C001A
:10152000F01C00701C00701C00701C00701C00700F
:101530001C00701C00701C00701C00F00E00E00EFF
:1015400000E00F01E00783C003FF8001FF0000FE01
:1015500000003800003C00001F00000FE00007E022
:101560000000C00000000000000FF8000FFE000F98
:10157000FF000E07800E03C00E01C00E01C00E0159
:10158000C00E01C00E01C00E03800E07800FFF00C9
:101590000FFE000FFC000E1E000E0E000E07000EC8
:1015A00007000E03800E03800E01C00E01C00E0066
:1015B000E00000000000000000000000000000004B
:1015C000000000000000000000007F0001FFC003D9
:1015D000FFC003C0800700000700000700000700ED
:1015E0000007800003E00001F80000FE00003F80DB
:1015F000000FC00003C00001E00000E00000E000B8
:1016000000E00401E00F03C00FFFC007FF8001FEF0
:1016100000000000000000000000000000000000CA
:101620000000000000000000000FFFE00FFFE00FCF
:10163000FFE00038000038000038000038000038B3
:101640000000380000380000380000380000380082
:101650000038000038000038000038000038000072
:10166000380000380000380000380000380000382A
:10167000000000000000000000000000000000006A
:101680000000000000000000000E00E00E00E00E70
:1016900000E00E00E00E00E00E00E00E00E00E00A4
:1016A000E00E00E00E00E00E00E00E00E00E00E0B4
:1016B0000E00E00E00E00E00E00E00E00E00E00F75
:1016C00001E00701C00783C003FF8001FF0000FEA7
:1016D000000000000000000000000000000000000A
:1016E0000000000000000000001C00701C00700ED4
:1016F00000E00E00E00E00E00E00E00701C0070170
:10170000C00701C00701C003838003838003838077
:1017100003878001C70001C70001C70000EE000079
:10172000EE0000EE00007C00007C00007C000078F1
:1017300000000000000000000000000000000000A9
:101740000000000000000000000E00E00E00E00EAF
:1017500000E00E00E00E00E00E00E00E00E00E00E3
:10176000E00E00E00E38E00E38E00E38E00E6CE0DF
:101770000E6CE00E6CE00EC6E00EC6E00EC6E00F8A
:1017800083E00F83E00F83E00F01E00701C0070152
:10179000C000000000000000000000000000000089
:1017A0000000000000000000001E00F00E00E00F2E
:1017B00001E00701C003838003838001C70001EFBC
:1017C0000000EE0000FE00007C0000380000380041
:1017D000007C0000FE0000EE0001C70003C780038C
:1017E00083800783C00701C00F01E00E00E01E00E8
:1017F000F0000000000000000000000000000000F9
:101800000000000000000000001C00700E00E00E50
:1018100000E00F01E00701C00783C003838003C31A
:101820008001C70001EF0000EE0000FE00007C0018
:10183000007C00003800003800003800003800004C
:101840003800003800003800003800003800003848
:101850000000000000000000000000000000000088
:1018600000000000000000000007FFE007FFE007A5
:10187000FFE00001C00003C0000380000700000F6C
:1018800000000E00001E00003C0000380000780040
:1018900000700000E00001E00001C00003C0000390
:1018A00080000780000700000FFFE00FFFE00FFF40
:1018B000E000000000000000000000000000000048
:1018C00000000000000001FF0001FF0001C0000156
:1018D000C00001C00001C00001C00001C00001C083
:1018E0000001C00001C00001C00001C00001C00033
:1018F00001C00001C00001C00001C00001C0000122
:10190000C00001C00001C00001C00001C00001C052
:101910000001C00001C00001C00001C00001C00002
:1019200001FF0001FF0003800003C00001C00001AF
:10193000C00000E00000E00000E000007000007067
:10194000000070000070000038000038000038000F
:10195000001C00001C00001C00000E00000E000017
:101960000E0000070000070000070000070000034A
:10197000800003800003800001C00001C00001C09E
:101980000000E00000E000FF8000FF800003800016
:1019900003800003800003800003800003800003B5
:1019A0008000038000038000038000038000038028
:1019B0000003800003800003800003800003800098
:1019C0000380000380000380000380000380000385
:1019D00080000380000380000380000380000380F8
:1019E00000FF8000FF80000000003800007C000045
:1019F0007C0000EE0000EE0001C70001C70003C735
:101A0000800383800783C00701C00F01E0020080CC
:101A100000000000000000000000000000000000C6
:101A200000000000000000000000000000000000B6
:101A300000000000000000000000000000000000A6
:101A40000000000000000000000000000000000096
:101A50000000000000000000000000000000000086
:101A60000000000000000000000000000000000076
:101A70000000000000000000000000000000000066
:101A800000000000000000000000003FFFF83FFFE2
:101A9000F83FFFF800000000000000000000000018
:101AA000000000000000000000007C0000FE0001BB
:101AB000C70001830001830001830001C70000FE0D
:101AC00000007C000000000000000000000000009A
:101AD0000000000000000000000000000000000006
:101AE00000000000000000000000000000000000F6
:101AF00000000000000000000000000000000000E6
:101B000000000000000000000000000000000000D5
:101B1000000000000000000000000000000000FEC7
:101B20000001FF8001FFC00183E00001E00000E050
:101B30000000E0007FE001FFE003FFE007C0E007F6
:101B400000E00700E00700E00780E003FFE001FF9E
:101B5000E0007FC000000000000000000000000066
:101B60000000000000000700000700000700000759
:101B70000000070000070000070000070000077EC4
:101B80000007FF0007FF800783C00701C00701E0CF
:101B90000700E00700E00700E00700E00700E007BB
:101BA00000E00701E00701C00707C007FF8007FF4B
:101BB0000003FC0000000000000000000000000026
:101BC0000000000000000000000000000000000015
:101BD0000000000000000000000000000000003FC6
:101BE000C000FFE003FFE003E040078000070000C3
:101BF0000E00000E00000E00000E00000E00000E91
:101C0000000007000007800003E06003FFE000FF22
:101C1000E0003FC0000000000000000000000000E5
:101C20000000000000000000E00000E00000E00014
:101C300000E00000E00000E00000E00000E0007EC6
:101C4000E000FFE001FFE003C1E00380E00780E087
:101C50000700E00700E00700E00700E00700E007FA
:101C600000E00780E00380E003E0E001FFE000FF28
:101C7000E0003F80000000000000000000000000C5
:101C80000000000000000000000000000000000054
:101C90000000000000000000000000000000007EC6
:101CA0000001FF0003FF8007C3C00701C00700E079
:101CB0000E00E00FFFE00FFFE00FFFE00E00000E50
:101CC000000007000007000007C0C003FFC001FFBD
:101CD000C0007F00000000000000000000000000C5
:101CE000000000000000000FC0003FF0007FF00087
:101CF000783000F00000E00000E00000E0000FFF9E
:101D0000C00FFFC00FFFC000E00000E00000E000D7
:101D100000E00000E00000E00000E00000E0000063
:101D2000E00000E00000E00000E00000E00000E073
:101D30000000E000000000000000000000000000C3
:101D40000000000000000000000000000000000093
:101D50000000000000000000000000007F0001FF04
:101D6000C003FFC00781C00701C00F01C00E01C042
:101D70000E01C00E01C00E01C00E01C00E01C00751
:101D800001C00783C003FFC001FFC000FDC0000108
:101D9000C00001C00003C006078007FF8007FF00E6
:101DA00003FC000000000700000700000700000718
:101DB000000007000007000007000007000007FC04
:101DC0000007FF0007FF800707800703C00701C067
:101DD0000701C00701C00701C00701C00701C00714
:101DE00001C00701C00701C00701C00701C007010A
:101DF000C00701C00000000000000000000000005B
:101E000000000000000000000000600000F0000082
:101E1000F0000060000000000000000000000FF073
:101E2000000FF0000FF00000700000700000700064
:101E30000070000070000070000070000070000072
:101E40007000007000007000007820003FE0003F4C
:101E5000E0000FC0000000000000000000000000D3
:101E6000000000000000000000000600000F00005D
:101E70000F0000060000000000000000000003FF4B
:101E80008003FF8003FF8000038000038000038045
:101E900000038000038000038000038000038000B3
:101EA00003800003800003800003800003800003A0
:101EB00080000380000380000380060F000FFF00F6
:101EC0000FFE0003F80007000007000007000007EE
:101ED00000000700000700000700000700000701DE
:101EE000E00703C0070780070F00071E00073C003C
:101EF00007780007F00007E00007F0000778000708
:101F00001C00070F000707000703800703C0070135
:101F1000E00700F0000000000000000000000000EA
:101F200000000000000007F80007F80007F80000B4
:101F30003800003800003800003800003800003851
:101F40000000380000380000380000380000380079
:101F50000038000038000038000038000038000069
:101F60003800003800003800003C10001FF0001F4F
:101F7000F00007E00000000000000000000000008A
:101F80000000000000000000000000000000000051
:101F9000000000000000000000000000000007E357
:101FA000C00FFFE00FFFE00E3CF00E1C700E1C7027
:101FB0000E1C700E1C700E1C700E1C700E1C700E11
:101FC00000700E00700E00700E00700E00700E009B
:101FD000700E007000000000000000000000000013
:101FE00000000000000000000000000000000000F1
:101FF000000000000000000000000000000000FEE3
:102000000003FF8003FFC00383C00381E00380E07F
:102010000380E00380E00380E00380E00380E003CE
:1020200080E00380E00380E00380E00380E0038041
:10203000E00380E00000000000000000000000005D
:102040000000000000000000000000000000000090
:102050000000000000000000000000000000007C04
:102060000001FF0003FF800783C00701C00F01E0EC
:102070000E00E00E00E00E00E00E00E00E00E00EAC
:1020800000E00701E00701C00783C003FF8001FFF4
:1020900000007C00000000000000000000000000C4
:1020A0000000000000000000000000000000000030
:1020B000000000000000000000000000000001FC23
:1020C0000007FF0007FF800707C00701C00701C026
:1020D0000700E00700E00700E00700E00700E00776
:1020E00000E00701E00701C00783C007FF8007FF8A
:1020F00000077C0007000007000007000007000041
:1021000007000007000000000000000000000000C1
:102110000000000000000000000000000000003F80
:102120008000FFE001FFE003E0E00380E00380E0E7
:102130000700E00700E00700E00700E00700E00715
:1021400000E00780E00380E003C1E001FFE000FF62
:10215000E0003EE00000E00000E00000E00000E001
:102160000000E00000E000000000000000000000AF
:10217000000000000000000000000000000000FF60
:10218000C007FFC007FFC0078080070000070000EE
:102190000700000700000700000700000700000715
:1021A000000007000007000007000007000007000C
:1021B0000007000000000000000000000000000018
:1021C000000000000000000000000000000000000F
:1021D000000000000000000000000000000000FF00
:1021E0000001FF8003FF80078180070000070000D7
:1021F00007C00003F00001FE00007F00001F800008
:1022000003C00001C00001C00603C007FF8007FF34
:102210008001FE000000000000000000000000003F
:1022200000000000000000000000000000000000AE
:10223000E00000E00000E00000E00000E0000FFF30
:10224000E00FFFE00FFFE000E00000E00000E00032
:1022500000E00000E00000E00000E00000E000001E
:10226000E00000E00000E00000F020007FE0007FE0
:10227000E0001FC00000000000000000000000009F
:10228000000000000000000000000000000000004E
:102290000000000000000000000000000000070136
:1022A000C00701C00701C00701C00701C00701C086
:1022B0000701C00701C00701C00701C00701C0072F
:1022C00001C00701C00781C003C1C003FFC001FFF7
:1022D000C0007F00000000000000000000000000BF
:1022E00000000000000000000000000000000000EE
:1022F00000000000000000000000000000001C00C2
:10230000701E00F00E00E00E00E00F01E00701C0BB
:102310000701C00783C003838003838003C70001D4
:10232000C70001EF0000EE0000FE00007C00007C12
:1023300000007C0000000000000000000000000021
:10234000000000000000000000000000000000008D
:1023500000000000000000000000000000001C0061
:10236000701C00701C00701C00701C10700C38E099
:102370000E38E00E38E00E28E00E6CE00E6CE00641
:1023800044C006C6C006C7C00787C00783C007830E
:102390008003038000000000000000000000000037
:1023A000000000000000000000000000000000002D
:1023B00000000000000000000000000000001E01FE
:1023C000E00F03C007038003878003CF0001EE0006
:1023D00000FC00007C00007800007C0000FE000192
:1023E000EE0001C70003C3800783C00F01C00E01C8
:1023F000E01E00F0000000000000000000000000EF
:1024000000000000000000000000000000000000CC
:1024100000000000000000000000000000000E00AE
:10242000700F00F00700E00700E00780E00381E0A4
:102430000381C003C1C001C3C001C38001E38000A8
:10244000E78000F780007700007F00003E00003E3C
:1024500000001E00003C00003C000078000FF0006F
:102460000FF0000FC000000000000000000000009E
:10247000000000000000000000000000000007FF56
:10248000C007FFC007FFC0000380000780000F00E7
:10249000001E00001C0000380000780000F0000062
:1024A000E00001E00003C00003800007FFC007FF59
:1024B000C007FFC000000000000000000000000096
:1024C000000000000000000000000000007000009C
:1024D000E00000E00000E00000E00000E00000E0BC
:1024E0000000E00000E00000E00000E00000E0008C
:1024F00001C0000F80000F800001C00000E000005C
:10250000E00000E00000E00000E00000E00000E08B
:102510000000E00000E00000E00000E000007000CB
:10252000007F80001F80001C00001C00001C0000B9
:102530001C00001C00001C00001C00001C00001CF3
:1025400000001C00001C00001C00001C00001C00FF
:10255000001C00001C00001C00001C00001C0000EF
:102560001C00001C00001C00001C00001C00001CC3
:1025700000001C00001C00001C00001C00001C00CF
:10258000001C00001C0000FC0000FF000007000011
:1025900003800003800003800003800003800003A9
:1025A000800003800003800003800003800003801C
:1025B0000001C00000F80000F80001C00003800026
:1025C0000380000380000380000380000380000379
:1025D0008000038000038000038000038000070068
:1025E00000FF0000FC0000000001E02003F03007C5
:1025F000FC700E3FE00C0FC00407800000000000DC
:1026000000000000000000000000000000000000CA
:1026100000000000000000000000000000000000BA
:1026200000000000000000000000000000000000AA
:10263000000000000000000000000000000000009A
:10264000000000000000B93811241FBECFEFD1E216
:10265000DEBFCDBF00E00CBF25E0A4E6B4E001C0C2
:102660001D92AE39B207E1F714E0A0E0B2E0E2E378
:10267000F2E800E00BBF02C007900D92A436B1074C
:10268000D9F713E1C4E2D3E100E006C021970109C4
:10269000802FFE010E94793EC332D10780E00807F7
:1026A000A9F70E94F9290C9417410C940000089591
:1026B000CF92DF92EF92FF920F931F93CF93DF930E
:1026C0006C017A018B01C0E0D0E0CE15DF0581F00E
:1026D000D8016D918D01D601ED91FC910190F081B1
:1026E000E02DC6011995892B11F02196EECF7E01C0
:1026F000C701DF91CF911F910F91FF90EF90DF9075
:10270000CF900895FC01538D448D252F30E0842F08
:1027100090E0821B930B541710F0CF960895019709
:102720000895FC01918D828D981761F0828DDF01F3
:10273000A80FB11D5D968C91928D9F5F9F73928FB4
:1027400090E008958FEF9FEF0895FC01918D828DA9
:10275000981731F0828DE80FF11D858D90E0089576
:102760008FEF9FEF0895FC01918D228D892F90E0CE
:10277000805C9F4F821B91098F739927089586E88B
:1027800094E00E94B31321E0892B09F420E0822F0A
:102790000895FC01848DDF01A80FB11DA35ABF4F1E
:1027A0002C91848D90E001968F739927848FA68950
:1027B000B7892C93A089B1898C91837080648C93A4
:1027C000938D848D981306C00288F389E02D808153
:1027D0008F7D80830895EF92FF920F931F93CF9385
:1027E000DF93EC0181E0888F9B8D8C8D981305C061
:1027F000E889F989808185FD26C0F62E0B8D10E0D1
:102800000F5F1F4F0F731127E02E8C8DE8120CC045
:102810000FB607FCFACFE889F989808185FFF5CFEB
:10282000CE010E94C913F1CF8B8DFE01E80FF11D7F
:10283000E35AFF4FF0829FB7F8940B8FEA89FB8928
:10284000808180620AC09FB7F894EE89FF89608317
:10285000E889F98980818370806480839FBF81E0EB
:1028600090E0DF91CF911F910F91FF90EF9008952D
:10287000CF93DF93EC01888D8823C9F0EA89FB8927
:10288000808185FD05C0A889B9898C9186FD0FC01E
:102890000FB607FCF5CF808185FFF2CFA889B989F3
:1028A0008C9185FFEDCFCE010E94C913E7CFDF9158
:1028B000CF91089580E090E0892B21F00E94BF1312
:1028C000811125C080E090E0892B41F080E090E00C
:1028D000892B21F00E94000081111CC080E090E053
:1028E000892B41F080E090E0892B21F00E940000CC
:1028F000811113C080E090E0892BA1F080E090E08E
:10290000892B81F00E94000081110AC008950E9465
:102910000000D8CF0E940000E1CF0E940000EACF63
:102920000C940000089580917504909176040097AE
:1029300039F0DC01ED91FC910480F581E02D1994D2
:1029400008951092850410928404089508950895BE
:10295000089580910102811103C08FEF9FEF02C0A3
:1029600081E090E02091840430918504820F931FD0
:10297000909385048093840408950895E8E7F4E033
:10298000118210821382128215821482178216829B
:1029900011861086138612860895CF92DF92EF92E9
:1029A000FF920F931F93CF93DF938C01000F111FA2
:1029B000F801E858FB4FC081D181611103C08FEF4E
:1029C0009FEF02C081E090E0C80FD91FBE010D2E1D
:1029D000000C880B990B0E941A3D6B017C0120E0D2
:1029E00030E040E151E40E94EE3E181664F020E031
:1029F00030E0A901C701B6010E94133D87FF05C061
:102A0000C9E0D0E002C0C0E0D0E0F801E858FB4FD8
:102A1000D183C083DF91CF911F910F91FF90EF90F1
:102A2000DF90CF90089560E085E090E00C94CD14A5
:102A300061E085E090E00C94CD1460E084E090E0EB
:102A40000C94CD1461E084E090E00C94CD1460E02F
:102A500083E090E00C94CD1461E083E090E00C946E
:102A6000CD1460E082E090E00C94CD1461E082E04F
:102A700090E00C94CD1460E081E090E00C94CD14D3
:102A800061E081E090E00C94CD1460E080E090E0A3
:102A90000C94CD1461E080E090E00C94CD140F9381
:102AA0001F93CF93DF938C010A5F1F4FEC01CA5B2A
:102AB000DF4FD8018D919D918D01009751F0DC0180
:102AC000ED91FC910480F581E02D19950C171D07FF
:102AD00081F7DF91CF911F910F9108951F93CF93AD
:102AE000DF93EC0110917404112391F14889598905
:102AF00020914D0530914E0524173507BCF08C8987
:102B00009D89840F951F2817390784F44A895B89AA
:102B100020914F0530915005241735073CF08E89E0
:102B20009F89840F951F2817390714F010E010C0F3
:102B30008AA1811112C0EBA1FCA1908181E08927BB
:102B40008083E881F9810190F081E02DCE01199513
:102B50001AA3DF91CF911F910895182FF9CF1F93DA
:102B6000CF93DF93EC01109174048EA1112301F136
:102B70006889798940914D0550914E054617570750
:102B8000BCF02C893D89260F371F4217530784F468
:102B90006A897B8940914F05509150054617570728
:102BA0003CF02E893F89260F371F421753079CF0B0
:102BB000882361F01FA2E881F9810190F081E02D66
:102BC000CE011995ECA1FDA1199580E08EA3DF91AE
:102BD000CF911F9108958111F9CF81E08FA3E881F2
:102BE000F9810190F081E02DCE011995EAA1FBA1B8
:102BF0001995812FEBCF10927404089580E090E036
:102C000008950E94F940CF93DF93EC018881998168
:102C1000009711F00E948B3F198218821D821C823E
:102C20001B821A82DF91CF9108950F931F93CF9348
:102C3000DF93EC0188819981009729F02A813B81FB
:102C40002617370788F48B016F5F7F4F0E9414406F
:102C5000009761F0998388831B830A832C813D81CF
:102C6000232B11F4FC01108281E001C080E0DF9190
:102C7000CF911F910F9108954F925F926F927F9223
:102C80008F929F92AF92BF92CF92DF92EF92FF927C
:102C90000F931F93CF93DF93CDB7DEB7A0970FB6F7
:102CA000F894DEBF0FBECDBF8C0188E7682E84E0AC
:102CB000782E580186E4A80EB11C91E4C92E95E047
:102CC000D92E2501E12CF12CDE0111964D01F301E5
:102CD00080819181D2012D913C912817390759F0BB
:102CE0004AE0B4010E94983CF60191828082B701CB
:102CF000C8010E94871CD3018D919D913D01F20175
:102D0000819391932F01FFEFEF1AFF0A82E0C80E23
:102D1000D11C96E0E916F104D1F60A5F1F4FD801E5
:102D20008D919D918D01009751F0DC01ED91FC9109
:102D30000480F581E02D19950A151B0581F7A096F1
:102D40000FB6F894DEBF0FBECDBFDF91CF911F91BC
:102D50000F91FF90EF90DF90CF90BF90AF909F903A
:102D60008F907F906F905F904F900895CF92DF92F9
:102D7000EF92FF920F931F93CF93DF93EC01E091BB
:102D80007305F0917405908180917F05809589236A
:102D900080830E943B2480916D05813049F0E09151
:102DA0006F05F0917005908180917D05892B80835E
:102DB000E0916D054091640550916505609166054F
:102DC000709167058091680590916905A0916A05E9
:102DD000B0916B05E031B9F49A01AB012F5F3F4F21
:102DE0004F4F5F4FBC01CD016F5F7F4F8F4F9F4FA4
:102DF0000E940C3E9B01AC0160E070E080E090E03E
:102E00000E94D01E56C0E83021F0C12CD12C760192
:102E100022C09A01AB012F5F3F4F4F4F5F4FBC0164
:102E2000CD016F5F7F4F8F4F9F4F0E940C3EAB01D4
:102E3000BC0180E090E00E945F203BC040916D05A6
:102E4000413069F160E080E00E94B31C8FEFC81A46
:102E5000D80AE80AF80A8091640590916505A09166
:102E60006605B09167059C01AD012F5F3F4F4F4F45
:102E70005F4F8091680590916905A0916A05B091B6
:102E80006B05BC01CD016F5F7F4F8F4F9F4F0E943D
:102E90000C3EC616D706E806F90684F20AC041E0E1
:102EA00060E081E00E94B31C40916D0560E081E02C
:102EB000CBCFE0917305F0917405908180917F05EF
:102EC000892B80838E010A5F1F4FCA5BDF4FD801B9
:102ED0008D919D918D01009751F0DC01ED91FC9158
:102EE0000190F081E02D1995C017D10781F7DF918E
:102EF000CF911F910F91FF90EF90DF90CF900895A9
:102F0000EF92FF920F931F93CF93DF93CDB7DEB76E
:102F1000A0970FB6F894DEBF0FBECDBF8C014AE07C
:102F2000CE0101967C01BC018091840490918504BE
:102F30000E94983CF801EA5BFF4FF182E082C801F1
:102F40000E94B616A0960FB6F894DEBF0FBECDBF96
:102F5000DF91CF911F910F91FF90EF9008950C9406
:102F6000B616EF92FF920F931F93CF93DF93EC016E
:102F70007B018A01EFE5F5E0108211826A897B8985
:102F8000888999892E893F89260F371F4C895D8949
:102F9000480F591F0E943125F98AE88A1B8B0A8B3A
:102FA000E881F9810190F081E02DCE01DF91CF9190
:102FB0001F910F91FF90EF901994EF92FF920F9352
:102FC0001F93CF93DF93EC017B018A01EFE5F5E0DE
:102FD000108211826A897B89888999892E893F8923
:102FE000260F371F4C895D89480F591F0E943125D4
:102FF000F98AE88A1B8B0A8BE881F9810190F081BC
:10300000E02DCE01DF91CF911F910F91FF90EF90B6
:103010001994EF92FF920F931F93CF93DF93EC01DC
:103020007B018A01EFE5F5E0108211826A897B89D4
:10303000888999892E893F89260F371F4C895D8998
:10304000480F591F0E943125F98AE88A1B8B0A8B89
:10305000E881F9810190F081E02DCE01DF91CF91DF
:103060001F910F91FF90EF901994CF93DF93EC0194
:10307000EBA1FCA18081882319F08E8D9F8D02C069
:103080008C8D9D8D90935F05809360056A897B8907
:10309000888999892E893F89260F371F4C895D8938
:1030A000480F591F0E94312588A199A190935F056F
:1030B0008093600581E080938F050E9483284A8970
:1030C0005B898A8D9B8D480F591F68897989888D06
:1030D000998D680F791F8E859F85DF91CF910C9414
:1030E00043260F931F93CF93DF93EC018C8D9D8D1F
:1030F0000FE515E0F801908381836A897B898889CF
:1031000099892E893F89260F371F4C895D89480F81
:10311000591F0E9431258E8D9F8DF80190838183E8
:1031200081E080AB0E9483284A895B898A8D9B8DD0
:10313000480F591F68897989888D998D680F791F83
:10314000EE85FF8580819181DF91CF911F910F9155
:103150000C944326CF93DF93EC018FA1882319F0C1
:103160008E8D9F8D02C08C8D9D8D90935F05809379
:1031700060056A897B89888999892E893F89260F0C
:10318000371F4C895D89480F591F0E94312588A13E
:1031900099A190935F058093600581E080938F05EE
:1031A0000E9483284A895B898A8D9B8D480F591F0D
:1031B00068897989888D998D680F791F8E859F859B
:1031C000DF91CF910C944326EF92FF920F931F93C0
:1031D000CF93DF936115710511F480E01CC0411598
:1031E0005105C1F07B01EC018C819D818A01080FA2
:1031F000191FB801CE010E941516882371F328818A
:1032000039818C819D81B701820F931F0E941041EB
:103210001D830C8381E0DF91CF911F910F91FF906F
:10322000EF900895CF93DF93EC016115710561F084
:10323000FB0101900020E9F73197AF01461B570BC6
:103240000E94E418811103C0CE010E940316CE0132
:10325000DF91CF910895CF93DF93EC01FB0144817F
:103260005581608171810E94E418811103C0CE01F3
:103270000E940316CE01DF91CF9108950F931F9303
:10328000CF93DF938C01EB01FC018081918100974A
:1032900039F06881798161157105A1F40E948B3F35
:1032A00088819981F801918380838A819B819383AE
:1032B00082838C819D8195838483198218821B82ED
:1032C0001A820FC0F801428153812C813D8142173F
:1032D000530720F30E9410418C819D81F801958352
:1032E00084831D821C82DF91CF911F910F910895DD
:1032F000EF92FF920F931F93CF93DF93EC017B012B
:103300008A01BA010E941516811104C0CE010E94E3
:10331000031607C01D830C83B701888199810E9421
:103320001041CE01DF91CF911F910F91FF90EF904F
:103330000895CF93DF93EC016115710559F0FB01FE
:1033400001900020E9F73197AF01461B570B0E940F
:10335000781902C00E940316CE01DF91CF91089523
:10336000FC01808191810C948B3FFC0111821082C1
:1033700013821282158214826115710551F0FB01CE
:1033800001900020E9F73197AF01461B570B0C94D1
:1033900078190895CF92DF92EF92FF920F931F93C7
:1033A000CF93DF93CDB7DEB7AE970FB6F894DEBFFD
:1033B0000FBECDBF08E714E0D80112966D917C9145
:1033C0001397CE0189960E94B428F801608171811B
:1033D000CE0183960E94B4286BED73E0CE01019676
:1033E0000E94B519BE016D5D7F4FCE0101960E940E
:1033F0002B1967EE73E00E941219BE01675D7F4FC3
:103400000E942B196AEE73E00E9412190E94A128F3
:10341000CE0101960E94B019CE0183960E94B01988
:10342000CE0189960E94B019F801A081B18120EAED
:1034300036E841E050E00E944F3E0280F381E02DEB
:1034400020E137E2E29FA001E39F500DF29F500D73
:1034500011246A01550FEE08FF08AB01BC014C0DA9
:103460005D1D6E1D7F1DD8011496ED91FC91159781
:1034700028EE33E0E29FC001E39F900DF29F900D94
:103480001124092E000CAA0BBB0B480F591F6A1FF1
:103490007B1FF80126813781E4E6E29FC001E39FAC
:1034A000900D1124092E000CAA0BBB0B480F591FBD
:1034B0006A1F7B1FD80118962D913C911997EAE05D
:1034C000E29FC001E39F900D1124092E000CAA0B6E
:1034D000BB0B480F591F6A1F7B1FF801828593851C
:1034E000092E000CAA0BBB0B8A019B01080F191FA8
:1034F0002A1F3B1FC901B8011CA21BA21EA21DA2AC
:1035000018A61FA22AE0AE014F5F5F4F0E94A33CA6
:10351000BE016F5F7F4FCE0183960E94991962EFC3
:1035200073E0CE0101960E94B519BE016D5D7F4F1B
:10353000CE0101960E942B190E94A128CE0101966E
:103540000E94B019CE0183960E94B019AE960FB6B4
:10355000F894DEBF0FBECDBFDF91CF911F910F91C9
:10356000FF90EF90DF90CF9008958F929F92AF924F
:10357000BF92CF92DF92EF92FF920F931F93CF9360
:10358000DF93CDB7DEB7A0970FB6F894DEBF0FBEBE
:10359000CDBF7C01809100028823A1F08BEF93E0E6
:1035A0000E94E0284CE050E060E070E088E794E0A2
:1035B0000E94CA3D0E94CA199091000281E08927A9
:1035C00080930002C7010E94B61688E7882E84E027
:1035D000982E91E4C92E95E0D92E00E010E0CE019E
:1035E00001965C014AE0B501F401819191914F018E
:1035F0000E94983CF601A192B1926F01B801C701F7
:103600000E94871C0F5F1F4F0630110559F7A096C7
:103610000FB6F894DEBF0FBECDBFDF91CF911F91E3
:103620000F91FF90EF90DF90CF90BF90AF909F9061
:103630008F9008951F920F920FB60F9211240BB620
:103640000F922F933F934F935F936F937F938F933B
:103650009F93AF93BF93EF93FF9386E894E00E940C
:10366000C913FF91EF91BF91AF919F918F917F917E
:103670006F915F914F913F912F910F900BBE0F90E3
:103680000FBE0F901F9018951F920F920FB60F92BA
:1036900011240BB60F922F938F939F93EF93FF9369
:1036A000E0919604F09197048081E0919C04F09160
:1036B0009D0482FD12C0908180919F048F5F8F7363
:1036C0002091A004821751F0E0919F04F0E0EA57A6
:1036D000FB4F958F80939F0401C08081FF91EF91F4
:1036E0009F918F912F910F900BBE0F900FBE0F9057
:1036F0001F901895EF92FF920F931F93CF93DF9334
:103700007C01C4E6D4E0099119910115110599F0E5
:10371000B701D80112968D919C9113970E94074191
:10372000892B29F4109376040093750404C0B4E047
:10373000C437DB0741F780917504909176040097B8
:1037400069F0DC01ED91FC910280F381E02DDF91C5
:10375000CF911F910F91FF90EF901994DF91CF912E
:103760001F910F91FF90EF9008958091020288239E
:1037700021F089E094E00C947A1B08950E94CA1904
:103780008AE194E00E94E0284CE050E060E070E0C4
:1037900088E794E00E94DA3D81EC93E00C947A1B78
:1037A0000F931F93CF93DF93EC0120E030E0A9014A
:1037B000688179818A819B810E94EE3E1816F4F41B
:1037C0000E94A3290A851B852C853D85601B710BF2
:1037D000820B930B0E94183D9B01AC01688179819B
:1037E0008A819B810E94813E688379838A839B833F
:1037F0000E94A3296A877B878C879D8720E030E021
:10380000A901688179818A819B810E94133D1816E4
:103810008CF0EC81FD8119958E819F81A885B985F9
:1038200088839983AA83BB830E94A3296A877B87A5
:103830008C879D87DF91CF911F910F910895AF9253
:10384000BF92CF92DF92EF92FF920F931F93CF938D
:10385000DF93CDB7DEB7A0970FB6F894DEBF0FBEEB
:10386000CDBF8C01865B9F4F0E94D01B809184044A
:1038700090918504680128E4C20ED11CD6012D91D7
:103880003C91F801EA5BFF4F7F0128173907E1F00F
:103890004AE09E012F5F3F4F5901B9010E94983CB9
:1038A000D701AD92BC92F80182859385DC01ED9140
:1038B000FC910190F081E02D199580918404909104
:1038C0008504F601918380830A5F1F4FD8018D9193
:1038D0009D918D01009751F0DC01ED91FC910480E8
:1038E000F581E02D19950E151F0581F7A0960FB6ED
:1038F000F894DEBF0FBECDBFDF91CF911F910F9126
:10390000FF90EF90DF90CF90BF90AF900895FC01B3
:103910006115710519F4828593851DC061307105AB
:1039200019F48089918917C06230710519F486896C
:10393000978911C06330710519F4848D958D0BC082
:103940006430710519F482A193A105C06530710539
:1039500049F482A593A5DC01ED91FC910190F081E1
:10396000E02D19940895483009F448C118F4413005
:1039700041F00895403109F457C1413109F468C15B
:10398000089590916E05943019F5E0917705F091C6
:10399000780590918105813019F48081982B03C0BE
:1039A0008081909598239083E0917905F0917A0534
:1039B000908180918205809589238083E0917905AB
:1039C000F0917A05908180918205892B80830FC0C8
:1039D000E0916F05F091700590917D05813019F4AB
:1039E0008081982B03C08081909598239083E091EB
:1039F0007705F091780580918105908167FF02C07D
:103A0000892B02C0809589238083E0917905F0910C
:103A10007A05908180918205809589238083E09149
:103A20007905F0917A05908180918205892B8083B8
:103A3000E0917705F091780580918105908166FF8E
:103A400002C0892B02C0809589238083E09179058B
:103A5000F0917A05908180918205809589238083F9
:103A6000E0917905F0917A05908180918205892B0A
:103A70008083E0917705F0917805809181059081B0
:103A800065FF02C0892B02C0809589238083E09165
:103A90007905F0917A05908180918205809589233E
:103AA0008083E0917905F0917A059081809182057B
:103AB000892B8083E0917705F091780580918105CD
:103AC000908164FF02C0892B02C080958923808386
:103AD000E0917905F0917A05908180918205809539
:103AE00089238083E0917905F0917A059081809116
:103AF0008205892B8083E0917705F091780580918C
:103B00008105908163FF02C0892B02C080958923C3
:103B10008083E0917905F0917A059081809182050A
:103B2000809589238083E0917905F0917A059081D1
:103B300080918205892B8083E0917705F09178054B
:103B400080918105908162FF02C0892B02C080951F
:103B500089238083E0917905F0917A0590818091A5
:103B60008205809589238083E0917905F0917A051B
:103B7000908180918205892B8083E0917705F09177
:103B8000780580918105908161FF02C0892B02C078
:103B9000809589238083E0917905F0917A05908161
:103BA00080918205809589238083E0917905F09149
:103BB0007A05908180918205892B8083E091770539
:103BC000F091780580918105908160FF02C0892B7A
:103BD00002C0809589238083E0917905F0917A0570
:103BE000908180918205809589238083E091790579
:103BF000F0917A05908180918205CFC082B9E091E1
:103C00007105F0917205908180917E0580958923E0
:103C10008083E0917105F0917205908180917E051D
:103C2000892B808362B902C082B968B9E0917105BD
:103C3000F0917205908180917E0580958923808323
:103C4000E0917105F0917205908180917E05A5C08B
:103C5000A59824B3982F9071990F922B94BB9091B3
:103C60000201977E9093020190910201282F082E65
:103C7000000C330B207C332743E0359527954A957C
:103C8000E1F7292B209302019EB1947C9EB92EB1BD
:103C9000382F3C70330F330F982F9370390F807289
:103CA000082E000C990B9595879595958795830F10
:103CB000822B8EB9E0917B05F0917C0590818091FB
:103CC0008305809589238083E0917B05F0917C05B5
:103CD000908180918305892B8083E0917B05F09111
:103CE0007C05908180918305809589238083E09174
:103CF0007305F0917405908180917F0580958923EB
:103D00008083A59894B3862F8071880F892B84BBFC
:103D100080910201877E8093020120910201862F0B
:103D2000062E000C990B807C992773E0959587955A
:103D30007A95E1F7822B809302018EB1847C8EB953
:103D40008EB1962F9C70990F990F262F2370920F8A
:103D50006072062E000C770B7595679575956795C3
:103D6000690F682B6EB9E0917105F0917205908131
:103D700080917E05809589238083E0917105F09183
:103D80007205908180917E05892B8083E091730577
:103D9000F0917405908180917F05892B808308952F
:103DA0008F929F92AF92BF92CF92DF92EF92FF924B
:103DB00069017A0182B968B9CA01B90120E130E02C
:103DC00040E050E00E94303E49015A0180E090E01E
:103DD000DC0188159905AA05BB050CF034C1E091FA
:103DE0007105F0917205308120917E052095232385
:103DF0002083E0917105F0917205308120917E055C
:103E0000232B2083E0917105F09172053081209180
:103E10007E05209523232083E0917105F0917205A2
:103E2000308120917E05232B2083E0917105F09154
:103E30007205308120917E05209523232083E09117
:103E40007105F0917205308120917E05232B20832E
:103E5000E0917105F0917205308120917E052095E9
:103E600023232083E0917105F09172053081209128
:103E70007E05232B2083E0917105F091720530813E
:103E800020917E05209523232083E0917105F091F8
:103E90007205308120917E05232B2083E0917105EE
:103EA000F0917205308120917E0520952323208397
:103EB000E0917105F0917205308120917E05232BF0
:103EC0002083E0917105F0917205308120917E058B
:103ED000209523232083E0917105F09172053081B4
:103EE00020917E05232B2083E0917105F0917205CE
:103EF000308120917E05209523232083E091710558
:103F0000F0917205308120917E05232B2083E09172
:103F10007105F0917205308120917E052095232353
:103F20002083E0917105F0917205308120917E052A
:103F3000232B2083E0917105F0917205308120914F
:103F40007E05209523232083E0917105F091720571
:103F5000308120917E05232B2083E0917105F09123
:103F60007205308120917E05209523232083E091E6
:103F70007105F0917205308120917E05232B2083FD
:103F8000E0917105F0917205308120917E052095B8
:103F900023232083E0917105F091720530812091F7
:103FA0007E05232B2083E0917105F091720530810D
:103FB00020917E05209523232083E0917105F091C7
:103FC0007205308120917E05232B2083E0917105BD
:103FD000F0917205308120917E0520952323208366
:103FE000E0917105F0917205308120917E05232BBF
:103FF0002083E0917105F0917205408130917E053A
:10400000309534233083E0917105F0917205208161
:1040100030917E05322B3083E0917105F09172056D
:10402000408130917E05309534233083E0917105D5
:10403000F0917205208130917E05322B30830196FC
:10404000A11DB11DC6CED701C6018F709927AA2721
:10405000BB27892B8A2B8B2B49F1C701B60120E1A5
:1040600030E040E050E00E94303EC12CD12C76017F
:104070006C157D058E059F05CCF0E0917105F091E2
:104080007205308120917E05209523232083E091C5
:104090007105F0917205308120917E05232B2083DC
:1040A0002FEFC21AD20AE20AF20AE2CFFF90EF9093
:1040B000DF90CF90BF90AF909F908F9008958F9298
:1040C0009F92AF92BF92CF92DF92EF92FF926A01DE
:1040D0007B0182B9CB01BA0120E130E040E050E041
:1040E0000E94303E49015A0180E090E0DC018815D1
:1040F0009905AA05BB050CF064C2E0917105F09129
:104100007205308120917E05209523232083E09144
:104110007105F0917205308120917E05232B20835B
:10412000E0917105F0917205308120917E05209516
:1041300023232083E0917105F09172053081209155
:104140007E05232B2083E0917105F091720530816B
:1041500020917E05209523232083E0917105F09125
:104160007205308120917E05232B2083E09171051B
:10417000F0917205308120917E05209523232083C4
:10418000E0917105F0917205308120917E05232B1D
:104190002083E0917105F0917205308120917E05B8
:1041A000209523232083E0917105F09172053081E1
:1041B00020917E05232B2083E0917105F0917205FB
:1041C000308120917E05209523232083E091710585
:1041D000F0917205308120917E05232B2083E091A0
:1041E0007105F0917205308120917E052095232381
:1041F0002083E0917105F0917205308120917E0558
:10420000232B2083E0917105F0917205308120917C
:104210007E05209523232083E0917105F09172059E
:10422000308120917E05232B2083E0917105F09150
:104230007205308120917E05209523232083E09113
:104240007105F0917205308120917E05232B20832A
:10425000E0917105F0917205308120917E052095E5
:1042600023232083E0917105F09172053081209124
:104270007E05232B2083E0917105F091720530813A
:1042800020917E05209523232083E0917105F091F4
:104290007205308120917E05232B2083E0917105EA
:1042A000F0917205308120917E0520952323208393
:1042B000E0917105F0917205308120917E05232BEC
:1042C0002083E0917105F0917205308120917E0587
:1042D000209523232083E0917105F09172053081B0
:1042E00020917E05232B2083E0917105F0917205CA
:1042F000308120917E05209523232083E091710554
:10430000F0917205308120917E05232B2083E0916E
:104310007105F0917205308120917E05209523234F
:104320002083E0917105F0917205308120917E0526
:10433000232B2083E0917105F0917205308120914B
:104340007E05209523232083E0917105F09172056D
:10435000308120917E05232B2083E0917105F0911F
:104360007205308120917E05209523232083E091E2
:104370007105F0917205308120917E05232B2083F9
:10438000E0917105F0917205308120917E052095B4
:1043900023232083E0917105F091720530812091F3
:1043A0007E05232B2083E0917105F0917205308109
:1043B00020917E05209523232083E0917105F091C3
:1043C0007205308120917E05232B2083E0917105B9
:1043D000F0917205308120917E0520952323208362
:1043E000E0917105F0917205308120917E05232BBB
:1043F0002083E0917105F0917205308120917E0556
:10440000209523232083E0917105F091720530817E
:1044100020917E05232B2083E0917105F091720598
:10442000308120917E05209523232083E091710522
:10443000F0917205308120917E05232B2083E0913D
:104440007105F0917205308120917E05209523231E
:104450002083E0917105F0917205308120917E05F5
:10446000232B2083E0917105F0917205308120911A
:104470007E05209523232083E0917105F09172053C
:10448000308120917E05232B2083E0917105F091EE
:104490007205308120917E05209523232083E091B1
:1044A0007105F0917205308120917E05232B2083C8
:1044B000E0917105F0917205308120917E05209583
:1044C00023232083E0917105F091720530812091C2
:1044D0007E05232B2083E0917105F09172053081D8
:1044E00020917E05209523232083E0917105F09192
:1044F0007205308120917E05232B2083E091710588
:10450000F0917205308120917E0520952323208330
:10451000E0917105F0917205308120917E05232B89
:104520002083E0917105F0917205308120917E0524
:10453000209523232083E0917105F091720530814D
:1045400020917E05232B2083E0917105F091720567
:10455000308120917E05209523232083E0917105F1
:10456000F0917205308120917E05232B2083E0910C
:104570007105F0917205408130917E0530953423AC
:104580003083E0917105F0917205208130917E05B4
:10459000322B3083E0917105F091720540813091AA
:1045A0007E05309534233083E0917105F0917205DA
:1045B000208130917E05322B30830196A11DB11DE3
:1045C00096CDD701C6018F709927AA27BB27892BC3
:1045D0008A2B8B2BE1F1C701B60120E130E040E0EE
:1045E00050E00E94303EC12CD12C76016C157D0527
:1045F0008E059F0564F1E0917105F091720530819F
:1046000020917E05209523232083E0917105F09170
:104610007205308120917E05232B2083E091710566
:10462000F0917205308120917E052095232320830F
:10463000E0917105F0917205308120917E05232B68
:1046400020832FEFC21AD20AE20AF20ACFCFFF90DC
:10465000EF90DF90CF90BF90AF909F908F90089594
:1046600090E0FC01E450FE4F2491FC01E45AFD4F20
:104670008491882399F090E0880F991FFC01E456FB
:10468000FE4FA591B491FC01EE5BFD4F8591949195
:104690008FB7F894EC91E22BEC938FBF0895682FBD
:1046A00080916D058130A9F0E0916F05F091700562
:1046B000908180917D0580958923808381E080931E
:1046C000900540916D0580E00E94B31C109290050A
:1046D000089541E080E00C94B31CCF9390916D0558
:1046E000913061F0E0916F05F0917005208190911B
:1046F0007D05922B908340916D050AC0C62F682FCF
:1047000041E081E00E94B31C40916D056C2F81E077
:10471000CF910C94B31C682F80916D058130A1F06E
:10472000E0916F05F0917005908180917D05892B56
:10473000808381E08093900540916D0580E00E9428
:10474000B31C10929005089541E081E00C94B31CD5
:10475000CF92DF92EF92FF920F931F93CF93DF934D
:104760008C01D62EC72EEA01F22EE32E809163052E
:10477000813089F480916805909169059C01201B26
:10478000310B841B950BCF2DDE2DF22EE32E062F41
:10479000172FD82EC92E80916C058F31D1F190F54D
:1047A0008930B9F150F5813009F05CC08AE20E948D
:1047B0004F23612F80E00E946D23602F80E00E94D4
:1047C0006D236D2F80E00E946D236C2F80E00E948E
:1047D0006D238BE20E944F236C2D80E00E946D239D
:1047E0006D2D80E00E946D236E2D80E00E946D2370
:1047F0006F2D80E00E946D232AC0853151F08931F0
:1048000041F030C0813229F020F0823211F0833241
:1048100049F58AE20E944F23812F0E948B23802F2B
:104820000E948B238D2F0E948B238C2F0E948B2321
:104830008BE20E944F238C2D0E948B238D2D0E9492
:104840008B238E2D0E948B238F2D0E948B238CE235
:10485000DF91CF911F910F91FF90EF90DF90CF905C
:104860000C944F23DF91CF911F910F91FF90EF9008
:10487000DF90CF9008952091630580916805909115
:1048800069054091640550916505211102C09C01A4
:1048900002C09A01AC0160E070E080E090E00C940E
:1048A000A8230F931F93CF93DF93EA0157FF05C00F
:1048B000840F951FD195C195D109E0917305F091B1
:1048C0007405308120917F05209523232083AC013E
:1048D0004C0F5D1F9B010E94A82380916D058031C4
:1048E000B1F4E0916F05F0917005908180917D05A4
:1048F000892B80839E01DD0F440B550B6091600571
:1049000070E080915F0590E00E94D01E28C0883042
:10491000C9F490915F0580916005981313C0E091F0
:104920006F05F0917005908180917D05892B8083C2
:10493000AE01DD0F660B770B80915F0590E00E9462
:104940005F200DC000E010E06091600580915F0580
:104950000E946D230F5F1F4FC017D107ACF7E09186
:104960007305F0917405908180917F05892B808378
:10497000DF91CF911F910F910C943B240F931F93C4
:10498000CF93DF93FC01EA0157FF05C0640F751F49
:10499000D195C195D109A0917305B09174052C9161
:1049A00090917F05909592239C939B012C0F3D1F26
:1049B000AF01CF010E94A82380916D058031B1F431
:1049C000E0916F05F0917005908180917D05892BB4
:1049D00080839E01DD0F440B550B6091600570E0F4
:1049E00080915F0590E00E94D01E28C08830C9F4F5
:1049F00090915F0580916005981313C0E0916F0559
:104A0000F0917005908180917D05892B8083AE01A6
:104A1000DD0F660B770B80915F0590E00E945F20B1
:104A20000DC000E010E06091600580915F050E947C
:104A30006D230F5F1F4FC017D107ACF7E0917305CF
:104A4000F0917405908180917F05892B8083DF919F
:104A5000CF911F910F910C943B24682F892F0C94B8
:104A60006D238F929F92AF92BF92CF92DF92EF927F
:104A7000FF920F931F93CF93DF936C017B01EA01A9
:104A80008901481759072CF4982F8D2D6A01C92FD9
:104A9000D82F0E151F052CF49E2D8F2D7801092F70
:104AA000182F80916D05803109F040C0E0917305A9
:104AB000F0917405908180917F0580958923808392
:104AC0009801AE01B701C6010E94A823E0916F05CD
:104AD000F0917005908180917D05892B8083CC19A0
:104AE000DD09CE01DD0FAA0BBB0B9C01AD012F5FD1
:104AF0003F4F4F4F5F4FB8016E197F09CB01770FC2
:104B0000AA0BBB0BBC01CD016F5F7F4F8F4F9F4F37
:104B10000E940C3E9B01AC01E09160056E2F70E09D
:104B200080915F0590E00E94D01E44C0883009F05B
:104B30004BC090915F0580916005981345C0E0914E
:104B40007305F0917405908180917F05809589238C
:104B500080839801AE01B701C6010E94A823E091AD
:104B60006F05F0917005908180917D05892B808380
:104B7000CC19DD09CE01DD0FAA0BBB0B9C01AD01E9
:104B80002F5F3F4F4F4F5F4FB8016E197F09CB0129
:104B9000770FAA0BBB0BBC01CD016F5F7F4F8F4F0F
:104BA0009F4F0E940C3EAB01BC0180915F0590E0DD
:104BB0000E945F20E0917305F091740590818091CF
:104BC0007F05892B80834AC080916305811123C0B2
:104BD0005801AE18BF08B7FE03C08FEFA81AB80A75
:104BE000B594A794812C912CCC19DD09A814B90493
:104BF000ACF1B701680D791DAE01C6010E945124C8
:104C0000B80168197909AE01C6010E9451248FEFDD
:104C1000881A980AEBCF4E018C189D0897FE03C0A6
:104C20008FEF881A980A95948794A12CB12C0E19AD
:104C30001F098A149B0494F0A801B701C6018A0DCC
:104C40009B1D0E94BE24A801B701CE018A199B09B1
:104C50000E94BE248FEFA81AB80AEBCFDF91CF9144
:104C60001F910F91FF90EF90DF90CF90BF90AF908A
:104C70009F908F90089542E050E061E674E086E8EE
:104C800094E00C9458132F923F924F925F926F9240
:104C90007F928F929F92AF92BF92CF92DF92EF92CC
:104CA000FF920F931F93CF93DF93CDB7DEB72C976F
:104CB0000FB6F894DEBF0FBECDBF8C017C876B872B
:104CC0002A01FC0101900020E9F731971F01281A01
:104CD000390A80916305811126C06F307742A1F4B3
:104CE000809164059091650501969A83898320914E
:104CF0008B05229DC001239D900D1124E981FA812D
:104D0000E81BF90BFC87EB872B853C852E3037425F
:104D100009F04BC08091640590916505A0916605EE
:104D2000B091670526C0EB85FC85EF30F742A1F412
:104D3000809168059091690501969A8389832091F5
:104D40008B05229DC001239D900D1124E981FA81DC
:104D5000E81BF90BFC87EB872B853C852E3037420F
:104D600021F58091680590916905A0916A05B0913F
:104D70006B050196A11DB11D20918B05229D60013F
:104D8000239DD00C11240D2C000CEE08FF08BC0153
:104D9000CD016C197D098E099F0922E030E040E0C9
:104DA00050E00E94303E3C872B8718870F831C827F
:104DB0001B82EB81FC81E215F3050CF08BC1809125
:104DC0008B058E9F30018F9F700C11242B853C85A5
:104DD000620E731EEF81F8850191F887EF83E091F1
:104DE0007305F0917405908180917F0580958923EA
:104DF000808320918F0580918B0590918C0510E028
:104E00002111DDC020916305211164C09201290F99
:104E1000311D21503109A301480F511D4150510945
:104E2000B201C3010E94A82380918B0586958695C7
:104E3000869590918C0520918D05021B1109899F03
:104E4000C0011124089F7001099FF00C189FF00CFD
:104E50001124F4E0EF0EF11CA12CB12C80918B05F4
:104E600086958695869590918C05899FC001112421
:104E7000A816B90608F01DC1E0918905F0918A05D0
:104E8000EE0DFF1DE49197E0C92ED12C0E2F10E0FE
:104E9000C8010C2C02C0959587950A94E2F780FF13
:104EA00005C080915F059091600504C08091610507
:104EB000909162059827892798270E942D2521E047
:104EC000C21AD10828F78FEFE81AF80A9FEFA91A3B
:104ED000B90AC4CF86958695869520918D05021BCB
:104EE0001109899FC0011124089F6001099FD00CFE
:104EF000189FD00C1124E4E0CE0ED11C812C912CF3
:104F000020918B05622F66956695669580918C053C
:104F1000689FC00111248816990608F0CAC070E085
:104F2000C4010E941C3E640D751DA301420F511D5A
:104F3000415051099B01C3010E94A82300918B0598
:104F400006950695069510E00150110968F1E0916B
:104F50008905F0918A05C8018C0D9D1DE80FF91F88
:104F6000E491A12CB12CEE2EF12CC7010A2C02C029
:104F7000959587950A94E2F780FF05C080915F05BB
:104F80009091600504C08091610590916205982719
:104F9000892798270E942D252FEFA21AB20A38E000
:104FA000A316B10411F7D0CF80918B058695869515
:104FB000869590E0C80ED91E880E991EA1CF8695C1
:104FC0008695869520918D05021B1109899FC00148
:104FD0001124089F9001099F300D189F300D112456
:104FE000C90104969A838983820180918C0590E09F
:104FF0009801241935092817390708F05AC04301C8
:10500000C12CD12CF8013196FA87E98780918B0564
:1050100086958695869590E0C816D9060CF040C016
:10502000E0918905F0918A0589819A818C0D9D1DF9
:10503000E80FF91FE491740187E0A82EB12C2E2F00
:1050400030E03E832D838D819E810A2C02C0959590
:1050500087950A94E2F780FF12C029853A85A70157
:105060004F5F5F4FB801C7010E94A82380915F0581
:10507000909160059827892798270E942D2531E077
:10508000A31AB1088FEFE81AF80A9FEFA916B9061C
:10509000D1F6EFEFCE1ADE0AF8E08F0E911CB6CFF4
:1050A00029813A81280F391F3A8329830F5F1F4FC7
:1050B0009CCFE0917305F0917405908180917F05FC
:1050C000892B80830E943B248B819C8101969C8349
:1050D0008B836FCE2C960FB6F894DEBF0FBECDBF7C
:1050E000DF91CF911F910F91FF90EF90DF90CF90C4
:1050F000BF90AF909F908F907F906F905F904F90F8
:105100003F902F900895AFE5B5E0E2EAF2E09B967C
:10511000FC93EE939A97E4919C96EC939C97E3EA28
:10512000F2E0E4919D96EC939D97E4EAF2E0E4913D
:105130009E96EC939E97E5EAF2E0E4919F96EC93BD
:105140000895CF93DF93FC01448155816081718183
:1051500086E894E00E945813EC010E943B268C0FD5
:105160009D1FDF91CF9108950F931F93CF93DF93EE
:10517000CDB7DEB762970FB6F894DEBF0FBECDBFD6
:105180008C01CB01F80111821082138212821582E8
:1051900014824AE0BE016F5F7F4F0E94983CBE01BF
:1051A0006F5F7F4FC8010E94991962960FB6F894FD
:1051B000DEBF0FBECDBFDF91CF911F910F9108953C
:1051C000CF93DF93009779F0FC0101900020E9F77D
:1051D0003197AF01481B590BBC0186E894E00E944F
:1051E0005813EC0102C0C0E0D0E00E943B268C0FB7
:1051F0009D1FDF91CF910895CF93DF931F921F9250
:10520000CDB7DEB769831A8241E050E0BE016F5F1F
:105210007F4F0E94E4180F900F90DF91CF91089577
:105220000F931F930E94A32960938E0470938F04A1
:10523000809390049093910486E894E00E949113E7
:1052400097FF1FC00E94A32900918E0410918F0424
:105250002091900430919104DC01CB01801B910BD3
:10526000A20BB30B00918A0410918B0420918C0443
:1052700030918D0480179107A207B307E8F28FEFF2
:105280009FEF1F910F9108953FB7F8948091960575
:1052900090919705A0919805B091990526B5A89B86
:1052A00005C02F3F19F00196A11DB11D3FBFBA2FB8
:1052B000A92F982F8827820F911DA11DB11DBC0118
:1052C000CD0142E0660F771F881F991F4A95D1F7DD
:1052D00008958F929F92AF92BF92CF92DF92EF92FA
:1052E000FF926B017C010E9444294B015C01C114B7
:1052F000D104E104F104F1F00E944429DC01CB0166
:1053000088199909AA09BB09883E9340A105B105EE
:1053100070F321E0C21AD108E108F10888EE880E86
:1053200083E0981EA11CB11CC114D104E104F10456
:1053300019F7DDCFFF90EF90DF90CF90BF90AF9047
:105340009F908F9008952FB7F89460919205709177
:10535000930580919405909195052FBF08951F9214
:105360000F920FB60F9211242F933F938F939F9319
:10537000AF93BF938091920590919305A09194056E
:10538000B09195053091910523E0230F2D3720F43E
:105390000196A11DB11D05C026E8230F0296A11D8F
:1053A000B11D209391058093920590939305A0934E
:1053B0009405B09395058091960590919705A091DD
:1053C0009805B09199050196A11DB11D8093960590
:1053D00090939705A0939805B0939905BF91AF91CD
:1053E0009F918F913F912F910F900FBE0F901F9023
:1053F0001895CF93DF93CDB7DEB768970FB6F894C3
:10540000DEBF0FBECDBF789484B5826084BD84B505
:10541000816084BD85B5826085BD85B5816085BDAF
:1054200080916E00816080936E0010928100809167
:1054300081008260809381008091810081608093EF
:105440008100809180008160809380008091B10014
:1054500084608093B1008091B00081608093B0003F
:105460008091910082608093910080919100816091
:105470008093910080919000816080939000809152
:10548000A10082608093A1008091A100816080933F
:10549000A1008091A00081608093A00080912101F3
:1054A000826080932101809121018160809321019C
:1054B0008091200181608093200180917A00846036
:1054C00080937A0080917A00826080937A00809144
:1054D0007A00816080937A0080917A00806880935E
:1054E0007A001092C100E0919604F091970482E056
:1054F0008083E0919204F09193041082E0919404EF
:10550000F09195048FEC808310929E04E0919A04B0
:10551000F0919B0486E08083E0919804F0919904D7
:10552000808180618083E0919804F091990480816A
:1055300088608083E0919804F0919904808180686C
:105540008083E0919804F091990480818F7D80831D
:105550008FE293E00E94E028E1E3F5E0A4E6B4E006
:10556000819191918D939D9385E0E134F807C1F786
:1055700081E080936305809184050E9430238091AF
:1055800085050E943023809186050E9430238091FA
:1055900087058F3F11F00E94302390916D05913166
:1055A00059F080916C058052833030F0913041F495
:1055B00080916E05853021F4809188050E9430230A
:1055C00080916D05813079F0813131F09FEF91B993
:1055D000803149F497B907C088E18093010180E2E6
:1055E00083BB8BE38DB9E0917505F09176059081D1
:1055F00080918005892B808365E070E080E090E0F9
:105600000E946929E0917505F0917605908180915D
:1056100080058095892380836FE070E080E090E0D2
:105620000E946929E0917505F0917605908180913D
:105630008005892B80836FE070E080E090E00E941D
:105640006929E0917305F0917405908180917F053F
:1056500080958923808380916C058F3109F492C2F3
:1056600008F0F1C0893009F419C208F0E5C08130B2
:1056700009F0C3C489EE0E944F2360E280E00E94DB
:105680006D2381E10E944F2364E670E080E090E0AA
:105690000E94692981ED0E944F2360E080E00E9412
:1056A0006D2361E780E00E946D2369E180E00E9444
:1056B0006D2380ED0E944F2367E080E00E946D2300
:1056C00061E080E00E946D2368E080E00E946D232D
:1056D00086E30E944F2368E480E00E946D238AE302
:1056E0000E944F2365E080E00E946D2381EC0E94C0
:1056F0004F2360E180E00E946D2360E180E00E9422
:105700006D2362E080E00E946D2362E080E00E94F1
:105710006D2380EC0E944F2360E080E00E946D23A7
:1057200065E380E00E946D2360E080E00E946D23CD
:1057300060E080E00E946D2361E080E00E946D23C4
:1057400062E080E00E946D2385EC0E944F2364E0BC
:1057500080E00E946D2382ED0E944F2361E080E093
:105760000E946D2364E480E00E946D2388EC0E9417
:105770004F2364E080E00E946D2367E680E00E9492
:105780006D2365E380E00E946D2364E080E00E9469
:105790006D2368E080E00E946D2366E080E00E9457
:1057A0006D2364E280E00E946D2361E080E00E944E
:1057B0006D2367E380E00E946D2360E480E00E9437
:1057C0006D2363E080E00E946D2360E180E00E9431
:1057D0006D2368E080E00E946D2360E880E00E9415
:1057E0006D2360E080E00E946D238AE20E944F23D7
:1057F00060E080E00E946D2360E080E00E946D2305
:1058000060E080E00E946D236FEE80E00E946D23D7
:105810008BE20E944F2360E080E00E946D2360E0F5
:1058200080E00E946D2361E080E00E946D236FE8BC
:1058300080E00E946D23ADC3853109F4AFC2893188
:1058400009F41AC3DAC3813209F416C308F414C385
:10585000823209F471C0833209F0CFC381E10E9422
:105860004F2364E170E080E090E00E94692980EDC0
:105870000E944F2387E00E948B2382E40E948B23A7
:1058800088E10E948B2381ED0E944F2380E00E94DB
:105890008B2387E00E948B2380E10E948B2382ED83
:1058A0000E944F2381E00E948B2382E00E948B2381
:1058B00080EC0E944F2380E10E948B238BE30E94A7
:1058C0008B2380E00E948B2382E00E948B2381E166
:1058D0000E948B2385EC0E944F2383E00E948B2340
:1058E00088EC0E944F2380E00E948B2382E30E9479
:1058F0008B2386E30E948B2385E40E948B2386E022
:105900000E948B2386E10E948B2387E30E948B23D6
:1059100085E70E948B2387E70E948B2384E50E9402
:105920008B238CE00E948B2380E00E948B2386E3F4
:105930000E944F238AE432C380EE0E944F2380E00E
:105940000E948B2387E00E948B2380E10E948B239F
:1059500089E00E948B2387E10E948B238BE00E94C9
:105960008B2380E40E948B238AE80E948B238BE4A4
:105970000E948B238AE00E948B238DE00E948B2360
:105980008FE00E948B2385E10E948B2386E10E9499
:105990008B238FE00E948B2381EE0E944F2380E0B7
:1059A0000E948B238AE10E948B238BE10E948B2330
:1059B00082E00E948B238DE00E948B2385E00E9471
:1059C0008B2380E30E948B2385E30E948B2383E457
:1059D0000E948B2382E00E948B238AE00E948B230B
:1059E00089E00E948B2382E30E948B2386E30E943E
:1059F0008B238FE00E948B2381EB0E944F2380EA50
:105A00000E948B2384EB0E944F2382E00E948B2311
:105A100080EC0E944F2387E10E948B2385E10E9446
:105A20008B2381EC0E944F2381E40E948B2385EC21
:105A30000E944F2380E00E948B238AE00E948B23E8
:105A400080E80E948B2386EB0E944F2382E00E9415
:105A50008B2386E30E944F2388E40E948B238AE3F2
:105A60000E944F2385E50E948B2389EE0E944F23DD
:105A700080E00E948B2387EF0E944F2389EA0E94D7
:105A80008B2381E50E948B238CE20E948B2382E88A
:105A90000E948B2381E10E944F23A6C281E10E94D4
:105AA0004F236CE070E080E090E00E94692981EB78
:105AB0000E944F2381E00E948B238CE20E948B2363
:105AC0008DE20E948B2382EB0E944F2381E00E9493
:105AD0008B238CE20E948B238DE20E948B2383EB2D
