:100000000C9412130C9443130C9443130C94431349
:100010000C9443130C9443130C9443130C94431308
:100020000C9443130C9443130C9443130C944313F8
:100030000C9443130C9443130C9443130C944313E8
:100040000C9443130C9443130C9443130C944313D8
:100050000C9443130C9443130C9443130C94FC27FB
:100060000C9443130C94681A0C943E1A0C9443138A
:100070000C9443130C9443130C9443130C944313A8
:100080000C9443130C9443130C9443130C94431398
:100090000C9443130C9443130C9443130C94431388
:1000A0000C9443130C9443130C9443130C94431378
:1000B0000C9443130C9443130C9443130C94431368
:1000C0000C9443130C9443130C9443130C94431358
:1000D0000C9443130C9443130C9443130C94431348
:1000E0000C9443130C94D91A0C9419150C949D3646
:1000F0000C940A150C94E7140C94AE140C948B1702
:100100000C94A1130C94F6140C94DD140C94451368
:100110000C94021A0C94F1140C9431170C94BF1522
:100120000C942F170C94FB140C9426140C94331776
:100130000C940F150C947E150C9400150C948F14D0
:100140000C9470130C9481140C94D9130C94EC142B
:100150000C94E2140C9493130C9446130C94DD1A33
:100160000C9414150C947F130C9438150C94DF1711
:100170000C945F170C9405151820205F00000000F8
:10018000000000000000000000000000000000006F
:10019000000000000000000000000000000000005F
:1001A000000000000000000000000000000000004F
:1001B000000000000000000000000000000000003F
:1001C000000000000000000000000000000000002F
:1001D000000000000000000000000000000000001F
:1001E0001C00001C00001C00001C00001C00001C67
:1001F00000001C00001C00001C00001C00001C0073
:10020000001C00001C00001C00001C000018000066
:100210000000000000000000001C00003E00003E46
:1002200000003E00001C0000000000000000000074
:1002300000000000000000000000000000000001BD
:10024000C0E003E1F003E1F003E1F001E0F000E0E1
:100250007001C0E003C1E00F87C00E07000000007E
:10026000000000000000000000000000000000008E
:10027000000000000000000000000000000000007E
:10028000000000000000000000000000000000006E
:10029000000000000000000000000000000000005E
:1002A00000000038700038700070E00070E00070EE
:1002B000E00070E00FFFF80FFFF80FFFF800E1C05B
:1002C00000E1C000E1C001C38001C38001C3800F11
:1002D000FFF80FFFF80FFFF803870003870003877D
:1002E00000038700070E00070E000000000000005A
:1002F00000000000000000000000000000000000FE
:100300003800003800003800003800007F0001FF8E
:10031000C003FFC00780800700000700000700003F
:1003200007800003C00003F80001FE00007F80008A
:100330000FC00003C00001E00000E00000E000008A
:10034000E00201C007FFC007FF8001FE0000380087
:1003500000380000380000380000000000000007EE
:1003600080700FC0E00CC0E01861C0186380186393
:1003700080186700186700186E000CDC000FDC00A6
:1003800007B800003BC00077E000766000EC300169
:10039000CC3001CC30038C30038C30070C300E068F
:1003A000600E07E01C03C000000000000000000019
:1003B000000000000000000000000000000000003D
:1003C0007C0000FF0001FF0003C7800383800383DC
:1003D0008003838003870001CF0001FE0000FC0042
:1003E00001F07003F87003BC70071E600E0FE00E82
:1003F00007E00E03C00E01C00F03E0078FE007FF08
:100400007003FE7000F838000000000000000000DB
:1004100000000000000000000000000000000000DC
:100420001800003C00001E00000E00000700000243
:1004300000000000000000000000000000000000BC
:1004400000000000000000000000000000000000AC
:10045000000000000000000000000000000000009C
:10046000000000000000000000000000000000008C
:100470000000000000000000000000000007000075
:100480000F80000F00001E00003C000038000070CC
:100490000000700000E00000E00000E00001C0008B
:1004A00001C00001C00001C00001C00001C0000186
:1004B000C00001C00001C00000E00000E00000E05A
:1004C00000007000007000003800003C00001E00BA
:1004D000000F000007800003000001000060000022
:1004E000F000007800003C00001E00000E00000735
:1004F000000007000003800003800003800001C0AB
:100500000001C00001C00001C00001C00001C00026
:1005100001C00001C00001C000038000038000038F
:1005200080000700000700000E00001E00003C00D5
:1005300000780000F00000600000400000000000B3
:1005400000000000000000000000000000000000AB
:1005500000001C00001C00001C00021C2003C9E05D
:1005600007FFF001FFC0001C00003600007700000C
:10057000F38001E3C000E3800041000000000000C0
:10058000000000000000000000000000000000006B
:10059000000000000000000000000000000000005B
:1005A00000000000000000000000000038000038DB
:1005B0000000380000380000380000380000380023
:1005C0000FFFE00FFFE00FFFE000380000380000F1
:1005D0003800003800003800003800003800000003
:1005E000000000000000000000000000000000000B
:1005F00000000000000000000000000000000000FB
:1006000000000000000000000000000000000000EA
:1006100000000000000000000000000000000000DA
:1006200000000000000000000000000000000000CA
:100630000000000000000000000000000E00001F8D
:1006400000001F00001F00000F00000700000E0048
:10065000001C000078000070000000000000000096
:10066000000000000000000000000000000000008A
:10067000000000000000000000000000000000007A
:1006800000FF0000FF0000FF00000000000000006D
:10069000000000000000000000000000000000005A
:1006A000000000000000000000000000000000004A
:1006B000000000000000000000000000000000003A
:1006C000000000000000000000000000000000002A
:1006D000000000000000000000000000000000001A
:1006E000000000000000000000000000000000000A
:1006F0000000000000000000000000000000001CDE
:1007000000003E00003E00003E00001C0000000013
:100710000000000000000000000000000001C00018
:10072000038000038000038000070000070000072B
:1007300000000E00000E00000E00000E00001C0065
:10074000001C00001C0000380000380000380000C9
:10075000700000700000700000E00000E00000E0A9
:100760000000E00001C00001C00001C000038000E3
:100770000380000380000700000700000000000065
:100780000000007C0001FF0003FF8003C780078397
:10079000C00701C00701C00E00E00E00E00E30E00F
:1007A0000E78E00E78E00E78E00E30E00E00E00EFD
:1007B00000E00E00E00701C00701C00783C003C7C7
:1007C0008003FF8001FF00007C00000000000000AB
:1007D0000000000000000000000000000000000019
:1007E0000000001C00001C00007C0000FC0003FC5A
:1007F00000079C00021C00001C00001C00001C00E4
:10080000001C00001C00001C00001C00001C00005C
:100810001C00001C00001C00001C00001C00001C30
:100820000003FFC003FFC003FFC000000000000082
:1008300000000000000000000000000000000000B8
:10084000000000FC0003FF0007FF800787C00203D1
:10085000C00001C00001C00001C00001C000038051
:10086000000780000700000E00001C000038000098
:10087000700000E00001C00003800003800007005A
:100880000007FFE007FFE007FFE0000000000000B6
:100890000000000000000000000000000000000058
:1008A000000001FC000FFF000FFF8006078000031F
:1008B000C00001C00001C00001C00003C0000780EB
:1008C00000FF0000FF0000FF800007C00001E00003
:1008D00000E00000E00000E00000E00001E00403B0
:1008E000C00FFF800FFF0003FC00000000000000AD
:1008F00000000000000000000000000000000000F8
:100900000000000780000F80001F80003F80003B38
:100910008000738000F38001E38001C38003838043
:100920000383800703800F03800E03801E03801F54
:10093000FFF01FFFF01FFFF00003800003800003A3
:10094000800003800003800003800000000000009E
:100950000000000000000000000000000000000097
:10096000000003FF8003FF8003FF800300000300FB
:100970000003000003000007000007000007F0006C
:1009800007FE0007FF00001F800007800003C00073
:1009900001C00001C00001C00001C00003C00C077D
:1009A000800FFF000FFE0003F800000000000000B1
:1009B0000000000000000000000000000000000037
:1009C00000000003C0001FC0007FC000FC0001E069
:1009D0000003C000038000070000070000067E003F
:1009E0000FFF800FFFC00F03C00E01E00E00E00EEE
:1009F00000E00E00E00E00E00700E00701C007C3C2
:100A0000C003FF8001FF00007E0000000000000026
:100A100000000000000000000000000000000000D6
:100A200000000FFFE00FFFE00FFFE00000E000011B
:100A3000C0000380000380000700000700000E00D4
:100A4000000E00001C00001C0000380000380000F0
:100A5000380000700000700000700000700000E0BE
:100A60000000E00000E00000E000000000000000E6
:100A70000000000000000000000000000000000076
:100A80000000007C0001FF0003FF8003C7C00703D4
:100A9000C00701C00701C00701C00781C003C380B0
:100AA00003F70001FE0001FF8003CFC00703C0066B
:100AB00001E00E00E00E00E00E00E00F01E0078311
:100AC000C007FFC003FF8000FE0000000000000020
:100AD0000000000000000000000000000000000016
:100AE000000000FC0001FF0003FF800787C0070132
:100AF000C00E01C00E00E00E00E00E00E00E00E0AF
:100B00000F00E00781E007FFE003FFE000FEE000E8
:100B100001C00001C00003C0000780000F00007E7C
:100B20000007FC0007F80007C000000000000000FC
:100B300000000000000000000000000000000000B5
:100B400000000000000000000000000000000000A5
:100B500000000000003800007C00007C00007C00E9
:100B6000003800000000000000000000000000004D
:100B70000000000000000000003800007C00007C45
:100B800000007C00003800000000000000000000B1
:100B90000000000000000000000000000000000055
:100BA0000000000000000000000000000000000045
:100BB00000000000003800007C00007C00007C0089
:100BC00000380000000000000000000000000000ED
:100BD0000000000000000000003800007C00007CE5
:100BE00000007C00003C00001C0000380000700089
:100BF00001E00001C0000000000000000000000053
:100C000000000000000000000000000000000000E4
:100C1000000000000000400001E0000FE0003FC0C5
:100C200000FE0003F8000FC0000F00000FC0000717
:100C3000F80000FE00003FC0000FE00001E00000EF
:100C40004000000000000000000000000000000064
:100C50000000000000000000000000000000000094
:100C60000000000000000000000000000000000084
:100C7000000000000000000000000FFFE00FFFE098
:100C80000FFFE00000000000000000000000000076
:100C900000000FFFE00FFFE00FFFE000000000008A
:100CA0000000000000000000000000000000000044
:100CB0000000000000000000000000000000000034
:100CC0000000000000000000000000000000000024
:100CD000000000000400000F00000FE00007F80013
:100CE00000FE00003F800007E00001E00007E00098
:100CF0003FC000FE0007F8000FE0000F00000400F6
:100D000000000000000000000000000000000000E3
:100D100000000000000000000000000000000000D3
:100D2000FE0003FF8003FFC00103E00000E00000BD
:100D3000E00000E00000E00001C0000380000700C8
:100D4000000E00001C00003C0000380000380000CD
:100D50000000000000000000003800007C00007C63
:100D600000007C00003800000000000000000000CF
:100D70000000000000000000000000000000000073
:100D80003F0000FF8001FFC001E1E00380E003803D
:100D9000700700700700700707F00E1FF00E3FF09D
:100DA0000E3C700E78700E70700E70700E70700EBB
:100DB00070700E78700E3870073FF0071FF007074D
:100DC000E007800003C00003C00001F00000FFC086
:100DD000007FC0001FC000000000000000000000F5
:100DE0007E00007E00007E0000FF0000F70000E7AC
:100DF0000000E70001E78001C38001C38003C3C096
:100E000003C1C00381C00381C00781E007FFE00781
:100E1000FFE007FFE00F00F00E00700E00700E0004
:100E2000701E00781C003800000000000000000068
:100E300000000000000000000000000000000000B2
:100E400000000FFC000FFF000FFF800E07C00E0315
:100E5000C00E01C00E01C00E01C00E03800E07803F
:100E60000FFF000FFF000FFF800E03C00E01E00E0A
:100E700000E00E00E00E00E00E00E00E01E00E07C4
:100E8000C00FFFC00FFF000FFC00000000000000BB
:100E90000000000000000000000000000000000052
:100EA0003F80007FE001FFE003E04003C0000780D7
:100EB000000700000700000E00000E00000E0000FA
:100EC0000E00000E00000E00000E00000E00000FCD
:100ED000000007000007800003C00003E04001FF9E
:100EE000E000FFE0003F8000000000000000000084
:100EF0000000000000000000000000000000000FE3
:100F0000F0000FFE000FFF000E0F800E03800E0397
:100F1000C00E01C00E01E00E00E00E00E00E00E089
:100F20000E00E00E00E00E00E00E00E00E00E00E0D
:100F300001E00E01C00E03C00E03800E0F800FFFF4
:100F4000000FFE000FF00000000000000000000095
:100F5000000000000000000000000000000000078A
:100F6000FFC007FFC007FFC0070000070000070021
:100F70000007000007000007000007000007FF80CF
:100F800007FF8007FF800700000700000700000739
:100F9000000007000007000007000007000007FF2F
:100FA000E007FFE007FFE000000000000000000095
:100FB000000000000000000000000000000000072A
:100FC000FFE007FFE007FFE0070000070000070061
:100FD0000007000007000007000007000007FFC02F
:100FE00007FFC007FFC00700000700000700000759
:100FF00000000700000700000700000700000700CE
:1010000000070000070000000000000000000000D2
:1010100000000000000000000000000000000000D0
:101020003F8000FFC001FFE003E0C003C040078035
:10103000000700000700000E00000E00000E000078
:101040000E00000E00E00E00E00E00E00E00E00FCB
:1010500000E00700E00780E003C0E003E0E001FFFC
:10106000E000FFE0003F8000000000000000000002
:101070000000000000000000000000000000000E62
:1010800000E00E00E00E00E00E00E00E00E00E00BA
:10109000E00E00E00E00E00E00E00E00E00FFFE0CA
:1010A0000FFFE00FFFE00E00E00E00E00E00E00E8C
:1010B00000E00E00E00E00E00E00E00E00E00E008A
:1010C000E00E00E00E00E000000000000000000064
:1010D0000000000000000000000000000000000709
:1010E000FFC007FFC007FFC000380000380000380D
:1010F00000003800003800003800003800003800D8
:1011000000380000380000380000380000380000C7
:10111000380000380000380000380000380007FFB1
:10112000C007FFC007FFC000000000000000000073
:1011300000000000000000000000000000000001AE
:10114000FFC001FFC001FFC00001C00001C00001DD
:10115000C00001C00001C00001C00001C00001C00A
:101160000001C00001C00001C00001C00001C000BA
:1011700001C00001C00001C00403C00707800FFFC9
:101180000007FE0001FC000000000000000000005D
:101190000000000000000000000000000000000E41
:1011A00001E00E03C00E03800E07800E0F000E0E2E
:1011B000000E1C000E3C000E78000EF0000FE00048
:1011C0000FE0000FF0000EF8000E7C000E3E000E47
:1011D0001E000E0F000E07800E03C00E03C00E018E
:1011E000E00E00E00E00F000000000000000000033
:1011F00000000000000000000000000000000007E8
:1012000000000700000700000700000700000700BB
:1012100000070000070000070000070000070000AB
:101220000700000700000700000700000700000794
:10123000000007000007000007000007000007FF8C
:10124000E007FFE007FFE0000000000000000000F2
:10125000000000000000000000000000000000038B
:1012600000600380F00780F00780F006C1B006C17F
:10127000B006E3B0066330066330067730063630DA
:10128000063630063E30061C380E1C380E00380E6E
:1012900000380E00380E00380E00380E00380E00F0
:1012A000380E00380E00380000000000000000007A
:1012B0000000000000000000000000000000000727
:1012C000807007C07007C07007E07007E07007F01B
:1012D00070077070077070073870073870071C70DF
:1012E000071C70070E70070E70070670070770075F
:1012F00007700703F00703F00701F00701F007008C
:10130000F00700F00700F0000000000000000000FF
:1013100000000000000000000000000000000000CD
:101320007C0001FF0003FF800783C00F01E00E0077
:10133000E00E00E01C00F01C00701C00701C00702F
:101340001C00701C00701C00701C00701C00701CC5
:1013500000F00E00E00E00E00F01E00783C003FF85
:101360008001FF00007C0000000000000000000081
:101370000000000000000000000000000000000766
:10138000FC0007FF0007FF800703C00701E007001C
:10139000E00700E00700E00700E00700E00701E0E9
:1013A0000703C007FF8007FF0007FC0007000007D6
:1013B000000007000007000007000007000007000A
:1013C000000700000700000000000000000000000F
:1013D000000000000000000000000000000000000D
:1013E0007C0001FF0003FF800783C00F01E00E00B7
:1013F000E00E00E01C00F01C00701C00701C00706F
:101400001C00701C00701C00701C00701C00701C04
:1014100000F00E00E00E00E00F01E00783C003FFC4
:101420008001FF0000FE00003800003C00001F00AB
:10143000000FE00007E00000C00000000000000F07
:10144000F8000FFE000FFF000E07800E03C00E0114
:10145000C00E01C00E01C00E01C00E01C00E0380FF
:101460000E07800FFF000FFE000FFC000E1E000E87
:101470000E000E07000E07000E03800E03800E0103
:10148000C00E01C00E00E0000000000000000000DF
:10149000000000000000000000000000000000004C
:1014A0007F0001FFC003FFC003C0800700000700EA
:1014B0000007000007000007800003E00001F800BB
:1014C00000FE00003F80000FC00003C00001E000EC
:1014D00000E00000E00000E00401E00F03C00FFFA7
:1014E000C007FF8001FE00000000000000000000B7
:1014F0000000000000000000000000000000000FDD
:10150000FFE00FFFE00FFFE0003800003800003878
:1015100000003800003800003800003800003800B3
:1015200000380000380000380000380000380000A3
:10153000380000380000380000380000380000385B
:10154000000038000038000000000000000000002B
:101550000000000000000000000000000000000E7D
:1015600000E00E00E00E00E00E00E00E00E00E00D5
:10157000E00E00E00E00E00E00E00E00E00E00E0E5
:101580000E00E00E00E00E00E00E00E00E00E00EA7
:1015900000E00E00E00F01E00701C00783C003FF79
:1015A0008001FF0000FE00000000000000000000BD
:1015B0000000000000000000000000000000001C0F
:1015C00000701C00700E00E00E00E00E00E00E0047
:1015D000E00701C00701C00701C00701C003838005
:1015E00003838003838003878001C70001C7000154
:1015F000C70000EE0000EE0000EE00007C00007C62
:1016000000007C00007800000000000000000000E6
:101610000000000000000000000000000000000EBC
:1016200000E00E00E00E00E00E00E00E00E00E0014
:10163000E00E00E00E00E00E00E00E38E00E38E0B4
:101640000E38E00E6CE00E6CE00E6CE00EC6E00EA4
:10165000C6E00EC6E00F83E00F83E00F83E00F01CA
:10166000E00701C00701C00000000000000000000A
:101670000000000000000000000000000000001E4C
:1016800000F00E00E00F01E00701C0038380038338
:101690008001C70001EF0000EE0000FE00007C00AA
:1016A000003800003800007C0000FE0000EE000161
:1016B000C70003C7800383800783C00701C00F01F1
:1016C000E00E00E01E00F00000000000000000003E
:1016D0000000000000000000000000000000001CEE
:1016E00000700E00E00E00E00F01E00701C007836C
:1016F000C003838003C38001C70001EF0000EE0038
:1017000000FE00007C00007C000038000038000073
:101710003800003800003800003800003800003879
:101720000000380000380000000000000000000049
:1017300000000000000000000000000000000007A2
:10174000FFE007FFE007FFE00001C00003C0000367
:1017500080000700000F00000E00001E00003C008B
:1017600000380000780000700000E00001E0000197
:10177000C00003C0000380000780000700000FFFC7
:10178000E00FFFE00FFFE00000000000000000009D
:1017900000000000000000000000000001FF000148
:1017A000FF0001C00001C00001C00001C00001C075
:1017B0000001C00001C00001C00001C00001C00064
:1017C00001C00001C00001C00001C00001C0000153
:1017D000C00001C00001C00001C00001C00001C084
:1017E0000001C00001C00001C00001C00001C00034
:1017F00001C00001C00001FF0001FF0003800003E1
:10180000C00001C00001C00000E00000E00000E0F6
:1018100000007000007000007000007000003800D0
:10182000003800003800001C00001C00001C0000F4
:101830000E00000E00000E00000700000700000769
:10184000000007000003800003800003800001C047
:101850000001C00001C00000E00000E000FF8000C7
:10186000FF800003800003800003800003800003EA
:101870008000038000038000038000038000038059
:1018800000038000038000038000038000038000C9
:1018900003800003800003800003800003800003B6
:1018A0008000038000038000038000038000038029
:1018B00000038000038000FF8000FF800000000024
:1018C0003800007C00007C0000EE0000EE0001C744
:1018D0000001C70003C7800383800783C00701C0DE
:1018E0000F01E00200800000000000000000000086
:1018F00000000000000000000000000000000000E8
:1019000000000000000000000000000000000000D7
:1019100000000000000000000000000000000000C7
:1019200000000000000000000000000000000000B7
:1019300000000000000000000000000000000000A7
:101940000000000000000000000000000000000097
:101950000000000000000000000000000000000087
:10196000003FFFF83FFFF83FFFF8000000000000D5
:101970000000000000000000000000000000000067
:101980007C0000FE0001C700018300018300018389
:101990000001C70000FE00007C0000000000000005
:1019A0000000000000000000000000000000000037
:1019B0000000000000000000000000000000000027
:1019C0000000000000000000000000000000000017
:1019D0000000000000000000000000000000000007
:1019E00000000000000000000000000000000000F7
:1019F0000000000000FE0001FF8001FFC00183E045
:101A00000001E00000E00000E0007FE001FFE003F3
:101A1000FFE007C0E00700E00700E00700E0078004
:101A2000E003FFE001FFE0007FC0000000000000D5
:101A30000000000000000000000000000700000798
:101A40000000070000070000070000070000070073
:101A500000070000077E0007FF0007FF800783C024
:101A60000701C00701E00700E00700E00700E0070A
:101A700000E00700E00700E00701E00701C00707FA
:101A8000C007FF8007FF0003FC000000000000000B
:101A90000000000000000000000000000000000046
:101AA0000000000000000000000000000000000036
:101AB00000000000003FC000FFE003FFE003E04043
:101AC0000780000700000E00000E00000E00000E50
:101AD00000000E00000E000007000007800003E079
:101AE0006003FFE000FFE0003FC0000000000000D6
:101AF0000000000000000000000000000000E00006
:101B000000E00000E00000E00000E00000E0000075
:101B1000E00000E0007EE000FFE001FFE003C1E044
:101B20000380E00780E00700E00700E00700E0072F
:101B300000E00700E00700E00780E00380E003E04A
:101B4000E001FFE000FFE0003F8000000000000037
:101B50000000000000000000000000000000000085
:101B60000000000000000000000000000000000075
:101B700000000000007E0001FF0003FF8007C3C0DB
:101B80000701C00700E00E00E00FFFE00FFFE00FCD
:101B9000FFE00E00000E000007000007000007C075
:101BA000C003FFC001FFC0007F0000000000000074
:101BB000000000000000000000000000000FC00056
:101BC0003FF0007FF000783000F00000E00000E01F
:101BD0000000E0000FFFC00FFFC00FFFC000E000DB
:101BE00000E00000E00000E00000E00000E0000095
:101BF000E00000E00000E00000E00000E00000E0A5
:101C00000000E00000E00000E00000000000000034
:101C100000000000000000000000000000000000C4
:101C200000000000000000000000000000000000B4
:101C300000007F0001FFC003FFC00781C00701C093
:101C40000F01C00E01C00E01C00E01C00E01C00E7A
:101C500001C00E01C00701C00783C003FFC001FF20
:101C6000C000FDC00001C00001C00003C006078025
:101C700007FF8007FF0003FC0000000007000007CB
:101C80000000070000070000070000070000070031
:101C90000007000007FC0007FF0007FF8007078020
:101CA0000703C00701C00701C00701C00701C00743
:101CB00001C00701C00701C00701C00701C007013B
:101CC000C00701C00701C00701C0000000000000FC
:101CD0000000000000000000000000000000000004
:101CE000600000F00000F000006000000000000054
:101CF000000000000FF0000FF0000FF00000700077
:101D000000700000700000700000700000700000A3
:101D1000700000700000700000700000700000781B
:101D200020003FE0003FE0000FC000000000000086
:101D300000000000000000000000000000000000A3
:101D40000600000F00000F00000600000000000069
:101D50000000000003FF8003FF8003FF800003807A
:101D600000038000038000038000038000038000E4
:101D700003800003800003800003800003800003D1
:101D80008000038000038000038000038000038044
:101D9000060F000FFF000FFE0003F800070000070A
:101DA0000000070000070000070000070000070010
:101DB000000700000701E00703C0070780070F00C6
:101DC000071E00073C0007780007F00007E0000747
:101DD000F000077800071C00070F00070700070343
:101DE000800703C00701E00700F0000000000000CA
:101DF00000000000000000000000000007F80007DD
:101E0000F80007F8000038000038000038000038FB
:101E100000003800003800003800003800003800AA
:101E2000003800003800003800003800003800009A
:101E30003800003800003800003800003800003C4E
:101E400010001FF0001FF00007E00000000000007D
:101E50000000000000000000000000000000000082
:101E60000000000000000000000000000000000072
:101E70000000000007E3C00FFFE00FFFE00E3CF0A2
:101E80000E1C700E1C700E1C700E1C700E1C700E42
:101E90001C700E1C700E00700E00700E00700E0094
:101EA000700E00700E00700E007000000000000048
:101EB0000000000000000000000000000000000022
:101EC0000000000000000000000000000000000012
:101ED0000000000000FE0003FF8003FFC00383C07A
:101EE0000381E00380E00380E00380E00380E003FF
:101EF00080E00380E00380E00380E00380E0038073
:101F0000E00380E00380E00380E0000000000000C8
:101F100000000000000000000000000000000000C1
:101F200000000000000000000000000000000000B1
:101F300000000000007C0001FF0003FF800783C059
:101F40000701C00F01E00E00E00E00E00E00E00E01
:101F500000E00E00E00E00E00701E00701C007838B
:101F6000C003FF8001FF00007C00000000000000B3
:101F70000000000000000000000000000000000061
:101F80000000000000000000000000000000000051
:101F90000000000001FC0007FF0007FF800707C0EA
:101FA0000701C00701C00700E00700E00700E007E5
:101FB00000E00700E00700E00701E00701C0078339
:101FC000C007FF8007FF00077C0007000007000034
:101FD00007000007000007000007000000000000E5
:101FE00000000000000000000000000000000000F1
:101FF00000000000003F8000FFE001FFE003E0E0A0
:102000000380E00380E00700E00700E00700E0074E
:1020100000E00700E00700E00780E00380E003C184
:10202000E001FFE000FFE0003EE00000E00000E033
:102030000000E00000E00000E00000E00000000020
:102040000000000000000000000000000000000090
:102050000000000000FFC007FFC007FFC00780802E
:102060000700000700000700000700000700000746
:10207000000007000007000007000007000007003D
:10208000000700000700000700000000000000003B
:102090000000000000000000000000000000000040
:1020A0000000000000000000000000000000000030
:1020B0000000000000FF0001FF8003FF8007818017
:1020C00007000007000007C00003F00001FE000049
:1020D0007F00001F800003C00001C00001C0060394
:1020E000C007FF8007FF8001FE0000000000000025
:1020F00000000000000000000000000000000000E0
:10210000000000000000E00000E00000E00000E04F
:102110000000E0000FFFE00FFFE00FFFE000E00035
:1021200000E00000E00000E00000E00000E000004F
:10213000E00000E00000E00000E00000E00000F04F
:1021400020007FE0007FE0001FC0000000000000D2
:10215000000000000000000000000000000000007F
:10216000000000000000000000000000000000006F
:10217000000000000701C00701C00701C00701C03F
:102180000701C00701C00701C00701C00701C00760
:1021900001C00701C00701C00701C00781C003C11A
:1021A000C003FFC001FFC0007F000000000000006E
:1021B000000000000000000000000000000000001F
:1021C000000000000000000000000000000000000F
:1021D000000000001C00701E00F00E00E00E00E089
:1021E0000F01E00701C00701C00783C0038380031C
:1021F000838003C70001C70001EF0000EE0000FE6E
:1022000000007C00007C00007C000000000000005A
:1022100000000000000000000000000000000000BE
:1022200000000000000000000000000000000000AE
:10223000000000001C00701C00701C00701C00706E
:102240001C10700C38E00E38E00E38E00E28E00E5E
:102250006CE00E6CE00644C006C6C006C7C0078727
:10226000C00783C0078380030380000000000000D4
:10227000000000000000000000000000000000005E
:10228000000000000000000000000000000000004E
:10229000000000001E01E00F03C0070380038780D9
:1022A00003CF0001EE0000FC00007C00007800007D
:1022B0007C0000FE0001EE0001C70003C38007831D
:1022C000C00F01C00E01E01E00F000000000000081
:1022D00000000000000000000000000000000000FE
:1022E00000000000000000000000000000000000EE
:1022F000000000000E00700F00F00700E00700E093
:102300000780E00381E00381C003C1C001C3C001B5
:10231000C38001E38000E78000F780007700007F42
:1023200000003E00003E00001E00003C00003C009B
:102330000078000FF0000FF0000FC0000000000058
:10234000000000000000000000000000000000008D
:102350000000000007FFC007FFC007FFC0000380A8
:10236000000780000F00001E00001C000038000065
:10237000780000F00000E00001E00003C0000380EE
:102380000007FFC007FFC007FFC0000000000000FB
:10239000000000000000000000000000000000003D
:1023A000000000700000E00000E00000E00000E03D
:1023B0000000E00000E00000E00000E00000E000BD
:1023C00000E00000E00001C0000F80000F8000016D
:1023D000C00000E00000E00000E00000E00000E0DD
:1023E0000000E00000E00000E00000E00000E0008D
:1023F00000E000007000007F80001F80001C0000D3
:102400001C00001C00001C00001C00001C00001C24
:1024100000001C00001C00001C00001C00001C0030
:10242000001C00001C00001C00001C00001C000020
:102430001C00001C00001C00001C00001C00001CF4
:1024400000001C00001C00001C00001C00001C0000
:10245000001C00001C00001C00001C0000FC000010
:10246000FF000007000003800003800003800003DA
:10247000800003800003800003800003800003804D
:102480000003800003800001C00000F80000F80095
:1024900001C000038000038000038000038000036C
:1024A000800003800003800003800003800003801D
:1024B00000038000070000FF0000FC000000000196
:1024C000E02003F03007FC700E3FE00C0FC0040763
:1024D000800000000000000000000000000000007C
:1024E00000000000000000000000000000000000EC
:1024F00000000000000000000000000000000000DC
:1025000000000000000000000000000000000000CB
:10251000000000000000000000000000000021009A
:10252000240027002A002D003000330001010000A4
:10253000040107010A0100000A0B02090C0D0E0834
:10254000070304010000000000000000000000007C
:10255000000000000000000000000000000000007B
:102560000000121110000000000000000000000038
:102570000000000000000000000000000102102028
:1025800020080810204010204080020102010804A9
:10259000020101020408102040808040201008043D
:1025A0000201800402018040201008040201080496
:1025B00002010102040810204080010204081020DA
:1025C000408000002200250028002B002E00310052
:1025D000340002010000050108010B010505050595
:1025E000070508080808020202020A0A080804048B
:1025F00004040101010101010101030303030303B9
:102600000303040707070C0C0C0C0C0C0C0C020247
:10261000020206060606060606060B0B0B0B0B0B44
:102620000B0B9D3611241FBECFEFD1E2DEBFCDBF15
:1026300000E00CBF25E0AEE0B4E001C01D92A6347E
:10264000B207E1F714E0A0E0B2E0EEEEFAE700E056
:102650000BBF02C007900D92AE30B107D9F713E15E
:10266000C2E1D3E100E006C021970109802FFE01FD
:102670000E94D73AC131D10780E00807A9F70E942C
:1026800046280C94753D0C9400000895CF92DF927B
:10269000EF92FF920F931F93CF93DF936C017A0118
:1026A0008B01C0E0D0E0CE15DF0581F0D8016D913F
:1026B0008D01D601ED91FC910190F081E02DC601D4
:1026C0001995892B11F02196EECF7E01C701DF917C
:1026D000CF911F910F91FF90EF90DF90CF900895D1
:1026E000FC01538D448D252F30E0842F90E0821B18
:1026F000930B541710F0CF96089501970895FC019D
:10270000918D828D981761F0828DDF01A80FB11D28
:102710005D968C91928D9F5F9F73928F90E008954C
:102720008FEF9FEF0895FC01918D828D981731F006
:10273000828DE80FF11D858D90E008958FEF9FEF5A
:102740000895FC01918D228D892F90E0805C9F4F30
:10275000821B91098F73992708958EE294E00E945D
:10276000A11321E0892B09F420E0822F0895FC01B8
:10277000848DDF01A80FB11DA35ABF4F2C91848D0A
:1027800090E001968F739927848FA689B7892C933F
:10279000A089B1898C91837080648C93938D848D92
:1027A000981306C00288F389E02D80818F7D808395
:1027B0000895EF92FF920F931F93CF93DF93EC0155
:1027C00081E0888F9B8D8C8D981305C0E889F989ED
:1027D000808185FD26C0F62E0B8D10E00F5F1F4F08
:1027E0000F731127E02E8C8DE8120CC00FB607FC7A
:1027F000FACFE889F989808185FFF5CFCE010E9463
:10280000B713F1CF8B8DFE01E80FF11DE35AFF4F97
:10281000F0829FB7F8940B8FEA89FB8980818062F0
:102820000AC09FB7F894EE89FF896083E889F98927
:1028300080818370806480839FBF81E090E0DF911E
:10284000CF911F910F91FF90EF900895CF93DF9359
:10285000EC01888D8823C9F0EA89FB89808185FD98
:1028600005C0A889B9898C9186FD0FC00FB607FCF9
:10287000F5CF808185FFF2CFA889B9898C9185FF3A
:10288000EDCFCE010E94B713E7CFDF91CF9108952E
:1028900080E090E0892B21F00E94AD13811125C0CA
:1028A00080E090E0892B41F080E090E0892B21F0DE
:1028B0000E94000081111CC080E090E0892B41F053
:1028C00080E090E0892B21F00E940000811113C06C
:1028D00080E090E0892BA1F080E090E0892B81F0EE
:1028E0000E94000081110AC008950E940000D8CF04
:1028F0000E940000E1CF0E940000EACF0C9400008B
:10290000089580911F0490912004009739F0DC0114
:10291000ED91FC910480F581E02D199408950F93B9
:102920001F93CF93DF938C010A5F1F4FEC01CA5BAB
:10293000DF4FD8018D919D918D01009751F0DC0101
:10294000ED91FC910480F581E02D19950C171D0780
:1029500081F7DF91CF911F910F910895E2E2F4E0AA
:1029600011821082138212821582148217821682BB
:1029700011861086138612860895880F991FFC0110
:10298000EE5DFB4F20813181611103C04FEF5FEF9E
:1029900002C041E050E0240F351F293031052CF4EE
:1029A00037FF05C020E030E002C029E030E0FC0144
:1029B000EE5DFB4F31832083089560E085E090E079
:1029C0000C94BD1461E085E090E00C94BD1460E0CF
:1029D00084E090E00C94BD1461E084E090E00C94FD
:1029E000BD1460E083E090E00C94BD1461E083E0EE
:1029F00090E00C94BD1460E082E090E00C94BD1473
:102A000061E082E090E00C94BD1460E081E090E031
:102A10000C94BD1461E081E090E00C94BD1460E082
:102A200080E090E00C94BD1461E080E090E00C94B4
:102A3000BD140F931F93CF93DF938C010A5F1F4F39
:102A4000EC01CA5BDF4FD8018D919D918D010097FC
:102A500051F0DC01ED91FC910480F581E02D199598
:102A60000C171D0781F7DF91CF911F910F910895EA
:102A70000F931F93CF938C01C0911E04CC23B1F10F
:102A8000DC0150964D915C9151972091F504309165
:102A9000F60424173507ECF054968D919C915597C8
:102AA000840F951F28173907A4F452964D915C9115
:102AB00053972091F7043091F804241735074CF010
:102AC00056968D919C915797840F951F281739071B
:102AD00014F0C0E00BC0D80194968C9181110CC009
:102AE000D8019296ED91FC9193971995F801C4A3A2
:102AF000CF911F910F910895C82FF8CF10921E0407
:102B0000089580E090E008950E94573DCF93DF93B1
:102B1000EC0188819981009711F00E94E93B1982AC
:102B200018821D821C821B821A82DF91CF91089528
:102B30000F931F93CF93DF93EC01888199810097C6
:102B400029F02A813B812617370788F48B016F5FB4
:102B50007F4F0E94723C009761F0998388831B83AA
:102B60000A832C813D81232B11F4FC01108281E02A
:102B700001C080E0DF91CF911F910F9108954F9296
:102B80005F926F927F928F929F92AF92BF92CF92FD
:102B9000DF92EF92FF920F931F93CF93DF93CDB706
:102BA000DEB7A0970FB6F894DEBF0FBECDBF8C0185
:102BB00082E2682E84E0782E580186E4A80EB11CCB
:102BC00099EEC92E94E0D92E2501E12CF12CDE01DD
:102BD00011964D01F30180819181D2012D913C919B
:102BE00028173907B1F14AE0B4010E94F638F6011E
:102BF00091828082E114F10431F4D8011A968D910A
:102C00009C911B971FC0F801B1E0EB16F10419F479
:102C10008089918917C0B2E0EB16F10419F4868916
:102C2000978910C0B3E0EB16F10419F4848D958DEB
:102C300009C0B4E0EB16F10419F482A193A102C01B
:102C400080A591A5DC01ED91FC910190F081E02D32
:102C50001995F301819191913F01D2018D939D933B
:102C60002D01BFEFEB1AFB0AE2E0CE0ED11CF6E01D
:102C7000EF16F10409F0AECF0A5F1F4FD8018D9116
:102C80009D918D01009751F0DC01ED91FC91048044
:102C9000F581E02D1995A016B10681F7A0960FB623
:102CA000F894DEBF0FBECDBFDF91CF911F910F9182
:102CB000FF90EF90DF90CF90BF90AF909F908F905C
:102CC0007F906F905F904F900895CF92DF92EF9238
:102CD000FF920F931F93CF93DF93EC01E0911B05BD
:102CE000F0911C0590818091270580958923808330
:102CF0000E94FC2280911505813049F0E091170572
:102D0000F0911805908180912505892B8083E091B1
:102D1000150540910C0550910D0560910E057091BF
:102D20000F058091100590911105A0911205B091A9
:102D30001305E031B9F49A01AB012F5F3F4F4F4FBC
:102D40005F4FBC01CD016F5F7F4F8F4F9F4F0E9440
:102D50006A3A9B01AC0160E070E080E090E00E9484
:102D6000911D56C0E83021F0C12CD12C760122C033
:102D70009A01AB012F5F3F4F4F4F5F4FBC01CD0119
:102D80006F5F7F4F8F4F9F4F0E946A3AAB01BC012C
:102D900080E090E00E94201F3BC04091150541302B
:102DA00069F160E080E00E94741B8FEFC81AD80AB6
:102DB000E80AF80A80910C0590910D05A0910E0586
:102DC000B0910F059C01AD012F5F3F4F4F4F5F4FFB
:102DD0008091100590911105A0911205B0911305F5
:102DE000BC01CD016F5F7F4F8F4F9F4F0E946A3AAA
:102DF000C616D706E806F90684F20AC041E060E08C
:102E000081E00E94741B4091150560E081E0CBCF0A
:102E1000E0911B05F0911C05908180912705892B7D
:102E200080838E010A5F1F4FCA5BDF4FD8018D91EF
:102E30009D918D01009751F0DC01ED91FC91019085
:102E4000F081E02D1995C017D10781F7DF91CF915F
:102E50001F910F91FF90EF90DF90CF9008950C9409
:102E600065160C946516EF92FF920F931F93CF9304
:102E7000DF93EC017B018A01E7E0F5E0108211822B
:102E80006A897B89888999892E893F89260F371F0E
:102E90004C895D89480F591F0E94F223F98AE88AFC
:102EA0001B8B0A8BE881F9810190F081E02DCE0126
:102EB000DF91CF911F910F91FF90EF901994EF92B6
:102EC000FF920F931F93CF93DF93EC017B018A0155
:102ED000E7E0F5E0108211826A897B898889998907
:102EE0002E893F89260F371F4C895D89480F591F4E
:102EF0000E94F223F98AE88A1B8B0A8BE881F98108
:102F00000190F081E02DCE01DF91CF911F910F91C3
:102F1000FF90EF9019940F931F93CF93DF93EC01E1
:102F20008C8D9D8D07E015E0D8019C9311968C93B4
:102F30006A897B89888999892E893F89260F371F5D
:102F40004C895D89480F591F0E94F2238E8D9F8DF9
:102F5000F8019083818381E080ABE8E7F1E0D8015C
:102F60009B96FC93EE939A97E4919C96EC939C9796
:102F7000E9E7F1E0E4919D96EC939D97EAE7F1E0B3
:102F8000E4919E96EC939E97EBE7F1E0E4919F9697
:102F9000EC934A895B898A8D9B8D480F591F6889FC
:102FA0007989888D998D680F791FEE85FF858081DD
:102FB0009181DF91CF911F910F910C94FC240F937D
:102FC0001F93CF93DF93EC018C8D9D8D07E015E06F
:102FD000D8019C9311968C936A897B8988899989F9
:102FE0002E893F89260F371F4C895D89480F591F4D
:102FF0000E94F22388A199A1F8019083818381E046
:1030000080ABE8E7F1E0D8019B96FC93EE939A97AA
:10301000E4919C96EC939C97E9E7F1E0E4919D960E
:10302000EC939D97EAE7F1E0E4919E96EC939E97EE
:10303000EBE7F1E0E4919F96EC934A895B898A8DF6
:103040009B8D480F591F68897989888D998D680FE4
:10305000791F8E859F85DF91CF911F910F910C94E1
:10306000FC24EF92FF920F931F93CF93DF93611590
:10307000710511F480E01CC041155105C1F07B01C0
:10308000EC018C819D818A01080F191FB801CE01C6
:103090000E949815882371F3288139818C819D8144
:1030A000B701820F931F0E946E3D1D830C8381E048
:1030B000DF91CF911F910F91FF90EF900895CF93E3
:1030C000DF93EC016115710561F0FB0101900020B7
:1030D000E9F73197AF01461B570B0E943118811158
:1030E00003C0CE010E948615CE01DF91CF910895D5
:1030F000CF93DF93EC01FB014481558160817181A5
:103100000E943118811103C0CE010E948615CE01A4
:10311000DF91CF9108950F931F93CF93DF938C018D
:10312000EB01FC0180819181009739F06881798100
:1031300061157105A1F40E94E93B88819981F8012C
:10314000918380838A819B81938382838C819D81FB
:1031500095838483198218821B821A820FC0F8011A
:10316000428153812C813D814217530720F30E94F5
:103170006E3D8C819D81F801958384831D821C8224
:10318000DF91CF911F910F910895EF92FF920F93CE
:103190001F93CF93DF93EC017B018A01BA010E9458
:1031A0009815811104C0CE010E94861507C01D83A9
:1031B0000C83B701888199810E946E3DCE01DF9119
:1031C000CF911F910F91FF90EF900895CF93DF93D0
:1031D000EC016115710559F0FB0101900020E9F740
:1031E0003197AF01461B570B0E94C51802C00E94C1
:1031F0008615CE01DF91CF910895FC0180819181E8
:103200000C94E93BFC011182108213821282158218
:1032100014826115710551F0FB0101900020E9F75E
:103220003197AF01461B570B0C94C5180895CF92E8
:10323000DF92EF92FF920F931F93CF93DF93CDB75F
:10324000DEB7AE970FB6F894DEBF0FBECDBF02E279
:1032500014E0D80112966D917C911397CE01899656
:103260000E945727F80160817181CE0183960E94E8
:1032700057276EEA73E0CE0101960E940219BE0143
:103280006D5D7F4FCE0101960E9478186AEB73E066
:103290000E945F18BE01675D7F4F0E9478186DEB3A
:1032A00073E00E945F180E944427CE0101960E949D
:1032B000FD18CE0183960E94FD18CE0189960E94CA
:1032C000FD18F801A081B18120EA36E841E050E024
:1032D0000E94AD3A0280F381E02D20E137E2E29FC7
:1032E000A001E39F500DF29F500D11246A01550F6C
:1032F000EE08FF08AB01BC014C0D5D1D6E1D7F1D6E
:10330000D8011496ED91FC91159728EE33E0E29FD9
:10331000C001E39F900DF29F900D1124092E000C27
:10332000AA0BBB0B480F591F6A1F7B1FF801268190
:103330003781E4E6E29FC001E39F900D1124092E3E
:10334000000CAA0BBB0B480F591F6A1F7B1FD8012B
:1033500018962D913C911997EAE0E29FC001E39FF6
:10336000900D1124092E000CAA0BBB0B480F591FFE
:103370006A1F7B1FF80182859385092E000CAA0B1A
:10338000BB0B8A019B01080F191F2A1F3B1FC90194
:10339000B8011CA21BA21EA21DA218A61FA22AE0F1
:1033A000AE014F5F5F4F0E940139BE016F5F7F4FDB
:1033B000CE0183960E94E61865EC73E0CE0101967B
:1033C0000E940219BE016D5D7F4FCE0101960E94E1
:1033D00078180E944427CE0101960E94FD18CE0164
:1033E00083960E94FD18AE960FB6F894DEBF0FBE0E
:1033F000CDBFDF91CF911F910F91FF90EF90DF90A4
:10340000CF900895EF92FF920F931F93CF93DF9386
:10341000CDB7DEB7A0970FB6F894DEBF0FBECDBF15
:103420000E9465164CE050E060E070E082E294E0BB
:103430000E94283A0E94171902E214E0CE01019678
:103440007C014AE0B701F801819191918F010E94BE
:10345000F638F092EA04E092E904F4E00E321F0735
:1034600081F7A0960FB6F894DEBF0FBECDBFDF91F7
:10347000CF911F910F91FF90EF9008951F920F929F
:103480000FB60F9211240BB60F922F933F934F93C9
:103490005F936F937F938F939F93AF93BF93EF93BC
:1034A000FF938EE294E00E94B713FF91EF91BF91DA
:1034B000AF919F918F917F916F915F914F913F91CC
:1034C0002F910F900BBE0F900FBE0F901F9018956D
:1034D0001F920F920FB60F9211240BB60F922F93DB
:1034E0008F939F93EF93FF93E0913E04F0913F04FD
:1034F0008081E0914404F091450482FD12C09081E6
:10350000809147048F5F8F7320914804821751F098
:10351000E0914704F0E0E25DFB4F958F8093470414
:1035200001C08081FF91EF919F918F912F910F901A
:103530000BBE0F900FBE0F901F901895EF92FF9249
:103540000F931F93CF93DF937C01CEE0D4E00991DA
:1035500019910115110599F0B701D80112968D91B5
:103560009C9113970E94653D892B29F410932004A8
:1035700000931F0404C0B4E0CE31DB0741F7809113
:103580001F0490912004009769F0DC01ED91FC91FB
:103590000280F381E02DDF91CF911F910F91FF9079
:1035A000EF901994DF91CF911F910F91FF90EF90C1
:1035B00008958EEC93E00C949E1A0E9417194CE02B
:1035C00050E060E070E082E294E00E94383A84E9E2
:1035D00093E00C949E1A0F931F93CF93DF93EC010B
:1035E00020E030E0A901688179818A819B810E9475
:1035F0004C3B1816F4F40E94F0270A851B852C8595
:103600003D85601B710B820B930B0E9476399B01E9
:10361000AC01688179818A819B810E94DF3A68834D
:1036200079838A839B830E94F0276A877B878C87B4
:103630009D8720E030E0A901688179818A819B81A2
:103640000E94713918168CF0EC81FD8119958E81DC
:103650009F81A885B98588839983AA83BB830E94AB
:10366000F0276A877B878C879D87DF91CF911F9199
:103670000F9108958F929F92AF92BF92CF92DF9257
:10368000EF92FF926B017C010E94CB274B015C0102
:10369000C114D104E104F104F1F00E94CB27DC0154
:1036A000CB0188199909AA09BB09883E9340A10555
:1036B000B10570F321E0C21AD108E108F10888EEE3
:1036C000880E83E0981EA11CB11CC114D104E10432
:1036D000F10419F7DDCFFF90EF90DF90CF90BF900E
:1036E000AF909F908F900895483009F448C118F426
:1036F000413041F00895403109F457C1413109F496
:1037000068C1089590911605943019F5E0911F0550
:10371000F091200590912905813019F48081982B32
:1037200003C08081909598239083E0912105F091CA
:103730002205908180912A05809589238083E091DC
:103740002105F0912205908180912A05892B8083A3
:103750000FC0E0911705F091180590912505813073
:1037600019F48081982B03C08081909598239083D1
:10377000E0911F05F091200580912905908167FF58
:1037800002C0892B02C0809589238083E0912105A6
:10379000F0912205908180912A058095892380836C
:1037A000E0912105F0912205908180912A05892BD5
:1037B0008083E0911F05F09120058091290590817B
:1037C00066FF02C0892B02C0809589238083E09127
:1037D0002105F0912205908180912A058095892309
:1037E0008083E0912105F0912205908180912A0546
:1037F000892B8083E0911F05F09120058091290598
:10380000908165FF02C0892B02C080958923808347
:10381000E0912105F0912205908180912A05809503
:1038200089238083E0912105F09122059081809188
:103830002A05892B8083E0911F05F0912005809156
:103840002905908164FF02C0892B02C080958923DD
:103850008083E0912105F0912205908180912A05D5
:10386000809589238083E0912105F0912205908144
:1038700080912A05892B8083E0911F05F091200516
:1038800080912905908163FF02C0892B02C0809539
:1038900089238083E0912105F09122059081809118
:1038A0002A05809589238083E0912105F0912205E6
:1038B000908180912A05892B8083E0911F05F091EA
:1038C000200580912905908162FF02C0892B02C0EA
:1038D000809589238083E0912105F09122059081D4
:1038E00080912A05809589238083E0912105F091BC
:1038F0002205908180912A05892B8083E0911F0504
:10390000F091200580912905908161FF02C0892BEB
:1039100002C0809589238083E0912105F0912205E2
:10392000908180912A05809589238083E0912105EB
:10393000F0912205908180912A05892B8083E09166
:103940001F05F091200580912905908160FF02C03C
:10395000892B02C0809589238083E0912105F09115
:103960002205908180912A05809589238083E091AA
:103970002105F0912205908180912A05CFC082B95E
:10398000E0911905F0911A059081809126058095A6
:1039900089238083E0911905F0911A059081809127
:1039A0002605892B808362B902C082B968B9E0918B
:1039B0001905F0911A05908180912605809589233B
:1039C0008083E0911905F0911A0590818091260578
:1039D000A5C0A59824B3982F9071990F922B94BBF2
:1039E00090910201977E9093020190910201282FFD
:1039F000082E000C330B207C332743E035952795A8
:103A00004A95E1F7292B209302019EB1947C9EB93F
:103A10002EB1382F3C70330F330F982F9370390F1E
:103A20008072082E000C990B959587959595879532
:103A3000830F822B8EB9E0912305F09124059081AC
:103A400080912B05809589238083E0912305F09157
:103A50002405908180912B05892B8083E09123059B
:103A6000F0912405908180912B0580958923808396
:103A7000E0911B05F0911C059081809127058095B0
:103A800089238083A59894B3862F8071880F892B12
:103A900084BB80910201877E809302012091020104
:103AA000862F062E000C990B807C992773E0959544
:103AB00087957A95E1F7822B809302018EB1847C01
:103AC0008EB98EB1962F9C70990F990F262F237067
:103AD000920F6072062E000C770B759567957595A1
:103AE0006795690F682B6EB9E0911905F0911A0579
:103AF000908180912605809589238083E091190526
:103B0000F0911A05908180912605892B8083E091A0
:103B10001B05F0911C05908180912705892B8083DE
:103B200008958F929F92AF92BF92CF92DF92EF92C1
:103B3000FF9269017A0182B968B9CA01B90120E12D
:103B400030E040E050E00E948E3A49015A0180E0A6
:103B500090E0DC0188159905AA05BB050CF034C17D
:103B6000E0911905F0911A053081209126052095E4
:103B700023232083E0911905F0911A0530812091CB
:103B80002605232B2083E0911905F0911A05308139
:103B900020912605209523232083E0911905F0919B
:103BA0001A05308120912605232B2083E0911905E9
:103BB000F0911A053081209126052095232320833A
:103BC000E0911905F0911A05308120912605232BEB
:103BD0002083E0911905F0911A0530812091260586
:103BE000209523232083E0911905F0911A05308157
:103BF00020912605232B2083E0911905F0911A05C9
:103C0000308120912605209523232083E0911905FA
:103C1000F0911A05308120912605232B2083E09115
:103C20001905F0911A05308120912605209523234E
:103C30002083E0911905F0911A0530812091260525
:103C4000232B2083E0911905F0911A0530812091F2
:103C50002605209523232083E0911905F0911A056C
:103C6000308120912605232B2083E0911905F091C6
:103C70001A05308120912605209523232083E09189
:103C80001905F0911A05308120912605232B2083F8
:103C9000E0911905F0911A053081209126052095B3
:103CA00023232083E0911905F0911A05308120919A
:103CB0002605232B2083E0911905F0911A05308108
:103CC00020912605209523232083E0911905F0916A
:103CD0001A05308120912605232B2083E0911905B8
:103CE000F0911A0530812091260520952323208309
:103CF000E0911905F0911A05308120912605232BBA
:103D00002083E0911905F0911A0530812091260554
:103D1000209523232083E0911905F0911A05308125
:103D200020912605232B2083E0911905F0911A0597
:103D3000308120912605209523232083E0911905C9
:103D4000F0911A05308120912605232B2083E091E4
:103D50001905F0911A05308120912605209523231D
:103D60002083E0911905F0911A05308120912605F4
:103D7000232B2083E0911905F0911A0540813091A1
:103D80002605309534233083E0911905F0911A050A
:103D9000208130912605322B3083E0911905F09176
:103DA0001A05408130912605309534233083E09107
:103DB0001905F0911A05208130912605322B3083A8
:103DC0000196A11DB11DC6CED701C6018F709927DE
:103DD000AA27BB27892B8A2B8B2B49F1C701B60158
:103DE00020E130E040E050E00E948E3AC12CD12C1E
:103DF00076016C157D058E059F05CCF0E0911905C7
:103E0000F0911A05308120912605209523232083E7
:103E1000E0911905F0911A05308120912605232B98
:103E200020832FEFC21AD20AE20AF20AE2CFFF90F1
:103E3000EF90DF90CF90BF90AF909F908F900895BC
:103E40008F929F92AF92BF92CF92DF92EF92FF92AA
:103E50006A017B0182B9CB01BA0120E130E040E088
:103E600050E00E948E3A49015A0180E090E0DC0166
:103E700088159905AA05BB050CF064C2E0911905E7
:103E8000F0911A0530812091260520952323208367
:103E9000E0911905F0911A05308120912605232B18
:103EA0002083E0911905F0911A05308120912605B3
:103EB000209523232083E0911905F0911A05308184
:103EC00020912605232B2083E0911905F0911A05F6
:103ED000308120912605209523232083E091190528
:103EE000F0911A05308120912605232B2083E09143
:103EF0001905F0911A05308120912605209523237C
:103F00002083E0911905F0911A0530812091260552
:103F1000232B2083E0911905F0911A05308120911F
:103F20002605209523232083E0911905F0911A0599
:103F3000308120912605232B2083E0911905F091F3
:103F40001A05308120912605209523232083E091B6
:103F50001905F0911A05308120912605232B208325
:103F6000E0911905F0911A053081209126052095E0
:103F700023232083E0911905F0911A0530812091C7
:103F80002605232B2083E0911905F0911A05308135
:103F900020912605209523232083E0911905F09197
:103FA0001A05308120912605232B2083E0911905E5
:103FB000F0911A0530812091260520952323208336
:103FC000E0911905F0911A05308120912605232BE7
:103FD0002083E0911905F0911A0530812091260582
:103FE000209523232083E0911905F0911A05308153
:103FF00020912605232B2083E0911905F0911A05C5
:10400000308120912605209523232083E0911905F6
:10401000F0911A05308120912605232B2083E09111
:104020001905F0911A05308120912605209523234A
:104030002083E0911905F0911A0530812091260521
:10404000232B2083E0911905F0911A0530812091EE
:104050002605209523232083E0911905F0911A0568
:10406000308120912605232B2083E0911905F091C2
:104070001A05308120912605209523232083E09185
:104080001905F0911A05308120912605232B2083F4
:10409000E0911905F0911A053081209126052095AF
:1040A00023232083E0911905F0911A053081209196
:1040B0002605232B2083E0911905F0911A05308104
:1040C00020912605209523232083E0911905F09166
:1040D0001A05308120912605232B2083E0911905B4
:1040E000F0911A0530812091260520952323208305
:1040F000E0911905F0911A05308120912605232BB6
:104100002083E0911905F0911A0530812091260550
:10411000209523232083E0911905F0911A05308121
:1041200020912605232B2083E0911905F0911A0593
:10413000308120912605209523232083E0911905C5
:10414000F0911A05308120912605232B2083E091E0
:104150001905F0911A053081209126052095232319
:104160002083E0911905F0911A05308120912605F0
:10417000232B2083E0911905F0911A0530812091BD
:104180002605209523232083E0911905F0911A0537
:10419000308120912605232B2083E0911905F09191
:1041A0001A05308120912605209523232083E09154
:1041B0001905F0911A05308120912605232B2083C3
:1041C000E0911905F0911A0530812091260520957E
:1041D00023232083E0911905F0911A053081209165
:1041E0002605232B2083E0911905F0911A053081D3
:1041F00020912605209523232083E0911905F09135
:104200001A05308120912605232B2083E091190582
:10421000F0911A05308120912605209523232083D3
:10422000E0911905F0911A05308120912605232B84
:104230002083E0911905F0911A053081209126051F
:10424000209523232083E0911905F0911A053081F0
:1042500020912605232B2083E0911905F0911A0562
:10426000308120912605209523232083E091190594
:10427000F0911A05308120912605232B2083E091AF
:104280001905F0911A0530812091260520952323E8
:104290002083E0911905F0911A05308120912605BF
:1042A000232B2083E0911905F0911A05308120918C
:1042B0002605209523232083E0911905F0911A0506
:1042C000308120912605232B2083E0911905F09160
:1042D0001A05308120912605209523232083E09123
:1042E0001905F0911A05308120912605232B208392
:1042F000E0911905F0911A0540813091260530951D
:1043000034233083E0911905F0911A052081309112
:104310002605322B3083E0911905F0911A05408172
:1043200030912605309534233083E0911905F091C2
:104330001A05208130912605322B30830196A11D6C
:10434000B11D96CDD701C6018F709927AA27BB272B
:10435000892B8A2B8B2BE1F1C701B60120E130E0DC
:1043600040E050E00E948E3AC12CD12C76016C15B1
:104370007D058E059F0564F1E0911905F0911A0500
:10438000308120912605209523232083E091190573
:10439000F0911A05308120912605232B2083E0918E
:1043A0001905F0911A0530812091260520952323C7
:1043B0002083E0911905F0911A053081209126059E
:1043C000232B20832FEFC21AD20AE20AF20ACFCFA0
:1043D000FF90EF90DF90CF90BF90AF909F908F9025
:1043E000089590E0FC01E458FA4D2491FC01E45258
:1043F000FA4D8491882399F090E0880F991FFC0171
:10440000E45EFA4DA591B491FC01EE53FA4D85910D
:1044100094918FB7F894EC91E22BEC938FBF0895B1
:10442000682F809115058130A9F0E0911705F09172
:10443000180590818091250580958923808381E0EE
:10444000809338054091150580E00E94741B1092FE
:104450003805089541E080E00C94741BCF9390914F
:104460001505913061F0E0911705F0911805208154
:1044700090912505922B9083409115050AC0C62F77
:10448000682F41E081E00E94741B409115056C2F5C
:1044900081E0CF910C94741B682F809115058130B9
:1044A000A1F0E0911705F091180590818091250504
:1044B000892B808381E0809338054091150580E049
:1044C0000E94741B10923805089541E081E00C941D
:1044D000741BCF92DF92EF92FF920F931F93CF93B3
:1044E000DF938C01D62EC72EEA01F22EE32E8091A7
:1044F0000B05813089F480911005909111059C0184
:10450000201B310B841B950BCF2DDE2DF22EE32EBD
:10451000062F172FD82EC92E809114058F31D1F177
:1045200090F58930B9F150F5813009F05CC08AE22C
:104530000E941022612F80E00E942E22602F80E0D6
:104540000E942E226D2F80E00E942E226C2F80E090
:104550000E942E228BE20E9410226C2D80E00E948D
:104560002E226D2D80E00E942E226E2D80E00E9472
:104570002E226F2D80E00E942E222AC0853151F01C
:10458000893141F030C0813229F020F0823211F0BF
:10459000833249F58AE20E941022812F0E944C2228
:1045A000802F0E944C228D2F0E944C228C2F0E9423
:1045B0004C228BE20E9410228C2D0E944C228D2DC9
:1045C0000E944C228E2D0E944C228F2D0E944C2244
:1045D0008CE2DF91CF911F910F91FF90EF90DF90D0
:1045E000CF900C941022DF91CF911F910F91FF90EB
:1045F000EF90DF90CF90089520910B0580911005EA
:104600009091110540910C0550910D05211102C0AA
:104610009C0102C09A01AC0160E070E080E090E093
:104620000C9469220F931F93CF93DF93EA0157FFF6
:1046300005C0840F951FD195C195D109E0911B0547
:10464000F0911C053081209127052095232320839C
:10465000AC014C0F5D1F9B010E94692280911505E2
:104660008031B1F4E0911705F091180590818091A7
:104670002505892B80839E01DD0F440B550B60912E
:10468000080570E08091070590E00E94911D28C008
:104690008830C9F49091070580910805981313C0DC
:1046A000E0911705F0911805908180912505892BDF
:1046B0008083AE01DD0F660B770B8091070590E0DC
:1046C0000E94201F0DC000E010E06091080580915D
:1046D00007050E942E220F5F1F4FC017D107ACF7AE
:1046E000E0911B05F0911C05908180912705892B95
:1046F0008083DF91CF911F910F910C94FC220F9337
:104700001F93CF93DF93FC01EA0157FF05C0640FAD
:10471000751FD195C195D109A0911B05B0911C05BC
:104720002C9190912705909592239C939B012C0F9F
:104730003D1FAF01CF010E94692280911505803194
:10474000B1F4E0911705F09118059081809125054D
:10475000892B80839E01DD0F440B550B609108056A
:1047600070E08091070590E00E94911D28C088307C
:10477000C9F49091070580910805981313C0E09142
:104780001705F0911805908180912505892B80836C
:10479000AE01DD0F660B770B8091070590E00E945C
:1047A000201F0DC000E010E0609108058091070512
:1047B0000E942E220F5F1F4FC017D107ACF7E09168
:1047C0001B05F0911C05908180912705892B808322
:1047D000DF91CF911F910F910C94FC22682F892FAC
:1047E0000C942E228F929F92AF92BF92CF92DF9223
:1047F000EF92FF920F931F93CF93DF936C017B0196
:10480000EA018901481759072CF4982F8D2D6A0168
:10481000C92FD82F0E151F052CF49E2D8F2D780132
:10482000092F182F80911505803109F040C0E091C3
:104830001B05F0911C0590818091270580958923A7
:1048400080839801AE01B701C6010E946922E09100
:104850001705F0911805908180912505892B80839B
:10486000CC19DD09CE01DD0FAA0BBB0B9C01AD01FC
:104870002F5F3F4F4F4F5F4FB8016E197F09CB013C
:10488000770FAA0BBB0BBC01CD016F5F7F4F8F4F22
:104890009F4F0E946A3A9B01AC01E09108056E2F80
:1048A00070E08091070590E00E94911D44C088301F
:1048B00009F04BC09091070580910805981345C0F9
:1048C000E0911B05F0911C05908180912705809552
:1048D000892380839801AE01B701C6010E94692235
:1048E000E0911705F0911805908180912505892B9D
:1048F0008083CC19DD09CE01DD0FAA0BBB0B9C0117
:10490000AD012F5F3F4F4F4F5F4FB8016E197F09C9
:10491000CB01770FAA0BBB0BBC01CD016F5F7F4FA3
:104920008F4F9F4F0E946A3AAB01BC0180910705EF
:1049300090E00E94201FE0911B05F0911C059081E2
:1049400080912705892B80834AC080910B058111B6
:1049500023C05801AE18BF08B7FE03C08FEFA81AD6
:10496000B80AB594A794812C912CCC19DD09A81410
:10497000B904ACF1B701680D791DAE01C6010E9402
:104980001223B80168197909AE01C6010E941223E9
:104990008FEF881A980AEBCF4E018C189D0897FE6E
:1049A00003C08FEF881A980A95948794A12CB12C94
:1049B0000E191F098A149B0494F0A801B701C601BF
:1049C0008A0D9B1D0E947F23A801B701CE018A1981
:1049D0009B090E947F238FEFA81AB80AEBCFDF91C3
:1049E000CF911F910F91FF90EF90DF90CF90BF90EC
:1049F000AF909F908F9008952F923F924F925F9229
:104A00006F927F928F929F92AF92BF92CF92DF92DE
:104A1000EF92FF920F931F93CF93DF93CDB7DEB743
:104A20002C970FB6F894DEBF0FBECDBF8C017C87EC
:104A30006B872A01FC0101900020E9F731971F01E3
:104A4000281A390A80910B05811126C06F307742F0
:104A5000A1F480910C0590910D0501969A838983AC
:104A600020913305229DC001239D900D1124E981E1
:104A7000FA81E81BF90BFC87EB872B853C852E30F0
:104A8000374209F04BC080910C0590910D05A09123
:104A90000E05B0910F0526C0EB85FC85EF30F7427F
:104AA000A1F4809110059091110501969A83898354
:104AB00020913305229DC001239D900D1124E98191
:104AC000FA81E81BF90BFC87EB872B853C852E30A0
:104AD000374221F58091100590911105A0911205A2
:104AE000B09113050196A11DB11D20913305229DA2
:104AF0006001239DD00C11240D2C000CEE08FF0842
:104B0000BC01CD016C197D098E099F0922E030E0BE
:104B100040E050E00E948E3A3C872B8718870F8335
:104B20001C821B82EB81FC81E215F3050CF08BC12A
:104B3000809133058E9F30018F9F700C11242B853F
:104B40003C85620E731EEF81F8850191F887EF8333
:104B5000E0911B05F0911C059081809127058095BF
:104B60008923808320913705809133059091340506
:104B700010E02111DDC020910B05211164C09201CC
:104B8000290F311D21503109A301480F511D4150FA
:104B90005109B201C3010E946922809133058695B3
:104BA000869586959091340520913505021B110953
:104BB000899FC0011124089F7001099FF00C189F64
:104BC000F00C1124F4E0EF0EF11CA12CB12C80911B
:104BD000330586958695869590913405899FC00109
:104BE0001124A816B90608F01DC1E0913105F09115
:104BF0003205EE0DFF1DE49197E0C92ED12C0E2F4A
:104C000010E0C8010C2C02C0959587950A94E2F734
:104C100080FF05C0809107059091080504C0809130
:104C2000090590910A059827892798270E94EE2365
:104C300021E0C21AD10828F78FEFE81AF80A9FEF8F
:104C4000A91AB90AC4CF869586958695209135050F
:104C5000021B1109899FC0011124089F6001099F4F
:104C6000D00C189FD00C1124E4E0CE0ED11C812C66
:104C7000912C20913305622F6695669566958091FB
:104C80003405689FC00111248816990608F0CAC02F
:104C900070E0C4010E947A3A640D751DA301420FB1
:104CA000511D415051099B01C3010E94692200918D
:104CB000330506950695069510E00150110968F137
:104CC000E0913105F0913205C8018C0D9D1DE80F72
:104CD000F91FE491A12CB12CEE2EF12CC7010A2C66
:104CE00002C0959587950A94E2F780FF05C08091F0
:104CF00007059091080504C08091090590910A0567
:104D00009827892798270E94EE232FEFA21AB20A2C
:104D100038E0A316B10411F7D0CF80913305869502
:104D20008695869590E0C80ED91E880E991EA1CF53
:104D300086958695869520913505021B1109899FD8
:104D4000C0011124089F9001099F300D189F300D5C
:104D50001124C90104969A838983820180913405C4
:104D600090E09801241935092817390708F05AC02E
:104D70004301C12CD12CF8013196FA87E987809143
:104D8000330586958695869590E0C816D9060CF071
:104D900040C0E0913105F091320589819A818C0DF6
:104DA0009D1DE80FF91FE491740187E0A82EB12C36
:104DB0002E2F30E03E832D838D819E810A2C02C0F0
:104DC000959587950A94E2F780FF12C029853A8568
:104DD000A7014F5F5F4FB801C7010E946922809110
:104DE0000705909108059827892798270E94EE23A8
:104DF00031E0A31AB1088FEFE81AF80A9FEFA9165D
:104E0000B906D1F6EFEFCE1ADE0AF8E08F0E911C4C
:104E1000B6CF29813A81280F391F3A8329830F5F42
:104E20001F4F9CCFE0911B05F0911C059081809154
:104E30002705892B80830E94FC228B819C8101960F
:104E40009C838B836FCE2C960FB6F894DEBF0FBE7B
:104E5000CDBFDF91CF911F910F91FF90EF90DF9029
:104E6000CF90BF90AF909F908F907F906F905F900A
:104E70004F903F902F90089542E050E06AE074E038
:104E80008EE294E00C944613CF93DF93FC014481AF
:104E90005581608171818EE294E00E944613EC019D
:104EA0000E943C278C0F9D1FDF91CF9108950F9397
:104EB0001F93CF93DF93CDB7DEB762970FB6F89409
:104EC000DEBF0FBECDBF8C01CB01F8011182108275
:104ED00013821282158214824AE0BE016F5F7F4FF7
:104EE0000E94F638BE016F5F7F4FC8010E94E6182E
:104EF00062960FB6F894DEBF0FBECDBFDF91CF91A3
:104F00001F910F910895CF93DF931F921F92CDB7FA
:104F1000DEB769831A8241E050E0BE016F5F7F4FC8
:104F20000E9431180F900F90DF91CF9108950F9349
:104F30001F930E94F0276093360470933704809388
:104F40003804909339048EE294E00E947F1397FF17
:104F50001FC00E94F0270091360410913704209161
:104F6000380430913904DC01CB01801B910BA20B7A
:104F7000B30B00913204109133042091340430912A
:104F8000350480179107A207B307E8F28FEF9FEF70
:104F90001F910F9108953FB7F89480913E0590912D
:104FA0003F05A0914005B091410526B5A89B05C0DD
:104FB0002F3F19F00196A11DB11D3FBFBA2FA92F98
:104FC000982F8827820F911DA11DB11DBC01CD0115
:104FD00042E0660F771F881F991F4A95D1F7089501
:104FE0002FB7F89460913A0570913B0580913C058C
:104FF00090913D052FBF08951F920F920FB60F920B
:1050000011242F933F938F939F93AF93BF938091DE
:105010003A0590913B05A0913C05B0913D0530913A
:10502000390523E0230F2D3720F40196A11DB11D72
:1050300005C026E8230F0296A11DB11D2093390556
:1050400080933A0590933B05A0933C05B0933D05B2
:1050500080913E0590913F05A0914005B09141059A
:105060000196A11DB11D80933E0590933F05A0932D
:105070004005B0934105BF91AF919F918F913F91B2
:105080002F910F900FBE0F901F901895CF93DF9325
:10509000CDB7DEB768970FB6F894DEBF0FBECDBFB1
:1050A000789484B5826084BD84B5816084BD85B503
:1050B000826085BD85B5816085BD80916E0081600F
:1050C00080936E00109281008091810082608093B5
:1050D00081008091810081608093810080918000B7
:1050E0008160809380008091B10084608093B100E2
:1050F0008091B00081608093B000809191008260C7
:1051000080939100809191008160809391008091C3
:1051100090008160809390008091A10082608093D4
:10512000A1008091A10081608093A1008091A000E6
:1051300081608093A0008091210182608093210191
:105140008091210181608093210180912001816003
:105150008093200180917A00846080937A0080910E
:105160007A00826080937A0080917A0081608093D7
:105170007A0080917A00806880937A001092C10052
:10518000E0913E04F0913F0482E08083E0913A0494
:10519000F0913B041082E0913C04F0913D048FECCF
:1051A000808310924604E0914204F091430486E02B
:1051B0008083E0914004F09141048081806180838C
:1051C000E0914004F0914104808188608083E09107
:1051D0004004F0914104808180688083E091400424
:1051E000F091410480818F7D808341E950E062E04D
:1051F00073E08EE294E00E9446130E943C27E9EDA2
:10520000F4E0AEE0B4E089EE94E0219131912D9389
:105210003D938E179F07C9F781E080930B0580911E
:105220002C050E94F12180912D050E94F121809191
:105230002E050E94F12180912F058F3F11F00E94D1
:10524000F12190911505913159F08091140580520A
:10525000833030F0913041F480911605853021F48F
:10526000809130050E94F12180911505813079F0FF
:10527000813131F09FEF91B9803149F497B907C07E
:1052800088E18093010180E283BB8BE38DB9E091DB
:105290001D05F0911E05908180912805892B808342
:1052A00065E070E080E090E00E943A1BE0911D050F
:1052B000F0911E0590818091280580958923808337
:1052C0006FE070E080E090E00E943A1BE0911D05E5
:1052D000F0911E05908180912805892B80836FE0D5
:1052E00070E080E090E00E943A1BE0911B05F09195
:1052F0001C0590818091270580958923808380916A
:1053000014058F3109F492C208F0F1C0893009F414
:1053100019C208F0E5C0813009F0C3C489EE0E94CB
:10532000102260E280E00E942E2281E10E94102281
:1053300064E670E080E090E00E943A1B81ED0E94FC
:10534000102260E080E00E942E2261E780E00E944F
:105350002E2269E180E00E942E2280ED0E94102220
:1053600067E080E00E942E2261E080E00E942E2211
:1053700068E080E00E942E2286E30E94102268E40A
:1053800080E00E942E228AE30E94102265E080E0E5
:105390000E942E2281EC0E94102260E180E00E9497
:1053A0002E2260E180E00E942E2262E080E00E94D6
:1053B0002E2262E080E00E942E2280EC0E941022C9
:1053C00060E080E00E942E2265E380E00E942E22B1
:1053D00060E080E00E942E2260E080E00E942E22A9
:1053E00061E080E00E942E2262E080E00E942E2296
:1053F00085EC0E94102264E080E00E942E2282ED63
:105400000E94102261E080E00E942E2264E480E08D
:105410000E942E2288EC0E94102264E080E00E940C
:105420002E2267E680E00E942E2265E380E00E9443
:105430002E2264E080E00E942E2268E080E00E943C
:105440002E2266E080E00E942E2264E280E00E942C
:105450002E2261E080E00E942E2267E380E00E941D
:105460002E2260E480E00E942E2263E080E00E9411
:105470002E2260E180E00E942E2268E080E00E94FF
:105480002E2260E880E00E942E2260E080E00E94F0
:105490002E228AE20E94102260E080E00E942E22EA
:1054A00060E080E00E942E2260E080E00E942E22D8
:1054B0006FEE80E00E942E228BE20E94102260E0BC
:1054C00080E00E942E2260E080E00E942E2261E0B7
:1054D00080E00E942E226FE880E00E942E22ADC361
:1054E000853109F4AFC2893109F41AC3DAC38132B4
:1054F00009F416C308F414C3823209F471C083326C
:1055000009F0CFC381E10E94102264E170E080E0E5
:1055100090E00E943A1B80ED0E94102287E00E94DA
:105520004C2282E40E944C2288E10E944C2281EDB0
:105530000E94102280E00E944C2287E00E944C22B0
:1055400080E10E944C2282ED0E94102281E00E94A4
:105550004C2282E00E944C2280EC0E94102280E1CA
:105560000E944C228BE30E944C2280E00E944C223D
:1055700082E00E944C2281E10E944C2285EC0E9434
:10558000102283E00E944C2288EC0E94102280E0CE
:105590000E944C2282E30E944C2286E30E944C220D
:1055A00085E40E944C2286E00E944C2286E10E9403
:1055B0004C2287E30E944C2285E70E944C2287E719
:1055C0000E944C2284E50E944C228CE00E944C22D6
:1055D00080E00E944C2286E30E9410228AE432C3BB
:1055E00080EE0E94102280E00E944C2287E00E9400
:1055F0004C2280E10E944C2289E00E944C2287E1EB
:105600000E944C228BE00E944C2280E40E944C229B
:105610008AE80E944C228BE40E944C228AE00E947D
:105620004C228DE00E944C228FE00E944C2285E1AA
:105630000E944C2286E10E944C228FE00E944C2264
:1056400081EE0E94102280E00E944C228AE10E949A
:105650004C228BE10E944C2282E00E944C228DE081
:105660000E944C2285E00E944C2280E30E944C2242
:1056700085E30E944C2283E40E944C2282E00E9437
:105680004C228AE00E944C2289E00E944C2282E354
:105690000E944C2286E30E944C228FE00E944C2202
:1056A00081EB0E94102280EA0E944C2284EB0E942F
:1056B000102282E00E944C2280EC0E94102287E19E
:1056C0000E944C2285E10E944C2281EC0E94102213
:1056D00081E40E944C2285EC0E94102280E00E940E
:1056E0004C228AE00E944C2280E80E944C2286EBE9
:1056F0000E94102282E00E944C2286E30E94102227
:1057000088E40E944C228AE30E94102285E50E94D0
:105710004C2289EE0E94102280E00E944C2287EFEA
:105720000E94102289EA0E944C2281E50E944C22AC
:105730008CE20E944C2282E80E944C2281E10E946D
:105740001022A6C281E10E9410226CE070E080E08D
:1057500090E00E943A1B81EB0E94102281E00E949F
:105760004C228CE20E944C228DE20E944C2282EB61
:105770000E94102281E00E944C228CE20E944C2266
:105780008DE20E944C2283EB0E94102281E00E9455
:105790004C228CE20E944C228DE20E944C2281E03D
:1057A0000E944C228CE20E944C228DE20E944C22EC
:1057B00084EB0E94102287E00E944C2280EC0E9421
:1057C000102282EA0E944C2282E00E944C2284E84D
:1057D0000E944C2281EC0E94102285EC0E944C22F7
:1057E00082EC0E9410228AE00E944C2280E00E94FB
:1057F0004C2283EC0E9410228AE80E944C228AE20A
:105800000E944C2284EC0E9410228AE80E944C22C2
:105810008EEE0E944C2285EC0E9410228EE00E94A7
:105820004C2286E30E94102288EC73C081E10E9422
:1058300010226CE070E080E090E00E943A1B81EB67
:105840000E94102281E00E944C228CE20E944C2295
:105850008DE20E944C2282EB0E94102281E00E9485
:105860004C228CE20E944C228DE20E944C2283EB5F
:105870000E94102281E00E944C228CE20E944C2265
:105880008DE20E944C2281E00E944C228CE20E9418
:105890004C228DE20E944C2284EB0E94102287E071
:1058A0000E944C2280EC0E94102282EA0E944C222C
:1058B00082E00E944C2284E80E944C2281EC0E94EB
:1058C000102285EC0E944C2282EC0E9410228AE079
:1058D0000E944C2280E00E944C2283EC0E94102205
:1058E0008AE80E944C228AE20E944C2284EC0E94A8
:1058F00010228AE80E944C228EEE0E944C2285ECF7
:105900000E9410228EE00E944C2286E30E94102208
:1059100080EC0E944C2280EE0E9410228FE00E94B8
:105920004C228AE10E944C228FE00E944C2288E1A6
:105930000E944C228FE20E944C2288E20E944C225C
:1059400080E20E944C2282E20E944C228FE10E945F
:105950004C228BE10E944C2283E20E944C2287E37E
:105960000E944C2280E00E944C2287E00E944C2240
:1059700082E00E944C2280E10E944C2281EE0E9433
:1059800010228FE00E944C228BE10E944C228FE07B
:105990000E944C2287E10E944C2283E30E944C2209
:1059A0008CE20E944C2289E20E944C228EE20E94EC
:1059B0004C2280E30E944C2280E30E944C2289E327
:1059C0000E944C228FE30E944C2280E00E944C22D5
:1059D00087E00E944C2283E00E944C2280E10E94DA
:1059E0004C228AE20E94102280E00E944C2280E039
:1059F0000E944C2280E00E944C228FE70E944C22A1
:105A00008BE20E94102280E00E944C2280E00E94E3
:105A10004C2280E00E944C228FE90E944C2280EFB1
:105A20000E94102281E00E944C2286EF0E941022E8
:105A300080E00E944C228AE30E94102285E00E94AE
:105A40004C222CC181E10E94102264E170E080E0D0
:105A500090E00E943A1B80ED0E94102287E00E9495
:105A60004C2282E40E944C2288E10E944C2281ED6B
:105A70000E94102280E00E944C2287E00E944C226B
:105A800080E10E944C2282ED0E94102281E00E945F
:105A90004C2282E00E944C2280EC0E94102280E185
:105AA0000E944C228BE30E944C2280E00E944C22F8
:105AB00082E00E944C2281E10E944C2285EC0E94EF
:105AC000102283E00E944C2288EC0E94102280E089
:105AD0000E944C2282E30E944C2286E30E944C22C8
