:100000000C94FA120C942B130C942B130C942B13AA
:100010000C942B130C942B130C942B130C942B1368
:100020000C942B130C942B130C942B130C942B1358
:100030000C942B130C942B130C942B130C942B1348
:100040000C942B130C942B130C942B130C942B1338
:100050000C942B130C942B130C942B130C946224E0
:100060000C942B130C946C180C9442180C942B13B6
:100070000C942B130C942B130C942B130C942B1308
:100080000C942B130C942B130C942B130C942B13F8
:100090000C942B130C942B130C942B130C942B13E8
:1000A0000C942B130C942B130C942B130C942B13D8
:1000B0000C942B130C942B130C942B130C942B13C8
:1000C0000C942B130C942B130C942B130C942B13B8
:1000D0000C942B130C942B130C942B130C942B13A8
:1000E0000C942B130C9426160C945C160C94771419
:1000F0000C9488160C942A150C9489130C94A01453
:100100000C947B130C94CA160C9470170C945C2EF0
:100110000C94FB140C9467130C9496140C942416F2
:100120000C94B4160C940E140C9458130C9469147B
:100130000C942E130C94AA140C942D130C94C1132C
:100140000C941E170C9430161820205F000000003D
:10015000000000000000000000000000000000009F
:10016000000000000000000000000000000000008F
:10017000000000000000000000000000000000007F
:10018000000000000000000000000000000000006F
:10019000000000000000000000000000000000005F
:1001A000000000000000000000000000000000004F
:1001B0001C00001C00001C00001C00001C00001C97
:1001C00000001C00001C00001C00001C00001C00A3
:1001D000001C00001C00001C00001C000018000097
:1001E0000000000000000000001C00003E00003E77
:1001F00000003E00001C00000000000000000000A5
:1002000000000000000000000000000000000001ED
:10021000C0E003E1F003E1F003E1F001E0F000E011
:100220007001C0E003C1E00F87C00E0700000000AE
:1002300000000000000000000000000000000000BE
:1002400000000000000000000000000000000000AE
:10025000000000000000000000000000000000009E
:10026000000000000000000000000000000000008E
:1002700000000038700038700070E00070E000701E
:10028000E00070E00FFFF80FFFF80FFFF800E1C08B
:1002900000E1C000E1C001C38001C38001C3800F41
:1002A000FFF80FFFF80FFFF80387000387000387AD
:1002B00000038700070E00070E000000000000008A
:1002C000000000000000000000000000000000002E
:1002D0003800003800003800003800007F0001FFBF
:1002E000C003FFC007808007000007000007000070
:1002F00007800003C00003F80001FE00007F8000BB
:100300000FC00003C00001E00000E00000E00000BA
:10031000E00201C007FFC007FF8001FE00003800B7
:10032000003800003800003800000000000000071E
:1003300080700FC0E00CC0E01861C01863801863C3
:1003400080186700186700186E000CDC000FDC00D6
:1003500007B800003BC00077E000766000EC300199
:10036000CC3001CC30038C30038C30070C300E06BF
:10037000600E07E01C03C000000000000000000049
:10038000000000000000000000000000000000006D
:100390007C0000FF0001FF0003C78003838003830C
:1003A0008003838003870001CF0001FE0000FC0072
:1003B00001F07003F87003BC70071E600E0FE00EB2
:1003C00007E00E03C00E01C00F03E0078FE007FF38
:1003D0007003FE7000F8380000000000000000000C
:1003E000000000000000000000000000000000000D
:1003F0001800003C00001E00000E00000700000274
:1004000000000000000000000000000000000000EC
:1004100000000000000000000000000000000000DC
:1004200000000000000000000000000000000000CC
:1004300000000000000000000000000000000000BC
:1004400000000000000000000000000000070000A5
:100450000F80000F00001E00003C000038000070FC
:100460000000700000E00000E00000E00001C000BB
:1004700001C00001C00001C00001C00001C00001B6
:10048000C00001C00001C00000E00000E00000E08A
:1004900000007000007000003800003C00001E00EA
:1004A000000F000007800003000001000060000052
:1004B000F000007800003C00001E00000E00000765
:1004C000000007000003800003800003800001C0DB
:1004D0000001C00001C00001C00001C00001C00057
:1004E00001C00001C00001C00003800003800003C0
:1004F00080000700000700000E00001E00003C0006
:1005000000780000F00000600000400000000000E3
:1005100000000000000000000000000000000000DB
:1005200000001C00001C00001C00021C2003C9E08D
:1005300007FFF001FFC0001C00003600007700003C
:10054000F38001E3C000E3800041000000000000F0
:10055000000000000000000000000000000000009B
:10056000000000000000000000000000000000008B
:10057000000000000000000000000000380000380B
:100580000000380000380000380000380000380053
:100590000FFFE00FFFE00FFFE00038000038000021
:1005A0003800003800003800003800003800000033
:1005B000000000000000000000000000000000003B
:1005C000000000000000000000000000000000002B
:1005D000000000000000000000000000000000001B
:1005E000000000000000000000000000000000000B
:1005F00000000000000000000000000000000000FB
:100600000000000000000000000000000E00001FBD
:1006100000001F00001F00000F00000700000E0078
:10062000001C0000780000700000000000000000C6
:1006300000000000000000000000000000000000BA
:1006400000000000000000000000000000000000AA
:1006500000FF0000FF0000FF00000000000000009D
:10066000000000000000000000000000000000008A
:10067000000000000000000000000000000000007A
:10068000000000000000000000000000000000006A
:10069000000000000000000000000000000000005A
:1006A000000000000000000000000000000000004A
:1006B000000000000000000000000000000000003A
:1006C0000000000000000000000000000000001C0E
:1006D00000003E00003E00003E00001C0000000044
:1006E0000000000000000000000000000001C00049
:1006F000038000038000038000070000070000075C
:1007000000000E00000E00000E00000E00001C0095
:10071000001C00001C0000380000380000380000F9
:10072000700000700000700000E00000E00000E0D9
:100730000000E00001C00001C00001C00003800013
:100740000380000380000700000700000000000095
:100750000000007C0001FF0003FF8003C7800783C7
:10076000C00701C00701C00E00E00E00E00E30E03F
:100770000E78E00E78E00E78E00E30E00E00E00E2D
:1007800000E00E00E00701C00701C00783C003C7F7
:100790008003FF8001FF00007C00000000000000DB
:1007A0000000000000000000000000000000000049
:1007B0000000001C00001C00007C0000FC0003FC8A
:1007C00000079C00021C00001C00001C00001C0014
:1007D000001C00001C00001C00001C00001C00008D
:1007E0001C00001C00001C00001C00001C00001C61
:1007F0000003FFC003FFC003FFC0000000000000B3
:1008000000000000000000000000000000000000E8
:10081000000000FC0003FF0007FF800787C0020301
:10082000C00001C00001C00001C00001C000038081
:10083000000780000700000E00001C0000380000C8
:10084000700000E00001C00003800003800007008A
:100850000007FFE007FFE007FFE0000000000000E6
:100860000000000000000000000000000000000088
:10087000000001FC000FFF000FFF8006078000034F
:10088000C00001C00001C00001C00003C00007801B
:1008900000FF0000FF0000FF800007C00001E00033
:1008A00000E00000E00000E00000E00001E00403E0
:1008B000C00FFF800FFF0003FC00000000000000DD
:1008C0000000000000000000000000000000000028
:1008D0000000000780000F80001F80003F80003B69
:1008E0008000738000F38001E38001C38003838074
:1008F0000383800703800F03800E03801E03801F85
:10090000FFF01FFFF01FFFF00003800003800003D3
:1009100080000380000380000380000000000000CE
:1009200000000000000000000000000000000000C7
:10093000000003FF8003FF8003FF8003000003002B
:100940000003000003000007000007000007F0009C
:1009500007FE0007FF00001F800007800003C000A3
:1009600001C00001C00001C00001C00003C00C07AD
:10097000800FFF000FFE0003F800000000000000E1
:100980000000000000000000000000000000000067
:1009900000000003C0001FC0007FC000FC0001E099
:1009A0000003C000038000070000070000067E006F
:1009B0000FFF800FFFC00F03C00E01E00E00E00E1E
:1009C00000E00E00E00E00E00700E00701C007C3F2
:1009D000C003FF8001FF00007E0000000000000057
:1009E0000000000000000000000000000000000007
:1009F00000000FFFE00FFFE00FFFE00000E000014C
:100A0000C0000380000380000700000700000E0004
:100A1000000E00001C00001C000038000038000020
:100A2000380000700000700000700000700000E0EE
:100A30000000E00000E00000E00000000000000016
:100A400000000000000000000000000000000000A6
:100A50000000007C0001FF0003FF8003C7C0070304
:100A6000C00701C00701C00701C00781C003C380E0
:100A700003F70001FE0001FF8003CFC00703C0069B
:100A800001E00E00E00E00E00E00E00F01E0078341
:100A9000C007FFC003FF8000FE0000000000000050
:100AA0000000000000000000000000000000000046
:100AB000000000FC0001FF0003FF800787C0070162
:100AC000C00E01C00E00E00E00E00E00E00E00E0DF
:100AD0000F00E00781E007FFE003FFE000FEE00019
:100AE00001C00001C00003C0000780000F00007EAD
:100AF0000007FC0007F80007C0000000000000002D
:100B000000000000000000000000000000000000E5
:100B100000000000000000000000000000000000D5
:100B200000000000003800007C00007C00007C0019
:100B3000003800000000000000000000000000007D
:100B40000000000000000000003800007C00007C75
:100B500000007C00003800000000000000000000E1
:100B60000000000000000000000000000000000085
:100B70000000000000000000000000000000000075
:100B800000000000003800007C00007C00007C00B9
:100B9000003800000000000000000000000000001D
:100BA0000000000000000000003800007C00007C15
:100BB00000007C00003C00001C00003800007000B9
:100BC00001E00001C0000000000000000000000083
:100BD0000000000000000000000000000000000015
:100BE000000000000000400001E0000FE0003FC0F6
:100BF00000FE0003F8000FC0000F00000FC0000748
:100C0000F80000FE00003FC0000FE00001E000001F
:100C10004000000000000000000000000000000094
:100C200000000000000000000000000000000000C4
:100C300000000000000000000000000000000000B4
:100C4000000000000000000000000FFFE00FFFE0C8
:100C50000FFFE000000000000000000000000000A6
:100C600000000FFFE00FFFE00FFFE00000000000BA
:100C70000000000000000000000000000000000074
:100C80000000000000000000000000000000000064
:100C90000000000000000000000000000000000054
:100CA000000000000400000F00000FE00007F80043
:100CB00000FE00003F800007E00001E00007E000C8
:100CC0003FC000FE0007F8000FE0000F0000040026
:100CD0000000000000000000000000000000000014
:100CE0000000000000000000000000000000000004
:100CF000FE0003FF8003FFC00103E00000E00000EE
:100D0000E00000E00000E00001C0000380000700F8
:100D1000000E00001C00003C0000380000380000FD
:100D20000000000000000000003800007C00007C93
:100D300000007C00003800000000000000000000FF
:100D400000000000000000000000000000000000A3
:100D50003F0000FF8001FFC001E1E00380E003806D
:100D6000700700700700700707F00E1FF00E3FF0CD
:100D70000E3C700E78700E70700E70700E70700EEB
:100D800070700E78700E3870073FF0071FF007077D
:100D9000E007800003C00003C00001F00000FFC0B6
:100DA000007FC0001FC00000000000000000000025
:100DB0007E00007E00007E0000FF0000F70000E7DC
:100DC0000000E70001E78001C38001C38003C3C0C6
:100DD00003C1C00381C00381C00781E007FFE007B2
:100DE000FFE007FFE00F00F00E00700E00700E0035
:100DF000701E00781C003800000000000000000099
:100E000000000000000000000000000000000000E2
:100E100000000FFC000FFF000FFF800E07C00E0345
:100E2000C00E01C00E01C00E01C00E03800E07806F
:100E30000FFF000FFF000FFF800E03C00E01E00E3A
:100E400000E00E00E00E00E00E00E00E01E00E07F4
:100E5000C00FFFC00FFF000FFC00000000000000EB
:100E60000000000000000000000000000000000082
:100E70003F80007FE001FFE003E04003C000078007
:100E8000000700000700000E00000E00000E00002A
:100E90000E00000E00000E00000E00000E00000FFD
:100EA000000007000007800003C00003E04001FFCE
:100EB000E000FFE0003F80000000000000000000B4
:100EC0000000000000000000000000000000000F13
:100ED000F0000FFE000FFF000E0F800E03800E03C8
:100EE000C00E01C00E01E00E00E00E00E00E00E0BA
:100EF0000E00E00E00E00E00E00E00E00E00E00E3E
:100F000001E00E01C00E03C00E03800E0F800FFF24
:100F1000000FFE000FF000000000000000000000C5
:100F200000000000000000000000000000000007BA
:100F3000FFC007FFC007FFC0070000070000070051
:100F40000007000007000007000007000007FF80FF
:100F500007FF8007FF800700000700000700000769
:100F6000000007000007000007000007000007FF5F
:100F7000E007FFE007FFE0000000000000000000C5
:100F8000000000000000000000000000000000075A
:100F9000FFE007FFE007FFE0070000070000070091
:100FA0000007000007000007000007000007FFC05F
:100FB00007FFC007FFC00700000700000700000789
:100FC00000000700000700000700000700000700FE
:100FD0000007000007000000000000000000000003
:100FE0000000000000000000000000000000000001
:100FF0003F8000FFC001FFE003E0C003C040078066
:10100000000700000700000E00000E00000E0000A8
:101010000E00000E00E00E00E00E00E00E00E00FFB
:1010200000E00700E00780E003C0E003E0E001FF2C
:10103000E000FFE0003F8000000000000000000032
:101040000000000000000000000000000000000E92
:1010500000E00E00E00E00E00E00E00E00E00E00EA
:10106000E00E00E00E00E00E00E00E00E00FFFE0FA
:101070000FFFE00FFFE00E00E00E00E00E00E00EBC
:1010800000E00E00E00E00E00E00E00E00E00E00BA
:10109000E00E00E00E00E000000000000000000094
:1010A0000000000000000000000000000000000739
:1010B000FFC007FFC007FFC000380000380000383D
:1010C0000000380000380000380000380000380008
:1010D00000380000380000380000380000380000F8
:1010E000380000380000380000380000380007FFE2
:1010F000C007FFC007FFC0000000000000000000A4
:1011000000000000000000000000000000000001DE
:10111000FFC001FFC001FFC00001C00001C000010D
:10112000C00001C00001C00001C00001C00001C03A
:101130000001C00001C00001C00001C00001C000EA
:1011400001C00001C00001C00403C00707800FFFF9
:101150000007FE0001FC000000000000000000008D
:101160000000000000000000000000000000000E71
:1011700001E00E03C00E03800E07800E0F000E0E5E
:10118000000E1C000E3C000E78000EF0000FE00078
:101190000FE0000FF0000EF8000E7C000E3E000E77
:1011A0001E000E0F000E07800E03C00E03C00E01BE
:1011B000E00E00E00E00F000000000000000000063
:1011C0000000000000000000000000000000000718
:1011D00000000700000700000700000700000700EC
:1011E00000070000070000070000070000070000DC
:1011F00007000007000007000007000007000007C5
:10120000000007000007000007000007000007FFBC
:10121000E007FFE007FFE000000000000000000022
:1012200000000000000000000000000000000003BB
:1012300000600380F00780F00780F006C1B006C1AF
:10124000B006E3B00663300663300677300636300A
:10125000063630063E30061C380E1C380E00380E9E
:1012600000380E00380E00380E00380E00380E0020
:10127000380E00380E0038000000000000000000AA
:101280000000000000000000000000000000000757
:10129000807007C07007C07007E07007E07007F04B
:1012A00070077070077070073870073870071C700F
:1012B000071C70070E70070E70070670070770078F
:1012C00007700703F00703F00701F00701F00700BC
:1012D000F00700F00700F000000000000000000030
:1012E00000000000000000000000000000000000FE
:1012F0007C0001FF0003FF800783C00F01E00E00A8
:10130000E00E00E01C00F01C00701C00701C00705F
:101310001C00701C00701C00701C00701C00701CF5
:1013200000F00E00E00E00E00F01E00783C003FFB5
:101330008001FF00007C00000000000000000000B1
:101340000000000000000000000000000000000796
:10135000FC0007FF0007FF800703C00701E007004C
:10136000E00700E00700E00700E00700E00701E019
:101370000703C007FF8007FF0007FC000700000706
:10138000000007000007000007000007000007003A
:10139000000700000700000000000000000000003F
:1013A000000000000000000000000000000000003D
:1013B0007C0001FF0003FF800783C00F01E00E00E7
:1013C000E00E00E01C00F01C00701C00701C00709F
:1013D0001C00701C00701C00701C00701C00701C35
:1013E00000F00E00E00E00E00F01E00783C003FFF5
:1013F0008001FF0000FE00003800003C00001F00DC
:10140000000FE00007E00000C00000000000000F37
:10141000F8000FFE000FFF000E07800E03C00E0144
:10142000C00E01C00E01C00E01C00E01C00E03802F
:101430000E07800FFF000FFE000FFC000E1E000EB7
:101440000E000E07000E07000E03800E03800E0133
:10145000C00E01C00E00E00000000000000000000F
:10146000000000000000000000000000000000007C
:101470007F0001FFC003FFC003C08007000007001A
:101480000007000007000007800003E00001F800EB
:1014900000FE00003F80000FC00003C00001E0001C
:1014A00000E00000E00000E00401E00F03C00FFFD7
:1014B000C007FF8001FE00000000000000000000E7
:1014C0000000000000000000000000000000000F0D
:1014D000FFE00FFFE00FFFE00038000038000038A9
:1014E00000003800003800003800003800003800E4
:1014F00000380000380000380000380000380000D4
:10150000380000380000380000380000380000388B
:10151000000038000038000000000000000000005B
:101520000000000000000000000000000000000EAD
:1015300000E00E00E00E00E00E00E00E00E00E0005
:10154000E00E00E00E00E00E00E00E00E00E00E015
:101550000E00E00E00E00E00E00E00E00E00E00ED7
:1015600000E00E00E00F01E00701C00783C003FFA9
:101570008001FF0000FE00000000000000000000ED
:101580000000000000000000000000000000001C3F
:1015900000701C00700E00E00E00E00E00E00E0077
:1015A000E00701C00701C00701C00701C003838035
:1015B00003838003838003878001C70001C7000184
:1015C000C70000EE0000EE0000EE00007C00007C92
:1015D00000007C0000780000000000000000000017
:1015E0000000000000000000000000000000000EED
:1015F00000E00E00E00E00E00E00E00E00E00E0045
:10160000E00E00E00E00E00E00E00E38E00E38E0E4
:101610000E38E00E6CE00E6CE00E6CE00EC6E00ED4
:10162000C6E00EC6E00F83E00F83E00F83E00F01FA
:10163000E00701C00701C00000000000000000003A
:101640000000000000000000000000000000001E7C
:1016500000F00E00E00F01E00701C0038380038368
:101660008001C70001EF0000EE0000FE00007C00DA
:10167000003800003800007C0000FE0000EE000191
:10168000C70003C7800383800783C00701C00F0121
:10169000E00E00E01E00F00000000000000000006E
:1016A0000000000000000000000000000000001C1E
:1016B00000700E00E00E00E00F01E00701C007839C
:1016C000C003838003C38001C70001EF0000EE0068
:1016D00000FE00007C00007C0000380000380000A4
:1016E00038000038000038000038000038000038AA
:1016F000000038000038000000000000000000007A
:1017000000000000000000000000000000000007D2
:10171000FFE007FFE007FFE00001C00003C0000397
:1017200080000700000F00000E00001E00003C00BB
:1017300000380000780000700000E00001E00001C7
:10174000C00003C0000380000780000700000FFFF7
:10175000E00FFFE00FFFE0000000000000000000CD
:1017600000000000000000000000000001FF000178
:10177000FF0001C00001C00001C00001C00001C0A5
:101780000001C00001C00001C00001C00001C00094
:1017900001C00001C00001C00001C00001C0000183
:1017A000C00001C00001C00001C00001C00001C0B4
:1017B0000001C00001C00001C00001C00001C00064
:1017C00001C00001C00001FF0001FF000380000311
:1017D000C00001C00001C00000E00000E00000E027
:1017E0000000700000700000700000700000380001
:1017F000003800003800001C00001C00001C000025
:101800000E00000E00000E00000700000700000799
:10181000000007000003800003800003800001C077
:101820000001C00001C00000E00000E000FF8000F7
:10183000FF8000038000038000038000038000031A
:101840008000038000038000038000038000038089
:1018500000038000038000038000038000038000F9
:1018600003800003800003800003800003800003E6
:101870008000038000038000038000038000038059
:1018800000038000038000FF8000FF800000000054
:101890003800007C00007C0000EE0000EE0001C774
:1018A0000001C70003C7800383800783C00701C00E
:1018B0000F01E002008000000000000000000000B6
:1018C0000000000000000000000000000000000018
:1018D0000000000000000000000000000000000008
:1018E00000000000000000000000000000000000F8
:1018F00000000000000000000000000000000000E8
:1019000000000000000000000000000000000000D7
:1019100000000000000000000000000000000000C7
:1019200000000000000000000000000000000000B7
:10193000003FFFF83FFFF83FFFF800000000000005
:101940000000000000000000000000000000000097
:101950007C0000FE0001C7000183000183000183B9
:101960000001C70000FE00007C0000000000000035
:101970000000000000000000000000000000000067
:101980000000000000000000000000000000000057
:101990000000000000000000000000000000000047
:1019A0000000000000000000000000000000000037
:1019B0000000000000000000000000000000000027
:1019C0000000000000FE0001FF8001FFC00183E075
:1019D0000001E00000E00000E0007FE001FFE00324
:1019E000FFE007C0E00700E00700E00700E0078035
:1019F000E003FFE001FFE0007FC000000000000006
:101A000000000000000000000000000007000007C8
:101A100000000700000700000700000700000700A3
:101A200000070000077E0007FF0007FF800783C054
:101A30000701C00701E00700E00700E00700E0073A
:101A400000E00700E00700E00701E00701C007072A
:101A5000C007FF8007FF0003FC000000000000003B
:101A60000000000000000000000000000000000076
:101A70000000000000000000000000000000000066
:101A800000000000003FC000FFE003FFE003E04073
:101A90000780000700000E00000E00000E00000E80
:101AA00000000E00000E000007000007800003E0A9
:101AB0006003FFE000FFE0003FC000000000000006
:101AC0000000000000000000000000000000E00036
:101AD00000E00000E00000E00000E00000E00000A6
:101AE000E00000E0007EE000FFE001FFE003C1E075
:101AF0000380E00780E00700E00700E00700E00760
:101B000000E00700E00700E00780E00380E003E07A
:101B1000E001FFE000FFE0003F8000000000000067
:101B200000000000000000000000000000000000B5
:101B300000000000000000000000000000000000A5
:101B400000000000007E0001FF0003FF8007C3C00B
:101B50000701C00700E00E00E00FFFE00FFFE00FFD
:101B6000FFE00E00000E000007000007000007C0A5
:101B7000C003FFC001FFC0007F00000000000000A4
:101B8000000000000000000000000000000FC00086
:101B90003FF0007FF000783000F00000E00000E04F
:101BA0000000E0000FFFC00FFFC00FFFC000E0000B
:101BB00000E00000E00000E00000E00000E00000C5
:101BC000E00000E00000E00000E00000E00000E0D5
:101BD0000000E00000E00000E00000000000000065
:101BE00000000000000000000000000000000000F5
:101BF00000000000000000000000000000000000E5
:101C000000007F0001FFC003FFC00781C00701C0C3
:101C10000F01C00E01C00E01C00E01C00E01C00EAA
:101C200001C00E01C00701C00783C003FFC001FF50
:101C3000C000FDC00001C00001C00003C006078055
:101C400007FF8007FF0003FC0000000007000007FB
:101C50000000070000070000070000070000070061
:101C60000007000007FC0007FF0007FF8007078050
:101C70000703C00701C00701C00701C00701C00773
:101C800001C00701C00701C00701C00701C007016B
:101C9000C00701C00701C00701C00000000000002C
:101CA0000000000000000000000000000000000034
:101CB000600000F00000F000006000000000000084
:101CC000000000000FF0000FF0000FF000007000A7
:101CD00000700000700000700000700000700000D4
:101CE000700000700000700000700000700000784C
:101CF00020003FE0003FE0000FC0000000000000B7
:101D000000000000000000000000000000000000D3
:101D10000600000F00000F00000600000000000099
:101D20000000000003FF8003FF8003FF80000380AA
:101D30000003800003800003800003800003800014
:101D40000380000380000380000380000380000301
:101D50008000038000038000038000038000038074
:101D6000060F000FFF000FFE0003F800070000073A
:101D70000000070000070000070000070000070040
:101D8000000700000701E00703C0070780070F00F6
:101D9000071E00073C0007780007F00007E0000777
:101DA000F000077800071C00070F00070700070373
:101DB000800703C00701E00700F0000000000000FA
:101DC00000000000000000000000000007F800070D
:101DD000F80007F80000380000380000380000382C
:101DE00000003800003800003800003800003800DB
:101DF00000380000380000380000380000380000CB
:101E00003800003800003800003800003800003C7E
:101E100010001FF0001FF00007E0000000000000AD
:101E200000000000000000000000000000000000B2
:101E300000000000000000000000000000000000A2
:101E40000000000007E3C00FFFE00FFFE00E3CF0D2
:101E50000E1C700E1C700E1C700E1C700E1C700E72
:101E60001C700E1C700E00700E00700E00700E00C4
:101E7000700E00700E00700E007000000000000078
:101E80000000000000000000000000000000000052
:101E90000000000000000000000000000000000042
:101EA0000000000000FE0003FF8003FFC00383C0AA
:101EB0000381E00380E00380E00380E00380E0032F
:101EC00080E00380E00380E00380E00380E00380A3
:101ED000E00380E00380E00380E0000000000000F9
:101EE00000000000000000000000000000000000F2
:101EF00000000000000000000000000000000000E2
:101F000000000000007C0001FF0003FF800783C089
:101F10000701C00F01E00E00E00E00E00E00E00E31
:101F200000E00E00E00E00E00701E00701C00783BB
:101F3000C003FF8001FF00007C00000000000000E3
:101F40000000000000000000000000000000000091
:101F50000000000000000000000000000000000081
:101F60000000000001FC0007FF0007FF800707C01A
:101F70000701C00701C00700E00700E00700E00715
:101F800000E00700E00700E00701E00701C0078369
:101F9000C007FF8007FF00077C0007000007000064
:101FA0000700000700000700000700000000000015
:101FB0000000000000000000000000000000000021
:101FC00000000000003F8000FFE001FFE003E0E0D0
:101FD0000380E00380E00700E00700E00700E0077F
:101FE00000E00700E00700E00780E00380E003C1B5
:101FF000E001FFE000FFE0003EE00000E00000E064
:102000000000E00000E00000E00000E00000000050
:1020100000000000000000000000000000000000C0
:102020000000000000FFC007FFC007FFC00780805E
:102030000700000700000700000700000700000776
:10204000000007000007000007000007000007006D
:10205000000700000700000700000000000000006B
:102060000000000000000000000000000000000070
:102070000000000000000000000000000000000060
:102080000000000000FF0001FF8003FF8007818047
:1020900007000007000007C00003F00001FE000079
:1020A0007F00001F800003C00001C00001C00603C4
:1020B000C007FF8007FF8001FE0000000000000055
:1020C0000000000000000000000000000000000010
:1020D000000000000000E00000E00000E00000E080
:1020E0000000E0000FFFE00FFFE00FFFE000E00066
:1020F00000E00000E00000E00000E00000E0000080
:10210000E00000E00000E00000E00000E00000F07F
:1021100020007FE0007FE0001FC000000000000002
:1021200000000000000000000000000000000000AF
:10213000000000000000000000000000000000009F
:10214000000000000701C00701C00701C00701C06F
:102150000701C00701C00701C00701C00701C00790
:1021600001C00701C00701C00701C00781C003C14A
:10217000C003FFC001FFC0007F000000000000009E
:10218000000000000000000000000000000000004F
:10219000000000000000000000000000000000003F
:1021A000000000001C00701E00F00E00E00E00E0B9
:1021B0000F01E00701C00701C00783C0038380034C
:1021C000838003C70001C70001EF0000EE0000FE9E
:1021D00000007C00007C00007C000000000000008B
:1021E00000000000000000000000000000000000EF
:1021F00000000000000000000000000000000000DF
:10220000000000001C00701C00701C00701C00709E
:102210001C10700C38E00E38E00E38E00E28E00E8E
:102220006CE00E6CE00644C006C6C006C7C0078757
:10223000C00783C007838003038000000000000004
:10224000000000000000000000000000000000008E
:10225000000000000000000000000000000000007E
:10226000000000001E01E00F03C007038003878009
:1022700003CF0001EE0000FC00007C0000780000AD
:102280007C0000FE0001EE0001C70003C38007834D
:10229000C00F01C00E01E01E00F0000000000000B1
:1022A000000000000000000000000000000000002E
:1022B000000000000000000000000000000000001E
:1022C000000000000E00700F00F00700E00700E0C3
:1022D0000780E00381E00381C003C1C001C3C001E6
:1022E000C38001E38000E78000F780007700007F73
:1022F00000003E00003E00001E00003C00003C00CC
:102300000078000FF0000FF0000FC0000000000088
:1023100000000000000000000000000000000000BD
:102320000000000007FFC007FFC007FFC0000380D8
:10233000000780000F00001E00001C000038000095
:10234000780000F00000E00001E00003C00003801E
:102350000007FFC007FFC007FFC00000000000002B
:10236000000000000000000000000000000000006D
:10237000000000700000E00000E00000E00000E06D
:102380000000E00000E00000E00000E00000E000ED
:1023900000E00000E00001C0000F80000F8000019D
:1023A000C00000E00000E00000E00000E00000E00D
:1023B0000000E00000E00000E00000E00000E000BD
:1023C00000E000007000007F80001F80001C000003
:1023D0001C00001C00001C00001C00001C00001C55
:1023E00000001C00001C00001C00001C00001C0061
:1023F000001C00001C00001C00001C00001C000051
:102400001C00001C00001C00001C00001C00001C24
:1024100000001C00001C00001C00001C00001C0030
:10242000001C00001C00001C00001C0000FC000040
:10243000FF0000070000038000038000038000030A
:10244000800003800003800003800003800003807D
:102450000003800003800001C00000F80000F800C5
:1024600001C000038000038000038000038000039C
:10247000800003800003800003800003800003804D
:1024800000038000070000FF0000FC0000000001C6
:10249000E02003F03007FC700E3FE00C0FC0040793
:1024A00080000000000000000000000000000000AC
:1024B000000000000000000000000000000000001C
:1024C000000000000000000000000000000000000C
:1024D00000000000000000000000000000000000FC
:1024E00000000000000000000000000000002100CB
:1024F000240027002A002D003000330001010000D5
:10250000040107010A0100000A0B02090C0D0E0864
:1025100007030401000000000000000000000000AC
:1025200000000000000000000000000000000000AB
:102530000000121110000000000000000000000068
:102540000000000000000000000000000102102058
:1025500020080810204010204080020102010804D9
:10256000020101020408102040808040201008046D
:1025700002018004020180402010080402010804C6
:10258000020101020408102040800102040810200A
:10259000408000002200250028002B002E00310082
:1025A000340002010000050108010B0105050505C5
:1025B000070508080808020202020A0A08080404BB
:1025C00004040101010101010101030303030303E9
:1025D0000303040707070C0C0C0C0C0C0C0C020278
:1025E000020206060606060606060B0B0B0B0B0B75
:1025F0000B0B5C2E11241FBECFEFD1E2DEBFCDBF8F
:1026000000E00CBF23E0A0EEB2E001C01D92A23FAB
:10261000B207E1F712E0A0E0B2E0E0E0FEE600E0A1
:102620000BBF02C007900D92A03EB107D9F712E18F
:10263000CAEFD2E100E006C021970109802FFE0118
:102640000E946034C93FD10780E00807A9F70E94C3
:10265000E6260C94FE360C9400000895CF92DF928B
:10266000EF92FF920F931F93CF93DF936C017A0148
:102670008B01C0E0D0E0CE15DF0581F0D8016D916F
:102680008D01D601ED91FC910190F081E02DC60104
:102690001995892B11F02196EECF7E01C701DF91AC
:1026A000CF911F910F91FF90EF90DF90CF90089501
:1026B000FC01538D448D252F30E0842F90E0821B48
:1026C000930B541710F0CF96089501970895FC01CD
:1026D000918D828D981761F0828DDF01A80FB11D59
:1026E0005D968C91928D9F5F9F73928F90E008957D
:1026F0008FEF9FEF0895FC01918D828D981731F037
:10270000828DE80FF11D858D90E008958FEF9FEF8A
:102710000895FC01918D228D892F90E0805C9F4F60
:10272000821B91098F739927089582EE92E00E948F
:10273000891321E0892B09F420E0822F0895FC0100
:10274000848DDF01A80FB11DA35ABF4F2C91848D3A
:1027500090E001968F739927848FA689B7892C936F
:10276000A089B1898C91837080648C93938D848DC2
:10277000981306C00288F389E02D80818F7D8083C5
:102780000895EF92FF920F931F93CF93DF93EC0185
:1027900081E0888F9B8D8C8D981305C0E889F9891D
:1027A000808185FD26C0F62E0B8D10E00F5F1F4F38
:1027B0000F731127E02E8C8DE8120CC00FB607FCAA
:1027C000FACFE889F989808185FFF5CFCE010E9493
:1027D0009F13F1CF8B8DFE01E80FF11DE35AFF4FE0
:1027E000F0829FB7F8940B8FEA89FB898081806221
:1027F0000AC09FB7F894EE89FF896083E889F98958
:1028000080818370806480839FBF81E090E0DF914E
:10281000CF911F910F91FF90EF900895CF93DF9389
:10282000EC01888D8823C9F0EA89FB89808185FDC8
:1028300005C0A889B9898C9186FD0FC00FB607FC29
:10284000F5CF808185FFF2CFA889B9898C9185FF6A
:10285000EDCFCE010E949F13E7CFDF91CF91089576
:1028600080E090E0892B21F00E949513811125C012
:1028700080E090E0892B41F080E090E0892B21F00E
:102880000E94000081111CC080E090E0892B41F083
:1028900080E090E0892B21F00E940000811113C09C
:1028A00080E090E0892BA1F080E090E0892B81F01E
:1028B0000E94000081110AC008950E940000D8CF34
:1028C0000E940000E1CF0E940000EACF0C940000BB
:1028D000089580919D0390919E03009739F0DC014B
:1028E000ED91FC910480F581E02D199408950F93EA
:1028F0001F93CF93DF938C010A5F1F4FEC01CA5BDC
:10290000DF4FD8018D919D918D01009751F0DC0131
:10291000ED91FC910480F581E02D19950C171D07B0
:1029200081F7DF91CF911F910F9108958091E3037B
:102930009091E40301969093E4038093E303089558
:102940008091E3039091E40301979093E4038093D3
:10295000E3030895EF92FF921F93CF93DF93EC016F
:102960001091E0021123F1F14889598920919F03C8
:102970003091A00324173507BCF08C899D89840F02
:10298000951F2817390784F44A895B892091A10390
:102990003091A203241735073CF08E899F89840F5C
:1029A000951F2817390714F010E01CC08CA1811165
:1029B00020C0EAA1FBA11995EC8CFD8C8E8D9F8D1A
:1029C0009D8F8C8FE881F9810190F081E02DCE01FF
:1029D0001995FD8EEC8EE881F9810190F081E02D52
:1029E000CE0119951CA3DF91CF911F91FF90EF901D
:1029F0000895182FF7CF1092E002089580E090E03C
:102A000008950E94E0360F931F93CF93DF93EC015C
:102A100088819981009729F02A813B812617370701
:102A200088F48B016F5F7F4F0E94FB35009761F048
:102A3000998388831B830A832C813D81232B11F486
:102A4000FC01108281E001C080E0DF91CF911F91F5
:102A50000F9108950F931F93CF93DF93EC018C0197
:102A60000A5B1F4FD8012D913C918091E303909117
:102A7000E4032817390719F0CE010E94182380912A
:102A8000E3039091E403F801918380832696899172
:102A90009991009751F0DC01ED91FC910480F58152
:102AA000E02D1995C017D10791F7DF91CF911F91B4
:102AB0000F910895CF92DF92EF92FF920F931F93A1
:102AC000CF93DF93EC01E091C503F091C6039081B1
:102AD0008091D1038095892380830E94F025809185
:102AE000BF03813049F0E091C103F091C2039081AE
:102AF0008091CF03892B8083E091BF034091B6037F
:102B00005091B7036091B8037091B9038091BA03F3
:102B10009091BB03A091BC03B091BD03E031B9F427
:102B20009A01AB012F5F3F4F4F4F5F4FBC01CD016B
:102B30006F5F7F4F8F4F9F4F0E94FB339B01AC0114
:102B400060E070E080E090E00E940E1B56C0E8302C
:102B500021F0C12CD12C760122C09A01AB012F5F4C
:102B60003F4F4F4F5F4FBC01CD016F5F7F4F8F4F86
:102B70009F4F0E94FB33AB01BC0180E090E00E94BC
:102B80009D1C3BC04091BF03413069F160E080E093
:102B90000E94F1188FEFC81AD80AE80AF80A809143
:102BA000B6039091B703A091B803B091B9039C010B
:102BB000AD012F5F3F4F4F4F5F4F8091BA03909110
:102BC000BB03A091BC03B091BD03BC01CD016F5FFD
:102BD0007F4F8F4F9F4F0E94FB33C616D706E806E4
:102BE000F90684F20AC041E060E081E00E94F11839
:102BF0004091BF0360E081E0CBCFE091C503F0914D
:102C0000C60390818091D103892B80838E010A5F56
:102C10001F4FCA5BDF4FD8018D919D918D010097A9
:102C200051F0DC01ED91FC910190F081E02D1995BE
:102C3000C017D10781F7DF91CF911F910F91FF90BE
:102C4000EF90DF90CF9008950C945A15CF93DF93B7
:102C5000EC010E945A15CE01DF91CF910C941823FC
:102C6000EF92FF920F931F93CF93DF93EC017B01C1
:102C70008A01E1EBF3E0108211826A897B898889FD
:102C800099892E893F89260F371F4C895D89480F06
:102C9000591F0E94B21FF98AE88A1B8B0A8BE881B0
:102CA000F9810190F081E02DCE01DF91CF911F914C
:102CB0000F91FF90EF901994EF92FF920F931F9353
:102CC000CF93DF93EC017B018A01E1EBF3E010820B
:102CD00011826A897B89888999892E893F89260F83
:102CE000371F4C895D89480F591F0E94B21FF98A0E
:102CF000E88A1B8B0A8BE881F9810190F081E02D35
:102D0000CE01DF91CF911F910F91FF90EF90199419
:102D1000EF92FF920F931F93CF93DF93EC017B0110
:102D20008A01E1EBF3E010821182688979898E854E
:102D30009F852C893D89260F371F4A895B89480F5B
:102D4000591F0E94B21FFF86EE86198B088BE881FF
:102D5000F9810190F081E02DCE01DF91CF911F919B
:102D60000F91FF90EF901994FC0186899789A1EB50
:102D7000B3E09C9311968C936089718986859785C1
:102D800024893589260F371F42895389480F591FD7
:102D90000C94B21F0F931F93CF93DF93EC018C8D94
:102DA0009D8D01EB13E0D8019C9311968C936A8959
:102DB0007B89888999892E893F89260F371F4C89FD
:102DC0005D89480F591F0E94B21F8E8D9F8DF8019B
:102DD0009083818381E080ABE8E4F1E0D8019B96A9
:102DE000FC93EE939A97E4919C96EC939C97E9E47C
:102DF000F1E0E4919D96EC939D97EAE4F1E0E49193
:102E00009E96EC939E97EBE4F1E0E4919F96EC9311
:102E10004A895B898A8D9B8D480F591F68897989FA
:102E2000888D998D680F791FEE85FF85808191814E
:102E3000DF91CF911F910F910C94BC200F931F93A2
:102E4000CF93DF93EC018C8D9D8D01EB13E0D801C6
:102E50009C9311968C936A897B89888999892E899C
:102E60003F89260F371F4C895D89480F591F0E94E3
:102E7000B21F88A199A1F8019083818381E080AB82
:102E8000E8E4F1E0D8019B96FC93EE939A97E491E5
:102E90009C96EC939C97E9E4F1E0E4919D96EC9389
:102EA0009D97EAE4F1E0E4919E96EC939E97EBE423
:102EB000F1E0E4919F96EC934A895B898A8D9B8D22
:102EC000480F591F68897989888D998D680F791FF6
:102ED0008E859F85DF91CF911F910F910C94BC201F
:102EE00046E050E060EB72E082EE92E00E942E132A
:102EF0000C94FC22EF92FF920F931F93CF93DF93DA
:102F00006115710511F480E01CC041155105C1F037
:102F10007B01EC018C819D818A01080F191FB8018A
:102F2000CE010E940315882371F3288139818C8199
:102F30009D81B701820F931F0E94F7361D830C837A
:102F400081E0DF91CF911F910F91FF90EF90089555
:102F50000F931F93CF93DF938C01EB01FC018081D2
:102F60009181009739F06881798161157105A1F42B
:102F70000E94723588819981F801918380838A81CA
:102F80009B81938382838C819D8195838483198225
:102F900018821B821A820FC0F801428153812C8152
:102FA0003D814217530720F30E94F7368C819D81A3
:102FB000F801958384831D821C82DF91CF911F913C
:102FC0000F910895CF93DF93EC0188819981009749
:102FD00011F00E947235198218821D821C821B8298
:102FE0001A82DF91CF910895CF93DF93EC01FB011B
:102FF00044815581608171810E947A17811103C0DB
:10300000CE010E94E217CE01DF91CF910895EF9299
:10301000FF920F931F93CF93DF93EC017B018A0103
:10302000BA010E940315811104C0CE010E94E2176B
:1030300007C01D830C83B701888199810E94F736F0
:10304000CE01DF91CF911F910F91FF90EF900895E6
:10305000FC01808191810C947235FC0111821082F7
:1030600013821282158214826115710551F0FB01E1
:1030700001900020E9F73197AF01461B570B0C94E4
:10308000071808951F920F920FB60F9211240BB6D6
:103090000F922F933F934F935F936F937F938F93F1
:1030A0009F93AF93BF93EF93FF9382EE92E00E94C2
:1030B0009F13FF91EF91BF91AF919F918F917F915E
:1030C0006F915F914F913F912F910F900BBE0F9099
:1030D0000FBE0F901F9018951F920F920FB60F9270
:1030E00011240BB60F922F938F939F93EF93FF931F
:1030F000E091F202F091F3028081E091F802F09108
:10310000F90282FD12C090818091FB028F5F8F7364
:103110002091FC02821751F0E091FB02F0E0EE51A9
:10312000FD4F958F8093FB0201C08081FF91EF914D
:103130009F918F912F910F900BBE0F900FBE0F900C
:103140001F9018950F931F93CF93DF93EC0120E00E
:1031500030E0A901688179818A819B810E94D53400
:103160001816F4F40E9422240A851B852C853D85BF
:10317000601B710B820B930B0E942F339B01AC01E0
:10318000688179818A819B810E9468346883798310
:103190008A839B830E9422246A877B878C879D87F2
:1031A00020E030E0A901688179818A819B810E94B9
:1031B0002A3318168CF0EC81FD8119958E819F8140
:1031C000A885B98588839983AA83BB830E9422241A
:1031D0006A877B878C879D87DF91CF911F910F91A5
:1031E0000895483009F448C118F4413041F0089579
:1031F000403109F457C1413109F468C108959091F3
:10320000C003943019F5E091C903F091CA0390917D
:10321000D303813019F48081982B03C0808190956D
:1032200098239083E091CB03F091CC03908180911F
:10323000D403809589238083E091CB03F091CC0364
:1032400090818091D403892B80830FC0E091C103CA
:10325000F091C2039091CF03813019F48081982BB3
:1032600003C08081909598239083E091C903F091E9
:10327000CA038091D303908167FF02C0892B02C0EB
:10328000809589238083E091CB03F091CC039081DA
:103290008091D403809589238083E091CB03F091C2
:1032A000CC0390818091D403892B8083E091C90362
:1032B000F091CA038091D303908166FF02C0892BED
:1032C00002C0809589238083E091CB03F091CC03E9
:1032D00090818091D403809589238083E091CB03F2
:1032E000F091CC0390818091D403892B8083E0916D
:1032F000C903F091CA038091D303908165FF02C096
:10330000892B02C0809589238083E091CB03F091C3
:10331000CC0390818091D403809589238083E091B0
:10332000CB03F091CC0390818091D403892B8083CF
:10333000E091C903F091CA038091D303908164FFA7
:1033400002C0892B02C0809589238083E091CB0342
:10335000F091CC0390818091D40380958923808360
:10336000E091CB03F091CC0390818091D403892B21
:103370008083E091C903F091CA038091D3039081C7
:1033800063FF02C0892B02C0809589238083E0916E
:10339000CB03F091CC0390818091D4038095892355
:1033A0008083E091CB03F091CC0390818091D40392
:1033B000892B8083E091C903F091CA038091D303E4
:1033C000908162FF02C0892B02C08095892380838F
:1033D000E091CB03F091CC0390818091D403809550
:1033E00089238083E091CB03F091CC03908180917D
:1033F000D403892B8083E091C903F091CA038091A3
:10340000D303908161FF02C0892B02C0809589237C
:103410008083E091CB03F091CC0390818091D40321
:10342000809589238083E091CB03F091CC03908138
:103430008091D403892B8083E091C903F091CA0362
:103440008091D303908160FF02C0892B02C08095D8
:1034500089238083E091CB03F091CC03908180910C
:10346000D403809589238083E091CB03F091CC0332
:1034700090818091D403CFC082B9E091C303F091D1
:10348000C40390818091D003809589238083E0914B
:10349000C303F091C40390818091D003892B808372
:1034A00062B902C082B968B9E091C303F091C40364
:1034B00090818091D003809589238083E091C3031C
:1034C000F091C40390818091D003A5C0A59824B346
:1034D000982F9071990F922B94BB90910201977E37
:1034E0009093020190910201282F082E000C330BBB
:1034F000207C332743E0359527954A95E1F7292B22
:10350000209302019EB1947C9EB92EB1382F3C705D
:10351000330F330F982F9370390F8072082E000CE1
:10352000990B9595879595958795830F822B8EB9E5
:10353000E091CD03F091CE0390818091D5038095E9
:1035400089238083E091CD03F091CE039081809117
:10355000D503892B8083E091CD03F091CE03908138
:103560008091D503809589238083E091C503F091F4
:10357000C60390818091D103809589238083A5988B
:1035800094B3862F8071880F892B84BB80910201B0
:10359000877E8093020120910201862F062E000C67
:1035A000990B807C992773E0959587957A95E1F73B
:1035B000822B809302018EB1847C8EB98EB1962FBE
:1035C0009C70990F990F262F2370920F6072062E10
:1035D000000C770B7595679575956795690F682B46
:1035E0006EB9E091C303F091C40390818091D00340
:1035F000809589238083E091C303F091C403908177
:103600008091D003892B8083E091C503F091C6039C
:1036100090818091D103892B808308958F929F920E
:10362000AF92BF92CF92DF92EF92FF9269017A013F
:1036300082B968B9CA01B90120E130E040E050E048
:103640000E941F3449015A0180E090E0DC01881596
:103650009905AA05BB050CF034C1E091C303F091B4
:10366000C40330812091D003209523232083E0914F
:10367000C303F091C40330812091D003232B208316
:10368000E091C303F091C40330812091D0032095D1
:1036900023232083E091C303F091C4033081209160
:1036A000D003232B2083E091C303F091C403308126
:1036B0002091D003209523232083E091C303F09130
:1036C000C40330812091D003232B2083E091C303D6
:1036D000F091C40330812091D003209523232083CF
:1036E000E091C303F091C40330812091D003232BD8
:1036F0002083E091C303F091C40330812091D00373
:10370000209523232083E091C303F091C4033081EB
:103710002091D003232B2083E091C303F091C403B5
:1037200030812091D003209523232083E091C3038F
:10373000F091C40330812091D003232B2083E091AA
:10374000C303F091C40330812091D003209523233B
:103750002083E091C303F091C40330812091D00312
:10376000232B2083E091C303F091C4033081209187
:10377000D003209523232083E091C303F091C40359
:1037800030812091D003232B2083E091C303F0915B
:10379000C40330812091D003209523232083E0911E
:1037A000C303F091C40330812091D003232B2083E5
:1037B000E091C303F091C40330812091D0032095A0
:1037C00023232083E091C303F091C403308120912F
:1037D000D003232B2083E091C303F091C4033081F5
:1037E0002091D003209523232083E091C303F091FF
:1037F000C40330812091D003232B2083E091C303A5
:10380000F091C40330812091D0032095232320839D
:10381000E091C303F091C40330812091D003232BA6
:103820002083E091C303F091C40330812091D00341
:10383000209523232083E091C303F091C4033081BA
:103840002091D003232B2083E091C303F091C40384
:1038500030812091D003209523232083E091C3035E
:10386000F091C40330812091D003232B2083E09179
:10387000C303F091C40340813091D00330953423C9
:103880003083E091C303F091C40320813091D003D1
:10389000322B3083E091C303F091C4034081309117
:1038A000D003309534233083E091C303F091C403F7
:1038B00020813091D003322B30830196A11DB11DA0
:1038C000C6CED701C6018F709927AA27BB27892B9F
:1038D0008A2B8B2B49F1C701B60120E130E040E093
:1038E00050E00E941F34C12CD12C76016C157D054F
:1038F0008E059F05CCF0E091C303F091C4033081A5
:103900002091D003209523232083E091C303F091DD
:10391000C40330812091D003232B20832FEFC21AC0
:10392000D20AE20AF20AE2CFFF90EF90DF90CF9046
:10393000BF90AF909F908F9008958F929F92AF927B
:10394000BF92CF92DF92EF92FF926A017B0182B920
:10395000CB01BA0120E130E040E050E00E941F348A
:1039600049015A0180E090E0DC0188159905AA051B
:10397000BB050CF064C2E091C303F091C403308135
:103980002091D003209523232083E091C303F0915D
:10399000C40330812091D003232B2083E091C30303
:1039A000F091C40330812091D003209523232083FC
:1039B000E091C303F091C40330812091D003232B05
:1039C0002083E091C303F091C40330812091D003A0
:1039D000209523232083E091C303F091C403308119
:1039E0002091D003232B2083E091C303F091C403E3
:1039F00030812091D003209523232083E091C303BD
:103A0000F091C40330812091D003232B2083E091D7
:103A1000C303F091C40330812091D0032095232368
:103A20002083E091C303F091C40330812091D0033F
:103A3000232B2083E091C303F091C40330812091B4
:103A4000D003209523232083E091C303F091C40386
:103A500030812091D003232B2083E091C303F09188
:103A6000C40330812091D003209523232083E0914B
:103A7000C303F091C40330812091D003232B208312
:103A8000E091C303F091C40330812091D0032095CD
:103A900023232083E091C303F091C403308120915C
:103AA000D003232B2083E091C303F091C403308122
:103AB0002091D003209523232083E091C303F0912C
:103AC000C40330812091D003232B2083E091C303D2
:103AD000F091C40330812091D003209523232083CB
:103AE000E091C303F091C40330812091D003232BD4
:103AF0002083E091C303F091C40330812091D0036F
:103B0000209523232083E091C303F091C4033081E7
:103B10002091D003232B2083E091C303F091C403B1
:103B200030812091D003209523232083E091C3038B
:103B3000F091C40330812091D003232B2083E091A6
:103B4000C303F091C40330812091D0032095232337
:103B50002083E091C303F091C40330812091D0030E
:103B6000232B2083E091C303F091C4033081209183
:103B7000D003209523232083E091C303F091C40355
:103B800030812091D003232B2083E091C303F09157
:103B9000C40330812091D003209523232083E0911A
:103BA000C303F091C40330812091D003232B2083E1
:103BB000E091C303F091C40330812091D00320959C
:103BC00023232083E091C303F091C403308120912B
:103BD000D003232B2083E091C303F091C4033081F1
:103BE0002091D003209523232083E091C303F091FB
:103BF000C40330812091D003232B2083E091C303A1
:103C0000F091C40330812091D00320952323208399
:103C1000E091C303F091C40330812091D003232BA2
:103C20002083E091C303F091C40330812091D0033D
:103C3000209523232083E091C303F091C4033081B6
:103C40002091D003232B2083E091C303F091C40380
:103C500030812091D003209523232083E091C3035A
:103C6000F091C40330812091D003232B2083E09175
:103C7000C303F091C40330812091D0032095232306
:103C80002083E091C303F091C40330812091D003DD
:103C9000232B2083E091C303F091C4033081209152
:103CA000D003209523232083E091C303F091C40324
:103CB00030812091D003232B2083E091C303F09126
:103CC000C40330812091D003209523232083E091E9
:103CD000C303F091C40330812091D003232B2083B0
:103CE000E091C303F091C40330812091D00320956B
:103CF00023232083E091C303F091C40330812091FA
:103D0000D003232B2083E091C303F091C4033081BF
:103D10002091D003209523232083E091C303F091C9
:103D2000C40330812091D003232B2083E091C3036F
:103D3000F091C40330812091D00320952323208368
:103D4000E091C303F091C40330812091D003232B71
:103D50002083E091C303F091C40330812091D0030C
:103D6000209523232083E091C303F091C403308185
:103D70002091D003232B2083E091C303F091C4034F
:103D800030812091D003209523232083E091C30329
:103D9000F091C40330812091D003232B2083E09144
:103DA000C303F091C40330812091D00320952323D5
:103DB0002083E091C303F091C40330812091D003AC
:103DC000232B2083E091C303F091C4033081209121
:103DD000D003209523232083E091C303F091C403F3
:103DE00030812091D003232B2083E091C303F091F5
:103DF000C40340813091D003309534233083E09167
:103E0000C303F091C40320813091D003322B30835F
:103E1000E091C303F091C40340813091D003309509
:103E200034233083E091C303F091C40320813091A7
:103E3000D003322B30830196A11DB11D96CDD70141
:103E4000C6018F709927AA27BB27892B8A2B8B2B1A
:103E5000E1F1C701B60120E130E040E050E00E940E
:103E60001F34C12CD12C76016C157D058E059F0564
:103E700064F1E091C303F091C40330812091D00339
:103E8000209523232083E091C303F091C403308164
:103E90002091D003232B2083E091C303F091C4032E
:103EA00030812091D003209523232083E091C30308
:103EB000F091C40330812091D003232B20832FEF76
:103EC000C21AD20AE20AF20ACFCFFF90EF90DF9037
:103ED000CF90BF90AF909F908F90089590E0FC019D
:103EE000E45BFA4D2491FC01E455FA4D849188235A
:103EF00099F090E0880F991FFC01E451FB4DA591CA
:103F0000B491FC01EE56FA4D859194918FB7F894D7
:103F1000EC91E22BEC938FBF08953FB7F89480911A
:103F2000EA039091EB03A091EC03B091ED0326B569
:103F3000A89B05C02F3F19F00196A11DB11D3FBFE1
:103F4000BA2FA92F982F8827820F911DA11DB11D6F
:103F5000BC01CD0142E0660F771F881F991F4A956B
:103F6000D1F708958F929F92AF92BF92CF92DF9236
:103F7000EF92FF920F931F93CF93DF936C017B011E
:103F8000EA018901481759072CF4982F8D2D6A01F1
:103F9000C92FD82F0E151F052CF49E2D8F2D7801BB
:103FA000092F182F8091BF03803109F040C0E091A4
:103FB000C503F091C60390818091D1038095892338
:103FC00080839801AE01B701C6010E945D25E09192
:103FD000C103F091C20390818091CF03892B80832C
:103FE000CC19DD09CE01DD0FAA0BBB0B9C01AD0185
:103FF0002F5F3F4F4F4F5F4FB8016E197F09CB01C5
:10400000770FAA0BBB0BBC01CD016F5F7F4F8F4FAA
:104010009F4F0E94FB339B01AC01E091B2036E2FD6
:1040200070E08091B10390E00E940E1B44C0883084
:1040300009F04BC09091B1038091B203981345C031
:10404000E091C503F091C60390818091D1038095E2
:10405000892380839801AE01B701C6010E945D25C6
:10406000E091C103F091C20390818091CF03892B2D
:104070008083CC19DD09CE01DD0FAA0BBB0B9C019F
:10408000AD012F5F3F4F4F4F5F4FB8016E197F0952
:10409000CB01770FAA0BBB0BBC01CD016F5F7F4F2C
:1040A0008F4F9F4F0E94FB33AB01BC018091B10346
:1040B00090E00E949D1CE091C503F091C6039081A1
:1040C0008091D103892B80834AC08091B5038111EF
:1040D00023C05801AE18BF08B7FE03C08FEFA81A5F
:1040E000B80AB594A794812C912CCC19DD09A81499
:1040F000B904ACF1B701680D791DAE01C6010E948B
:104100000A26B80168197909AE01C6010E940A267B
:104110008FEF881A980AEBCF4E018C189D0897FEF6
:1041200003C08FEF881A980A95948794A12CB12C1C
:104130000E191F098A149B0494F0A801B701C60147
:104140008A0D9B1D0E947726A801B701CE018A190E
:104150009B090E9477268FEFA81AB80AEBCFDF9150
:10416000CF911F910F91FF90EF90DF90CF90BF9074
:10417000AF909F908F9008952F923F924F925F92B1
:104180006F927F928F929F92AF92BF92CF92DF9267
:10419000EF92FF920F931F93CF93DF93CDB7DEB7CC
:1041A0002C970FB6F894DEBF0FBECDBF8C017C8775
:1041B0006B872A01FC0101900020E9F731971F016C
:1041C000281A390A8091B503811126C06F307742D1
:1041D000A1F48091B6039091B70301969A838983E5
:1041E0002091DD03229DC001239D900D1124E981C2
:1041F000FA81E81BF90BFC87EB872B853C852E3079
:10420000374209F04BC08091B6039091B703A0915B
:10421000B803B091B90326C0EB85FC85EF30F742B7
:10422000A1F48091BA039091BB0301969A8389838C
:104230002091DD03229DC001239D900D1124E98171
:10424000FA81E81BF90BFC87EB872B853C852E3028
:10425000374221F58091BA039091BB03A091BC0332
:10426000B091BD030196A11DB11D2091DD03229DDA
:104270006001239DD00C11240D2C000CEE08FF08CA
:10428000BC01CD016C197D098E099F0922E030E047
:1042900040E050E00E941F343C872B8718870F8333
:1042A0001C821B82EB81FC81E215F3050CF08BC1B3
:1042B0008091DD038E9F30018F9F700C11242B8520
:1042C0003C85620E731EEF81F8850191F887EF83BC
:1042D000E091C503F091C60390818091D103809550
:1042E000892380832091E1038091DD039091DE0397
:1042F00010E02111DDC02091B503211164C09201AD
:10430000290F311D21503109A301480F511D415082
:104310005109B201C3010E945D258091DD0386959C
:10432000869586959091DE032091DF03021B11098B
:10433000899FC0011124089F7001099FF00C189FEC
:10434000F00C1124F4E0EF0EF11CA12CB12C8091A3
:10435000DD038695869586959091DE03899FC00141
:104360001124A816B90608F01DC1E091DB03F091F5
:10437000DC03EE0DFF1DE49197E0C92ED12C0E2F2A
:1043800010E0C8010C2C02C0959587950A94E2F7BD
:1043900080FF05C08091B1039091B20304C0809169
:1043A000B3039091B4039827892798270E94062683
:1043B00021E0C21AD10828F78FEFE81AF80A9FEF18
:1043C000A91AB90AC4CF8695869586952091DF03F0
:1043D000021B1109899FC0011124089F6001099FD8
:1043E000D00C189FD00C1124E4E0CE0ED11C812CEF
:1043F000912C2091DD03622F6695669566958091DC
:10440000DE03689FC00111248816990608F0CAC00F
:1044100070E0C4010E940B34640D751DA301420FAE
:10442000511D415051099B01C3010E945D2500911E
:10443000DD0306950695069510E00150110968F117
:10444000E091DB03F091DC03C8018C0D9D1DE80FAA
:10445000F91FE491A12CB12CEE2EF12CC7010A2CEE
:1044600002C0959587950A94E2F780FF05C0809178
:10447000B1039091B20304C08091B3039091B4034F
:104480009827892798270E9406262FEFA21AB20A9A
:1044900038E0A316B10411F7D0CF8091DD038695E3
:1044A0008695869590E0C80ED91E880E991EA1CFDC
:1044B0008695869586952091DF03021B1109899FB9
:1044C000C0011124089F9001099F300D189F300DE5
:1044D0001124C90104969A83898382018091DE03A5
:1044E00090E09801241935092817390708F05AC0B7
:1044F0004301C12CD12CF8013196FA87E9878091CC
:10450000DD0386958695869590E0C816D9060CF051
:1045100040C0E091DB03F091DC0389819A818C0D2E
:104520009D1DE80FF91FE491740187E0A82EB12CBE
:104530002E2F30E03E832D838D819E810A2C02C078
:10454000959587950A94E2F780FF12C029853A85F0
:10455000A7014F5F5F4FB801C7010E945D258091A1
:10456000B1039091B2039827892798270E940626C5
:1045700031E0A31AB1088FEFE81AF80A9FEFA916E5
:10458000B906D1F6EFEFCE1ADE0AF8E08F0E911CD5
:10459000B6CF29813A81280F391F3A8329830F5FCB
:1045A0001F4F9CCFE091C503F091C603908180918D
:1045B000D103892B80830E94F0258B819C810196F9
:1045C0009C838B836FCE2C960FB6F894DEBF0FBE04
:1045D000CDBFDF91CF911F910F91FF90EF90DF90B2
:1045E000CF90BF90AF909F908F907F906F905F9093
:1045F0004F903F902F90089542E050E06DED72E0B3
:1046000082EE92E00C942E13CF93DF931F921F92B1
:10461000CDB7DEB769831A8241E050E0BE016F5F1B
:104620007F4F0E947A170F900F90DF91CF910895DE
:10463000EF92FF920F931F93CF93DF93CDB7DEB727
:10464000A0970FB6F894DEBF0FBECDBF8C014AE035
:10465000CE0101967C01BC018091E3039091E403BB
:104660000E94E032F801E85BFF4FF182E082D8015E
:104670001A968D919C911B97DC01ED91FC91019014
:10468000F081E02D1995A0960FB6F894DEBF0FBE0D
:10469000CDBFDF91CF911F910F91FF90EF900895C3
:1046A000EF92FF920F931F93CF93DF937C01CDE89E
:1046B000D3E0099119910115110599F0B701D801BD
:1046C00012968D919C9113970E94EE36892B29F4B6
:1046D00010939E0300939D0304C0B3E0CD39DB0724
:1046E00041F780919D0390919E03009769F0DC0152
:1046F000ED91FC910280F381E02DDF91CF911F912C
:104700000F91FF90EF901994DF91CF911F910F912E
:10471000FF90EF900895CF93DF93FC014481558182
:104720006081718182EE92E00E942E13EC010E9462
:10473000FC228C0F9D1FDF91CF910895CF93DF93C3
:10474000EC0141E050E065EA72E00E947A178111C5
:1047500003C0CE010E94E217CE01DF91CF910895F0
:10476000EF92FF920F931F93CF93DF93CDB7DEB7F6
:1047700062970FB6F894DEBF0FBECDBF8C01CB01A0
:10478000F8011182108213821282158214824AE08B
:104790009E012F5F3F4F7901B9010E94E032F7017E
:1047A00001900020E9F73197AF014E195F09B70179
:1047B000C8010E94071862960FB6F894DEBF0FBEBC
:1047C000CDBFDF91CF911F910F91FF90EF90089592
:1047D0008F929F92AF92BF92CF92DF92EF92FF9211
:1047E0006B017C010E948D1F4B015C01C114D1043F
:1047F000E104F104F1F00E948D1FDC01CB01881966
:104800009909AA09BB09883E9340A105B10570F337
:1048100021E0C21AD108E108F10888EE880E83E091
:10482000981EA11CB11CC114D104E104F10419F7B4
:10483000DDCFFF90EF90DF90CF90BF90AF909F9033
:104840008F9008952FB7F8946091E6037091E70375
:104850008091E8039091E9032FBF08950F931F9370
:104860000E9422246093EA027093EB028093EC0290
:104870009093ED0282EE92E00E94671397FF1FC0B3
:104880000E9422240091EA021091EB022091EC0296
:104890003091ED02DC01CB01801B910BA20BB30B1D
:1048A0000091E6021091E7022091E8023091E902BE
:1048B00080179107A207B307E8F28FEF9FEF1F91D0
:1048C0000F9108951F920F920FB60F9211242F93FC
:1048D0003F938F939F93AF93BF938091E603909103
:1048E000E703A091E803B091E9033091E50323E0E9
:1048F000230F2D3720F40196A11DB11D05C026E818
:10490000230F0296A11DB11D2093E5038093E603BA
:104910009093E703A093E803B093E9038091EA033F
:104920009091EB03A091EC03B091ED030196A11DD2
:10493000B11D8093EA039093EB03A093EC03B09333
:10494000ED03BF91AF919F918F913F912F910F9068
:104950000FBE0F901F901895AF92BF92CF92DF922B
:10496000EF92FF920F931F93CF93DF937C016B0124
:104970005A014230510528F48A0182E0A82EB12C58
:1049800002C002E010E06FED72E0C7010E942D1836
:10499000D6011496CD91DC9115970C171D0740F5A3
:1049A000AC16BD0608F4E501D601ED91FC91119716
:1049B000EC0FFD1FB08010826D917C91600F711F14
:1049C0006115710561F0FB0101900020E9F7319755
:1049D000AF01461B570BC7010E94071803C0C70150
:1049E0000E94E217F60180819181C80FD91FB88219
:1049F000C701DF91CF911F910F91FF90EF90DF9052
:104A0000CF90BF90AF900895682F8091BF03813001
:104A1000A9F0E091C103F091C20390818091CF038E
:104A200080958923808381E08093E2034091BF03D6
:104A300080E00E94F1181092E203089541E080E0C6
:104A40000C94F118CF939091BF03913061F0E091F5
:104A5000C103F091C20320819091CF03922B9083E8
:104A60004091BF030AC0C62F682F41E081E00E9439
:104A7000F1184091BF036C2F81E0CF910C94F11895
:104A8000682F8091BF038130A1F0E091C103F091C4
:104A9000C20390818091CF03892B808381E0809332
:104AA000E2034091BF0380E00E94F1181092E203FC
:104AB000089541E081E00C94F118CF92DF92EF92DB
:104AC000FF920F931F93CF93DF938C01D62EC72EA7
:104AD000EA01F22EE32E8091B503813089F48091B2
:104AE000BA039091BB039C01201B310B841B950BD7
:104AF000CF2DDE2DF22EE32E062F172FD82EC92E06
:104B00008091BE038F31D1F190F58930B9F150F524
:104B1000813009F05CC08AE20E940425612F80E0A8
:104B20000E942225602F80E00E9422256D2F80E0C8
:104B30000E9422256C2F80E00E9422258BE20E9499
:104B400004256C2D80E00E9422256D2D80E00E94BE
:104B500022256E2D80E00E9422256F2D80E00E948C
:104B600022252AC0853151F0893141F030C081328F
:104B700029F020F0823211F0833249F58AE20E9456
:104B80000425812F0E944025802F0E9440258D2FD3
:104B90000E9440258C2F0E9440258BE20E94042514
:104BA0008C2D0E9440258D2D0E9440258E2D0E9427
:104BB00040258F2D0E9440258CE2DF91CF911F91DF
:104BC0000F91FF90EF90DF90CF900C940425DF9130
:104BD000CF911F910F91FF90EF90DF90CF900895AC
:104BE0002091B5038091BA039091BB034091B60325
:104BF0005091B703211102C09C0102C09A01AC017F
:104C000060E070E080E090E00C945D25682F892FD3
:104C10000C9422250F931F93CF93DF93EA0157FF44
:104C200005C0840F951FD195C195D109E091C503A9
:104C3000F091C60330812091D10320952323208356
:104C4000AC014C0F5D1F9B010E945D258091BF034D
:104C50008031B1F4E091C103F091C2039081809161
:104C6000CF03892B80839E01DD0F440B550B609190
:104C7000B20370E08091B10390E00E940E1B28C047
:104C80008830C9F49091B1038091B203981313C096
:104C9000E091C103F091C20390818091CF03892BF1
:104CA0008083AE01DD0F660B770B8091B10390E03E
:104CB0000E949D1C0DC000E010E06091B203809145
:104CC000B1030E9422250F5F1F4FC017D107ACF719
:104CD000E091C503F091C60390818091D103892BA7
:104CE0008083DF91CF911F910F910C94F0250F934A
:104CF0001F93CF93DF93FC01EA0157FF05C0640FB8
:104D0000751FD195C195D109A091C503B091C60376
:104D10002C919091D103909592239C939B012C0F01
:104D20003D1FAF01CF010E945D258091BF038031FF
:104D3000B1F4E091C103F091C20390818091CF035F
:104D4000892B80839E01DD0F440B550B6091B203CC
:104D500070E08091B10390E00E940E1B28C0883063
:104D6000C9F49091B1038091B203981313C0E091FC
:104D7000C103F091C20390818091CF03892B80837E
:104D8000AE01DD0F660B770B8091B10390E00E94BE
:104D90009D1C0DC000E010E06091B2038091B10352
:104DA0000E9422250F5F1F4FC017D107ACF7E0917B
:104DB000C503F091C60390818091D103892B808334
:104DC000DF91CF911F910F910C94F025CF93DF933A
:104DD000CDB7DEB768970FB6F894DEBF0FBECDBF74
:104DE000789484B5826084BD84B5816084BD85B5C6
:104DF000826085BD85B5816085BD80916E008160D2
:104E000080936E0010928100809181008260809377
:104E10008100809181008160809381008091800079
:104E20008160809380008091B10084608093B100A4
:104E30008091B00081608093B00080919100826089
:104E40008093910080919100816080939100809186
:104E500090008160809390008091A1008260809397
:104E6000A1008091A10081608093A1008091A000A9
:104E700081608093A0008091210182608093210154
:104E800080912101816080932101809120018160C6
:104E90008093200180917A00846080937A008091D1
:104EA0007A00826080937A0080917A00816080939A
:104EB0007A0080917A00806880937A001092C10015
:104EC000E091F202F091F30282E08083E091EE0241
:104ED000F091EF021082E091F002F091F1028FEC7C
:104EE00080831092FA02E091F602F091F70286E0D8
:104EF0008083E091F402F091F502808180618083EB
:104F0000E091F402F091F502808188608083E09165
:104F1000F402F091F502808180688083E091F402D0
:104F2000F091F50280818F7D808381E08093B503CD
:104F30008091D6030E946E1F8091D7030E946E1F3E
:104F40008091D8030E946E1F8091D9038F3F11F08A
:104F50000E946E1F9091BF03913159F08091BE0362
:104F60008052833030F0913041F48091C00385301D
:104F700021F48091DA030E946E1F8091BF0381307B
:104F800079F0813131F09FEF91B9803149F497B9CF
:104F900007C088E18093010180E283BB8BE38DB978
:104FA000E091C703F091C80390818091D203892BCF
:104FB000808365E070E080E090E00E94E823E0916B
:104FC000C703F091C80390818091D2038095892313
:104FD00080836FE070E080E090E00E94E823E09141
:104FE000C703F091C80390818091D203892B8083FD
:104FF0006FE070E080E090E00E94E823E091C5035C
:10500000F091C60390818091D1038095892380839C
:105010008091BE038F3109F492C208F0F1C089304B
:1050200009F419C208F0E5C0813009F0C3C489EE63
:105030000E94042560E280E00E94222581E10E9416
:10504000042564E670E080E090E00E94E82381EDB2
:105050000E94042560E080E00E94222561E780E054
:105060000E94222569E180E00E94222580ED0E94B5
:10507000042567E080E00E94222561E080E00E9434
:10508000222568E080E00E94222586E30E94042514
:1050900068E480E00E9422258AE30E94042565E0FE
:1050A00080E00E94222581EC0E94042560E180E0DE
:1050B0000E94222560E180E00E94222562E080E0DB
:1050C0000E94222562E080E00E94222580EC0E945E
:1050D000042560E080E00E94222565E380E00E94D4
:1050E000222560E080E00E94222560E080E00E94AE
:1050F000222561E080E00E94222562E080E00E949B
:10510000222585EC0E94042564E080E00E9422258F
:1051100082ED0E94042561E080E00E94222564E483
:1051200080E00E94222588EC0E94042564E080E053
:105130000E94222567E680E00E94222565E380E048
:105140000E94222564E080E00E94222568E080E041
:105150000E94222566E080E00E94222564E280E031
:105160000E94222561E080E00E94222567E380E022
:105170000E94222560E480E00E94222563E080E016
:105180000E94222560E180E00E94222568E080E004
:105190000E94222560E880E00E94222560E080E0F5
:1051A0000E9422258AE20E94042560E080E00E949D
:1051B000222560E080E00E94222560E080E00E94DD
:1051C00022256FEE80E00E9422258BE20E940425BA
:1051D00060E080E00E94222560E080E00E942225BD
:1051E00061E080E00E9422256FE880E00E94222595
:1051F000ADC3853109F4AFC2893109F41AC3DAC3EA
:10520000813209F416C308F414C3823209F471C060
:10521000833209F0CFC381E10E94042564E170E08C
:1052200080E090E00E94E82380ED0E94042587E062
:105230000E94402582E40E94402588E10E9440258A
:1052400081ED0E94042580E00E94402587E00E94B5
:10525000402580E10E94402582ED0E94042581E0E6
:105260000E94402582E00E94402580EC0E94042597
:1052700080E10E9440258BE30E94402580E00E944F
:10528000402582E00E94402581E10E94402585EC76
:105290000E94042583E00E94402588EC0E9404259A
:1052A00080E00E94402582E30E94402586E30E9420
:1052B000402585E40E94402586E00E94402586E145
:1052C0000E94402587E30E94402585E70E944025F3
:1052D00087E70E94402584E50E9440258CE00E94DB
:1052E000402580E00E94402586E30E9404258AE450
:1052F00032C380EE0E94042580E00E94402587E0B2
:105300000E94402580E10E94402589E00E944025BE
:1053100087E10E9440258BE00E94402580E40E94A6
:1053200040258AE80E9440258BE40E9440258AE0BF
:105330000E9440258DE00E9440258FE00E9440257C
:1053400085E10E94402586E10E9440258FE00E9471
:10535000402581EE0E94042580E00E9440258AE1DC
:105360000E9440258BE10E94402582E00E9440255A
:105370008DE00E94402585E00E94402580E30E9448
:10538000402585E30E94402583E40E94402582E079
:105390000E9440258AE00E94402589E00E94402525
:1053A00082E30E94402586E30E9440258FE00E9410
:1053B000402581EB0E94042580EA0E94402584EB71
:1053C0000E94042582E00E94402580EC0E94042572
:1053D00087E10E94402585E10E94402581EC0E94E2
:1053E000042581E40E94402585EC0E94042580E08C
:1053F0000E9440258AE00E94402580E80E944025C6
:1054000086EB0E94042582E00E94402586E30E94EC
:10541000042588E40E9440258AE30E94042585E54E
:105420000E94402589EE0E94042580E00E944025CC
:1054300087EF0E94042589EA0E94402581E50E94A9
:1054400040258CE20E94402582E80E94402581E1AF
:105450000E940425A6C281E10E9404256CE070E050
:1054600080E090E00E94E82381EB0E94042581E027
:105470000E9440258CE20E9440258DE20E9440253A
:1054800082EB0E94042581E00E9440258CE20E946C
:1054900040258DE20E94402583EB0E94042581E097
:1054A0000E9440258CE20E9440258DE20E9440250A
:1054B00081E00E9440258CE20E9440258DE20E94FE
:1054C000402584EB0E94042587E00E94402580EC63
:1054D0000E94042582EA0E94402582E00E94402525
:1054E00084E80E94402581EC0E94042585EC0E94FE
:1054F000402582EC0E9404258AE00E94402580E03D
:105500000E94402583EC0E9404258AE80E944025E1
:105510008AE20E94402584EC0E9404258AE80E94C9
:1055200040258EEE0E94402585EC0E9404258EE0E9
:105530000E94402586E30E94042588EC73C081E127
:105540000E9404256CE070E080E090E00E94E82377
:1055500081EB0E94042581E00E9440258CE20E949C
:1055600040258DE20E94402582EB0E94042581E0C7
:105570000E9440258CE20E9440258DE20E94402539
:1055800083EB0E94042581E00E9440258CE20E946A
:1055900040258DE20E94402581E00E9440258CE25A
:1055A0000E9440258DE20E94402584EB0E94042544
:1055B00087E00E94402580EC0E94042582EA0E9438
:1055C000402582E00E94402584E80E94402581EC2D
:1055D0000E94042585EC0E94402582EC0E9404254F
:1055E0008AE00E94402580E00E94402583EC0E94D2
:1055F00004258AE80E9440258AE20E94402584EC26
:105600000E9404258AE80E9440258EEE0E944025D3
:1056100085EC0E9404258EE00E94402586E30E94CE
:10562000042580EC0E94402580EE0E9404258FE036
:105630000E9440258AE10E9440258FE00E9440257B
:1056400088E10E9440258FE20E94402588E20E9466
:10565000402580E20E94402582E20E9440258FE1A1
:105660000E9440258BE10E94402583E20E94402554
:1056700087E30E94402580E00E94402587E00E9449
:10568000402582E00E94402580E10E94402581EE75
:105690000E9404258FE00E9440258BE10E94402556
:1056A0008FE00E94402587E10E94402583E30E940D
:1056B00040258CE20E94402589E20E9440258EE22E
:1056C0000E94402580E30E94402580E30E944025FF
:1056D00089E30E9440258FE30E94402580E00E94DC
:1056E000402587E00E94402583E00E94402580E11C
:1056F0000E9440258AE20E94042580E00E94402505
:1057000080E00E94402580E00E9440258FE70E94B3
:1057100040258BE20E94042580E00E94402580E025
:105720000E94402580E00E9440258FE90E9440258C
:1057300080EF0E94042581E00E94402586EF0E94B0
:10574000042580E00E9440258AE30E94042585E02C
:105750000E9440252CC181E10E94042564E170E093
:1057600080E090E00E94E82380ED0E94042587E01D
:105770000E94402582E40E94402588E10E94402545
:1057800081ED0E94042580E00E94402587E00E9470
:10579000402580E10E94402582ED0E94042581E0A1
:1057A0000E94402582E00E94402580EC0E94042552
:1057B00080E10E9440258BE30E94402580E00E940A
:1057C000402582E00E94402581E10E94402585EC31
:1057D0000E94042583E00E94402588EC0E94042555
:1057E00080E00E94402582E30E94402586E30E94DB
:1057F000402585E40E94402586E00E94402586E100
:105800000E94402587E30E94402585E70E944025AD
:1058100087E70E94402584E50E9440258CE00E9495
:10582000402580E00E94402586E30E9404258AE00E
:1058300092C08BEC0E94042589E30E9440258CE2F3
:105840000E94402580E00E94402584E30E9440257C
:1058500082E00E9440258FEC0E94042580E00E9497
:10586000402581EC0E94402580E30E94402588EE7F
:105870000E94042585E80E94402580E00E94402582
:1058800088E70E9440258AEE0E94042580E00E945D
:10589000402580E00E9440258DEE0E94042584E68C
:1058A0000E94402583E00E94402582E10E9440251D
:1058B00081E80E94402587EF0E94042580E20E9433
:1058C000402580EC0E94042583E20E94402581EC63
:1058D0000E94042580E10E94402585EC0E94042559
:1058E0008EE30E94402588E20E94402587EC0E94BA
:1058F000042586E80E94402586E30E94042588E46A
:105900000E9440258AE30E94042585E50E944025E7
:1059100081EB0E94042580E00E94402588E10E94DE
:10592000402586EB0E94042588E00E94402582E8FD
:105930000E94402587E20E94402581E10E940425C3
:1059400068E770E080E090E00E94E82389E20E942E
:1059500004258CE22DC00E9440258AE30E94042584
:1059600085E50E9440258AE20E94042580E00E948D
:10597000402580E00E94402581E00E9440258FE381
:105980000E9440258BE20E94042580E00E94402571
:1059900080E00E94402581E00E94402580EE0E9428
:1059A000402568E770E080E090E00E94E82389E20B
:1059B0000E940425E091C503F091C6039081809177
:1059C000D103892B80838FEF8093B1038093B2033F
:1059D0001092B3031092B4031092E1031092DC030F
:1059E0001092DB0386E992E00E945023FF24F39497
:1059F0008FE793E00E94A21883EA93E00E94A21826
:105A000082EE92E00E948913892B09F44CC16FED5C
:105A100072E0CE0143960E942D180E942E2497FD1D
:105A200006C0682FCE0143960E940423F6CF2F892B
:105A3000388DC90101978217930720F4EB89FC89FF
:105A4000309729F41092E102E1EEF2E002C0E80F93
:105A5000F91F1082CE0143960E948B234F89588DE7
:105A60004115510521F0EB89FC89309721F4109202
:105A7000E102E1EEF2E080818336E9F5BE016D5E80
:105A80007F4FCE0101960E94AC24BE016F5F7F4F15
:105A9000CE0143960E94A817CE0101960E942818B5
:105AA0008B899C890E945023E0919D03F0919E0375
:105AB00062817381CE0107960E942D186FE972E012
:105AC000CE0101960E942D18BE01695F7F4FCE0165
:105AD00001960E94F4170E949E23BE016D5E7F4FC7
