:100000000C9412130C9443130C9443130C94431349
:100010000C9443130C9443130C9443130C94431308
:100020000C9443130C9443130C9443130C944313F8
:100030000C9443130C9443130C9443130C944313E8
:100040000C9443130C9443130C9443130C944313D8
:100050000C9443130C9443130C9443130C944528B1
:100060000C9443130C94651A0C943B1A0C94431390
:100070000C9443130C9443130C9443130C944313A8
:100080000C9443130C9443130C9443130C94431398
:100090000C9443130C9443130C9443130C94431388
:1000A0000C9443130C9443130C9443130C94431378
:1000B0000C9443130C9443130C9443130C94431368
:1000C0000C9443130C9443130C9443130C94431358
:1000D0000C9443130C9443130C9443130C94431348
:1000E0000C9443130C9445130C9414150C94811424
:1000F0000C945F170C94A1130C94DF360C947F13AF
:100100000C9419150C94AE140C9438150C9493138C
:100110000C94BF150C94F6140C94FB140C94051558
:100120000C94E2140C947E150C9446130C94B317A3
:100130000C94D9130C94E7140C9470130C94DA1AE1
:100140000C94F1140C940F150C948F140C94031749
:100150000C94DD140C9400150C94D61A0C942614EF
:100160000C9433170C940A150C9405170C94EC148A
:100170000C9407170C94D6191820205F000000007B
:10018000000000000000000000000000000000006F
:10019000000000000000000000000000000000005F
:1001A000000000000000000000000000000000004F
:1001B000000000000000000000000000000000003F
:1001C000000000000000000000000000000000002F
:1001D000000000000000000000000000000000001F
:1001E0001C00001C00001C00001C00001C00001C67
:1001F00000001C00001C00001C00001C00001C0073
:10020000001C00001C00001C00001C000018000066
:100210000000000000000000001C00003E00003E46
:1002200000003E00001C0000000000000000000074
:1002300000000000000000000000000000000001BD
:10024000C0E003E1F003E1F003E1F001E0F000E0E1
:100250007001C0E003C1E00F87C00E07000000007E
:10026000000000000000000000000000000000008E
:10027000000000000000000000000000000000007E
:10028000000000000000000000000000000000006E
:10029000000000000000000000000000000000005E
:1002A00000000038700038700070E00070E00070EE
:1002B000E00070E00FFFF80FFFF80FFFF800E1C05B
:1002C00000E1C000E1C001C38001C38001C3800F11
:1002D000FFF80FFFF80FFFF803870003870003877D
:1002E00000038700070E00070E000000000000005A
:1002F00000000000000000000000000000000000FE
:100300003800003800003800003800007F0001FF8E
:10031000C003FFC00780800700000700000700003F
:1003200007800003C00003F80001FE00007F80008A
:100330000FC00003C00001E00000E00000E000008A
:10034000E00201C007FFC007FF8001FE0000380087
:1003500000380000380000380000000000000007EE
:1003600080700FC0E00CC0E01861C0186380186393
:1003700080186700186700186E000CDC000FDC00A6
:1003800007B800003BC00077E000766000EC300169
:10039000CC3001CC30038C30038C30070C300E068F
:1003A000600E07E01C03C000000000000000000019
:1003B000000000000000000000000000000000003D
:1003C0007C0000FF0001FF0003C7800383800383DC
:1003D0008003838003870001CF0001FE0000FC0042
:1003E00001F07003F87003BC70071E600E0FE00E82
:1003F00007E00E03C00E01C00F03E0078FE007FF08
:100400007003FE7000F838000000000000000000DB
:1004100000000000000000000000000000000000DC
:100420001800003C00001E00000E00000700000243
:1004300000000000000000000000000000000000BC
:1004400000000000000000000000000000000000AC
:10045000000000000000000000000000000000009C
:10046000000000000000000000000000000000008C
:100470000000000000000000000000000007000075
:100480000F80000F00001E00003C000038000070CC
:100490000000700000E00000E00000E00001C0008B
:1004A00001C00001C00001C00001C00001C0000186
:1004B000C00001C00001C00000E00000E00000E05A
:1004C00000007000007000003800003C00001E00BA
:1004D000000F000007800003000001000060000022
:1004E000F000007800003C00001E00000E00000735
:1004F000000007000003800003800003800001C0AB
:100500000001C00001C00001C00001C00001C00026
:1005100001C00001C00001C000038000038000038F
:1005200080000700000700000E00001E00003C00D5
:1005300000780000F00000600000400000000000B3
:1005400000000000000000000000000000000000AB
:1005500000001C00001C00001C00021C2003C9E05D
:1005600007FFF001FFC0001C00003600007700000C
:10057000F38001E3C000E3800041000000000000C0
:10058000000000000000000000000000000000006B
:10059000000000000000000000000000000000005B
:1005A00000000000000000000000000038000038DB
:1005B0000000380000380000380000380000380023
:1005C0000FFFE00FFFE00FFFE000380000380000F1
:1005D0003800003800003800003800003800000003
:1005E000000000000000000000000000000000000B
:1005F00000000000000000000000000000000000FB
:1006000000000000000000000000000000000000EA
:1006100000000000000000000000000000000000DA
:1006200000000000000000000000000000000000CA
:100630000000000000000000000000000E00001F8D
:1006400000001F00001F00000F00000700000E0048
:10065000001C000078000070000000000000000096
:10066000000000000000000000000000000000008A
:10067000000000000000000000000000000000007A
:1006800000FF0000FF0000FF00000000000000006D
:10069000000000000000000000000000000000005A
:1006A000000000000000000000000000000000004A
:1006B000000000000000000000000000000000003A
:1006C000000000000000000000000000000000002A
:1006D000000000000000000000000000000000001A
:1006E000000000000000000000000000000000000A
:1006F0000000000000000000000000000000001CDE
:1007000000003E00003E00003E00001C0000000013
:100710000000000000000000000000000001C00018
:10072000038000038000038000070000070000072B
:1007300000000E00000E00000E00000E00001C0065
:10074000001C00001C0000380000380000380000C9
:10075000700000700000700000E00000E00000E0A9
:100760000000E00001C00001C00001C000038000E3
:100770000380000380000700000700000000000065
:100780000000007C0001FF0003FF8003C780078397
:10079000C00701C00701C00E00E00E00E00E30E00F
:1007A0000E78E00E78E00E78E00E30E00E00E00EFD
:1007B00000E00E00E00701C00701C00783C003C7C7
:1007C0008003FF8001FF00007C00000000000000AB
:1007D0000000000000000000000000000000000019
:1007E0000000001C00001C00007C0000FC0003FC5A
:1007F00000079C00021C00001C00001C00001C00E4
:10080000001C00001C00001C00001C00001C00005C
:100810001C00001C00001C00001C00001C00001C30
:100820000003FFC003FFC003FFC000000000000082
:1008300000000000000000000000000000000000B8
:10084000000000FC0003FF0007FF800787C00203D1
:10085000C00001C00001C00001C00001C000038051
:10086000000780000700000E00001C000038000098
:10087000700000E00001C00003800003800007005A
:100880000007FFE007FFE007FFE0000000000000B6
:100890000000000000000000000000000000000058
:1008A000000001FC000FFF000FFF8006078000031F
:1008B000C00001C00001C00001C00003C0000780EB
:1008C00000FF0000FF0000FF800007C00001E00003
:1008D00000E00000E00000E00000E00001E00403B0
:1008E000C00FFF800FFF0003FC00000000000000AD
:1008F00000000000000000000000000000000000F8
:100900000000000780000F80001F80003F80003B38
:100910008000738000F38001E38001C38003838043
:100920000383800703800F03800E03801E03801F54
:10093000FFF01FFFF01FFFF00003800003800003A3
:10094000800003800003800003800000000000009E
:100950000000000000000000000000000000000097
:10096000000003FF8003FF8003FF800300000300FB
:100970000003000003000007000007000007F0006C
:1009800007FE0007FF00001F800007800003C00073
:1009900001C00001C00001C00001C00003C00C077D
:1009A000800FFF000FFE0003F800000000000000B1
:1009B0000000000000000000000000000000000037
:1009C00000000003C0001FC0007FC000FC0001E069
:1009D0000003C000038000070000070000067E003F
:1009E0000FFF800FFFC00F03C00E01E00E00E00EEE
:1009F00000E00E00E00E00E00700E00701C007C3C2
:100A0000C003FF8001FF00007E0000000000000026
:100A100000000000000000000000000000000000D6
:100A200000000FFFE00FFFE00FFFE00000E000011B
:100A3000C0000380000380000700000700000E00D4
:100A4000000E00001C00001C0000380000380000F0
:100A5000380000700000700000700000700000E0BE
:100A60000000E00000E00000E000000000000000E6
:100A70000000000000000000000000000000000076
:100A80000000007C0001FF0003FF8003C7C00703D4
:100A9000C00701C00701C00701C00781C003C380B0
:100AA00003F70001FE0001FF8003CFC00703C0066B
:100AB00001E00E00E00E00E00E00E00F01E0078311
:100AC000C007FFC003FF8000FE0000000000000020
:100AD0000000000000000000000000000000000016
:100AE000000000FC0001FF0003FF800787C0070132
:100AF000C00E01C00E00E00E00E00E00E00E00E0AF
:100B00000F00E00781E007FFE003FFE000FEE000E8
:100B100001C00001C00003C0000780000F00007E7C
:100B20000007FC0007F80007C000000000000000FC
:100B300000000000000000000000000000000000B5
:100B400000000000000000000000000000000000A5
:100B500000000000003800007C00007C00007C00E9
:100B6000003800000000000000000000000000004D
:100B70000000000000000000003800007C00007C45
:100B800000007C00003800000000000000000000B1
:100B90000000000000000000000000000000000055
:100BA0000000000000000000000000000000000045
:100BB00000000000003800007C00007C00007C0089
:100BC00000380000000000000000000000000000ED
:100BD0000000000000000000003800007C00007CE5
:100BE00000007C00003C00001C0000380000700089
:100BF00001E00001C0000000000000000000000053
:100C000000000000000000000000000000000000E4
:100C1000000000000000400001E0000FE0003FC0C5
:100C200000FE0003F8000FC0000F00000FC0000717
:100C3000F80000FE00003FC0000FE00001E00000EF
:100C40004000000000000000000000000000000064
:100C50000000000000000000000000000000000094
:100C60000000000000000000000000000000000084
:100C7000000000000000000000000FFFE00FFFE098
:100C80000FFFE00000000000000000000000000076
:100C900000000FFFE00FFFE00FFFE000000000008A
:100CA0000000000000000000000000000000000044
:100CB0000000000000000000000000000000000034
:100CC0000000000000000000000000000000000024
:100CD000000000000400000F00000FE00007F80013
:100CE00000FE00003F800007E00001E00007E00098
:100CF0003FC000FE0007F8000FE0000F00000400F6
:100D000000000000000000000000000000000000E3
:100D100000000000000000000000000000000000D3
:100D2000FE0003FF8003FFC00103E00000E00000BD
:100D3000E00000E00000E00001C0000380000700C8
:100D4000000E00001C00003C0000380000380000CD
:100D50000000000000000000003800007C00007C63
:100D600000007C00003800000000000000000000CF
:100D70000000000000000000000000000000000073
:100D80003F0000FF8001FFC001E1E00380E003803D
:100D9000700700700700700707F00E1FF00E3FF09D
:100DA0000E3C700E78700E70700E70700E70700EBB
:100DB00070700E78700E3870073FF0071FF007074D
:100DC000E007800003C00003C00001F00000FFC086
:100DD000007FC0001FC000000000000000000000F5
:100DE0007E00007E00007E0000FF0000F70000E7AC
:100DF0000000E70001E78001C38001C38003C3C096
:100E000003C1C00381C00381C00781E007FFE00781
:100E1000FFE007FFE00F00F00E00700E00700E0004
:100E2000701E00781C003800000000000000000068
:100E300000000000000000000000000000000000B2
:100E400000000FFC000FFF000FFF800E07C00E0315
:100E5000C00E01C00E01C00E01C00E03800E07803F
:100E60000FFF000FFF000FFF800E03C00E01E00E0A
:100E700000E00E00E00E00E00E00E00E01E00E07C4
:100E8000C00FFFC00FFF000FFC00000000000000BB
:100E90000000000000000000000000000000000052
:100EA0003F80007FE001FFE003E04003C0000780D7
:100EB000000700000700000E00000E00000E0000FA
:100EC0000E00000E00000E00000E00000E00000FCD
:100ED000000007000007800003C00003E04001FF9E
:100EE000E000FFE0003F8000000000000000000084
:100EF0000000000000000000000000000000000FE3
:100F0000F0000FFE000FFF000E0F800E03800E0397
:100F1000C00E01C00E01E00E00E00E00E00E00E089
:100F20000E00E00E00E00E00E00E00E00E00E00E0D
:100F300001E00E01C00E03C00E03800E0F800FFFF4
:100F4000000FFE000FF00000000000000000000095
:100F5000000000000000000000000000000000078A
:100F6000FFC007FFC007FFC0070000070000070021
:100F70000007000007000007000007000007FF80CF
:100F800007FF8007FF800700000700000700000739
:100F9000000007000007000007000007000007FF2F
:100FA000E007FFE007FFE000000000000000000095
:100FB000000000000000000000000000000000072A
:100FC000FFE007FFE007FFE0070000070000070061
:100FD0000007000007000007000007000007FFC02F
:100FE00007FFC007FFC00700000700000700000759
:100FF00000000700000700000700000700000700CE
:1010000000070000070000000000000000000000D2
:1010100000000000000000000000000000000000D0
:101020003F8000FFC001FFE003E0C003C040078035
:10103000000700000700000E00000E00000E000078
:101040000E00000E00E00E00E00E00E00E00E00FCB
:1010500000E00700E00780E003C0E003E0E001FFFC
:10106000E000FFE0003F8000000000000000000002
:101070000000000000000000000000000000000E62
:1010800000E00E00E00E00E00E00E00E00E00E00BA
:10109000E00E00E00E00E00E00E00E00E00FFFE0CA
:1010A0000FFFE00FFFE00E00E00E00E00E00E00E8C
:1010B00000E00E00E00E00E00E00E00E00E00E008A
:1010C000E00E00E00E00E000000000000000000064
:1010D0000000000000000000000000000000000709
:1010E000FFC007FFC007FFC000380000380000380D
:1010F00000003800003800003800003800003800D8
:1011000000380000380000380000380000380000C7
:10111000380000380000380000380000380007FFB1
:10112000C007FFC007FFC000000000000000000073
:1011300000000000000000000000000000000001AE
:10114000FFC001FFC001FFC00001C00001C00001DD
:10115000C00001C00001C00001C00001C00001C00A
:101160000001C00001C00001C00001C00001C000BA
:1011700001C00001C00001C00403C00707800FFFC9
:101180000007FE0001FC000000000000000000005D
:101190000000000000000000000000000000000E41
:1011A00001E00E03C00E03800E07800E0F000E0E2E
:1011B000000E1C000E3C000E78000EF0000FE00048
:1011C0000FE0000FF0000EF8000E7C000E3E000E47
:1011D0001E000E0F000E07800E03C00E03C00E018E
:1011E000E00E00E00E00F000000000000000000033
:1011F00000000000000000000000000000000007E8
:1012000000000700000700000700000700000700BB
:1012100000070000070000070000070000070000AB
:101220000700000700000700000700000700000794
:10123000000007000007000007000007000007FF8C
:10124000E007FFE007FFE0000000000000000000F2
:10125000000000000000000000000000000000038B
:1012600000600380F00780F00780F006C1B006C17F
:10127000B006E3B0066330066330067730063630DA
:10128000063630063E30061C380E1C380E00380E6E
:1012900000380E00380E00380E00380E00380E00F0
:1012A000380E00380E00380000000000000000007A
:1012B0000000000000000000000000000000000727
:1012C000807007C07007C07007E07007E07007F01B
:1012D00070077070077070073870073870071C70DF
:1012E000071C70070E70070E70070670070770075F
:1012F00007700703F00703F00701F00701F007008C
:10130000F00700F00700F0000000000000000000FF
:1013100000000000000000000000000000000000CD
:101320007C0001FF0003FF800783C00F01E00E0077
:10133000E00E00E01C00F01C00701C00701C00702F
:101340001C00701C00701C00701C00701C00701CC5
:1013500000F00E00E00E00E00F01E00783C003FF85
:101360008001FF00007C0000000000000000000081
:101370000000000000000000000000000000000766
:10138000FC0007FF0007FF800703C00701E007001C
:10139000E00700E00700E00700E00700E00701E0E9
:1013A0000703C007FF8007FF0007FC0007000007D6
:1013B000000007000007000007000007000007000A
:1013C000000700000700000000000000000000000F
:1013D000000000000000000000000000000000000D
:1013E0007C0001FF0003FF800783C00F01E00E00B7
:1013F000E00E00E01C00F01C00701C00701C00706F
:101400001C00701C00701C00701C00701C00701C04
:1014100000F00E00E00E00E00F01E00783C003FFC4
:101420008001FF0000FE00003800003C00001F00AB
:10143000000FE00007E00000C00000000000000F07
:10144000F8000FFE000FFF000E07800E03C00E0114
:10145000C00E01C00E01C00E01C00E01C00E0380FF
:101460000E07800FFF000FFE000FFC000E1E000E87
:101470000E000E07000E07000E03800E03800E0103
:10148000C00E01C00E00E0000000000000000000DF
:10149000000000000000000000000000000000004C
:1014A0007F0001FFC003FFC003C0800700000700EA
:1014B0000007000007000007800003E00001F800BB
:1014C00000FE00003F80000FC00003C00001E000EC
:1014D00000E00000E00000E00401E00F03C00FFFA7
:1014E000C007FF8001FE00000000000000000000B7
:1014F0000000000000000000000000000000000FDD
:10150000FFE00FFFE00FFFE0003800003800003878
:1015100000003800003800003800003800003800B3
:1015200000380000380000380000380000380000A3
:10153000380000380000380000380000380000385B
:10154000000038000038000000000000000000002B
:101550000000000000000000000000000000000E7D
:1015600000E00E00E00E00E00E00E00E00E00E00D5
:10157000E00E00E00E00E00E00E00E00E00E00E0E5
:101580000E00E00E00E00E00E00E00E00E00E00EA7
:1015900000E00E00E00F01E00701C00783C003FF79
:1015A0008001FF0000FE00000000000000000000BD
:1015B0000000000000000000000000000000001C0F
:1015C00000701C00700E00E00E00E00E00E00E0047
:1015D000E00701C00701C00701C00701C003838005
:1015E00003838003838003878001C70001C7000154
:1015F000C70000EE0000EE0000EE00007C00007C62
:1016000000007C00007800000000000000000000E6
:101610000000000000000000000000000000000EBC
:1016200000E00E00E00E00E00E00E00E00E00E0014
:10163000E00E00E00E00E00E00E00E38E00E38E0B4
:101640000E38E00E6CE00E6CE00E6CE00EC6E00EA4
:10165000C6E00EC6E00F83E00F83E00F83E00F01CA
:10166000E00701C00701C00000000000000000000A
:101670000000000000000000000000000000001E4C
:1016800000F00E00E00F01E00701C0038380038338
:101690008001C70001EF0000EE0000FE00007C00AA
:1016A000003800003800007C0000FE0000EE000161
:1016B000C70003C7800383800783C00701C00F01F1
:1016C000E00E00E01E00F00000000000000000003E
:1016D0000000000000000000000000000000001CEE
:1016E00000700E00E00E00E00F01E00701C007836C
:1016F000C003838003C38001C70001EF0000EE0038
:1017000000FE00007C00007C000038000038000073
:101710003800003800003800003800003800003879
:101720000000380000380000000000000000000049
:1017300000000000000000000000000000000007A2
:10174000FFE007FFE007FFE00001C00003C0000367
:1017500080000700000F00000E00001E00003C008B
:1017600000380000780000700000E00001E0000197
:10177000C00003C0000380000780000700000FFFC7
:10178000E00FFFE00FFFE00000000000000000009D
:1017900000000000000000000000000001FF000148
:1017A000FF0001C00001C00001C00001C00001C075
:1017B0000001C00001C00001C00001C00001C00064
:1017C00001C00001C00001C00001C00001C0000153
:1017D000C00001C00001C00001C00001C00001C084
:1017E0000001C00001C00001C00001C00001C00034
:1017F00001C00001C00001FF0001FF0003800003E1
:10180000C00001C00001C00000E00000E00000E0F6
:1018100000007000007000007000007000003800D0
:10182000003800003800001C00001C00001C0000F4
:101830000E00000E00000E00000700000700000769
:10184000000007000003800003800003800001C047
:101850000001C00001C00000E00000E000FF8000C7
:10186000FF800003800003800003800003800003EA
:101870008000038000038000038000038000038059
:1018800000038000038000038000038000038000C9
:1018900003800003800003800003800003800003B6
:1018A0008000038000038000038000038000038029
:1018B00000038000038000FF8000FF800000000024
:1018C0003800007C00007C0000EE0000EE0001C744
:1018D0000001C70003C7800383800783C00701C0DE
:1018E0000F01E00200800000000000000000000086
:1018F00000000000000000000000000000000000E8
:1019000000000000000000000000000000000000D7
:1019100000000000000000000000000000000000C7
:1019200000000000000000000000000000000000B7
:1019300000000000000000000000000000000000A7
:101940000000000000000000000000000000000097
:101950000000000000000000000000000000000087
:10196000003FFFF83FFFF83FFFF8000000000000D5
:101970000000000000000000000000000000000067
:101980007C0000FE0001C700018300018300018389
:101990000001C70000FE00007C0000000000000005
:1019A0000000000000000000000000000000000037
:1019B0000000000000000000000000000000000027
:1019C0000000000000000000000000000000000017
:1019D0000000000000000000000000000000000007
:1019E00000000000000000000000000000000000F7
:1019F0000000000000FE0001FF8001FFC00183E045
:101A00000001E00000E00000E0007FE001FFE003F3
:101A1000FFE007C0E00700E00700E00700E0078004
:101A2000E003FFE001FFE0007FC0000000000000D5
:101A30000000000000000000000000000700000798
:101A40000000070000070000070000070000070073
:101A500000070000077E0007FF0007FF800783C024
:101A60000701C00701E00700E00700E00700E0070A
:101A700000E00700E00700E00701E00701C00707FA
:101A8000C007FF8007FF0003FC000000000000000B
:101A90000000000000000000000000000000000046
:101AA0000000000000000000000000000000000036
:101AB00000000000003FC000FFE003FFE003E04043
:101AC0000780000700000E00000E00000E00000E50
:101AD00000000E00000E000007000007800003E079
:101AE0006003FFE000FFE0003FC0000000000000D6
:101AF0000000000000000000000000000000E00006
:101B000000E00000E00000E00000E00000E0000075
:101B1000E00000E0007EE000FFE001FFE003C1E044
:101B20000380E00780E00700E00700E00700E0072F
:101B300000E00700E00700E00780E00380E003E04A
:101B4000E001FFE000FFE0003F8000000000000037
:101B50000000000000000000000000000000000085
:101B60000000000000000000000000000000000075
:101B700000000000007E0001FF0003FF8007C3C0DB
:101B80000701C00700E00E00E00FFFE00FFFE00FCD
:101B9000FFE00E00000E000007000007000007C075
:101BA000C003FFC001FFC0007F0000000000000074
:101BB000000000000000000000000000000FC00056
:101BC0003FF0007FF000783000F00000E00000E01F
:101BD0000000E0000FFFC00FFFC00FFFC000E000DB
:101BE00000E00000E00000E00000E00000E0000095
:101BF000E00000E00000E00000E00000E00000E0A5
:101C00000000E00000E00000E00000000000000034
:101C100000000000000000000000000000000000C4
:101C200000000000000000000000000000000000B4
:101C300000007F0001FFC003FFC00781C00701C093
:101C40000F01C00E01C00E01C00E01C00E01C00E7A
:101C500001C00E01C00701C00783C003FFC001FF20
:101C6000C000FDC00001C00001C00003C006078025
:101C700007FF8007FF0003FC0000000007000007CB
:101C80000000070000070000070000070000070031
:101C90000007000007FC0007FF0007FF8007078020
:101CA0000703C00701C00701C00701C00701C00743
:101CB00001C00701C00701C00701C00701C007013B
:101CC000C00701C00701C00701C0000000000000FC
:101CD0000000000000000000000000000000000004
:101CE000600000F00000F000006000000000000054
:101CF000000000000FF0000FF0000FF00000700077
:101D000000700000700000700000700000700000A3
:101D1000700000700000700000700000700000781B
:101D200020003FE0003FE0000FC000000000000086
:101D300000000000000000000000000000000000A3
:101D40000600000F00000F00000600000000000069
:101D50000000000003FF8003FF8003FF800003807A
:101D600000038000038000038000038000038000E4
:101D700003800003800003800003800003800003D1
:101D80008000038000038000038000038000038044
:101D9000060F000FFF000FFE0003F800070000070A
:101DA0000000070000070000070000070000070010
:101DB000000700000701E00703C0070780070F00C6
:101DC000071E00073C0007780007F00007E0000747
:101DD000F000077800071C00070F00070700070343
:101DE000800703C00701E00700F0000000000000CA
:101DF00000000000000000000000000007F80007DD
:101E0000F80007F8000038000038000038000038FB
:101E100000003800003800003800003800003800AA
:101E2000003800003800003800003800003800009A
:101E30003800003800003800003800003800003C4E
:101E400010001FF0001FF00007E00000000000007D
:101E50000000000000000000000000000000000082
:101E60000000000000000000000000000000000072
:101E70000000000007E3C00FFFE00FFFE00E3CF0A2
:101E80000E1C700E1C700E1C700E1C700E1C700E42
:101E90001C700E1C700E00700E00700E00700E0094
:101EA000700E00700E00700E007000000000000048
:101EB0000000000000000000000000000000000022
:101EC0000000000000000000000000000000000012
:101ED0000000000000FE0003FF8003FFC00383C07A
:101EE0000381E00380E00380E00380E00380E003FF
:101EF00080E00380E00380E00380E00380E0038073
:101F0000E00380E00380E00380E0000000000000C8
:101F100000000000000000000000000000000000C1
:101F200000000000000000000000000000000000B1
:101F300000000000007C0001FF0003FF800783C059
:101F40000701C00F01E00E00E00E00E00E00E00E01
:101F500000E00E00E00E00E00701E00701C007838B
:101F6000C003FF8001FF00007C00000000000000B3
:101F70000000000000000000000000000000000061
:101F80000000000000000000000000000000000051
:101F90000000000001FC0007FF0007FF800707C0EA
:101FA0000701C00701C00700E00700E00700E007E5
:101FB00000E00700E00700E00701E00701C0078339
:101FC000C007FF8007FF00077C0007000007000034
:101FD00007000007000007000007000000000000E5
:101FE00000000000000000000000000000000000F1
:101FF00000000000003F8000FFE001FFE003E0E0A0
:102000000380E00380E00700E00700E00700E0074E
:1020100000E00700E00700E00780E00380E003C184
:10202000E001FFE000FFE0003EE00000E00000E033
:102030000000E00000E00000E00000E00000000020
:102040000000000000000000000000000000000090
:102050000000000000FFC007FFC007FFC00780802E
:102060000700000700000700000700000700000746
:10207000000007000007000007000007000007003D
:10208000000700000700000700000000000000003B
:102090000000000000000000000000000000000040
:1020A0000000000000000000000000000000000030
:1020B0000000000000FF0001FF8003FF8007818017
:1020C00007000007000007C00003F00001FE000049
:1020D0007F00001F800003C00001C00001C0060394
:1020E000C007FF8007FF8001FE0000000000000025
:1020F00000000000000000000000000000000000E0
:10210000000000000000E00000E00000E00000E04F
:102110000000E0000FFFE00FFFE00FFFE000E00035
:1021200000E00000E00000E00000E00000E000004F
:10213000E00000E00000E00000E00000E00000F04F
:1021400020007FE0007FE0001FC0000000000000D2
:10215000000000000000000000000000000000007F
:10216000000000000000000000000000000000006F
:10217000000000000701C00701C00701C00701C03F
:102180000701C00701C00701C00701C00701C00760
:1021900001C00701C00701C00701C00781C003C11A
:1021A000C003FFC001FFC0007F000000000000006E
:1021B000000000000000000000000000000000001F
:1021C000000000000000000000000000000000000F
:1021D000000000001C00701E00F00E00E00E00E089
:1021E0000F01E00701C00701C00783C0038380031C
:1021F000838003C70001C70001EF0000EE0000FE6E
:1022000000007C00007C00007C000000000000005A
:1022100000000000000000000000000000000000BE
:1022200000000000000000000000000000000000AE
:10223000000000001C00701C00701C00701C00706E
:102240001C10700C38E00E38E00E38E00E28E00E5E
:102250006CE00E6CE00644C006C6C006C7C0078727
:10226000C00783C0078380030380000000000000D4
:10227000000000000000000000000000000000005E
:10228000000000000000000000000000000000004E
:10229000000000001E01E00F03C0070380038780D9
:1022A00003CF0001EE0000FC00007C00007800007D
:1022B0007C0000FE0001EE0001C70003C38007831D
:1022C000C00F01C00E01E01E00F000000000000081
:1022D00000000000000000000000000000000000FE
:1022E00000000000000000000000000000000000EE
:1022F000000000000E00700F00F00700E00700E093
:102300000780E00381E00381C003C1C001C3C001B5
:10231000C38001E38000E78000F780007700007F42
:1023200000003E00003E00001E00003C00003C009B
:102330000078000FF0000FF0000FC0000000000058
:10234000000000000000000000000000000000008D
:102350000000000007FFC007FFC007FFC0000380A8
:10236000000780000F00001E00001C000038000065
:10237000780000F00000E00001E00003C0000380EE
:102380000007FFC007FFC007FFC0000000000000FB
:10239000000000000000000000000000000000003D
:1023A000000000700000E00000E00000E00000E03D
:1023B0000000E00000E00000E00000E00000E000BD
:1023C00000E00000E00001C0000F80000F8000016D
:1023D000C00000E00000E00000E00000E00000E0DD
:1023E0000000E00000E00000E00000E00000E0008D
:1023F00000E000007000007F80001F80001C0000D3
:102400001C00001C00001C00001C00001C00001C24
:1024100000001C00001C00001C00001C00001C0030
:10242000001C00001C00001C00001C00001C000020
:102430001C00001C00001C00001C00001C00001CF4
:1024400000001C00001C00001C00001C00001C0000
:10245000001C00001C00001C00001C0000FC000010
:10246000FF000007000003800003800003800003DA
:10247000800003800003800003800003800003804D
:102480000003800003800001C00000F80000F80095
:1024900001C000038000038000038000038000036C
:1024A000800003800003800003800003800003801D
:1024B00000038000070000FF0000FC000000000196
:1024C000E02003F03007FC700E3FE00C0FC0040763
:1024D000800000000000000000000000000000007C
:1024E00000000000000000000000000000000000EC
:1024F00000000000000000000000000000000000DC
:1025000000000000000000000000000000000000CB
:10251000000000000000000000000000000021009A
:10252000240027002A002D003000330001010000A4
:10253000040107010A0100000A0B02090C0D0E0834
:10254000070304010000000000000000000000007C
:10255000000000000000000000000000000000007B
:102560000000121110000000000000000000000038
:102570000000000000000000000000000102102028
:1025800020080810204010204080020102010804A9
:10259000020101020408102040808040201008043D
:1025A0000201800402018040201008040201080496
:1025B00002010102040810204080010204081020DA
:1025C000408000002200250028002B002E00310052
:1025D000340002010000050108010B010505050595
:1025E000070508080808020202020A0A080804048B
:1025F00004040101010101010101030303030303B9
:102600000303040707070C0C0C0C0C0C0C0C020247
:10261000020206060606060606060B0B0B0B0B0B44
:102620000B0BDF3611241FBECFEFD1E2DEBFCDBFD3
:1026300000E00CBF25E0A6E2B4E001C01D92AE357B
:10264000B207E1F714E0A0E0B2E0E2E7FBE700E068
:102650000BBF02C007900D92A632B107D9F713E164
:10266000C2E1D3E100E006C021970109802FFE01FD
:102670000E94193BC131D10780E00807A9F70E94E9
:102680008F280C94B73D0C9400000895CF92DF92F0
:10269000EF92FF920F931F93CF93DF936C017A0118
:1026A0008B01C0E0D0E0CE15DF0581F0D8016D913F
:1026B0008D01D601ED91FC910190F081E02DC601D4
:1026C0001995892B11F02196EECF7E01C701DF917C
:1026D000CF911F910F91FF90EF90DF90CF900895D1
:1026E000FC01538D448D252F30E0842F90E0821B18
:1026F000930B541710F0CF96089501970895FC019D
:10270000918D828D981761F0828DDF01A80FB11D28
:102710005D968C91928D9F5F9F73928F90E008954C
:102720008FEF9FEF0895FC01918D828D981731F006
:10273000828DE80FF11D858D90E008958FEF9FEF5A
:102740000895FC01918D228D892F90E0805C9F4F30
:10275000821B91098F739927089586E494E00E9463
:10276000A11321E0892B09F420E0822F0895FC01B8
:10277000848DDF01A80FB11DA35ABF4F2C91848D0A
:1027800090E001968F739927848FA689B7892C933F
:10279000A089B1898C91837080648C93938D848D92
:1027A000981306C00288F389E02D80818F7D808395
:1027B0000895EF92FF920F931F93CF93DF93EC0155
:1027C00081E0888F9B8D8C8D981305C0E889F989ED
:1027D000808185FD26C0F62E0B8D10E00F5F1F4F08
:1027E0000F731127E02E8C8DE8120CC00FB607FC7A
:1027F000FACFE889F989808185FFF5CFCE010E9463
:10280000B713F1CF8B8DFE01E80FF11DE35AFF4F97
:10281000F0829FB7F8940B8FEA89FB8980818062F0
:102820000AC09FB7F894EE89FF896083E889F98927
:1028300080818370806480839FBF81E090E0DF911E
:10284000CF911F910F91FF90EF900895CF93DF9359
:10285000EC01888D8823C9F0EA89FB89808185FD98
:1028600005C0A889B9898C9186FD0FC00FB607FCF9
:10287000F5CF808185FFF2CFA889B9898C9185FF3A
:10288000EDCFCE010E94B713E7CFDF91CF9108952E
:1028900080E090E0892B21F00E94AD13811125C0CA
:1028A00080E090E0892B41F080E090E0892B21F0DE
:1028B0000E94000081111CC080E090E0892B41F053
:1028C00080E090E0892B21F00E940000811113C06C
:1028D00080E090E0892BA1F080E090E0892B81F0EE
:1028E0000E94000081110AC008950E940000D8CF04
:1028F0000E940000E1CF0E940000EACF0C9400008B
:1029000008958091370490913804009739F0DC01E4
:10291000ED91FC910480F581E02D199408950F93B9
:102920001F93CF93DF938C010A5F1F4FEC01CA5BAB
:10293000DF4FD8018D919D918D01009751F0DC0101
:10294000ED91FC910480F581E02D19950C171D0780
:1029500081F7DF91CF911F910F910895EAE3F4E0A1
:1029600011821082138212821582148217821682BB
:1029700011861086138612860895880F991FFC0110
:10298000E65CFB4F20813181611103C04FEF5FEFA7
:1029900002C041E050E0240F351F293031052CF4EE
:1029A00037FF05C020E030E002C029E030E0FC0144
:1029B000E65CFB4F31832083089560E085E090E082
:1029C0000C94BD1461E085E090E00C94BD1460E0CF
:1029D00084E090E00C94BD1461E084E090E00C94FD
:1029E000BD1460E083E090E00C94BD1461E083E0EE
:1029F00090E00C94BD1460E082E090E00C94BD1473
:102A000061E082E090E00C94BD1460E081E090E031
:102A10000C94BD1461E081E090E00C94BD1460E082
:102A200080E090E00C94BD1461E080E090E00C94B4
:102A3000BD140F931F93CF93DF938C010A5F1F4F39
:102A4000EC01CA5BDF4FD8018D919D918D010097FC
:102A500051F0DC01ED91FC910480F581E02D199598
:102A60000C171D0781F7DF91CF911F910F910895EA
:102A70000F931F93CF938C01C0913604CC23B1F1F7
:102A8000DC0150964D915C91519720910D0530914C
:102A90000E0524173507ECF054968D919C915597AF
:102AA000840F951F28173907A4F452964D915C9115
:102AB000539720910F0530911005241735074CF0DE
:102AC00056968D919C915797840F951F281739071B
:102AD00014F0C0E00BC0D80194968C9181110CC009
:102AE000D8019296ED91FC9193971995F801C4A3A2
:102AF000CF911F910F910895C82FF8CF10923604EF
:102B0000089580E090E008950E94993DCF93DF936F
:102B1000EC0188819981009711F00E942B3C198269
:102B200018821D821C821B821A82DF91CF91089528
:102B30000F931F93CF93DF93EC01888199810097C6
:102B400029F02A813B812617370788F48B016F5FB4
:102B50007F4F0E94B43C009761F0998388831B8368
:102B60000A832C813D81232B11F4FC01108281E02A
:102B700001C080E0DF91CF911F910F9108954F9296
:102B80005F926F927F928F929F92AF92BF92CF92FD
:102B9000DF92EF92FF920F931F93CF93DF93CDB706
:102BA000DEB7A0970FB6F894DEBF0FBECDBF8C0185
:102BB0008AE3682E84E0782E580186E4A80EB11CC2
:102BC00091E0C92E95E0D92E2501E12CF12CDE01F2
:102BD00011964D01F30180819181D2012D913C919B
:102BE0002817390759F04AE0B4010E943839F60134
:102BF00091828082B701C8010E943B1BD3018D9155
:102C00009D913D01F201819391932F01FFEFEF1A06
:102C1000FF0A82E0C80ED11C96E0E916F104D1F655
:102C20000A5F1F4FD8018D919D918D01009751F042
:102C3000DC01ED91FC910480F581E02D19950A15D8
:102C40001B0581F7A0960FB6F894DEBF0FBECDBF6F
:102C5000DF91CF911F910F91FF90EF90DF90CF9078
:102C6000BF90AF909F908F907F906F905F904F90AC
:102C70000895CF92DF92EF92FF920F931F93CF931D
:102C8000DF93EC01E0913305F09134059081809160
:102C90003F058095892380830E94292380912D05FB
:102CA000813049F0E0912F05F091300590818091BD
:102CB0003D05892B8083E0912D054091240550919D
:102CC0002505609126057091270580912805909132
:102CD0002905A0912A05B0912B05E031B9F49A019C
:102CE000AB012F5F3F4F4F4F5F4FBC01CD016F5F77
:102CF0007F4F8F4F9F4F0E94AC3A9B01AC0160E029
:102D000070E080E090E00E94BE1D56C0E83021F0E7
:102D1000C12CD12C760122C09A01AB012F5F3F4F0D
:102D20004F4F5F4FBC01CD016F5F7F4F8F4F9F4F64
:102D30000E94AC3AAB01BC0180E090E00E944D1FC4
:102D40003BC040912D05413069F160E080E00E9478
:102D5000A11B8FEFC81AD80AE80AF80A8091240547
:102D600090912505A0912605B09127059C01AD0104
:102D70002F5F3F4F4F4F5F4F80912805909129055E
:102D8000A0912A05B0912B05BC01CD016F5F7F4F4B
:102D90008F4F9F4F0E94AC3AC616D706E806F90639
:102DA00084F20AC041E060E081E00E94A11B4091F2
:102DB0002D0560E081E0CBCFE0913305F091340543
:102DC000908180913F05892B80838E010A5F1F4F80
:102DD000CA5BDF4FD8018D919D918D01009751F015
:102DE000DC01ED91FC910190F081E02D1995C01767
:102DF000D10781F7DF91CF911F910F91FF90EF9055
:102E0000DF90CF9008950C9439160C943916EF92F8
:102E1000FF920F931F93CF93DF93EC017B018A0105
:102E2000EFE1F5E0108211826A897B8988899989AE
:102E30002E893F89260F371F4C895D89480F591FFE
:102E40000E941F24F98AE88A1B8B0A8BE881F9818A
:102E50000190F081E02DCE01DF91CF911F910F9174
:102E6000FF90EF901994EF92FF920F931F93CF93DF
:102E7000DF93EC017B018A01EFE1F5E01082118222
:102E80006A897B89888999892E893F89260F371F0E
:102E90004C895D89480F591F0E941F24F98AE88ACE
:102EA0001B8B0A8BE881F9810190F081E02DCE0126
:102EB000DF91CF911F910F91FF90EF9019940F9395
:102EC0001F93CF93DF93EC018C8D9D8D0FE115E067
:102ED000D8019C9311968C936A897B8988899989FA
:102EE0002E893F89260F371F4C895D89480F591F4E
:102EF0000E941F248E8D9F8DF8019083818381E035
:102F000080ABE8E7F1E0D8019B96FC93EE939A97AB
:102F1000E4919C96EC939C97E9E7F1E0E4919D960F
:102F2000EC939D97EAE7F1E0E4919E96EC939E97EF
:102F3000EBE7F1E0E4919F96EC934A895B898A8DF7
:102F40009B8D480F591F68897989888D998D680FE5
:102F5000791FEE85FF8580819181DF91CF911F914F
:102F60000F910C9431250F931F93CF93DF93EC01B6
:102F70008C8D9D8D0FE115E0D8019C9311968C935B
:102F80006A897B89888999892E893F89260F371F0D
:102F90004C895D89480F591F0E941F2488A199A15F
:102FA000F8019083818381E080ABE8E7F1E0D8010C
:102FB0009B96FC93EE939A97E4919C96EC939C9746
:102FC000E9E7F1E0E4919D96EC939D97EAE7F1E063
:102FD000E4919E96EC939E97EBE7F1E0E4919F9647
:102FE000EC934A895B898A8D9B8D480F591F6889AC
:102FF0007989888D998D680F791F8E859F85DF91DE
:10300000CF911F910F910C943125EF92FF920F9366
:103010001F93CF93DF936115710511F480E01CC0FD
:1030200041155105C1F07B01EC018C819D818A0124
:10303000080F191FB801CE010E949815882371F35B
:10304000288139818C819D81B701820F931F0E9455
:10305000B03D1D830C8381E0DF91CF911F910F91D3
:10306000FF90EF900895CF93DF93EC016115710508
:1030700061F0FB0101900020E9F73197AF01461B99
:10308000570B0E940518811103C0CE010E948615BE
:10309000CE01DF91CF910895CF93DF93EC01FB0137
:1030A00044815581608171810E940518811103C09E
:1030B000CE010E948615CE01DF91CF9108950F9326
:1030C0001F93CF93DF938C01EB01FC0180819181F1
:1030D000009739F06881798161157105A1F40E942A
:1030E0002B3C88819981F801918380838A819B811F
:1030F000938382838C819D81958384831982188236
:103100001B821A820FC0F801428153812C813D81BC
:103110004217530720F30E94B03D8C819D81F80136
:10312000958384831D821C82DF91CF911F910F9123
:103130000895EF92FF920F931F93CF93DF93EC01CB
:103140007B018A01BA010E949815811104C0CE0149
:103150000E94861507C01D830C83B7018881998161
:103160000E94B03DCE01DF91CF911F910F91FF9052
:10317000EF900895CF93DF93EC016115710559F03D
:10318000FB0101900020E9F73197AF01461B570B77
:103190000E94991802C00E948615CE01DF91CF913E
:1031A0000895FC01808191810C942B3CFC011182DB
:1031B000108213821282158214826115710551F0FA
:1031C000FB0101900020E9F73197AF01461B570B37
:1031D0000C9499180895CF92DF92EF92FF920F937B
:1031E0001F93CF93DF93CDB7DEB7AE970FB6F894AA
:1031F000DEBF0FBECDBF0AE314E0D80112966D9179
:103200007C911397CE0189960E948427F8016081F2
:103210007181CE0183960E9484276FEA73E0CE010C
:1032200001960E94D618BE016D5D7F4FCE010196BA
:103230000E944C186BEB73E00E943318BE01675D6F
:103240007F4F0E944C186EEB73E00E9433180E946F
:103250007127CE0101960E94D118CE0183960E945B
:10326000D118CE0189960E94D118F801A081B181B0
:1032700020EA36E841E050E00E94EF3A0280F38114
:10328000E02D20E137E2E29FA001E39F500DF29F85
:10329000500D11246A01550FEE08FF08AB01BC0167
:1032A0004C0D5D1D6E1D7F1DD8011496ED91FC9196
:1032B000159728EE33E0E29FC001E39F900DF29F47
:1032C000900D1124092E000CAA0BBB0B480F591F9F
:1032D0006A1F7B1FF80126813781E4E6E29FC00167
:1032E000E39F900D1124092E000CAA0BBB0B480F75
:1032F000591F6A1F7B1FD80118962D913C91199771
:10330000EAE0E29FC001E39F900D1124092E000C1A
:10331000AA0BBB0B480F591F6A1F7B1FF801828540
:103320009385092E000CAA0BBB0B8A019B01080F89
:10333000191F2A1F3B1FC901B8011CA21BA21EA2F4
:103340001DA218A61FA22AE0AE014F5F5F4F0E9488
:103350004339BE016F5F7F4FCE0183960E94BA183A
:1033600066EC73E0CE0101960E94D618BE016D5D39
:103370007F4FCE0101960E944C180E947127CE010A
:1033800001960E94D118CE0183960E94D118AE9664
:103390000FB6F894DEBF0FBECDBFDF91CF911F9166
:1033A0000F91FF90EF90DF90CF9008958F929F92B2
:1033B000AF92BF92CF92DF92EF92FF920F931F9343
:1033C000CF93DF93CDB7DEB7A0970FB6F894DEBFEB
:1033D0000FBECDBF7C01809100028823A1F08FEC4D
:1033E00093E00E94B0274CE050E060E070E08AE398
:1033F00094E00E946A3A0E94EB189091000281E0EA
:10340000892780930002C7010E9439168AE3882E1B
:1034100084E0982E91E0C92E95E0D92E00E010E0CE
:10342000CE0101965C014AE0B501F40181919191D0
:103430004F010E943839F601A192B1926F01B80193
:10344000C7010E943B1B0F5F1F4F0630110559F744
:10345000A0960FB6F894DEBF0FBECDBFDF91CF911F
:103460001F910F91FF90EF90DF90CF90BF90AF90A2
:103470009F908F9008951F920F920FB60F92112474
:103480000BB60F922F933F934F935F936F937F935E
:103490008F939F93AF93BF93EF93FF9386E494E052
:1034A0000E94B713FF91EF91BF91AF919F918F91C0
:1034B0007F916F915F914F913F912F910F900BBE34
:1034C0000F900FBE0F901F9018951F920F920FB67E
:1034D0000F9211240BB60F922F938F939F93EF931C
:1034E000FF93E0915604F09157048081E0915C04D1
:1034F000F0915D0482FD12C0908180915F048F5F26
:103500008F7320916004821751F0E0915F04F0E026
:10351000EA5BFB4F958F80935F0401C08081FF9130
:10352000EF919F918F912F910F900BBE0F900FBE37
:103530000F901F901895EF92FF920F931F93CF93C8
:10354000DF937C01C6E2D4E00991199101151105C0
:1035500099F0B701D80112968D919C9113970E9412
:10356000A73D892B29F4109338040093370404C035
:10357000B4E0C633DB0741F78091370490913804FB
:10358000009769F0DC01ED91FC910280F381E02D60
:10359000DF91CF911F910F91FF90EF901994DF91E0
:1035A000CF911F910F91FF90EF9008958DED93E0D3
:1035B0000C949B1A0E94EB188EEE93E00E94B027A9
:1035C0004CE050E060E070E08AE394E00E947A3AD8
:1035D00085E993E00C949B1A0F931F93CF93DF938D
:1035E000EC0120E030E0A901688179818A819B812A
:1035F0000E948E3B1816F4F40E9439280A851B8518
:103600002C853D85601B710B820B930B0E94B83992
:103610009B01AC01688179818A819B810E94213B59
:10362000688379838A839B830E9439286A877B8792
:103630008C879D8720E030E0A901688179818A81AB
:103640009B810E94B33918168CF0EC81FD8119958D
:103650008E819F81A885B98588839983AA83BB833E
:103660000E9439286A877B878C879D87DF91CF915D
:103670001F910F910895FC016115710519F4828560
:1036800093851DC06130710519F48089918917C037
:103690006230710519F48689978911C0633071050C
:1036A00019F4848D958D0BC06430710519F482A1D5
:1036B00093A105C06530710549F482A593A5DC018D
:1036C000ED91FC910190F081E02D199408958F9275
:1036D0009F92AF92BF92CF92DF92EF92FF926B01D7
:1036E0007C010E9414284B015C01C114D104E10447
:1036F000F104F1F00E941428DC01CB01881999092A
:10370000AA09BB09883E9340A105B10570F321E0E9
:10371000C21AD108E108F10888EE880E83E0981EED
:10372000A11CB11CC114D104E104F10419F7DDCFCF
:10373000FF90EF90DF90CF90BF90AF909F908F90D1
:103740000895483009F448C118F4413041F0089513
:10375000403109F457C1413109F468C1089590918D
:103760002E05943019F5E0913705F09138059091C8
:103770004105813019F48081982B03C08081909598
:1037800098239083E0913905F0913A0590818091DA
:103790004205809589238083E0913905F0913A05AF
:1037A000908180914205892B80830FC0E0912F0585
:1037B000F091300590913D05813019F48081982B6E
:1037C00003C08081909598239083E0913705F09114
:1037D000380580914105908167FF02C0892B02C0A6
:1037E000809589238083E0913905F0913A05908195
:1037F00080914205809589238083E0913905F0917D
:103800003A05908180914205892B8083E0913705AC
:10381000F091380580914105908166FF02C0892BA7
:1038200002C0809589238083E0913905F0913A05A3
:10383000908180914205809589238083E0913905AC
:10384000F0913A05908180914205892B8083E09127
:103850003705F091380580914105908165FF02C0E0
:10386000892B02C0809589238083E0913905F091EE
:103870003A05908180914205809589238083E0916B
:103880003905F0913A05908180914205892B80831A
:10389000E0913705F091380580914105908164FFF2
:1038A00002C0892B02C0809589238083E09139056D
:1038B000F0913A059081809142058095892380831B
:1038C000E0913905F0913A05908180914205892B6C
:1038D0008083E0913705F091380580914105908112
:1038E00063FF02C0892B02C0809589238083E09109
:1038F0003905F0913A0590818091420580958923A0
:103900008083E0913905F0913A05908180914205DC
:10391000892B8083E0913705F0913805809141052E
:10392000908162FF02C0892B02C080958923808329
:10393000E0913905F0913A0590818091420580959A
:1039400089238083E0913905F0913A059081809137
:103950004205892B8083E0913705F09138058091ED
:103960004105908161FF02C0892B02C080958923A7
:103970008083E0913905F0913A059081809142056C
:10398000809589238083E0913905F0913A059081F3
:1039900080914205892B8083E0913705F0913805AD
:1039A00080914105908160FF02C0892B02C0809503
:1039B00089238083E0913905F0913A0590818091C7
:1039C0004205809589238083E0913905F0913A057D
:1039D000908180914205CFC082B9E0913105F0918C
:1039E0003205908180913E05809589238083E09106
:1039F0003105F0913205908180913E05892B8083BD
:103A000062B902C082B968B9E0913105F09132051E
:103A1000908180913E05809589238083E0913105D6
:103A2000F0913205908180913E05A5C0A59824B300
:103A3000982F9071990F922B94BB90910201977ED1
:103A40009093020190910201282F082E000C330B55
:103A5000207C332743E0359527954A95E1F7292BBC
:103A6000209302019EB1947C9EB92EB1382F3C70F8
:103A7000330F330F982F9370390F8072082E000C7C
:103A8000990B9595879595958795830F822B8EB980
:103A9000E0913B05F0913C05908180914305809534
:103AA00089238083E0913B05F0913C0590818091D2
:103AB0004305892B8083E0913B05F0913C05908183
:103AC00080914305809589238083E0913305F091AF
:103AD0003405908180913F05809589238083A59846
:103AE00094B3862F8071880F892B84BB809102014B
:103AF000877E8093020120910201862F062E000C02
:103B0000990B807C992773E0959587957A95E1F7D5
:103B1000822B809302018EB1847C8EB98EB1962F58
:103B20009C70990F990F262F2370920F6072062EAA
:103B3000000C770B7595679575956795690F682BE0
:103B40006EB9E0913105F0913205908180913E058A
:103B5000809589238083E0913105F0913205908131
:103B600080913E05892B8083E0913305F0913405E7
:103B7000908180913F05892B808308958F929F9239
:103B8000AF92BF92CF92DF92EF92FF9269017A01DA
:103B900082B968B9CA01B90120E130E040E050E0E3
:103BA0000E94D03A49015A0180E090E0DC0188157A
:103BB0009905AA05BB050CF034C1E0913105F091DF
:103BC0003205308120913E05209523232083E0910A
:103BD0003105F0913205308120913E05232B208361
:103BE000E0913105F0913205308120913E0520951C
:103BF00023232083E0913105F0913205308120911B
:103C00003E05232B2083E0913105F0913205308170
:103C100020913E05209523232083E0913105F091EA
:103C20003205308120913E05232B2083E091310520
:103C3000F0913205308120913E0520952323208389
:103C4000E0913105F0913205308120913E05232B22
:103C50002083E0913105F0913205308120913E05BD
:103C6000209523232083E0913105F09132053081A6
:103C700020913E05232B2083E0913105F091320500
:103C8000308120913E05209523232083E09131054A
:103C9000F0913205308120913E05232B2083E09165
:103CA0003105F0913205308120913E052095232386
:103CB0002083E0913105F0913205308120913E055D
:103CC000232B2083E0913105F09132053081209142
:103CD0003E05209523232083E0913105F0913205A4
:103CE000308120913E05232B2083E0913105F09116
:103CF0003205308120913E05209523232083E091D9
:103D00003105F0913205308120913E05232B20832F
:103D1000E0913105F0913205308120913E052095EA
:103D200023232083E0913105F091320530812091E9
:103D30003E05232B2083E0913105F091320530813F
:103D400020913E05209523232083E0913105F091B9
:103D50003205308120913E05232B2083E0913105EF
:103D6000F0913205308120913E0520952323208358
:103D7000E0913105F0913205308120913E05232BF1
:103D80002083E0913105F0913205308120913E058C
:103D9000209523232083E0913105F0913205308175
:103DA00020913E05232B2083E0913105F0913205CF
:103DB000308120913E05209523232083E091310519
:103DC000F0913205308120913E05232B2083E09134
:103DD0003105F0913205408130913E053095342314
:103DE0003083E0913105F0913205208130913E051C
:103DF000322B3083E0913105F091320540813091D2
:103E00003E05309534233083E0913105F091320541
:103E1000208130913E05322B30830196A11DB11DCA
:103E2000C6CED701C6018F709927AA27BB27892B39
:103E30008A2B8B2B49F1C701B60120E130E040E02D
:103E400050E00E94D03AC12CD12C76016C157D0532
:103E50008E059F05CCF0E0913105F091320530815F
:103E600020913E05209523232083E0913105F09198
:103E70003205308120913E05232B20832FEFC21A7B
:103E8000D20AE20AF20AE2CFFF90EF90DF90CF90E1
:103E9000BF90AF909F908F9008958F929F92AF9216
:103EA000BF92CF92DF92EF92FF926A017B0182B9BB
:103EB000CB01BA0120E130E040E050E00E94D03A6E
:103EC00049015A0180E090E0DC0188159905AA05B6
:103ED000BB050CF064C2E0913105F09132053081F0
:103EE00020913E05209523232083E0913105F09118
:103EF0003205308120913E05232B2083E09131054E
:103F0000F0913205308120913E05209523232083B6
:103F1000E0913105F0913205308120913E05232B4F
:103F20002083E0913105F0913205308120913E05EA
:103F3000209523232083E0913105F09132053081D3
:103F400020913E05232B2083E0913105F09132052D
:103F5000308120913E05209523232083E091310577
:103F6000F0913205308120913E05232B2083E09192
:103F70003105F0913205308120913E0520952323B3
:103F80002083E0913105F0913205308120913E058A
:103F9000232B2083E0913105F0913205308120916F
:103FA0003E05209523232083E0913105F0913205D1
:103FB000308120913E05232B2083E0913105F09143
:103FC0003205308120913E05209523232083E09106
:103FD0003105F0913205308120913E05232B20835D
:103FE000E0913105F0913205308120913E05209518
:103FF00023232083E0913105F09132053081209117
:104000003E05232B2083E0913105F091320530816C
:1040100020913E05209523232083E0913105F091E6
:104020003205308120913E05232B2083E09131051C
:10403000F0913205308120913E0520952323208385
:10404000E0913105F0913205308120913E05232B1E
:104050002083E0913105F0913205308120913E05B9
:10406000209523232083E0913105F09132053081A2
:1040700020913E05232B2083E0913105F0913205FC
:10408000308120913E05209523232083E091310546
:10409000F0913205308120913E05232B2083E09161
:1040A0003105F0913205308120913E052095232382
:1040B0002083E0913105F0913205308120913E0559
:1040C000232B2083E0913105F0913205308120913E
:1040D0003E05209523232083E0913105F0913205A0
:1040E000308120913E05232B2083E0913105F09112
:1040F0003205308120913E05209523232083E091D5
:104100003105F0913205308120913E05232B20832B
:10411000E0913105F0913205308120913E052095E6
:1041200023232083E0913105F091320530812091E5
:104130003E05232B2083E0913105F091320530813B
:1041400020913E05209523232083E0913105F091B5
:104150003205308120913E05232B2083E0913105EB
:10416000F0913205308120913E0520952323208354
:10417000E0913105F0913205308120913E05232BED
:104180002083E0913105F0913205308120913E0588
:10419000209523232083E0913105F0913205308171
:1041A00020913E05232B2083E0913105F0913205CB
:1041B000308120913E05209523232083E091310515
:1041C000F0913205308120913E05232B2083E09130
:1041D0003105F0913205308120913E052095232351
:1041E0002083E0913105F0913205308120913E0528
:1041F000232B2083E0913105F0913205308120910D
:104200003E05209523232083E0913105F09132056E
:10421000308120913E05232B2083E0913105F091E0
:104220003205308120913E05209523232083E091A3
:104230003105F0913205308120913E05232B2083FA
:10424000E0913105F0913205308120913E052095B5
:1042500023232083E0913105F091320530812091B4
:104260003E05232B2083E0913105F091320530810A
:1042700020913E05209523232083E0913105F09184
:104280003205308120913E05232B2083E0913105BA
:10429000F0913205308120913E0520952323208323
:1042A000E0913105F0913205308120913E05232BBC
:1042B0002083E0913105F0913205308120913E0557
:1042C000209523232083E0913105F0913205308140
:1042D00020913E05232B2083E0913105F09132059A
:1042E000308120913E05209523232083E0913105E4
:1042F000F0913205308120913E05232B2083E091FF
:104300003105F0913205308120913E05209523231F
:104310002083E0913105F0913205308120913E05F6
:10432000232B2083E0913105F091320530812091DB
:104330003E05209523232083E0913105F09132053D
:10434000308120913E05232B2083E0913105F091AF
:104350003205408130913E05309534233083E09121
:104360003105F0913205208130913E05322B3083AA
:10437000E0913105F0913205408130913E05309554
:1043800034233083E0913105F09132052081309162
:104390003E05322B30830196A11DB11D96CDD7016C
:1043A000C6018F709927AA27BB27892B8A2B8B2BB5
:1043B000E1F1C701B60120E130E040E050E00E94A9
:1043C000D03AC12CD12C76016C157D058E059F0548
:1043D00064F1E0913105F0913205308120913E0584
:1043E000209523232083E0913105F091320530811F
:1043F00020913E05232B2083E0913105F091320579
:10440000308120913E05209523232083E0913105C2
:10441000F0913205308120913E05232B20832FEF30
:10442000C21AD20AE20AF20ACFCFFF90EF90DF90D1
:10443000CF90BF90AF909F908F90089590E0FC0137
:10444000E458FA4D2491FC01E452FA4D84918823FA
:1044500099F090E0880F991FFC01E45EFA4DA59158
:10446000B491FC01EE53FA4D859194918FB7F89475
:10447000EC91E22BEC938FBF0895682F80912D056E
:104480008130A9F0E0912F05F09130059081809165
:104490003D0580958923808381E08093500540917C
:1044A0002D0580E00E94A11B10925005089541E067
:1044B00080E00C94A11BCF9390912D05913061F079
:1044C000E0912F05F0913005208190913D05922BD0
:1044D000908340912D050AC0C62F682F41E081E0EE
:1044E0000E94A11B40912D056C2F81E0CF910C946F
:1044F000A11B682F80912D058130A1F0E0912F053F
:10450000F0913005908180913D05892B808381E079
:104510008093500540912D0580E00E94A11B1092D0
:104520005005089541E081E00C94A11BCF92DF92E9
:10453000EF92FF920F931F93CF93DF938C01D62EB0
:10454000C72EEA01F22EE32E80912305813089F4F3
:1045500080912805909129059C01201B310B841B1B
:10456000950BCF2DDE2DF22EE32E062F172FD82EF2
:10457000C92E80912C058F31D1F190F58930B9F198
:1045800050F5813009F05CC08AE20E943D22612F23
:1045900080E00E945B22602F80E00E945B226D2FF2
:1045A00080E00E945B226C2F80E00E945B228BE205
:1045B0000E943D226C2D80E00E945B226D2D80E0E8
:1045C0000E945B226E2D80E00E945B226F2D80E0B6
:1045D0000E945B222AC0853151F0893141F030C000
:1045E000813229F020F0823211F0833249F58AE2DB
:1045F0000E943D22812F0E947922802F0E947922E1
:104600008D2F0E9479228C2F0E9479228BE20E94AA
:104610003D228C2D0E9479228D2D0E9479228E2D93
:104620000E9479228F2D0E9479228CE2DF91CF9116
:104630001F910F91FF90EF90DF90CF900C943D224F
:10464000DF91CF911F910F91FF90EF90DF90CF906E
:104650000895209123058091280590912905409186
:10466000240550912505211102C09C0102C09A0128
:10467000AC0160E070E080E090E00C9496220F9333
:104680001F93CF93DF93EA0157FF05C0840F951F57
:10469000D195C195D109E0913305F0913405308170
:1046A00020913F05209523232083AC014C0F5D1FF3
:1046B0009B010E94962280912D058031B1F4E091FA
:1046C0002F05F0913005908180913D05892B8083E5
:1046D0009E01DD0F440B550B6091200570E0809129
:1046E0001F0590E00E94BE1D28C08830C9F490913B
:1046F0001F0580912005981313C0E0912F05F091BC
:104700003005908180913D05892B8083AE01DD0FBE
:10471000660B770B80911F0590E00E944D1F0DC026
:1047200000E010E06091200580911F050E945B224F
:104730000F5F1F4FC017D107ACF7E0913305F09121
:104740003405908180913F05892B8083DF91CF9143
:104750001F910F910C9429230F931F93CF93DF93F5
:10476000FC01EA0157FF05C0640F751FD195C19583
:10477000D109A0913305B09134052C9190913F055A
:10478000909592239C939B012C0F3D1FAF01CF016D
:104790000E94962280912D058031B1F4E0912F0581
:1047A000F0913005908180913D05892B80839E0199
:1047B000DD0F440B550B6091200570E080911F05C3
:1047C00090E00E94BE1D28C08830C9F490911F055A
:1047D00080912005981313C0E0912F05F0913005CA
:1047E000908180913D05892B8083AE01DD0F660BA2
:1047F000770B80911F0590E00E944D1F0DC000E0D7
:1048000010E06091200580911F050E945B220F5FE0
:104810001F4FC017D107ACF7E0913305F091340575
:10482000908180913F05892B8083DF91CF911F91EB
:104830000F910C942923682F892F0C945B228F925F
:104840009F92AF92BF92CF92DF92EF92FF920F931F
:104850001F93CF93DF936C017B01EA018901481715
:1048600059072CF4982F8D2D6A01C92FD82F0E15BA
:104870001F052CF49E2D8F2D7801092F182F809164
:104880002D05803109F040C0E0913305F0913405E9
:10489000908180913F058095892380839801AE01A6
:1048A000B701C6010E949622E0912F05F0913005D4
:1048B000908180913D05892B8083CC19DD09CE0143
:1048C000DD0FAA0BBB0B9C01AD012F5F3F4F4F4F7C
:1048D0005F4FB8016E197F09CB01770FAA0BBB0B95
:1048E000BC01CD016F5F7F4F8F4F9F4F0E94AC3A4D
:1048F0009B01AC01E09120056E2F70E080911F05B7
:1049000090E00E94BE1D44C0883009F04BC09091D9
:104910001F0580912005981345C0E0913305F09163
:104920003405908180913F0580958923808398018B
:10493000AE01B701C6010E949622E0912F05F091C9
:104940003005908180913D05892B8083CC19DD094C
:10495000CE01DD0FAA0BBB0B9C01AD012F5F3F4FBA
:104960004F4F5F4FB8016E197F09CB01770FAA0B2C
:10497000BB0BBC01CD016F5F7F4F8F4F9F4F0E94DC
:10498000AC3AAB01BC0180911F0590E00E944D1F25
:10499000E0913305F0913405908180913F05892B9A
:1049A00080834AC080912305811123C05801AE182D
:1049B000BF08B7FE03C08FEFA81AB80AB594A79432
:1049C000812C912CCC19DD09A814B904ACF1B701E4
:1049D000680D791DAE01C6010E943F23B801681918
:1049E0007909AE01C6010E943F238FEF881A980A09
:1049F000EBCF4E018C189D0897FE03C08FEF881AED
:104A0000980A95948794A12CB12C0E191F098A1429
:104A10009B0494F0A801B701C6018A0D9B1D0E945A
:104A2000AC23A801B701CE018A199B090E94AC23CF
:104A30008FEFA81AB80AEBCFDF91CF911F910F919A
:104A4000FF90EF90DF90CF90BF90AF909F908F90AE
:104A5000089542E050E063E274E086E494E00C9450
:104A600046132F923F924F925F926F927F928F9256
:104A70009F92AF92BF92CF92DF92EF92FF920F93ED
:104A80001F93CF93DF93CDB7DEB72C970FB6F89473
:104A9000DEBF0FBECDBF8C017C876B872A01FC0176
:104AA00001900020E9F731971F01281A390A8091F7
:104AB0002305811126C06F307742A1F4809124052F
:104AC0009091250501969A83898320914B05229D1B
:104AD000C001239D900D1124E981FA81E81BF90B97
:104AE000FC87EB872B853C852E30374209F04BC085
:104AF0008091240590912505A0912605B091270568
:104B000026C0EB85FC85EF30F742A1F480912805A3
:104B10009091290501969A83898320914B05229DC6
:104B2000C001239D900D1124E981FA81E81BF90B46
:104B3000FC87EB872B853C852E30374221F5809111
:104B4000280590912905A0912A05B0912B05019681
:104B5000A11DB11D20914B05229D6001239DD00C0C
:104B600011240D2C000CEE08FF08BC01CD016C19BE
:104B70007D098E099F0922E030E040E050E00E946C
:104B8000D03A3C872B8718870F831C821B82EB81CE
:104B9000FC81E215F3050CF08BC180914B058E9FD3
:104BA00030018F9F700C11242B853C85620E731E83
:104BB000EF81F8850191F887EF83E0913305F0915B
:104BC0003405908180913F058095892380832091D1
:104BD0004F0580914B0590914C0510E02111DDC0EF
:104BE00020912305211164C09201290F311D21500C
:104BF0003109A301480F511D41505109B201C301B0
:104C00000E94962280914B05869586958695909177
:104C10004C0520914D05021B1109899FC0011124EB
:104C2000089F7001099FF00C189FF00C1124F4E00C
:104C3000EF0EF11CA12CB12C80914B058695869529
:104C4000869590914C05899FC0011124A816B9063C
:104C500008F01DC1E0914905F0914A05EE0DFF1DD8
:104C6000E49197E0C92ED12C0E2F10E0C8010C2C36
:104C700002C0959587950A94E2F780FF05C0809160
:104C80001F059091200504C0809121059091220577
:104C90009827892798270E941B2421E0C21AD1084F
:104CA00028F78FEFE81AF80A9FEFA91AB90AC4CFBC
:104CB00086958695869520914D05021B1109899F41
:104CC000C0011124089F6001099FD00C189FD00CCF
:104CD0001124E4E0CE0ED11C812C912C20914B05A7
:104CE000622F66956695669580914C05689FC00118
:104CF00011248816990608F0CAC070E0C4010E9409
:104D0000BC3A640D751DA301420F511D415051095C
:104D10009B01C3010E94962200914B0506950695C2
:104D2000069510E00150110968F1E0914905F091F4
:104D30004A05C8018C0D9D1DE80FF91FE491A12CB7
:104D4000B12CEE2EF12CC7010A2C02C09595879547
:104D50000A94E2F780FF05C080911F05909120051D
:104D600004C08091210590912205982789279827D2
:104D70000E941B242FEFA21AB20A38E0A316B10436
:104D800011F7D0CF80914B0586958695869590E05A
:104D9000C80ED91E880E991EA1CF86958695869538
:104DA00020914D05021B1109899FC0011124089F04
:104DB0009001099F300D189F300D1124C9010496F0
:104DC0009A838983820180914C0590E0980124198F
:104DD00035092817390708F05AC04301C12CD12CD6
:104DE000F8013196FA87E98780914B05869586957B
:104DF000869590E0C816D9060CF040C0E0914905B0
:104E0000F0914A0589819A818C0D9D1DE80FF91F4B
:104E1000E491740187E0A82EB12C2E2F30E03E8360
:104E20002D838D819E810A2C02C0959587950A94C9
:104E3000E2F780FF12C029853A85A7014F5F5F4FD7
:104E4000B801C7010E94962280911F05909120050C
:104E50009827892798270E941B2431E0A31AB108BC
:104E60008FEFE81AF80A9FEFA916B906D1F6EFEF0F
:104E7000CE1ADE0AF8E08F0E911CB6CF29813A8156
:104E8000280F391F3A8329830F5F1F4F9CCFE09172
:104E90003305F0913405908180913F05892B808303
:104EA0000E9429238B819C8101969C838B836FCEEA
:104EB0002C960FB6F894DEBF0FBECDBFDF91CF9119
:104EC0001F910F91FF90EF90DF90CF90BF90AF9028
:104ED0009F908F907F906F905F904F903F902F901A
:104EE0000895CF93DF93FC014481558160817181E6
:104EF00086E494E00E944613EC010E9429258C0F61
:104F00009D1FDF91CF9108950F931F93CF93DF9350
:104F1000CDB7DEB762970FB6F894DEBF0FBECDBF38
:104F20008C01CB01F801118210821382128215824A
:104F300014824AE0BE016F5F7F4F0E943839BE0184
:104F40006F5F7F4FC8010E94BA1862960FB6F8943F
:104F5000DEBF0FBECDBFDF91CF911F910F9108959E
:104F6000CF93DF93009779F0FC0101900020E9F7DF
:104F70003197AF01481B590BBC0186E494E00E94B5
:104F80004613EC0102C0C0E0D0E00E9429258C0F3E
:104F90009D1FDF91CF910895CF93DF931F921F92B2
:104FA000CDB7DEB769831A8241E050E0BE016F5F82
:104FB0007F4F0E9405180F900F90DF91CF910895B9
:104FC0000F931F930E94392860934E0470934F04EF
:104FD000809350049093510486E494E00E947F13E0
:104FE00097FF1FC00E94392800914E0410914F0472
:104FF0002091500430915104DC01CB01801B910BB6
:10500000A20BB30B00914A0410914B0420914C0465
:1050100030914D0480179107A207B307E8F28FEF94
:105020009FEF1F910F9108953FB7F8948091560517
:1050300090915705A0915805B091590526B5A89BA8
:1050400005C02F3F19F00196A11DB11D3FBFBA2F1A
:10505000A92F982F8827820F911DA11DB11DBC017A
:10506000CD0142E0660F771F881F991F4A95D1F73F
:1050700008952FB7F894609152057091530580916F
:105080005405909155052FBF08951F920F920FB6AA
:105090000F9211242F933F938F939F93AF93BF93BE
:1050A0008091520590915305A0915405B0915505FA
:1050B0003091510523E0230F2D3720F40196A11DD7
:1050C000B11D05C026E8230F0296A11DB11D209336
:1050D00051058093520590935305A0935405B093C6
:1050E00055058091560590915705A0915805B091AE
:1050F00059050196A11DB11D809356059093570542
:10510000A0935805B0935905BF91AF919F918F918E
:105110003F912F910F900FBE0F901F901895CF9336
:10512000DF93CDB7DEB768970FB6F894DEBF0FBE3A
:10513000CDBF789484B5826084BD84B5816084BD20
:1051400085B5826085BD85B5816085BD80916E0025
:10515000816080936E001092810080918100826056
:105160008093810080918100816080938100809193
:1051700080008160809380008091B1008460809382
:10518000B1008091B00081608093B0008091910067
:105190008260809391008091910081608093910062
:1051A000809190008160809390008091A100826046
:1051B0008093A1008091A10081608093A1008091E3
:1051C000A00081608093A000809121018260809383
:1051D0002101809121018160809321018091200132
:1051E00081608093200180917A00846080937A00AE
:1051F00080917A00826080937A0080917A00816049
:1052000080937A0080917A00806880937A0010926F
:10521000C100E0915604F091570482E08083E09150
:105220005204F09153041082E0915404F09155041B
:105230008FEC808310925E04E0915A04F0915B043D
:1052400086E08083E0915804F09159048081806168
:105250008083E0915804F0915904808188608083B4
:10526000E0915804F0915904808180688083E09136
:105270005804F091590480818F7D808383E093E00E
:105280000E94B027E1EFF4E0A6E2B4E081919191B1
:105290008D939D9385E0E130F807C1F781E080931D
:1052A0002305809144050E941E22809145050E949D
:1052B0001E22809146050E941E22809147058F3F45
:1052C00011F00E941E2290912D05913159F080918C
:1052D0002C058052833030F0913041F480912E05BE
:1052E000853021F4809148050E941E2280912D0571
:1052F000813079F0813131F09FEF91B9803149F4FB
:1053000097B907C088E18093010180E283BB8BE3FA
:105310008DB9E0913505F091360590818091400579
:10532000892B808365E070E080E090E00E94671B3D
:10533000E0913505F091360590818091400580958A
:10534000892380836FE070E080E090E00E94671B1B
:10535000E0913505F0913605908180914005892BCB
:1053600080836FE070E080E090E00E94671BE09136
:105370003305F0913405908180913F058095892314
:10538000808380912C058F3109F492C208F0F1C01E
:10539000893009F419C208F0E5C0813009F0C3C4AE
:1053A00089EE0E943D2260E280E00E945B2281E162
:1053B0000E943D2264E670E080E090E00E94671B5E
:1053C00081ED0E943D2260E080E00E945B2261E767
:1053D00080E00E945B2269E180E00E945B2280ED18
:1053E0000E943D2267E080E00E945B2261E080E055
:1053F0000E945B2268E080E00E945B2286E30E94BC
:105400003D2268E480E00E945B228AE30E943D2204
:1054100065E080E00E945B2281EC0E943D2260E119
:1054200080E00E945B2260E180E00E945B2262E0FB
:1054300080E00E945B2262E080E00E945B2280ECC0
:105440000E943D2260E080E00E945B2265E380E0F4
:105450000E945B2260E080E00E945B2260E080E0CE
:105460000E945B2261E080E00E945B2262E080E0BB
:105470000E945B2285EC0E943D2264E080E00E9455
:105480005B2282ED0E943D2261E080E00E945B226F
:1054900064E480E00E945B2288EC0E943D2264E08C
:1054A00080E00E945B2267E680E00E945B2265E369
:1054B00080E00E945B2264E080E00E945B2268E062
:1054C00080E00E945B2266E080E00E945B2264E252
:1054D00080E00E945B2261E080E00E945B2267E343
:1054E00080E00E945B2260E480E00E945B2263E037
:1054F00080E00E945B2260E180E00E945B2268E025
:1055000080E00E945B2260E880E00E945B2260E015
:1055100080E00E945B228AE20E943D2260E080E0FF
:105520000E945B2260E080E00E945B2260E080E0FD
:105530000E945B226FEE80E00E945B228BE20E9461
:105540003D2260E080E00E945B2260E080E00E94FB
:105550005B2261E080E00E945B226FE880E00E94B5
:105560005B22ADC3853109F4AFC2893109F41AC396
:10557000DAC3813209F416C308F414C3823209F481
:1055800071C0833209F0CFC381E10E943D2264E102
:1055900070E080E090E00E94671B80ED0E943D2259
:1055A00087E00E94792282E40E94792288E10E94A9
:1055B000792281ED0E943D2280E00E94792287E0DD
:1055C0000E94792280E10E94792282ED0E943D2290
:1055D00081E00E94792282E00E94792280EC0E9480
:1055E0003D2280E10E9479228BE30E94792280E0B3
:1055F0000E94792282E00E94792281E10E94792230
:1056000085EC0E943D2283E00E94792288EC0E9472
:105610003D2280E00E94792282E30E94792286E383
:105620000E94792285E40E94792286E00E947922F4
:1056300086E10E94792287E30E94792285E70E9411
:10564000792287E70E94792284E50E9479228CE002
:105650000E94792280E00E94792286E30E943D2206
:105660008AE432C380EE0E943D2280E00E947922CB
:1056700087E00E94792280E10E94792289E00E94DD
:10568000792287E10E9479228BE00E94792280E4CE
:105690000E9479228AE80E9479228BE40E94792272
:1056A0008AE00E9479228DE00E9479228FE00E9498
:1056B000792285E10E94792286E10E9479228FE099
:1056C0000E94792281EE0E943D2280E00E94792290
:1056D0008AE10E9479228BE10E94792282E00E9475
:1056E00079228DE00E94792285E00E94792280E370
:1056F0000E94792285E30E94792283E40E94792224
:1057000082E00E9479228AE00E94792289E00E9448
:10571000792282E30E94792286E30E9479228FE037
:105720000E94792281EB0E943D2280EA0E94792228
:1057300084EB0E943D2282E00E94792280EC0E944C
:105740003D2287E10E94792285E10E94792281EC45
:105750000E943D2281E40E94792285EC0E943D2234
:1057600080E00E9479228AE00E94792280E80E94EB
:10577000792286EB0E943D2282E00E94792286E314
:105780000E943D2288E40E9479228AE30E943D2201
:1057900085E50E94792289EE0E943D2280E00E94E8
:1057A000792287EF0E943D2289EA0E94792281E5D1
:1057B0000E9479228CE20E94792282E80E9479225A
:1057C00081E10E943D22A6C281E10E943D226CE05F
:1057D00070E080E090E00E94671B81EB0E943D2218
:1057E00081E00E9479228CE20E9479228DE20E945F
:1057F000792282EB0E943D2281E00E9479228CE294
:105800000E9479228DE20E94792283EB0E943D2240
:1058100081E00E9479228CE20E9479228DE20E942E
:10582000792281E00E9479228CE20E9479228DE225
:105830000E94792284EB0E943D2287E00E94792217
:1058400080EC0E943D2282EA0E94792282E00E943E
:10585000792284E80E94792281EC0E943D2285EC25
:105860000E94792282EC0E943D228AE00E947922E5
:1058700080E00E94792283EC0E943D228AE80E9407
:1058800079228AE20E94792284EC0E943D228AE8F1
:105890000E9479228EEE0E94792285EC0E943D22A0
:1058A0008EE00E94792286E30E943D2288EC73C03C
:1058B00081E10E943D226CE070E080E090E00E9477
:1058C000671B81EB0E943D2281E00E9479228CE2DD
:1058D0000E9479228DE20E94792282EB0E943D2271
:1058E00081E00E9479228CE20E9479228DE20E945E
:1058F000792283EB0E943D2281E00E9479228CE292
:105900000E9479228DE20E94792281E00E94792210
:105910008CE20E9479228DE20E94792284EB0E941F
:105920003D2287E00E94792280EC0E943D2282EA9B
:105930000E94792282E00E94792284E80E947922E2
:1059400081EC0E943D2285EC0E94792282EC0E942B
:105950003D228AE00E94792280E00E94792283EC35
:105960000E943D228AE80E9479228AE20E947922DE
:1059700084EC0E943D228AE80E9479228EEE0E94E9
:10598000792285EC0E943D228EE00E94792286E3F6
:105990000E943D2280EC0E94792280EE0E943D22EE
:1059A0008FE00E9479228AE10E9479228FE00E9492
:1059B000792288E10E9479228FE20E94792288E28E
:1059C0000E94792280E20E94792282E20E9479225A
:1059D0008FE10E9479228BE10E94792283E20E946A
:1059E000792287E30E94792280E00E94792287E071
:1059F0000E94792282E00E94792280E10E9479222D
:105A000081EE0E943D228FE00E9479228BE10E946C
:105A100079228FE00E94792287E10E94792283E334
:105A20000E9479228CE20E94792289E20E947922E6
:105A30008EE20E94792280E30E94792280E30E9414
:105A4000792289E30E9479228FE30E94792280E003
:105A50000E94792287E00E94792283E00E947922C5
:105A600080E10E9479228AE20E943D2280E00E9429
:105A7000792280E00E94792280E00E9479228FE7DB
:105A80000E9479228BE20E943D2280E00E947922CE
:105A900080E00E94792280E00E9479228FE90E94B2
:105AA000792280EF0E943D2281E00E94792286EFD8
:105AB0000E943D2280E00E9479228AE30E943D22DA
:105AC00085E00E9479222CC181E10E943D2264E19F
:105AD00070E080E090E00E94671B80ED0E943D2214
