:100000000C947E010C94AF010C94AF010C94AF01E1
:100010000C94AF010C94AF010C94AF010C94AF01A0
:100020000C94AF010C94AF010C94AF010C94AF0190
:100030000C94AF010C94AF010C94AF010C94AF0180
:100040000C94AF010C94AF010C94AF010C94AF0170
:100050000C94AF010C94AF010C94AF010C943007D9
:100060000C94AF010C94A4070C947A070C94AF0184
:100070000C94AF010C94AF010C94AF010C94AF0140
:100080000C94AF010C94AF010C94AF010C94AF0130
:100090000C94AF010C94AF010C94AF010C94AF0120
:1000A0000C94AF010C94AF010C94AF010C94AF0110
:1000B0000C94AF010C94AF010C94AF010C94AF0100
:1000C0000C94AF010C94AF010C94AF010C94AF01F0
:1000D0000C94AF010C94AF010C94AF010C94AF01E0
:1000E0000C94AF01FF010202F101F501F90139029F
:1000F00006020A021002140218021E02220226023E
:1001000039022C023002340216041A041E0422049E
:1001100026042A042E0498059F05A605AD05B405FE
:10012000CC05BB05CC05C2050C949D020C948B0438
:100130000C94F5010C941E020C9416040C94F90115
:100140000C94FD030C9426020C9439020C9439058E
:100150000C9434020C94AC020C9422020C94E00433
:100160000C9410020C947A080C94A6050C94C0020E
:100170000C941A040C949F050C94B2030C940A027C
:100180000C94AD050C9426040C9430020C940603D8
:100190000C9453030C942E040C94FF010C94CC0586
:1001A0000C94CE020C94C2050C9418020C94060216
:1001B0000C94F1010C9414020C94BB050C940105F1
:1001C0000C94E0030C944F050C94AC040C942204A2
:1001D0000C9487050C9435040C942A040C942C027E
:1001E0000C9473020C9498050C9402020C94B405C0
:1001F0000C941E0400000A0B02090C0D0E080703E4
:1002000004010000000000000000000000000000E9
:1002100000000000000000000000000000000000DE
:10022000121110000000000000000000000000009B
:100230000000000000000000000000002200250077
:1002400028002B002E0031003400020100000501BF
:1002500008010B0100002100240027002A002D00C6
:100260003000330001010000040107010A01050507
:100270000505070508080808020202020A0A08081C
:10028000040404040101010101010101030303034A
:1002900003030303040707070C0C0C0C0C0C0C0CD9
:1002A0000202020206060606060606060B0B0B0BEA
:1002B0000B0B0B0B0102102020080810204010200F
:1002C000408002010201080402010102040810201A
:1002D0004080804020100804020180040201804018
:1002E0002010080402010804020101020408102081
:1002F000408001020408102040807A0811241FBEAB
:10030000CFEFD1E2DEBFCDBF00E00CBF23E0A0E322
:10031000B2E001C01D92AB37B207E1F712E0A0E0F6
:10032000B2E0E2ECFDE100E00BBF02C007900D92ED
:10033000A033B107D9F711E0CEE7D1E000E006C065
:1003400021970109802FFE010E94B80DCD37D107FA
:1003500080E00807A9F70E94BB080C94DF0E0C94FC
:10036000000090E0FC01EC54FD4F2491FC01E259A7
:10037000FD4F8491882399F090E0880F991FFC012C
:10038000EC5AFD4FA591B491FC01E65CFD4F8591BF
:1003900094918FB7F894EC91E22BEC938FBF089572
:1003A000362F90E0FC01EC50FE4F4491FC01EC54E0
:1003B000FD4F2491FC01E259FD4F9491992309F4DA
:1003C0006CC0442309F455C050E0FA013197E23182
:1003D000F10508F04EC08827EE58FF4F8F4F0C9460
:1003E000B80D809180008F7707C0809180008F7D4D
:1003F00003C080918000877F809380003AC084B5DD
:100400008F7702C084B58F7D84BD33C08091B000EA
:100410008F7703C08091B0008F7D8093B00029C09A
:10042000809190008F7707C0809190008F7D03C0EE
:1004300080919000877F809390001BC08091A000E6
:100440008F7707C08091A0008F7D03C08091A000AE
:10045000877F8093A0000DC0809120018F7707C017
:10046000809120018F7D03C080912001877F809340
:100470002001E92FF0E0EE0FFF1FE65CFD4FA59194
:10048000B4919FB7F894311104C08C912095282322
:1004900002C0EC912E2B2C939FBF08953FB7F89488
:1004A00080913D0290913E02A0913F02B0914002A6
:1004B00026B5A89B05C02F3F19F00196A11DB11DBF
:1004C0003FBFBA2FA92F982F8827820F911DA11DFA
:1004D000B11DBC01CD0142E0660F771F881F991F37
:1004E0004A95D1F70895CF92DF92EF92FF920F9342
:1004F0001F93CF93DF936C017A018B01C0E0D0E0B2
:10050000CE15DF0581F0D8016D918D01D601ED91F9
:10051000FC910190F081E02DC6011995892B11F015
:100520002196EECF7E01C701DF91CF911F910F91F0
:10053000FF90EF90DF90CF900895FC01538D448D94
:10054000252F30E0842F90E0821B930B541710F07E
:10055000CF96089501970895FC01918D828D98178B
:1005600061F0828DDF01A80FB11D5D968C91928D97
:100570009F5F9F73928F90E008958FEF9FEF089594
:10058000FC01918D828D981731F0828DE80FF11D5D
:10059000858D90E008958FEF9FEF0895FC01918D78
:1005A000228D892F90E0805C9F4F821B91098F7371
:1005B0009927089581E492E00E94CE0221E0892BE0
:1005C00009F420E0822F0895FC01848DDF01A80F3B
:1005D000B11DA35ABF4F2C91848D90E001968F736B
:1005E0009927848FA689B7892C93A089B1898C918A
:1005F000837080648C93938D848D981306C00288D9
:10060000F389E02D80818F7D80830895EF92FF92A2
:100610000F931F93CF93DF93EC0181E0888F9B8D25
:100620008C8D981305C0E889F989808185FD26C0E5
:10063000F62E0B8D10E00F5F1F4F0F731127E02E6A
:100640008C8DE8120CC00FB607FCFACFE889F98947
:10065000808185FFF5CFCE010E94E402F1CF8B8D22
:10066000FE01E80FF11DE35AFF4FF0829FB7F894A7
:100670000B8FEA89FB89808180620AC09FB7F8945A
:10068000EE89FF896083E889F989808183708064BD
:1006900080839FBF81E090E0DF91CF911F910F9108
:1006A000FF90EF900895CF93DF93EC01888D88231E
:1006B000C9F0EA89FB89808185FD05C0A889B989CF
:1006C0008C9186FD0FC00FB607FCF5CF808185FFAA
:1006D000F2CFA889B9898C9185FFEDCFCE010E9418
:1006E000E402E7CFDF91CF91089580E090E0892B7D
:1006F00021F00E94DA02811125C080E090E0892B70
:1007000041F080E090E0892B21F00E9400008111EF
:100710001CC080E090E0892B41F080E090E0892BC4
:1007200021F00E940000811113C080E090E0892B2D
:10073000A1F080E090E0892B81F00E9400008111FF
:100740000AC008950E940000D8CF0E940000E1CFA7
:100750000E940000EACF0C9400000895089580E004
:1007600090E00895CF93DF93FC012381222329F1A8
:10077000EC0184810E94B1018D810E94B1018B81C5
:10078000843011F0883029F48E810E94B1018F816C
:1007900005C0833011F0863019F48E810E94B101BA
:1007A0008FA58F3F51F00E94B1016EA581E06827AF
:1007B0008FA5DF91CF910C94D001DF91CF91089557
:1007C000CF93DF93FC0123812223A1F0EC01019060
:1007D000F081E02D0480F581E02D60E019958FA572
:1007E0008F3F41F00E94B1016EA58FA5DF91CF919F
:1007F0000C94D001DF91CF910895CF93DF93DC016A
:100800004770552766277727FA013197CD91DC91FC
:100810001197E730F10530F48827EC57FF4F8F4FE1
:100820000C94B80DEC81FD8161E01BC0EC81FD8171
:1008300065E017C0EC81FD8164E013C0EC81FD81AF
:1008400066E00FC0EC81FD8162E00BC0EC81FD81B0
:100850006AE007C0EC81FD8168E003C0EC81FD81A6
:1008600069E0CD01DF91CF911994CF93DF93EC0133
:10087000CB01BA0126E030E040E050E00E94990D43
:10088000623071058105910559F18CF4611571058E
:1008900081059105F1F06130710581059105C1F582
:1008A000E881F9810480F581E02D65E02DC0643098
:1008B00071058105910511F1D4F06530710581054F
:1008C000910531F5E881F9810480F581E02D66E03C
:1008D0001BC0E881F9810480F581E02D64E014C03B
:1008E000E881F9810480F581E02D61E00DC0E881A7
:1008F000F9810480F581E02D63E006C0E881F9818B
:100900000480F581E02D62E0CE01DF91CF91199452
:10091000DF91CF9108954370552766277727DC0133
:10092000ED91FC910480F581E02D42305105610587
:10093000710571F0433051056105710559F0413081
:1009400051056105710511F065E005C066E003C061
:100950006AE001C069E01994CF93DF93EC01CB0109
:10096000BA0123E030E040E050E00E94990D613090
:1009700071058105910581F0623071058105910550
:1009800091F0672B682B692BC1F4E881F981048011
:10099000F581E02D64E00DC0E881F9810480F581E6
:1009A000E02D61E006C0E881F9810480F581E02D49
:1009B00062E0CE01DF91CF911994DF91CF9108953C
:1009C0004370552766277727DC01ED91FC91048061
:1009D000F581E02D423051056105710571F043301C
:1009E00051056105710559F04130510561057105E9
:1009F00011F062E005C063E003C061E001C060E0A7
:100A00001994CF93DF93EC01E881F9810480F5819B
:100A1000E02D8A81811102C060E001C062E0CE0158
:100A20001995E881F9810480F581E02D8A81811191
:100A300002C061E001C063E0CE0119958CA59DA5BF
:100A40008230910538F0880F991F880F991F0597FC
:100A50000197F1F7E881F9810480F581E02D8A8121
:100A6000811102C060E001C062E0CE01DF91CF9150
:100A70001994CF93DF93EC0120E030E0A9016C8959
:100A80007D898E899F890E94D50E18161CF4E8A9CD
:100A9000F9A902C0EAA9FBA9DF91CF911994CF92DD
:100AA000DF92EF92FF920F931F93CF93DF93EC01AE
:100AB0009B81943041F0983031F0933031F0963092
:100AC00021F012E003C014E001C013E02496E12CF1
:100AD000F12CC62ED12C01E0C6010E2C02C095953A
:100AE00087950A94E2F76C8180FD602789910E94C6
:100AF000D0018FEFE81AF80AE11670F3DF91CF9179
:100B00001F910F91FF90EF90DF90CF9008950F937A
:100B10001F93DC0113960C91139710E00930110517
:100B2000D8F5F8018827E557FF4F8F4F0C94B80D83
:100B3000ED91FC9111970084F185E02D29C0ED9194
:100B4000FC9111970284F385E02D22C0ED91FC9178
:100B500011970484F585E02D1BC0ED91FC91119750
:100B60000684F785E02D14C0ED91FC911197008863
:100B7000F189E02D0DC0ED91FC9111970288F38968
:100B8000E02D06C0ED91FC9111970488F589E02DC8
:100B9000CD011F910F9119941F910F9108954F92BC
:100BA0005F926F927F928F929F92AF92BF92CF92FD
:100BB000DF92EF92FF920F931F93CF93DF93EC019D
:100BC000C888D988EA88FB888C859D85AE85BF85D5
:100BD000C81AD90AEA0AFB0A6C897D898E899F891D
:100BE0009B01AC010E94B90C4B015C016C8D7D8DA9
:100BF0008E8D9F8D9B01AC010E94C10D9B01AC01AC
:100C0000C501B4010E942D0E0E949F0EC114D10493
:100C1000E104F10499F462307105810591050CF04D
:100C200076C01CA21DA21EA21FA21C8A1D8A1E8A9B
:100C30001F8A1CAA1DAA1EAA1FAAEDC00CA91DA9C5
:100C40002EA93FA91C141D041E041F04FCF4101639
:100C50001106120613064CF46C157D058E059F05D2
:100C60004CF52A81211153C025C00115110521051C
:100C7000310509F44CC06C157D058E059F050CF0FF
:100C800046C08A81882309F442C036C01016110676
:100C900012061306ECF40027112798010C191D0900
:100CA0002E093F0960177107820793071CF42A81F8
:100CB000222369F19B01AC0188279927DC01821B63
:100CC000930BA40BB50B8CAB9DABAEABBFAB1FC0F6
:100CD0000115110521053105D1F08824992454010D
:100CE0008C189D08AE08BF08681579058A059B0514
:100CF00074F48A8181110BC030952095109501956F
:100D00001F4F2F4F3F4F0CAB1DAB2EAB3FAB8CA8F3
:100D10009DA8AEA8BFA881149104A104B10489F4D0
:100D200088AD99ADAAADBBAD8CAF9DAFAEAFBFAF37
:100D300081E01C141D041E041F040CF080E08A8353
:100D40003FC0CCACDDACEEACFFACA7019601C70157
:100D5000B6010E94C10D2B013C01C501B4010E94E6
:100D60005A0C20E030E040E850E40E94B90C20E04A
:100D700030E040E85FE30E94C10D9B01AC01C3017C
:100D8000B2010E942D0E9B01AC01C701B6010E9469
:100D9000C00D3B016C01FE01E05CFF4FE080F18083
:100DA000028113819701A8010E94D50E181614F430
:100DB00073018601C701D8018CAF9DAFAEAFBFAF45
:100DC0003FEF831A930AA30AB30A8CAA9DAAAEAA7C
:100DD000BFAACCACDDACEEACFFACC701B6010E9443
:100DE000A60E6CA37DA38EA39FA3A701960160E02E
:100DF00074E284E799E40E942D0E6C8B7D8B8E8BC0
:100E00009F8B2A81211107C0DC01CB01B0588C8B4C
:100E10009D8BAE8BBF8BDF91CF911F910F91FF9078
:100E2000EF90DF90CF90BF90AF909F908F907F908A
:100E30006F905F904F900895009769F0FC010190CA
:100E40000020E9F73197AF01481B590BBC0181E441
:100E500092E00C94730280E090E008950E94DA0E14
:100E60001F920F920FB60F9211242F933F938F93DF
:100E70009F93AF93BF938091390290913A02A091D2
:100E80003B02B0913C023091380223E0230F2D3712
:100E900020F40196A11DB11D05C026E8230F02967E
:100EA000A11DB11D209338028093390290933A021C
:100EB000A0933B02B0933C0280913D0290913E0290
:100EC000A0913F02B09140020196A11DB11D8093F7
:100ED0003D0290933E02A0933F02B0934002BF9127
:100EE000AF919F918F913F912F910F900FBE0F90D7
:100EF0001F9018951F920F920FB60F9211240BB6E8
:100F00000F922F933F934F935F936F937F938F93A2
:100F10009F93AF93BF93EF93FF9381E492E00E947E
:100F2000E402FF91EF91BF91AF919F918F917F91DB
:100F30006F915F914F913F912F910F900BBE0F904A
:100F40000FBE0F901F9018951F920F920FB60F9221
:100F500011240BB60F922F938F939F93EF93FF93D0
:100F6000E0915102F09152028081E0915702F0919C
:100F7000580282FD12C0908180915A028F5F8F7358
:100F800020915B02821751F0E0915A02F0E0EF5B92
:100F9000FD4F958F80935A0201C08081FF91EF91A0
:100FA0009F918F912F910F900BBE0F900FBE0F90BE
:100FB0001F9018958F929F92AF92BF92CF92DF921F
:100FC000EF92FF920F93CF93DF93EC0184E092E0D6
:100FD0009983888384E08B831C861D861E861F86EA
:100FE000188A198A1A8A1B8A1C8A1D8A1E8A1F8AD5
:100FF000C12CD12C80E8E82E8FE3F82EC88ED98E34
:10100000EA8EFB8E1C8E1D8E1E8E1F8EC8A2D9A24C
:10101000EAA2FBA21CA21DA21EA21FA281E090E0D8
:101020009DA78CA78FEF8FA718A619A61AA61BA697
:101030006C834D832E830F831EA61CAA1DAA1EAA95
:101040001FAA18AE19AE1AAE1BAE1CAE1DAE1EAE58
:101050001FAEFE01E05CFF4FC082D182E282F382CC
:101060001A82188619861A861B86CE010E94B20340
:101070008C8C9D8CAE8CBF8CA7019601C501B401F0
:101080000E94530C882351F16CA97DA98EA99FA9B8
:101090000E945A0CA50194010E94B90C0E949F0E57
:1010A0006CAB7DAB8EAB9FAB86E896E6A9E6B9E468
:1010B00088AF99AFAAAFBBAFCC8EDD8EEE8EFF8E20
:1010C000CE01DF91CF910F91FF90EF90DF90CF9005
:1010D000BF90AF909F908F900C94CF05DF91CF91F0
:1010E0000F91FF90EF90DF90CF90BF90AF909F90C7
:1010F0008F9008950F93E1E4F2E01382128288EE5C
:1011000093E0A0E0B0E084839583A683B7838EE16B
:1011100092E09183808385EC90E09587848784ECCE
:1011200090E09787868780EC90E0918B808B81ECB4
:1011300090E0938B828B82EC90E0958B848B86EC95
:1011400090E0978B868B118E128E138E148E08E092
:1011500029E04AE06BE087E393E00E94DA0704E0CD
:1011600025E046E067E083EF92E00E94DA07109204
:10117000F2020F910895CF93DF93CDB7DEB7A59715
:101180000FB6F894DEBF0FBECDBF789484B58260F1
:1011900084BD84B5816084BD85B5826085BD85B51B
:1011A000816085BD80916E00816080936E00109299
:1011B0008100809181008260809381008091810014
:1011C00081608093810080918000816080938000A5
:1011D0008091B10084608093B1008091B000816003
:1011E0008093B00080919100826080939100809103
:1011F0009100816080939100809190008160809344
:1012000090008091A10082608093A1008091A10054
:1012100081608093A1008091A00081608093A000F4
:101220008091210182608093210180912101816060
:101230008093210180912001816080932001809121
:101240007A00846080937A0080917A008260809333
:101250007A0080917A00816080937A0080917A0090
:10126000806880937A001092C100E0915102F09161
:10127000520282E08083E0914D02F0914E02108292
:10128000E0914F02F09150028FEC8083109259024E
:10129000E0915502F091560286E08083E09153027E
:1012A000F0915402808180618083E0915302F0913B
:1012B0005402808188608083E0915302F09154024F
:1012C000808180688083E0915302F0915402808194
:1012D0008F7D808320E030E048E453E460914F0349
:1012E0007091500380915103909152030E94530CCE
:1012F000882309F453C080E090E0A8E4B3E480932D
:101300004F0390935003A0935103B093520380E096
:1013100090E4ACE9B5E48093770390937803A093CD
:101320007903B0937A0380916B0390916C03A09141
:101330006D03B0916E03181619061A061B0674F594
:1013400060914B0370914C0380914D0390914E033B
:101350009B01AC010E94B90C6B017C0160915303AD
:101360007091540380915503909156039B01AC01F9
:101370000E94C10D9B01AC01C701B6010E942D0E58
:101380000E949F0E60936B0370936C0380936D03B8
:1013900090936E0387E393E00E94CF0520E030E056
:1013A00048E453E460910B0370910C0380910D03AA
:1013B00090910E030E94530C882309F453C080E0DF
:1013C00090E0A8E4B3E480930B0390930C03A09304
:1013D0000D03B0930E0380E090E4ACE9B5E4809394
:1013E000330390933403A0933503B0933603809175
:1013F000270390912803A0912903B0912A0318167E
:1014000019061A061B0674F560910703709108030C
:101410008091090390910A039B01AC010E94B90CD1
:101420006B017C0160910F03709110038091110397
:10143000909112039B01AC010E94C10D9B01AC0174
:10144000C701B6010E942D0E0E949F0E60932703D4
:10145000709328038093290390932A0383EF92E0EB
:101460000E94CF05E091F202EA3068F481E08E0F2D
:101470008093F202F0E0EE0FFF1FE252FD4F87E390
:1014800093E091838083E091F202EA3068F481E096
:101490008E0F8093F202F0E0EE0FFF1FE252FD4F3D
:1014A00083EF92E0918380836091300270913102EA
:1014B000809132029091330228EC30E040E050E01D
:1014C0000E94990D69017A0157FF22C06DE281E403
:1014D00092E00E94060322273327A9012C193D0917
:1014E0004E095F0919A28E010F5D1F4FCA01B90194
:1014F0002AE030E040E050E00E94770D605DD801C6
:101500006E938D01211531054105510579F715C0FF
:1015100019A28E010F5D1F4FCA01B9012AE030E008
:1015200040E050E00E94770D605DF80162938F010A
:10153000211531054105510579F7C8010E941C07A5
:1015400042E050E06CE272E081E492E00E947302BB
:1015500088EC90E0A0E0B0E08093300290933102FC
:10156000A0933202B09333028093340290933502F9
:10157000A0933602B09337025090F20240E3C42E9B
:1015800042E0D42E0EED12E0812C412CB12CA12C86
:10159000912C581471F1D801ED90FD908D01F60158
:1015A00061917191819191916F0197FF07C0909521
:1015B0008095709561957F4F8F4F9F4F0E945A0C79
:1015C000D70158962D913D914D915C915B970E946A
:1015D0002D0E3B017C01242D3B2D4A2D592D0E94BF
:1015E000D50E181624F4462CB72CAE2C9F2C8394C1
:1015F000D0CF20E030E0A901642D7B2D8A2D992DDC
:101600000E94D50E18160CF0B6C0312C8091F20253
:10161000381608F0B0C0032D10E0F801EE0FFF1FE0
:10162000EE0FFF1FE05DFD4FC080D180E280F380B0
:10163000C701B6010E945A0C242D3B2D4A2D592D6D
:101640000E942D0E562E672E782E892E000F111F08
:10165000F801E252FD4F0190F081E02D84859585DF
:10166000A685B785C80ED91EEA1EFB1E8089918902
:10167000A289B389C816D906EA06FB0639F0C08AE2
:10168000D18AE28AF38ACF010E94CF05F801E252A3
:10169000FD4F00811181F8012489358946895789D8
:1016A000652D762D872D982D0E94530C882309F4E3
:1016B00060C0D8015896CD90DD90ED90FC905B977E
:1016C000D701C601B0588AA39BA3ACA3BDA39C01BC
:1016D000AD01652D762D872D982D0E94530C87FD29
:1016E0000FC0A7019601652D762D872D982D0E949C
:1016F000D50E18164CF0C52CD62CE72CF82C04C0AF
:10170000CAA0DBA0ECA0FDA020E030E0A901C70149
:10171000B6010E94530C811108C0D80194961D9205
:101720001D921D921C9297971FC0A701960160E021
:1017300074E284E799E40E942D0E9F770E94A60E22
:10174000F80164A375A386A397A38824839420E05B
:1017500030E0A901C701B6010E94D50E18160CF0A1
:10176000812CD80112968C92F801C48AD58AE68A17
:10177000F78A33944BCF80E0F12C9091F202F91666
:1017800008F066C0EF2DF0E0EE0FFF1FE252FD4FB4
:1017900000811181D80150968D909D90AD90BC90A4
:1017A00053971C964D915D916D917C911F97841676
:1017B0009506A606B70609F449C094968D919D91A9
:1017C0000D90BC91A02D892B8A2B8B2BF1F10E94BF
:1017D0004E024B015C01F80180A591A5A2A5B3A51D
:1017E000B501A401481B590B6A0B7B0B84A195A181
:1017F000A6A1B7A1481759076A077B0730F12281D4
:1018000084859585A685B785222321F00196A11DA3
:10181000B11D04C00197A109B109F801848795871A
:10182000A687B787D8011C964D915D916D917C91EB
:101830001F97ED91FC910680F781E02DC801199565
:10184000F80180A691A6A2A6B3A681E0F39495CF55
:10185000811191CF0E944E026B017C018AE0882E9B
:10186000912CA12CB12C0E944E02DC01CB018C19D1
:101870009D09AE09BF09883E9340A105B10598F3C3
:10188000F1E08F1A9108A108B10828EEC20E23E0FA
:10189000D21EE11CF11C81149104A104B10419F7BA
:1018A0000E94750301CE0E94950C08F481E0089512
:1018B000E89409C097FB3EF49095809570956195EA
:1018C0007F4F8F4F9F4F9923A9F0F92F96E9BB27A0
:1018D0009395F695879577956795B795F111F8CF1C
:1018E000FAF4BB0F11F460FF1BC06F5F7F4F8F4F87
:1018F0009F4F16C0882311F096E911C0772321F07D
:101900009EE8872F762F05C0662371F096E8862F14
:1019100070E060E02AF09A95660F771F881FDAF76B
:10192000880F9695879597F90895990F0008550F98
:10193000AA0BE0E8FEEF16161706E807F907C0F055
:1019400012161306E407F50798F0621B730B840B5D
:10195000950B39F40A2661F0232B242B252B21F437
:1019600008950A2609F4A140A6958FEF811D811DD7
:1019700008950E94CC0C0C943D0D0E942F0D38F060
:101980000E94360D20F0952311F00C94260D0C9436
:101990002C0D11240C94710D0E944E0D70F3959F27
:1019A000C1F3950F50E0551F629FF001729FBB2756
:1019B000F00DB11D639FAA27F00DB11DAA1F649FF2
:1019C0006627B00DA11D661F829F2227B00DA11DA5
:1019D000621F739FB00DA11D621F839FA00D611D2B
:1019E000221F749F3327A00D611D231F849F600D4C
:1019F000211D822F762F6A2F11249F5750409AF075
:101A0000F1F088234AF0EE0FFF1FBB1F661F771F00
:101A1000881F91505040A9F79E3F510580F00C94CB
:101A2000260D0C94710D5F3FE4F3983ED4F3869538
:101A300077956795B795F795E7959F5FC1F7FE2B6B
:101A4000880F911D9695879597F9089597F99F6747
:101A500080E870E060E008959FEF80EC0895002436
:101A60000A941616170618060906089500240A9403
:101A700012161306140605060895092E0394000C89
:101A800011F4882352F0BB0F40F4BF2B11F460FF18
:101A900004C06F5F7F4F8F4F9F4F089557FD905841
:101AA000440F551F59F05F3F71F04795880F97FB22
:101AB000991F61F09F3F79F08795089512161306DC
:101AC0001406551FF2CF4695F1DF08C0161617060B
:101AD0001806991FF1CF8695710561050894089540
:101AE000E894BB2766277727CB0197F90895A1E2F1
:101AF0001A2EAA1BBB1BFD010DC0AA1FBB1FEE1F88
:101B0000FF1FA217B307E407F50720F0A21BB30BD2
:101B1000E40BF50B661F771F881F991F1A9469F74E
:101B200060957095809590959B01AC01BD01CF01AA
:101B30000895052E97FB1EF400940E94B00D57FDEA
:101B400007D00E94770D07FC03D04EF40C94B00D23
:101B500050954095309521953F4F4F4F5F4F0895D9
:101B600090958095709561957F4F8F4F9F4F089509
:101B7000EE0FFF1F881F8BBF0790F691E02D199481
:101B80005058BB27AA270E94D80D0C943D0D0E94E7
:101B90002F0D38F00E94360D20F039F49F3F19F4D4
:101BA00026F40C942C0D0EF4E095E7FB0C94260D16
:101BB000E92F0E944E0D58F3BA1762077307840786
:101BC000950720F079F4A6F50C94700D0EF4E095CD
:101BD0000B2EBA2FA02D0B01B90190010C01CA01E7
:101BE000A0011124FF27591B99F0593F50F4503E92
:101BF00068F11A16F040A22F232F342F4427585F84
:101C0000F3CF469537952795A795F0405395C9F79B
:101C10007EF41F16BA0B620B730B840BBAF0915053
:101C2000A1F0FF0FBB1F661F771F881FC2F70EC0F2
:101C3000BA0F621F731F841F48F4879577956795C5
:101C4000B795F7959E3F08F0B0CF9395880F08F0B1
:101C50009927EE0F9795879508950E94410E0C9451
:101C60003D0D0E94360D58F00E942F0D40F029F4D2
:101C70005F3F29F00C94260D51110C94710D0C94BA
:101C80002C0D0E944E0D68F39923B1F3552391F367
:101C9000951B550BBB27AA2762177307840738F0DB
:101CA0009F5F5F4F220F331F441FAA1FA9F335D038
:101CB0000E2E3AF0E0E832D091505040E695001CEC
:101CC000CAF72BD0FE2F29D0660F771F881FBB1FA6
:101CD000261737074807AB07B0E809F0BB0B802D84
:101CE000BF01FF2793585F4F3AF09E3F510578F0B0
:101CF0000C94260D0C94710D5F3FE4F3983ED4F3E1
:101D0000869577956795B795F7959F5FC9F7880F83
:101D1000911D9695879597F90895E1E0660F771FD5
:101D2000881FBB1F621773078407BA0720F0621B66
:101D3000730B840BBA0BEE1F88F7E09508950E9491
:101D4000A60E6894B1110C94710D08950E94560D61
:101D500088F09F5798F0B92F9927B751B0F0E1F06C
:101D6000660F771F881F991F1AF0BA95C9F714C01C
:101D7000B13091F00E94700DB1E008950C94700D97
:101D8000672F782F8827B85F39F0B93FCCF3869555
:101D900077956795B395D9F73EF4909580957095B2
:101DA00061957F4F8F4F9F4F08950E94950C08F4C7
:101DB0008FEF089581E090E0F8940C94DF0EF89492
:021DC000FFCF53
:101DC20000000000E003B2034F0587053905010555
:101DD200E004AC048B043504FD030000000006039C
:101DE20073029D025303CE02AC02C0020D0A000030
:00000001FF
