:100000000C94FA120C942B130C942B130C942B13AA
:100010000C942B130C942B130C942B130C942B1368
:100020000C942B130C942B130C942B130C942B1358
:100030000C942B130C942B130C942B130C942B1348
:100040000C942B130C942B130C942B130C942B1338
:100050000C942B130C942B130C942B130C942E2612
:100060000C942B130C94831F0C94591F0C942B137A
:100070000C942B130C942B130C942B130C942B1308
:100080000C942B130C942B130C942B130C942B13F8
:100090000C942B130C942B130C942B130C942B13E8
:1000A0000C942B130C942B130C942B130C942B13D8
:1000B0000C942B130C942B130C942B130C942B13C8
:1000C0000C942B130C942B130C942B130C942B13B8
:1000D0000C942B130C942B130C942B130C942B13A8
:1000E0000C942B130C949F1D0C947E1A0C94EF1BF4
:1000F0000C945C1A0C949E1B0C945E1B0C94231A9B
:100100000C94941B0C941E1C0C94CB1D0C94351E4B
:100110000C944D1A0C94431D0C94471D0C94221AF8
:100120000C94E11D0C948A1B0C94462E0C946C1BB1
:100130000C94B61A0C94871E0C94451D0C94701ADE
:100140000C94031B0C94731D000021002400270055
:100150002A002D00300033000101000004010701D6
:100160000A011820205F00000000000000000000CD
:10017000000000000000000000000000000000007F
:10018000000000000000000000000000000000006F
:10019000000000000000000000000000000000005F
:1001A000000000000000000000000000000000004F
:1001B000000000000000000000000000000000003F
:1001C000000000000000000000001C00001C0000F7
:1001D0001C00001C00001C00001C00001C00001C77
:1001E00000001C00001C00001C00001C00001C0083
:1001F000001C00001C0000180000000000000000AF
:100200000000001C00003E00003E00003E00001CFC
:1002100000000000000000000000000000000000DE
:1002200000000000000000000001C0E003E1F00356
:10023000E1F003E1F001E0F000E07001C0E003C193
:10024000E00F87C00E070000000000000000000063
:10025000000000000000000000000000000000009E
:10026000000000000000000000000000000000008E
:10027000000000000000000000000000000000007E
:1002800000000000000000000000000000387000C6
:1002900038700070E00070E00070E00070E00FFF68
:1002A000F80FFFF80FFFF800E1C000E1C000E1C067
:1002B00001C38001C38001C3800FFFF80FFFF80F57
:1002C000FFF8038700038700038700038700070EFA
:1002D00000070E0000000000000000000000000009
:1002E000000000000000000000003800003800009E
:1002F0003800003800007F0001FFC003FFC0078006
:100300008007000007000007000007800003C0000E
:1003100003F80001FE00007F80000FC00003C00052
:1003200001E00000E00000E00000E00201C007FF83
:10033000C007FF8001FE00003800003800003800D0
:100340000038000000000000000780700FC0E00CC3
:10035000C0E01861C01863801863801867001867D0
:1003600000186E000CDC000FDC0007B800003BC07A
:100370000077E000766000EC3001CC3001CC300337
:100380008C30038C30070C300E06600E07E01C0327
:10039000C00000000000000000000000000000009D
:1003A000000000000000000000007C0000FF0001D1
:1003B000FF0003C780038380038380038380038758
:1003C0000001CF0001FE0000FC0001F07003F87096
:1003D00003BC70071E600E0FE00E07E00E03C00E98
:1003E00001C00F03E0078FE007FF7003FE7000F805
:1003F00038000000000000000000000000000000C5
:10040000000000000000000000001800003C000098
:100410001E00000E000007000002000000000000A7
:1004200000000000000000000000000000000000CC
:1004300000000000000000000000000000000000BC
:1004400000000000000000000000000000000000AC
:10045000000000000000000000000000000000009C
:10046000000000000000000700000F80000F0000E7
:100470001E00003C0000380000700000700000E02A
:100480000000E00000E00001C00001C00001C00069
:1004900001C00001C00001C00001C00001C0000196
:1004A000C00000E00000E00000E00000700000700C
:1004B00000003800003C00001E00000F0000078014
:1004C00000030000010000600000F0000078000060
:1004D0003C00001E00000E000007000007000003A3
:1004E000800003800003800001C00001C00001C043
:1004F0000001C00001C00001C00001C00001C00037
:1005000001C0000380000380000380000700000793
:1005100000000E00001E00003C0000780000F0000B
:10052000006000004000000000000000000000002B
:100530000000000000000000000000001C00001C83
:1005400000001C00021C2003C9E007FFF001FFC0EF
:10055000001C0000360000770000F38001E3C000BB
:10056000E3800041000000000000000000000000E7
:10057000000000000000000000000000000000007B
:10058000000000000000000000000000000000006B
:10059000000000000000380000380000380000387B
:1005A000000038000038000038000FFFE00FFFE0C7
:1005B0000FFFE0003800003800003800003800006D
:1005C0003800003800003800000000000000000083
:1005D000000000000000000000000000000000001B
:1005E000000000000000000000000000000000000B
:1005F00000000000000000000000000000000000FB
:1006000000000000000000000000000000000000EA
:1006100000000000000000000000000000000000DA
:100620000000000000000E00001F00001F00001F5F
:1006300000000F00000700000E00001C0000780002
:10064000007000000000000000000000000000003A
:10065000000000000000000000000000000000009A
:100660000000000000000000000000FF0000FF008C
:1006700000FF00000000000000000000000000007B
:10068000000000000000000000000000000000006A
:10069000000000000000000000000000000000005A
:1006A000000000000000000000000000000000004A
:1006B000000000000000000000000000000000003A
:1006C000000000000000000000000000000000002A
:1006D000000000000000000000000000000000001A
:1006E0000000000000000000001C00003E00003E72
:1006F00000003E00001C00000000000000000000A0
:100700000000000000000001C00003800003800022
:100710000380000700000700000700000E00000E25
:1007200000000E00000E00001C00001C00001C0059
:100730000038000038000038000070000070000031
:10074000700000E00000E00000E00000E00001C0F8
:100750000001C00001C0000380000380000380008E
:10076000070000070000000000000000007C0001FE
:10077000FF0003FF8003C7800783C00701C0070194
:10078000C00E00E00E00E00E30E00E78E00E78E0E3
:100790000E78E00E30E00E00E00E00E00E00E00704
:1007A00001C00701C00783C003C78003FF8001FFAA
:1007B00000007C00000000000000000000000000BD
:1007C000000000000000000000000000001C00000D
:1007D0001C00007C0000FC0003FC00079C00021CC5
:1007E00000001C00001C00001C00001C00001C007D
:1007F000001C00001C00001C00001C00001C00006D
:100800001C00001C00001C00001C0003FFC003FFB4
:10081000C003FFC000000000000000000000000056
:1008200000000000000000000000000000FC0003C9
:10083000FF0007FF800787C00203C00001C000015E
:10084000C00001C00001C000038000078000070055
:10085000000E00001C0000380000700000E00001E5
:10086000C00003800003800007000007FFE007FFCF
:10087000E007FFE0000000000000000000000000B2
:1008800000000000000000000000000001FC000F5C
:10089000FF000FFF800607800003C00001C00001B9
:1008A000C00001C00003C000078000FF0000FF007F
:1008B00000FF800007C00001E00000E00000E00051
:1008C00000E00000E00001E00403C00FFF800FFF24
:1008D0000003FC0000000000000000000000000019
:1008E0000000000000000000000000000007800081
:1008F0000F80001F80003F80003B8000738000F36A
:100900008001E38001C38003838003838007038029
:100910000F03800E03801E03801FFFF01FFFF01FD8
:10092000FFF00003800003800003800003800003C9
:1009300080000380000000000000000000000000B4
:1009400000000000000000000000000003FF800322
:10095000FF8003FF8003000003000003000003008A
:100960000007000007000007F00007FE0007FF0077
:10097000001F800007800003C00001C00001C0000C
:1009800001C00001C00003C00C07800FFF000FFE74
:100990000003F8000000000000000000000000005C
:1009A0000000000000000000000000000003C00084
:1009B0001FC0007FC000FC0001E00003C0000380F6
:1009C00000070000070000067E000FFF800FFFC039
:1009D0000F03C00E01E00E00E00E00E00E00E00E7E
:1009E00000E00700E00701C007C3C003FF8001FF6C
:1009F00000007E0000000000000000000000000079
:100A00000000000000000000000000000FFFE00FE9
:100A1000FFE00FFFE00000E00001C00003800003E2
:100A200080000700000700000E00000E00001C0000
:100A3000001C000038000038000038000070000082
:100A4000700000700000700000E00000E00000E0B6
:100A50000000E000000000000000000000000000B6
:100A6000000000000000000000000000007C000109
:100A7000FF0003FF8003C7C00703C00701C00701D1
:100A8000C00701C00781C003C38003F70001FE0057
:100A900001FF8003CFC00703C00601E00E00E00E97
:100AA00000E00E00E00F01E00783C007FFC003FF76
:100AB0008000FE00000000000000000000000000B8
:100AC00000000000000000000000000000FC000129
:100AD000FF0003FF800787C00701C00E01C00E00A2
:100AE000E00E00E00E00E00E00E00F00E00781E005
:100AF00007FFE003FFE000FEE00001C00001C000CE
:100B000003C0000780000F00007E0007FC0007F80C
:100B10000007C0000000000000000000000000000E
:100B200000000000000000000000000000000000C5
:100B3000000000000000000000000000000000387D
:100B400000007C00007C00007C00003800000000F9
:100B50000000000000000000000000000000000095
:100B60000000003800007C00007C00007C000038A1
:100B70000000000000000000000000000000000075
:100B80000000000000000000000000000000000065
:100B9000000000000000000000000000000000381D
:100BA00000007C00007C00007C0000380000000099
:100BB0000000000000000000000000000000000035
:100BC0000000003800007C00007C00007C00003C3D
:100BD00000001C0000380000700001E00001C000AF
:100BE0000000000000000000000000000000000005
:100BF00000000000000000000000000000000000F5
:100C0000400001E0000FE0003FC000FE0003F800DC
:100C10000FC0000F00000FC00007F80000FE00002A
:100C20003FC0000FE00001E00000400000000000B5
:100C300000000000000000000000000000000000B4
:100C400000000000000000000000000000000000A4
:100C50000000000000000000000000000000000094
:100C6000000000000FFFE00FFFE00FFFE0000000BA
:100C70000000000000000000000000000FFFE00F77
:100C8000FFE00FFFE0000000000000000000000097
:100C90000000000000000000000000000000000054
:100CA0000000000000000000000000000000000044
:100CB0000000000000000000000000000000040030
:100CC000000F00000FE00007F80000FE00003F806A
:100CD0000007E00001E00007E0003FC000FE000761
:100CE000F8000FE0000F000004000000000000000A
:100CF00000000000000000000000000000000000F4
:100D000000000000000000000000FE0003FF800360
:100D1000FFC00103E00000E00000E00000E0000090
:100D2000E00001C0000380000700000E00001C006E
:100D3000003C000038000038000000000000000007
:100D40000000003800007C00007C00007C000038BF
:100D50000000000000000000000000000000000093
:100D6000000000000000000000003F0000FF8001C4
:100D7000FFC001E1E00380E003807007007007001E
:100D8000700707F00E1FF00E3FF00E3C700E7870EB
:100D90000E70700E70700E70700E70700E78700E97
:100DA0003870073FF0071FF00707E007800003C017
:100DB0000003C00001F00000FFC0007FC0001FC0A2
:100DC000000000000000000000007E00007E000027
:100DD0007E0000FF0000F70000E70000E70001E7E9
:100DE0008001C38001C38003C3C003C1C00381C0AD
:100DF0000381C00781E007FFE007FFE007FFE00F86
:100E000000F00E00700E00700E00701E00781C00C6
:100E1000380000000000000000000000000000009A
:100E20000000000000000000000000000FFC000FA8
:100E3000FF000FFF800E07C00E03C00E01C00E01A1
:100E4000C00E01C00E03800E07800FFF000FFF00D1
:100E50000FFF800E03C00E01E00E00E00E00E00E5A
:100E600000E00E00E00E01E00E07C00FFFC00FFF14
:100E7000000FFC0000000000000000000000000067
:100E8000000000000000000000003F80007FE00143
:100E9000FFE003E04003C0000780000700000700F8
:100EA000000E00000E00000E00000E00000E0000FC
:100EB0000E00000E00000E00000F000007000007EB
:100EC000800003C00003E04001FFE000FFE0003FBE
:100ED0008000000000000000000000000000000092
:100EE0000000000000000000000FF0000FFE000FE7
:100EF000FF000E0F800E03800E03C00E01C00E0116
:100F0000E00E00E00E00E00E00E00E00E00E00E05B
:100F10000E00E00E00E00E00E00E01E00E01C00E3B
:100F200003C00E03800E0F800FFF000FFE000FF0B6
:100F300000000000000000000000000000000000B1
:100F400000000000000000000007FFC007FFC0070E
:100F5000FFC00700000700000700000700000700AF
:100F60000007000007000007FF8007FF8007FF80E1
:100F70000700000700000700000700000700000747
:100F8000000007000007000007FFE007FFE007FF81
:100F9000E000000000000000000000000000000071
:100FA00000000000000000000007FFE007FFE0076E
:100FB000FFE007000007000007000007000007002F
:100FC0000007000007000007FFC007FFC007FFC0C1
:100FD00007000007000007000007000007000007E7
:100FE00000000700000700000700000700000700DE
:100FF00000000000000000000000000000000000F1
:10100000000000000000000000003F8000FFC00161
:10101000FFE003E0C003C0400780000700000700B6
:10102000000E00000E00000E00000E00000E00E09A
:101030000E00E00E00E00E00E00F00E00700E00709
:1010400080E003C0E003E0E001FFE000FFE0003FDC
:101050008000000000000000000000000000000010
:101060000000000000000000000E00E00E00E00E96
:1010700000E00E00E00E00E00E00E00E00E00E00CA
:10108000E00E00E00E00E00FFFE00FFFE00FFFE0DA
:101090000E00E00E00E00E00E00E00E00E00E00E9C
:1010A00000E00E00E00E00E00E00E00E00E00E009A
:1010B000E000000000000000000000000000000050
:1010C00000000000000000000007FFC007FFC0078D
:1010D000FFC0003800003800003800003800003839
:1010E00000003800003800003800003800003800E8
:1010F00000380000380000380000380000380000D8
:10110000380000380000380007FFC007FFC007FFA5
:10111000C00000000000000000000000000000000F
:1011200000000000000000000001FFC001FFC0013E
:10113000FFC00001C00001C00001C00001C00001EB
:10114000C00001C00001C00001C00001C00001C01A
:101150000001C00001C00001C00001C00001C000CA
:1011600001C00403C00707800FFF0007FE0001FC59
:10117000000000000000000000000000000000006F
:101180000000000000000000000E01E00E03C00E91
:1011900003800E07800E0F000E0E000E1C000E3C8A
:1011A000000E78000EF0000FE0000FE0000FF000DE
:1011B0000EF8000E7C000E3E000E1E000E0F000EFC
:1011C00007800E03C00E03C00E01E00E00E00E000B
:1011D000F00000000000000000000000000000001F
:1011E00000000000000000000007000007000007EA
:1011F00000000700000700000700000700000700CC
:1012000000070000070000070000070000070000BB
:1012100007000007000007000007000007000007A4
:10122000000007000007000007FFE007FFE007FFDE
:10123000E0000000000000000000000000000000CE
:101240000000000000000000000300600380F007C1
:1012500080F00780F006C1B006C1B006E3B00663B7
:1012600030066330067730063630063630063E30BC
:10127000061C380E1C380E00380E00380E00380ED2
:1012800000380E00380E00380E00380E00380E0000
:101290003800000000000000000000000000000016
:1012A00000000000000000000007807007C0700709
:1012B000C07007E07007E07007F07007707007708B
:1012C00070073870073870071C70071C70070E70A5
:1012D000070E700706700707700707700703F0070F
:1012E00003F00701F00701F00700F00700F0070026
:1012F000F0000000000000000000000000000000FE
:10130000000000000000000000007C0001FF00035E
:10131000FF800783C00F01E00E00E00E00E01C001C
:10132000F01C00701C00701C00701C00701C007011
:101330001C00701C00701C00701C00F00E00E00E01
:1013400000E00F01E00783C003FF8001FF00007C85
:10135000000000000000000000000000000000008D
:1013600000000000000000000007FC0007FF00076D
:10137000FF800703C00701E00700E00700E0070067
:10138000E00700E00700E00701E00703C007FF8077
:1013900007FF0007FC000700000700000700000728
:1013A000000007000007000007000007000007001A
:1013B000000000000000000000000000000000002D
:1013C000000000000000000000007C0001FF00039E
:1013D000FF800783C00F01E00E00E00E00E01C005C
:1013E000F01C00701C00701C00701C00701C007051
:1013F0001C00701C00701C00701C00F00E00E00E41
:1014000000E00F01E00783C003FF8001FF0000FE42
:1014100000003800003C00001F00000FE00007E063
:101420000000C00000000000000FF8000FFE000FD9
:10143000FF000E07800E03C00E01C00E01C00E019A
:10144000C00E01C00E01C00E03800E07800FFF000A
:101450000FFE000FFC000E1E000E0E000E07000E09
:1014600007000E03800E03800E01C00E01C00E00A7
:10147000E00000000000000000000000000000008C
:10148000000000000000000000007F0001FFC0031A
:10149000FFC003C08007000007000007000007002E
:1014A0000007800003E00001F80000FE00003F801C
:1014B000000FC00003C00001E00000E00000E000F9
:1014C00000E00401E00F03C00FFFC007FF8001FE32
:1014D000000000000000000000000000000000000C
:1014E0000000000000000000000FFFE00FFFE00F11
:1014F000FFE00038000038000038000038000038F5
:1015000000003800003800003800003800003800C3
:1015100000380000380000380000380000380000B3
:10152000380000380000380000380000380000386B
:1015300000000000000000000000000000000000AB
:101540000000000000000000000E00E00E00E00EB1
:1015500000E00E00E00E00E00E00E00E00E00E00E5
:10156000E00E00E00E00E00E00E00E00E00E00E0F5
:101570000E00E00E00E00E00E00E00E00E00E00FB6
:1015800001E00701C00783C003FF8001FF0000FEE8
:10159000000000000000000000000000000000004B
:1015A0000000000000000000001C00701C00700E15
:1015B00000E00E00E00E00E00E00E00701C00701B1
:1015C000C00701C00701C0038380038380038380B9
:1015D00003878001C70001C70001C70000EE0000BB
:1015E000EE0000EE00007C00007C00007C00007833
:1015F00000000000000000000000000000000000EB
:101600000000000000000000000E00E00E00E00EF0
:1016100000E00E00E00E00E00E00E00E00E00E0024
:10162000E00E00E00E38E00E38E00E38E00E6CE020
:101630000E6CE00E6CE00EC6E00EC6E00EC6E00FCB
:1016400083E00F83E00F83E00F01E00701C0070193
:10165000C0000000000000000000000000000000CA
:101660000000000000000000001E00F00E00E00F6F
:1016700001E00701C003838003838001C70001EFFD
:101680000000EE0000FE00007C0000380000380082
:10169000007C0000FE0000EE0001C70003C78003CD
:1016A00083800783C00701C00F01E00E00E01E0029
:1016B000F00000000000000000000000000000003A
:1016C0000000000000000000001C00700E00E00E92
:1016D00000E00F01E00701C00783C003838003C35C
:1016E0008001C70001EF0000EE0000FE00007C005A
:1016F000007C00003800003800003800003800008E
:101700003800003800003800003800003800003889
:1017100000000000000000000000000000000000C9
:1017200000000000000000000007FFE007FFE007E6
:10173000FFE00001C00003C0000380000700000FAD
:1017400000000E00001E00003C0000380000780081
:1017500000700000E00001E00001C00003C00003D1
:1017600080000780000700000FFFE00FFFE00FFF81
:10177000E000000000000000000000000000000089
:1017800000000000000001FF0001FF0001C0000197
:10179000C00001C00001C00001C00001C00001C0C4
:1017A0000001C00001C00001C00001C00001C00074
:1017B00001C00001C00001C00001C00001C0000163
:1017C000C00001C00001C00001C00001C00001C094
:1017D0000001C00001C00001C00001C00001C00044
:1017E00001FF0001FF0003800003C00001C00001F1
:1017F000C00000E00000E00000E0000070000070A9
:101800000000700000700000380000380000380050
:10181000001C00001C00001C00000E00000E000058
:101820000E0000070000070000070000070000038B
:10183000800003800003800001C00001C00001C0DF
:101840000000E00000E000FF8000FF800003800057
:1018500003800003800003800003800003800003F6
:101860008000038000038000038000038000038069
:1018700000038000038000038000038000038000D9
:1018800003800003800003800003800003800003C6
:101890008000038000038000038000038000038039
:1018A00000FF8000FF80000000003800007C000086
:1018B0007C0000EE0000EE0001C70001C70003C776
:1018C000800383800783C00701C00F01E00200800E
:1018D0000000000000000000000000000000000008
:1018E00000000000000000000000000000000000F8
:1018F00000000000000000000000000000000000E8
:1019000000000000000000000000000000000000D7
:1019100000000000000000000000000000000000C7
:1019200000000000000000000000000000000000B7
:1019300000000000000000000000000000000000A7
:1019400000000000000000000000003FFFF83FFF23
:10195000F83FFFF800000000000000000000000059
:10196000000000000000000000007C0000FE0001FC
:10197000C70001830001830001830001C70000FE4E
:1019800000007C00000000000000000000000000DB
:101990000000000000000000000000000000000047
:1019A0000000000000000000000000000000000037
:1019B0000000000000000000000000000000000027
:1019C0000000000000000000000000000000000017
:1019D000000000000000000000000000000000FE09
:1019E0000001FF8001FFC00183E00001E00000E092
:1019F0000000E0007FE001FFE003FFE007C0E00738
:101A000000E00700E00700E00780E003FFE001FFDF
:101A1000E0007FC0000000000000000000000000A7
:101A2000000000000000070000070000070000079A
:101A30000000070000070000070000070000077E05
:101A40000007FF0007FF800783C00701C00701E010
:101A50000700E00700E00700E00700E00700E007FC
:101A600000E00701E00701C00707C007FF8007FF8C
:101A70000003FC0000000000000000000000000067
:101A80000000000000000000000000000000000056
:101A90000000000000000000000000000000003F07
:101AA000C000FFE003FFE003E04007800007000004
:101AB0000E00000E00000E00000E00000E00000ED2
:101AC000000007000007800003E06003FFE000FF64
:101AD000E0003FC000000000000000000000000027
:101AE0000000000000000000E00000E00000E00056
:101AF00000E00000E00000E00000E00000E0007E08
:101B0000E000FFE001FFE003C1E00380E00780E0C8
:101B10000700E00700E00700E00700E00700E0073B
:101B200000E00780E00380E003E0E001FFE000FF69
:101B3000E0003F8000000000000000000000000006
:101B40000000000000000000000000000000000095
:101B50000000000000000000000000000000007E07
:101B60000001FF0003FF8007C3C00701C00700E0BA
:101B70000E00E00FFFE00FFFE00FFFE00E00000E91
:101B8000000007000007000007C0C003FFC001FFFE
:101B9000C0007F0000000000000000000000000006
:101BA000000000000000000FC0003FF0007FF000C8
:101BB000783000F00000E00000E00000E0000FFFDF
:101BC000C00FFFC00FFFC000E00000E00000E00019
:101BD00000E00000E00000E00000E00000E00000A5
:101BE000E00000E00000E00000E00000E00000E0B5
:101BF0000000E00000000000000000000000000005
:101C000000000000000000000000000000000000D4
:101C10000000000000000000000000007F0001FF45
:101C2000C003FFC00781C00701C00F01C00E01C083
:101C30000E01C00E01C00E01C00E01C00E01C00792
:101C400001C00783C003FFC001FFC000FDC0000149
:101C5000C00001C00003C006078007FF8007FF0027
:101C600003FC000000000700000700000700000759
:101C7000000007000007000007000007000007FC45
:101C80000007FF0007FF800707800703C00701C0A8
:101C90000701C00701C00701C00701C00701C00755
:101CA00001C00701C00701C00701C00701C007014B
:101CB000C00701C00000000000000000000000009C
:101CC00000000000000000000000600000F00000C4
:101CD000F0000060000000000000000000000FF0B5
:101CE000000FF0000FF000007000007000007000A6
:101CF00000700000700000700000700000700000B4
:101D00007000007000007000007820003FE0003F8D
:101D1000E0000FC000000000000000000000000014
:101D2000000000000000000000000600000F00009E
:101D30000F0000060000000000000000000003FF8C
:101D40008003FF8003FF8000038000038000038086
:101D500000038000038000038000038000038000F4
:101D600003800003800003800003800003800003E1
:101D700080000380000380000380060F000FFF0037
:101D80000FFE0003F800070000070000070000072F
:101D9000000007000007000007000007000007011F
:101DA000E00703C0070780070F00071E00073C007D
:101DB00007780007F00007E00007F0000778000749
:101DC0001C00070F000707000703800703C0070177
:101DD000E00700F00000000000000000000000002C
:101DE00000000000000007F80007F80007F80000F6
:101DF0003800003800003800003800003800003893
:101E000000003800003800003800003800003800BA
:101E100000380000380000380000380000380000AA
:101E20003800003800003800003C10001FF0001F90
:101E3000F00007E0000000000000000000000000CB
:101E40000000000000000000000000000000000092
:101E5000000000000000000000000000000007E398
:101E6000C00FFFE00FFFE00E3CF00E1C700E1C7068
:101E70000E1C700E1C700E1C700E1C700E1C700E52
:101E800000700E00700E00700E00700E00700E00DC
:101E9000700E007000000000000000000000000054
:101EA0000000000000000000000000000000000032
:101EB000000000000000000000000000000000FE24
:101EC0000003FF8003FFC00383C00381E00380E0C1
:101ED0000380E00380E00380E00380E00380E00310
:101EE00080E00380E00380E00380E00380E0038083
:101EF000E00380E00000000000000000000000009F
:101F000000000000000000000000000000000000D1
:101F10000000000000000000000000000000007C45
:101F20000001FF0003FF800783C00701C00F01E02D
:101F30000E00E00E00E00E00E00E00E00E00E00EED
:101F400000E00701E00701C00783C003FF8001FF35
:101F500000007C0000000000000000000000000005
:101F60000000000000000000000000000000000071
:101F7000000000000000000000000000000001FC64
:101F80000007FF0007FF800707C00701C00701C067
:101F90000700E00700E00700E00700E00700E007B7
:101FA00000E00701E00701C00783C007FF8007FFCB
:101FB00000077C0007000007000007000007000082
:101FC0000700000700000000000000000000000003
:101FD0000000000000000000000000000000003FC2
:101FE0008000FFE001FFE003E0E00380E00380E029
:101FF0000700E00700E00700E00700E00700E00757
:1020000000E00780E00380E003C1E001FFE000FFA3
:10201000E0003EE00000E00000E00000E00000E042
:102020000000E00000E000000000000000000000F0
:10203000000000000000000000000000000000FFA1
:10204000C007FFC007FFC00780800700000700002F
:102050000700000700000700000700000700000756
:10206000000007000007000007000007000007004D
:102070000007000000000000000000000000000059
:102080000000000000000000000000000000000050
:10209000000000000000000000000000000000FF41
:1020A0000001FF8003FF8007818007000007000018
:1020B00007C00003F00001FE00007F00001F800049
:1020C00003C00001C00001C00603C007FF8007FF76
:1020D0008001FE0000000000000000000000000081
:1020E00000000000000000000000000000000000F0
:1020F000E00000E00000E00000E00000E0000FFF72
:10210000E00FFFE00FFFE000E00000E00000E00073
:1021100000E00000E00000E00000E00000E000005F
:10212000E00000E00000E00000F020007FE0007F21
:10213000E0001FC0000000000000000000000000E0
:10214000000000000000000000000000000000008F
:102150000000000000000000000000000000070177
:10216000C00701C00701C00701C00701C00701C0C7
:102170000701C00701C00701C00701C00701C00770
:1021800001C00701C00781C003C1C003FFC001FF38
:10219000C0007F0000000000000000000000000000
:1021A000000000000000000000000000000000002F
:1021B00000000000000000000000000000001C0003
:1021C000701E00F00E00E00E00E00F01E00701C0FD
:1021D0000701C00783C003838003838003C7000116
:1021E000C70001EF0000EE0000FE00007C00007C54
:1021F00000007C0000000000000000000000000063
:1022000000000000000000000000000000000000CE
:1022100000000000000000000000000000001C00A2
:10222000701C00701C00701C00701C10700C38E0DA
:102230000E38E00E38E00E28E00E6CE00E6CE00682
:1022400044C006C6C006C7C00787C00783C007834F
:102250008003038000000000000000000000000078
:10226000000000000000000000000000000000006E
:1022700000000000000000000000000000001E013F
:10228000E00F03C007038003878003CF0001EE0047
:1022900000FC00007C00007800007C0000FE0001D3
:1022A000EE0001C70003C3800783C00F01C00E0109
:1022B000E01E00F000000000000000000000000030
:1022C000000000000000000000000000000000000E
:1022D00000000000000000000000000000000E00F0
:1022E000700F00F00700E00700E00780E00381E0E6
:1022F0000381C003C1C001C3C001C38001E38000EA
:10230000E78000F780007700007F00003E00003E7D
:1023100000001E00003C00003C000078000FF000B0
:102320000FF0000FC00000000000000000000000DF
:10233000000000000000000000000000000007FF97
:10234000C007FFC007FFC0000380000780000F0028
:10235000001E00001C0000380000780000F00000A3
:10236000E00001E00003C00003800007FFC007FF9A
:10237000C007FFC0000000000000000000000000D7
:1023800000000000000000000000000000700000DD
:10239000E00000E00000E00000E00000E00000E0FD
:1023A0000000E00000E00000E00000E00000E000CD
:1023B00001C0000F80000F800001C00000E000009D
:1023C000E00000E00000E00000E00000E00000E0CD
:1023D0000000E00000E00000E00000E0000070000D
:1023E000007F80001F80001C00001C00001C0000FB
:1023F0001C00001C00001C00001C00001C00001C35
:1024000000001C00001C00001C00001C00001C0040
:10241000001C00001C00001C00001C00001C000030
:102420001C00001C00001C00001C00001C00001C04
:1024300000001C00001C00001C00001C00001C0010
:10244000001C00001C0000FC0000FF000007000052
:1024500003800003800003800003800003800003EA
:10246000800003800003800003800003800003805D
:102470000001C00000F80000F80001C00003800067
:1024800003800003800003800003800003800003BA
:1024900080000380000380000380000380000700A9
:1024A00000FF0000FC0000000001E02003F0300706
:1024B000FC700E3FE00C0FC004078000000000001D
:1024C000000000000000000000000000000000000C
:1024D00000000000000000000000000000000000FC
:1024E00000000000000000000000000000000000EC
:1024F00000000000000000000000000000000000DC
:1025000000000000000000000A0B02090C0D0E087C
:1025100007030401000000000000000000000000AC
:1025200000000000000000000000000000000000AB
:102530000000121110000000000000000000000068
:102540000000000000000000000000000102102058
:1025500020080810204010204080020102010804D9
:10256000020101020408102040808040201008046D
:1025700002018004020180402010080402010804C6
:10258000020101020408102040800102040810200A
:10259000408000002200250028002B002E00310082
:1025A000340002010000050108010B0105050505C5
:1025B000070508080808020202020A0A08080404BB
:1025C00004040101010101010101030303030303E9
:1025D0000303040707070C0C0C0C0C0C0C0C020278
:1025E000020206060606060606060B0B0B0B0B0B75
:1025F0000B0B462E11241FBECFEFD1E2DEBFCDBFA5
:1026000000E00CBF23E0A0ECB2E001C01D92A23DAF
:10261000B207E1F712E0A0E0B2E0EEE2FCE600E093
:102620000BBF02C007900D92A03CB107D9F712E191
:10263000CAEFD2E100E006C021970109802FFE0118
:102640000E947733C93FD10780E00807A9F70E94AD
:10265000D0260C9415360C940000483009F448C17B
:1026600018F4413041F00895403109F457C1413127
:1026700009F468C108959091A203943019F5E0918E
:10268000AB03F091AC039091B503813019F48081D4
:10269000982B03C08081909598239083E091AD039F
:1026A000F091AE0390818091B60380958923808359
:1026B000E091AD03F091AE0390818091B603892B38
:1026C00080830FC0E091A303F091A4039091B10324
:1026D000813019F48081982B03C0808190959823D4
:1026E0009083E091AB03F091AC038091B5039081AE
:1026F00067FF02C0892B02C0809589238083E09107
:10270000AD03F091AE0390818091B603809589234B
:102710008083E091AD03F091AE0390818091B60388
:10272000892B8083E091AB03F091AC038091B503DA
:10273000908166FF02C0892B02C080958923808327
:10274000E091AD03F091AE0390818091B603809546
:1027500089238083E091AD03F091AE039081809155
:10276000B603892B8083E091AB03F091AC03809199
:10277000B503908165FF02C0892B02C08095892333
:102780008083E091AD03F091AE0390818091B60318
:10279000809589238083E091AD03F091AE03908111
:1027A0008091B603892B8083E091AB03F091AC0359
:1027B0008091B503908164FF02C0892B02C080958F
:1027C00089238083E091AD03F091AE0390818091E5
:1027D000B603809589238083E091AD03F091AE0329
:1027E00090818091B603892B8083E091AB03F091B7
:1027F000AC038091B503908163FF02C0892B02C0B6
:10280000809589238083E091AD03F091AE039081A0
:102810008091B603809589238083E091AD03F09188
:10282000AE0390818091B603892B8083E091AB0346
:10283000F091AC038091B503908162FF02C0892BB7
:1028400002C0809589238083E091AD03F091AE03AF
:1028500090818091B603809589238083E091AD03B8
:10286000F091AE0390818091B603892B8083E09133
:10287000AB03F091AC038091B503908161FF02C07E
:10288000892B02C0809589238083E091AD03F0916C
:10289000AE0390818091B603809589238083E09177
:1028A000AD03F091AE0390818091B603892B8083B4
:1028B000E091AB03F091AC038091B503908160FF90
:1028C00002C0892B02C0809589238083E091AD03EB
:1028D000F091AE0390818091B60380958923808327
:1028E000E091AD03F091AE0390818091B603CFC02B
:1028F00082B9E091A503F091A60390818091B20383
:10290000809589238083E091A503F091A6039081AF
:102910008091B203892B808362B902C082B968B901
:10292000E091A503F091A60390818091B203809578
:1029300089238083E091A503F091A6039081809183
:10294000B203A5C0A59824B3982F9071990F922B2C
:1029500094BB90910201977E9093020190910201A5
:10296000282F082E000C330B207C332743E03595AD
:1029700027954A95E1F7292B209302019EB1947C7B
:102980009EB92EB1382F3C70330F330F982F9370B0
:10299000390F8072082E000C990B959587959595A7
:1029A0008795830F822B8EB9E091AF03F091B0032E
:1029B00090818091B703809589238083E091AF0354
:1029C000F091B00390818091B703892B8083E091CF
:1029D000AF03F091B00390818091B7038095892374
:1029E0008083E091A703F091A80390818091B303C5
:1029F000809589238083A59894B3862F8071880F52
:102A0000892B84BB80910201877E809302012091F3
:102A10000201862F062E000C990B807C992773E00B
:102A2000959587957A95E1F7822B809302018EB177
:102A3000847C8EB98EB1962F9C70990F990F262F9A
:102A40002370920F6072062E000C770B75956795B8
:102A500075956795690F682B6EB9E091A503F091A4
:102A6000A60390818091B203809589238083E091B1
:102A7000A503F091A60390818091B203892B8083F6
:102A8000E091A703F091A80390818091B303892B73
:102A9000808308958F929F92AF92BF92CF92DF92E0
:102AA000EF92FF9269017A0182B968B9CA01B9014E
:102AB00020E130E040E050E00E94363349015A0105
:102AC00080E090E0DC0188159905AA05BB050CF0B3
:102AD00034C1E091A503F091A60330812091B203A7
:102AE000209523232083E091A503F091A603308154
:102AF0002091B203232B2083E091A503F091A6033C
:102B000030812091B203209523232083E091A503F7
:102B1000F091A60330812091B203232B2083E09112
:102B2000A503F091A60330812091B20320952323C1
:102B30002083E091A503F091A60330812091B20398
:102B4000232B2083E091A503F091A60330812091EF
:102B5000B203209523232083E091A503F091A603DF
:102B600030812091B203232B2083E091A503F091C3
:102B7000A60330812091B203209523232083E09186
:102B8000A503F091A60330812091B203232B20836B
:102B9000E091A503F091A60330812091B203209526
:102BA00023232083E091A503F091A6033081209197
:102BB000B203232B2083E091A503F091A60330817B
:102BC0002091B203209523232083E091A503F09167
:102BD000A60330812091B203232B2083E091A5032B
:102BE000F091A60330812091B20320952323208306
:102BF000E091A503F091A60330812091B203232B2D
:102C00002083E091A503F091A60330812091B203C7
:102C1000209523232083E091A503F091A603308122
:102C20002091B203232B2083E091A503F091A6030A
:102C300030812091B203209523232083E091A503C6
:102C4000F091A60330812091B203232B2083E091E1
:102C5000A503F091A60330812091B2032095232390
:102C60002083E091A503F091A60330812091B20367
:102C7000232B2083E091A503F091A60330812091BE
:102C8000B203209523232083E091A503F091A603AE
:102C900030812091B203232B2083E091A503F09192
:102CA000A60330812091B203209523232083E09155
:102CB000A503F091A60330812091B203232B20833A
:102CC000E091A503F091A60330812091B2032095F5
:102CD00023232083E091A503F091A6033081209166
:102CE000B203232B2083E091A503F091A60340813A
:102CF0003091B203309534233083E091A503F091F5
:102D0000A60320813091B203322B3083E091A503DA
:102D1000F091A60340813091B20330953423308383
:102D2000E091A503F091A60320813091B203322BEC
:102D300030830196A11DB11DC6CED701C6018F708B
:102D40009927AA27BB27892B8A2B8B2B49F1C701EF
:102D5000B60120E130E040E050E00E943633C12C63
:102D6000D12C76016C157D058E059F05CCF0E09188
:102D7000A503F091A60330812091B203209523236F
:102D80002083E091A503F091A60330812091B20346
:102D9000232B20832FEFC21AD20AE20AF20AE2CFD3
:102DA000FF90EF90DF90CF90BF90AF909F908F906B
:102DB00008958F929F92AF92BF92CF92DF92EF923F
:102DC000FF926A017B0182B9CB01BA0120E130E0B8
:102DD00040E050E00E94363349015A0180E090E023
:102DE000DC0188159905AA05BB050CF064C2E091C9
:102DF000A503F091A60330812091B20320952323EF
:102E00002083E091A503F091A60330812091B203C5
:102E1000232B2083E091A503F091A603308120911C
:102E2000B203209523232083E091A503F091A6030C
:102E300030812091B203232B2083E091A503F091F0
:102E4000A60330812091B203209523232083E091B3
:102E5000A503F091A60330812091B203232B208398
:102E6000E091A503F091A60330812091B203209553
:102E700023232083E091A503F091A60330812091C4
:102E8000B203232B2083E091A503F091A6033081A8
:102E90002091B203209523232083E091A503F09194
:102EA000A60330812091B203232B2083E091A50358
:102EB000F091A60330812091B20320952323208333
:102EC000E091A503F091A60330812091B203232B5A
:102ED0002083E091A503F091A60330812091B203F5
:102EE000209523232083E091A503F091A603308150
:102EF0002091B203232B2083E091A503F091A60338
:102F000030812091B203209523232083E091A503F3
:102F1000F091A60330812091B203232B2083E0910E
:102F2000A503F091A60330812091B20320952323BD
:102F30002083E091A503F091A60330812091B20394
:102F4000232B2083E091A503F091A60330812091EB
:102F5000B203209523232083E091A503F091A603DB
:102F600030812091B203232B2083E091A503F091BF
:102F7000A60330812091B203209523232083E09182
:102F8000A503F091A60330812091B203232B208367
:102F9000E091A503F091A60330812091B203209522
:102FA00023232083E091A503F091A6033081209193
:102FB000B203232B2083E091A503F091A603308177
:102FC0002091B203209523232083E091A503F09163
:102FD000A60330812091B203232B2083E091A50327
:102FE000F091A60330812091B20320952323208302
:102FF000E091A503F091A60330812091B203232B29
:103000002083E091A503F091A60330812091B203C3
:10301000209523232083E091A503F091A60330811E
:103020002091B203232B2083E091A503F091A60306
:1030300030812091B203209523232083E091A503C2
:10304000F091A60330812091B203232B2083E091DD
:10305000A503F091A60330812091B203209523238C
:103060002083E091A503F091A60330812091B20363
:10307000232B2083E091A503F091A60330812091BA
:10308000B203209523232083E091A503F091A603AA
:1030900030812091B203232B2083E091A503F0918E
:1030A000A60330812091B203209523232083E09151
:1030B000A503F091A60330812091B203232B208336
:1030C000E091A503F091A60330812091B2032095F1
:1030D00023232083E091A503F091A6033081209162
:1030E000B203232B2083E091A503F091A603308146
:1030F0002091B203209523232083E091A503F09132
:10310000A60330812091B203232B2083E091A503F5
:10311000F091A60330812091B203209523232083D0
:10312000E091A503F091A60330812091B203232BF7
:103130002083E091A503F091A60330812091B20392
:10314000209523232083E091A503F091A6033081ED
:103150002091B203232B2083E091A503F091A603D5
:1031600030812091B203209523232083E091A50391
:10317000F091A60330812091B203232B2083E091AC
:10318000A503F091A60330812091B203209523235B
:103190002083E091A503F091A60330812091B20332
:1031A000232B2083E091A503F091A6033081209189
:1031B000B203209523232083E091A503F091A60379
:1031C00030812091B203232B2083E091A503F0915D
:1031D000A60330812091B203209523232083E09120
:1031E000A503F091A60330812091B203232B208305
:1031F000E091A503F091A60330812091B2032095C0
:1032000023232083E091A503F091A6033081209130
:10321000B203232B2083E091A503F091A603308114
:103220002091B203209523232083E091A503F09100
:10323000A60330812091B203232B2083E091A503C4
:10324000F091A60330812091B2032095232320839F
:10325000E091A503F091A60330812091B203232BC6
:103260002083E091A503F091A60340813091B20341
:10327000309534233083E091A503F091A60320819B
:103280003091B203322B3083E091A503F091A60375
:1032900040813091B203309534233083E091A5030F
:1032A000F091A60320813091B203322B3083019636
:1032B000A11DB11D96CDD701C6018F709927AA27F0
:1032C000BB27892B8A2B8B2BE1F1C701B60120E1AB
:1032D00030E040E050E00E943633C12CD12C760122
:1032E0006C157D058E059F0564F1E091A503F091B5
:1032F000A60330812091B203209523232083E091FF
:10330000A503F091A60330812091B203232B2083E3
:10331000E091A503F091A60330812091B20320959E
:1033200023232083E091A503F091A603308120910F
:10333000B203232B20832FEFC21AD20AE20AF20A29
:10334000CFCFFF90EF90DF90CF90BF90AF909F9046
:103350008F90089590E0FC01E45BFA4D2491FC010C
:10336000E455FA4D8491882399F090E0880F991FD5
:10337000FC01E85BFE4FA591B491FC01EE56FA4DBD
:10338000859194918FB7F894EC91E22BEC938FBFD9
:103390000895682F8091A1038130A9F0E091A303E3
:1033A000F091A40390818091B1038095892380835B
:1033B00081E08093C4034091A10380E00E942D131B
:1033C0001092C403089541E080E00C942D13CF9334
:1033D0009091A103913061F0E091A303F091A403D7
:1033E00020819091B103922B90834091A1030AC058
:1033F000C62F682F41E081E00E942D134091A10368
:103400006C2F81E0CF910C942D13682F8091A10334
:103410008130A1F0E091A303F091A4039081809109
:10342000B103892B808381E08093C4034091A10381
:1034300080E00E942D131092C403089541E081E0C2
:103440000C942D130895CF92DF92EF92FF920F9379
:103450001F93CF93DF936C017A018B01C0E0D0E022
:10346000CE15DF0581F0D8016D918D01D601ED916A
:10347000FC910190F081E02DC6011995892B11F086
:103480002196EECF7E01C701DF91CF911F910F9161
:10349000FF90EF90DF90CF900895FC01538D448D05
:1034A000252F30E0842F90E0821B930B541710F0EF
:1034B000CF96089501970895FC01918D828D9817FC
:1034C00061F0828DDF01A80FB11D5D968C91928D08
:1034D0009F5F9F73928F90E008958FEF9FEF089505
:1034E000FC01918D828D981731F0828DE80FF11DCE
:1034F000858D90E008958FEF9FEF0895FC01918DE9
:10350000228D892F90E0805C9F4F821B91098F73E1
:103510009927089584EC92E00E947E1A21E0892B7D
:1035200009F420E0822F0895FC01848DDF01A80FAB
:10353000B11DA35ABF4F2C91848D90E001968F73DB
:103540009927848FA689B7892C93A089B1898C91FA
:10355000837080648C93938D848D981306C0028849
:10356000F389E02D80818F7D80830895EF92FF9213
:103570000F931F93CF93DF93EC0181E0888F9B8D96
:103580008C8D981305C0E889F989808185FD26C056
:10359000F62E0B8D10E00F5F1F4F0F731127E02EDB
:1035A0008C8DE8120CC00FB607FCFACFE889F989B8
:1035B000808185FFF5CFCE010E94941AF1CF8B8DCB
:1035C000FE01E80FF11DE35AFF4FF0829FB7F89418
:1035D0000B8FEA89FB89808180620AC09FB7F894CB
:1035E000EE89FF896083E889F9898081837080642E
:1035F00080839FBF81E090E0DF91CF911F910F9179
:10360000FF90EF900895CF93DF93EC01888D88238E
:10361000C9F0EA89FB89808185FD05C0A889B9893F
:103620008C9186FD0FC00FB607FCF5CF808185FF1A
:10363000F2CFA889B9898C9185FFEDCFCE010E9488
:10364000941AE7CFDF91CF91089580E090E0892B25
:1036500021F00E948A1A811125C080E090E0892B18
:1036600041F080E090E0892B21F00E940000811160
:103670001CC080E090E0892B41F080E090E0892B35
:1036800021F00E940000811113C080E090E0892B9E
:10369000A1F080E090E0892B81F00E940000811170
:1036A0000AC008950E940000D8CF0E940000E1CF18
:1036B0000E940000EACF0C940000089580917F03DF
:1036C00090918003009739F0DC01ED91FC9104802A
:1036D000F581E02D199408950F931F93CF93DF93F5
:1036E0008C010A5F1F4FEC01A696D8018D919D9128
:1036F0008D01009751F0DC01ED91FC910480F58182
:10370000E02D19950C171D0781F7DF91CF911F91BF
:103710000F9108958091C2029091C30201969093F7
:10372000C3028093C20208958091C2029091C302A5
:1037300001979093C3028093C2020895EF92FF9283
:103740001F93CF93DF93EC011091C0021123F1F18D
:1037500048895989209181033091820324173507C4
:10376000BCF08C899D89840F951F2817390784F434
:103770004A895B892091830330918403241735079C
:103780003CF08E899F89840F951F2817390714F004
:1037900010E01CC08CA1811120C0EAA1FBA11995E9
:1037A000EC8CFD8C8E8D9F8D9D8F8C8FE881F981A7
:1037B0000190F081E02DCE011995FD8EEC8EE8810F
:1037C000F9810190F081E02DCE0119951CA3DF91C4
:1037D000CF911F91FF90EF900895182FF7CF10927F
:1037E000C002089580E090E008950E94F7350F939D
:1037F0001F93CF93DF93EC0188819981009729F083
:103800002A813B812617370788F48B016F5F7F4F32
:103810000E941235009761F0998388831B830A8385
:103820002C813D81232B11F4FC01108281E001C029
:1038300080E0DF91CF911F910F910895EF92FF9259
:103840000F931F93CF93DF93CDB7DEB7A0970FB63B
:10385000F894DEBF0FBECDBF8C018091C202909163
:10386000C302D80196962D913C9197972817390756
:10387000B9F04AE0FE0131967F01BF010E94F731A5
:10388000D8019996FC92EE9298971A968D919C91F8
:103890001B97DC01ED91FC910190F081E02D1995D1
:1038A0008091C2029091C302F80197A386A3780188
:1038B000F6E0EF0EF11C0A5D1F4FD7018D919D912F
:1038C0007D01009751F0DC01ED91FC910480F581C0
:1038D000E02D1995E016F10681F7A0960FB6F89441
:1038E000DEBF0FBECDBFDF91CF911F910F91FF9033
:1038F000EF900895CF92DF92EF92FF920F931F9374
:10390000CF93DF93EC01E091A703F091A80390819E
:103910008091B3038095892380830E949B208091AE
:10392000A103813049F0E091A303F091A4039081B9
:103930008091B103892B8083E091A103409198038A
:103940005091990360919A0370919B0380919C031D
:1039500090919D03A0919E03B0919F03E031B9F433
:103960009A01AB012F5F3F4F4F4F5F4FBC01CD011D
:103970006F5F7F4F8F4F9F4F0E9412339B01AC01AF
:1039800060E070E080E090E00E944A1556C0E830A8
:1039900021F0C12CD12C760122C09A01AB012F5FFE
:1039A0003F4F4F4F5F4FBC01CD016F5F7F4F8F4F38
:1039B0009F4F0E941233AB01BC0180E090E00E9457
:1039C000D9163BC04091A103413069F160E080E02D
:1039D0000E942D138FEFC81AD80AE80AF80A8091BE
:1039E000980390919903A0919A03B0919B039C0135
:1039F000AD012F5F3F4F4F4F5F4F80919C039091E0
:103A00009D03A0919E03B0919F03BC01CD016F5F08
:103A10007F4F8F4F9F4F0E941233C616D706E8067E
:103A2000F90684F20AC041E060E081E00E942D13B3
:103A30004091A10360E081E0CBCFE091A703F0913A
:103A4000A80390818091B303892B80838E010A5F44
:103A50001F4FA696D8018D919D918D01009751F031
:103A6000DC01ED91FC910190F081E02D1995C017DA
:103A7000D10781F7DF91CF911F910F91FF90EF90C8
:103A8000DF90CF9008950C947A1C0C947A1CEF92DE
:103A9000FF920F931F93CF93DF93EC017B018A0179
:103AA000E3E9F3E0108211826A897B898889998928
:103AB0002E893F89260F371F4C895D89480F591F72
:103AC0000E949121F98AE88A1B8B0A8BE881F9818F
:103AD0000190F081E02DCE01DF91CF911F910F91E8
:103AE000FF90EF901994EF92FF920F931F93CF9353
:103AF000DF93EC017B018A01E3E9F3E0108211829C
:103B00006A897B89888999892E893F89260F371F81
:103B10004C895D89480F591F0E949121F98AE88AD2
:103B20001B8B0A8BE881F9810190F081E02DCE0199
:103B3000DF91CF911F910F91FF90EF901994EF9229
:103B4000FF920F931F93CF93DF93EC017B018A01C8
:103B5000E3E9F3E010821182688979898E859F8577
:103B60002C893D89260F371F4A895B89480F591FC9
:103B70000E949121FF86EE86198B088BE881F981DE
:103B80000190F081E02DCE01DF91CF911F910F9137
:103B9000FF90EF901994FC0186899789A3E9B3E01F
:103BA0009C9311968C936089718986859785248969
:103BB0003589260F371F42895389480F591F0C94A6
:103BC00091210F931F93CF93DF93EC018C8D9D8DEB
:103BD00003E913E0D8019C9311968C936A897B8941
:103BE000888999892E893F89260F371F4C895D89DD
:103BF000480F591F0E9491218E8D9F8DF80190834F
:103C0000818381E080ABE2E6F1E0D8019B96FC93F2
:103C1000EE939A97E4919C96EC939C97E3E6F1E0FF
:103C2000E4919D96EC939D97E4E6F1E0E4919E96F5
:103C3000EC939E97E5E6F1E0E4919F96EC934A8938
:103C40005B898A8D9B8D480F591F68897989888D7A
:103C5000998D680F791FEE85FF8580819181DF91B5
:103C6000CF911F910F910C94C0220F931F93CF936C
:103C7000DF93EC018C8D9D8D03E913E0D8019C93BB
:103C800011968C936A897B89888999892E893F89C5
:103C9000260F371F4C895D89480F591F0E949121BB
:103CA00088A199A1F8019083818381E080ABE2E64D
:103CB000F1E0D8019B96FC93EE939A97E4919C9641
:103CC000EC939C97E3E6F1E0E4919D96EC939D974D
:103CD000E4E6F1E0E4919E96EC939E97E5E6F1E050
:103CE000E4919F96EC934A895B898A8D9B8D480F5E
:103CF000591F68897989888D998D680F791F8E85FC
:103D00009F85DF91CF911F910F910C94C02246E0C7
:103D100050E068E972E084EC92E00E94231A0C946F
:103D20000025EF92FF920F931F93CF93DF936115BE
:103D3000710511F480E01CC041155105C1F07B01F3
:103D4000EC018C819D818A01080F191FB801CE01F9
:103D50000E94F71B882371F3288139818C819D8112
:103D6000B701820F931F0E940E361D830C8381E0E2
:103D7000DF91CF911F910F91FF90EF9008950F93D6
:103D80001F93CF93DF938C01EB01FC018081918124
:103D9000009739F06881798161157105A1F40E945D
:103DA000893488819981F801918380838A819B81FC
:103DB000938382838C819D81958384831982188269
:103DC0001B821A820FC0F801428153812C813D81F0
:103DD0004217530720F30E940E368C819D81F80113
:103DE000958384831D821C82DF91CF911F910F9157
:103DF0000895CF93DF93EC0188819981009711F0AA
:103E00000E948934198218821D821C821B821A82A8
:103E1000DF91CF910895CF93DF93EC01FB014481B3
:103E20005581608171810E94911E811103C0CE0174
:103E30000E94F91ECE01DF91CF910895EF92FF927B
:103E40000F931F93CF93DF93EC017B018A01BA019B
:103E50000E94F71B811104C0CE010E94F91E07C009
:103E60001D830C83B701888199810E940E36CE0193
:103E7000DF91CF911F910F91FF90EF900895FC017A
:103E8000808191810C948934FC011182108213820B
:103E90001282158214826115710551F0FB010190A7
:103EA0000020E9F73197AF01461B570B0C941E1FFA
:103EB00008951F920F920FB60F9211240BB60F9216
:103EC0002F933F934F935F936F937F938F939F9322
:103ED000AF93BF93EF93FF9384EC92E00E94941A08
:103EE000FF91EF91BF91AF919F918F917F916F91D2
:103EF0005F914F913F912F910F900BBE0F900FBE8E
:103F00000F901F9018951F920F920FB60F921124C9
:103F10000BB60F922F938F939F93EF93FF93E091A4
:103F2000D402F091D5028081E091DA02F091DB02B7
:103F300082FD12C090818091DD028F5F8F7320918E
:103F4000DE02821751F0E091DD02F0E0EC53FD4F0C
:103F5000958F8093DD0201C08081FF91EF919F9149
:103F60008F912F910F900BBE0F900FBE0F901F904F
:103F700018950F931F93CF93DF93EC0120E030E06F
:103F8000A901688179818A819B810E94EC3318168E
:103F9000F4F40E94EE250A851B852C853D85601B67
:103FA000710B820B930B0E9446329B01AC0168811E
:103FB00079818A819B810E947F33688379838A8398
:103FC0009B830E94EE256A877B878C879D8720E0F4
:103FD00030E0A901688179818A819B810E94413208
:103FE00018168CF0EC81FD8119958E819F81A88532
:103FF000B98588839983AA83BB830E94EE256A874B
:104000007B878C879D87DF91CF911F910F910895BA
:10401000CF92DF92EF92FF920F931F93CF93DF9394
:104020008C01D62EC72EEA01F22EE32E8091970343
:10403000813089F480919C0390919D039C01201B09
:10404000310B841B950BCF2DDE2DF22EE32E062F88
:10405000172FD82EC92E8091A0038F31D1F190F562
:104060008930B9F150F5813009F05CC08AE20E94D4
:10407000C919612F80E00E94E719602F80E00E943B
:10408000E7196D2F80E00E94E7196C2F80E00E94F5
:10409000E7198BE20E94C9196C2D80E00E94E71994
:1040A0006D2D80E00E94E7196E2D80E00E94E719D7
:1040B0006F2D80E00E94E7192AC0853151F08931C7
:1040C00041F030C0813229F020F0823211F0833289
:1040D00049F58AE20E94C919812F0E94051A802F92
:1040E0000E94051A8D2F0E94051A8C2F0E94051A16
:1040F0008BE20E94C9198C2D0E94051A8D2D0E94F9
:10410000051A8E2D0E94051A8F2D0E94051A8CE229
:10411000DF91CF911F910F91FF90EF90DF90CF90A3
:104120000C94C919DF91CF911F910F91FF90EF90DF
:10413000DF90CF9008952091970380919C039091F8
:104140009D034091980350919903211102C09C0155
:1041500002C09A01AC0160E070E080E090E00C9455
:1041600008200F931F93CF93DF93EA0157FF05C0F9
:10417000840F951FD195C195D109E091A703F091C6
:10418000A80330812091B303209523232083AC0121
:104190004C0F5D1F9B010E9408208091A10380317C
:1041A000B1F4E091A303F091A40390818091B10355
:1041B000892B80839E01DD0F440B550B6091940386
:1041C00070E08091930390E00E944A1528C08830E7
:1041D000C9F49091930380919403981313C0E091D4
:1041E000A303F091A40390818091B103892B808374
:1041F000AE01DD0F660B770B8091930390E00E9478
:10420000D9160DC000E010E06091940380919303F3
:104210000E94E7190F5F1F4FC017D107ACF7E0915D
:10422000A703F091A80390818091B303892B808329
:10423000DF91CF911F910F910C949B200F931F93AF
:10424000CF93DF93FC01EA0157FF05C0640F751F90
:10425000D195C195D109A091A703B091A8032C9144
:104260009091B303909592239C939B012C0F3D1F3B
:10427000AF01CF010E9408208091A1038031B1F4E9
:10428000E091A303F091A40390818091B103892B65
:1042900080839E01DD0F440B550B6091940370E009
:1042A0008091930390E00E944A1528C08830C9F499
:1042B0009091930380919403981313C0E091A3030A
:1042C000F091A40390818091B103892B8083AE018A
:1042D000DD0F660B770B8091930390E00E94D91657
:1042E0000DC000E010E060919403809193030E9460
:1042F000E7190F5F1F4FC017D107ACF7E091A70375
:10430000F091A80390818091B303892B8083DF9182
:10431000CF911F910F910C949B20682F892F0C94A3
:10432000E7198F929F92AF92BF92CF92DF92EF9256
:10433000FF920F931F93CF93DF936C017B01EA01F0
:104340008901481759072CF4982F8D2D6A01C92F20
:10435000D82F0E151F052CF49E2D8F2D7801092FB7
:10436000182F8091A103803109F040C0E091A7038C
:10437000F091A80390818091B30380958923808375
:104380009801AE01B701C6010E940820E091A30385
:10439000F091A40390818091B103892B8083CC1983
:1043A000DD09CE01DD0FAA0BBB0B9C01AD012F5F18
:1043B0003F4F4F4F5F4FB8016E197F09CB01770F09
:1043C000AA0BBB0BBC01CD016F5F7F4F8F4F9F4F7F
:1043D0000E9412339B01AC01E09194036E2F70E0B8
:1043E0008091930390E00E944A1544C0883009F000
:1043F0004BC09091930380919403981345C0E09132
:10440000A703F091A80390818091B303809589233D
:1044100080839801AE01B701C6010E940820E09197
:10442000A303F091A40390818091B103892B808331
:10443000CC19DD09CE01DD0FAA0BBB0B9C01AD0130
:104440002F5F3F4F4F4F5F4FB8016E197F09CB0170
:10445000770FAA0BBB0BBC01CD016F5F7F4F8F4F56
:104460009F4F0E941233AB01BC018091930390E0F7
:104470000E94D916E091A703F091A8039081809142
:10448000B303892B80834AC080919703811123C095
:104490005801AE18BF08B7FE03C08FEFA81AB80ABC
:1044A000B594A794812C912CCC19DD09A814B904DA
:1044B000ACF1B701680D791DAE01C6010E94B120B3
:1044C000B80168197909AE01C6010E94B1208FEFC9
:1044D000881A980AEBCF4E018C189D0897FE03C0EE
:1044E0008FEF881A980A95948794A12CB12C0E19F5
:1044F0001F098A149B0494F0A801B701C6018A0D14
:104500009B1D0E941E21A801B701CE018A199B099B
:104510000E941E218FEFA81AB80AEBCFDF91CF912E
:104520001F910F91FF90EF90DF90CF90BF90AF90D1
:104530009F908F9008953FB7F8948091CA0390910F
:10454000CB03A091CC03B091CD0326B5A89B05C0A9
:104550002F3F19F00196A11DB11D3FBFBA2FA92F02
:10456000982F8827820F911DA11DB11DBC01CD017F
:1045700042E0660F771F881F991F4A95D1F708956B
:104580002F923F924F925F926F927F928F929F9263
:10459000AF92BF92CF92DF92EF92FF920F931F9351
:1045A000CF93DF93CDB7DEB72C970FB6F894DEBF6D
:1045B0000FBECDBF8C017C876B872A01FC01019067
:1045C0000020E9F731971F01281A390A80919703D3
:1045D000811126C06F307742A1F4809198039091A9
:1045E000990301969A8389832091BF03229DC0017C
:1045F000239D900D1124E981FA81E81BF90BFC87BA
:10460000EB872B853C852E30374209F04BC08091DB
:10461000980390919903A0919A03B0919B0326C0AF
:10462000EB85FC85EF30F742A1F480919C039091DB
:104630009D0301969A8389832091BF03229DC00127
:10464000239D900D1124E981FA81E81BF90BFC8769
:10465000EB872B853C852E30374221F580919C03DA
:1046600090919D03A0919E03B0919F030196A11D7F
:10467000B11D2091BF03229D6001239DD00C112408
:104680000D2C000CEE08FF08BC01CD016C197D0952
:104690008E099F0922E030E040E050E00E9436336E
:1046A0003C872B8718870F831C821B82EB81FC8140
:1046B000E215F3050CF08BC18091BF038E9F300192
:1046C0008F9F700C11242B853C85620E731EEF8129
:1046D000F8850191F887EF83E091A703F091A80393
:1046E00090818091B3038095892380832091C303B7
:1046F0008091BF039091C00310E02111DDC0209193
:104700009703211164C09201290F311D21503109F5
:10471000A301480F511D41505109B201C3010E942C
:1047200008208091BF038695869586959091C00359
:104730002091C103021B1109899FC0011124089F08
:104740007001099FF00C189FF00C1124F4E0EF0E9B
:10475000F11CA12CB12C8091BF038695869586957E
:104760009091C003899FC0011124A816B90608F0D2
:104770001DC1E091BD03F091BE03EE0DFF1DE4915C
:1047800097E0C92ED12C0E2F10E0C8010C2C02C0CE
:10479000959587950A94E2F780FF05C08091930371
:1047A0009091940304C0809195039091960398276B
:1047B000892798270E948D2121E0C21AD10828F765
:1047C0008FEFE81AF80A9FEFA91AB90AC4CF8695A5
:1047D000869586952091C103021B1109899FC0010E
:1047E0001124089F6001099FD00C189FD00C112440
:1047F000E4E0CE0ED11C812C912C2091BF03622FBE
:104800006695669566958091C003689FC0011124E6
:104810008816990608F0CAC070E0C4010E942233CD
:10482000640D751DA301420F511D415051099B019B
:10483000C3010E9408200091BF03069506950695C6
:1048400010E00150110968F1E091BD03F091BE0341
:10485000C8018C0D9D1DE80FF91FE491A12CB12C0E
:10486000EE2EF12CC7010A2C02C0959587950A946B
:10487000E2F780FF05C0809193039091940304C0F8
:1048800080919503909196039827892798270E94F5
:104890008D212FEFA21AB20A38E0A316B10411F746
:1048A000D0CF8091BF0386958695869590E0C80EFF
:1048B000D91E880E991EA1CF869586958695209142
:1048C000C103021B1109899FC0011124089F900197
:1048D000099F300D189F300D1124C90104969A8349
:1048E000898382018091C00390E0980124193509E1
:1048F0002817390708F05AC04301C12CD12CF80100
:104900003196FA87E9878091BF03869586958695CB
:1049100090E0C816D9060CF040C0E091BD03F091BC
:10492000BE0389819A818C0D9D1DE80FF91FE491CA
:10493000740187E0A82EB12C2E2F30E03E832D830A
:104940008D819E810A2C02C0959587950A94E2F785
:1049500080FF12C029853A85A7014F5F5F4FB801DC
:10496000C7010E9408208091930390919403982797
:10497000892798270E948D2131E0A31AB1088FEF73
:10498000E81AF80A9FEFA916B906D1F6EFEFCE1A8A
:10499000DE0AF8E08F0E911CB6CF29813A81280FEC
:1049A000391F3A8329830F5F1F4F9CCFE091A703E4
:1049B000F091A80390818091B303892B80830E949A
:1049C0009B208B819C8101969C838B836FCE2C9640
:1049D0000FB6F894DEBF0FBECDBFDF91CF911F9110
:1049E0000F91FF90EF90DF90CF90BF90AF909F908E
:1049F0008F907F906F905F904F903F902F90089591
:104A000042E050E06DEB72E084EC92E00C94231AEB
:104A1000CF93DF931F921F92CDB7DEB769831A82BF
:104A200041E050E0BE016F5F7F4F0E94911E0F90EA
:104A30000F90DF91CF910895EF92FF920F931F9304
:104A4000CF93DF937C01CFE6D3E009911991011553
:104A5000110599F0B701D80112968D919C91139789
:104A60000E940536892B29F41093800300937F035D
:104A700004C0B3E0CF37DB0741F780917F0390910B
:104A80008003009769F0DC01ED91FC910280F381D5
:104A9000E02DDF91CF911F910F91FF90EF9019942E
:104AA000DF91CF911F910F91FF90EF900895CF93D9
:104AB000DF93FC01448155816081718184EC92E037
:104AC0000E94231AEC010E9400258C0F9D1FDF918C
:104AD000CF910895CF93DF93EC0141E050E06DE872
:104AE00072E00E94911E811103C0CE010E94F91E46
:104AF000CE01DF91CF910895EF92FF920F931F9314
:104B0000CF93DF93CDB7DEB762970FB6F894DEBFD1
:104B10000FBECDBF8C01CB01F80111821082138230
:104B20001282158214824AE09E012F5F3F4F790165
:104B3000B9010E94F731F70101900020E9F73197A0
:104B4000AF014E195F09B701C8010E941E1F62968E
:104B50000FB6F894DEBF0FBECDBFDF91CF911F918E
:104B60000F91FF90EF9008958F929F92AF92BF9216
:104B7000CF92DF92EF92FF926B017C010E949B2209
:104B80004B015C01C114D104E104F104F1F00E9475
:104B90009B22DC01CB0188199909AA09BB09883E2F
:104BA0009340A105B10570F321E0C21AD108E108D4
:104BB000F10888EE880E83E0981EA11CB11CC11478
:104BC000D104E104F10419F7DDCFFF90EF90DF90FD
:104BD000CF90BF90AF909F908F9008952FB7F8948B
:104BE0006091C6037091C7038091C8039091C90377
:104BF0002FBF08950F931F930E94EE256093CC0260
:104C00007093CD028093CE029093CF0284EC92E019
:104C10000E945C1A97FF1FC00E94EE250091CC02F3
:104C20001091CD022091CE023091CF02DC01CB0158
:104C3000801B910BA20BB30B0091C8021091C9020B
:104C40002091CA023091CB0280179107A207B307C7
:104C5000E8F28FEF9FEF1F910F9108951F920F922F
:104C60000FB60F9211242F933F938F939F93AF937F
:104C7000BF938091C6039091C703A091C803B091E0
:104C8000C9033091C50323E0230F2D3720F401968B
:104C9000A11DB11D05C026E8230F0296A11DB11D5F
:104CA0002093C5038093C6039093C703A093C803C2
:104CB000B093C9038091CA039091CB03A091CC0318
:104CC000B091CD030196A11DB11D8093CA039093AD
:104CD000CB03A093CC03B093CD03BF91AF919F9131
:104CE0008F913F912F910F900FBE0F901F901895AD
:104CF000AF92BF92CF92DF92EF92FF920F931F93EA
:104D0000CF93DF937C016B015A014230510528F4A7
:104D10008A0182E0A82EB12C02C002E010E06FEB05
:104D200072E0C7010E94441FD6011496CD91DC9118
:104D300015970C171D0740F5AC16BD0608F4E501E4
:104D4000D601ED91FC911197EC0FFD1FB080108200
:104D50006D917C91600F711F6115710561F0FB0110
:104D600001900020E9F73197AF01461B570BC701AF
:104D70000E941E1F03C0C7010E94F91EF601808118
:104D80009181C80FD91FB882C701DF91CF911F91C0
:104D90000F91FF90EF90DF90CF90BF90AF9008956C
:104DA000CF93DF93CDB7DEB768970FB6F894DEBF29
:104DB0000FBECDBF789484B5826084BD84B5816018
:104DC00084BD85B5826085BD85B5816085BD8091D6
:104DD0006E00816080936E0010928100809181004E
:104DE0008260809381008091810081608093810046
:104DF000809180008160809380008091B100846008
:104E00008093B1008091B00081608093B000809168
:104E100091008260809391008091910081608093E5
:104E20009100809190008160809390008091A1001A
:104E300082608093A1008091A10081608093A10095
:104E40008091A00081608093A00080912101826008
:104E500080932101809121018160809321018091C3
:104E6000200181608093200180917A00846080938A
:104E70007A0080917A00826080937A0080917A0033
:104E8000816080937A0080917A00806880937A00B4
:104E90001092C100E091D402F091D50282E08083AB
:104EA000E091D002F091D1021082E091D202F09113
:104EB000D3028FEC80831092DC02E091D802F09153
:104EC000D90286E08083E091D602F091D7028081FA
:104ED00080618083E091D602F091D7028081886062
:104EE0008083E091D602F091D70280818068808330
:104EF000E091D602F091D70280818F7D808381E09E
:104F0000809397038091B8030E94AA198091B903F6
:104F10000E94AA198091BA030E94AA198091BB032A
:104F20008F3F11F00E94AA199091A103913159F07D
:104F30008091A0038052833030F0913041F4809111
:104F4000A203853021F48091BC030E94AA198091AC
:104F5000A103813079F0813131F09FEF91B9803137
:104F600049F497B907C088E18093010180E283BBCF
:104F70008BE38DB9E091A903F091AA039081809110
:104F8000B403892B808365E070E080E090E00E94AC
:104F9000B425E091A903F091AA0390818091B40314
:104FA0008095892380836FE070E080E090E00E942C
:104FB000B425E091A903F091AA0390818091B403F4
:104FC000892B80836FE070E080E090E00E94B42540
:104FD000E091A703F091A80390818091B30380959D
:104FE000892380838091A0038F3109F492C208F055
:104FF000F1C0893009F419C208F0E5C0813009F028
:10500000C3C489EE0E94C91960E280E00E94E719DA
:1050100081E10E94C91964E670E080E090E00E949E
:10502000B42581ED0E94C91960E080E00E94E71973
:1050300061E780E00E94E71969E180E00E94E719DA
:1050400080ED0E94C91967E080E00E94E71961E0E5
:1050500080E00E94E71968E080E00E94E71986E39B
:105060000E94C91968E480E00E94E7198AE30E945F
:10507000C91965E080E00E94E71981EC0E94C91916
:1050800060E180E00E94E71960E180E00E94E7199A
:1050900062E080E00E94E71962E080E00E94E71988
:1050A00080EC0E94C91960E080E00E94E71965E386
:1050B00080E00E94E71960E080E00E94E71960E06C
:1050C00080E00E94E71961E080E00E94E71962E059
:1050D00080E00E94E71985EC0E94C91964E080E035
:1050E0000E94E71982ED0E94C91961E080E00E94E8
:1050F000E71964E480E00E94E71988EC0E94C9196E
:1051000064E080E00E94E71967E680E00E94E7190A
:1051100065E380E00E94E71964E080E00E94E719FF
:1051200068E080E00E94E71966E080E00E94E719ED
:1051300064E280E00E94E71961E080E00E94E719E4
:1051400067E380E00E94E71960E480E00E94E719CD
:1051500063E080E00E94E71960E180E00E94E719C7
:1051600068E080E00E94E71960E880E00E94E719AB
:1051700060E080E00E94E7198AE20E94C91960E0BD
:1051800080E00E94E71960E080E00E94E71960E09B
:1051900080E00E94E7196FEE80E00E94E7198BE241
:1051A0000E94C91960E080E00E94E71960E080E099
:1051B0000E94E71961E080E00E94E7196FE880E053
:1051C0000E94E719ADC3853109F4AFC2893109F4F2
:1051D0001AC3DAC3813209F416C308F414C3823245
:1051E00009F471C0833209F0CFC381E10E94C9196B
:1051F00064E170E080E090E00E94B42580ED0E94C0
:10520000C91987E00E94051A82E40E94051A88E104
:105210000E94051A81ED0E94C91980E00E94051ABA
:1052200087E00E94051A80E10E94051A82ED0E9423
:10523000C91981E00E94051A82E00E94051A80ECDB
:105240000E94C91980E10E94051A8BE30E94051A89
:1052500080E00E94051A82E00E94051A81E10E9406
:10526000051A85EC0E94C91983E00E94051A88EC92
:105270000E94C91980E00E94051A82E30E94051A63
:1052800086E30E94051A85E40E94051A86E00E94C2
:10529000051A86E10E94051A87E30E94051A85E730
:1052A0000E94051A87E70E94051A84E50E94051AE4
:1052B0008CE00E94051A80E00E94051A86E30E9495
:1052C000C9198AE432C380EE0E94C91980E00E94A5
:1052D000051A87E00E94051A80E10E94051A89E0FC
:1052E0000E94051A87E10E94051A8BE00E94051AA8
:1052F00080E40E94051A8AE80E94051A8BE40E9445
:10530000051A8AE00E94051A8DE00E94051A8FE0B6
:105310000E94051A85E10E94051A86E10E94051A7D
:105320008FE00E94051A81EE0E94C91980E00E9458
:10533000051A8AE10E94051A8BE10E94051A82E093
:105340000E94051A8DE00E94051A85E00E94051A48
:1053500080E30E94051A85E30E94051A83E40E94F7
:10536000051A82E00E94051A8AE00E94051A89E067
:105370000E94051A82E30E94051A86E30E94051A1C
:105380008FE00E94051A81EB0E94C91980EA0E94F1
:10539000051A84EB0E94C91982E00E94051A80EC6C
:1053A0000E94C91987E10E94051A85E10E94051A29
:1053B00081EC0E94C91981E40E94051A85EC0E94C3
:1053C000C91980E00E94051A8AE00E94051A80E847
:1053D0000E94051A86EB0E94C91982E00E94051AF4
:1053E00086E30E94C91988E40E94051A8AE30E9494
:1053F000C91985E50E94051A89EE0E94C91980E045
:105400000E94051A87EF0E94C91989EA0E94051AAD
:1054100081E50E94051A8CE20E94051A82E80E942A
:10542000051A81E10E94C919A6C281E10E94C91929
:105430006CE070E080E090E00E94B42581EB0E9477
:10544000C91981E00E94051A8CE20E94051A8DE2BA
:105450000E94051A82EB0E94C91981E00E94051A78
:105460008CE20E94051A8DE20E94051A83EB0E94CD
:10547000C91981E00E94051A8CE20E94051A8DE28A
:105480000E94051A81E00E94051A8CE20E94051A0A
:105490008DE20E94051A84EB0E94C91987E00E94E0
:1054A000051A80EC0E94C91982EA0E94051A82E05E
:1054B0000E94051A84E80E94051A81EC0E94C9190D
:1054C00085EC0E94051A82EC0E94C9198AE00E94AC
:1054D000051A80E00E94051A83EC0E94C9198AE827
:1054E0000E94051A8AE20E94051A84EC0E94C919DA
:1054F0008AE80E94051A8EEE0E94051A85EC0E9429
:10550000C9198EE00E94051A86E30E94C91988EC29
:1055100073C081E10E94C9196CE070E080E090E006
:105520000E94B42581EB0E94C91981E00E94051AEE
:105530008CE20E94051A8DE20E94051A82EB0E94FD
:10554000C91981E00E94051A8CE20E94051A8DE2B9
:105550000E94051A83EB0E94C91981E00E94051A76
:105560008CE20E94051A8DE20E94051A81E00E94D9
:10557000051A8CE20E94051A8DE20E94051A84EB3E
:105580000E94C91987E00E94051A80EC0E94C9197F
:1055900082EA0E94051A82E00E94051A84E80E94AD
:1055A000051A81EC0E94C91985EC0E94051A82EC4B
:1055B0000E94C9198AE00E94051A80E00E94051A1B
:1055C00083EC0E94C9198AE80E94051A8AE20E94A7
:1055D000051A84EC0E94C9198AE80E94051A8EEE09
:1055E0000E94051A85EC0E94C9198EE00E94051AD6
:1055F00086E30E94C91980EC0E94051A80EE0E9481
:10560000C9198FE00E94051A8AE10E94051A8FE0ED
:105610000E94051A88E10E94051A8FE20E94051A6D
:1056200088E20E94051A80E20E94051A82E20E9426
:10563000051A8FE10E94051A8BE10E94051A83E288
:105640000E94051A87E30E94051A80E00E94051A4D
:1056500087E00E94051A82E00E94051A80E10E94FC
:10566000051A81EE0E94C9198FE00E94051A8BE18C
:105670000E94051A8FE00E94051A87E10E94051A10
:1056800083E30E94051A8CE20E94051A89E20E94B7
:10569000051A8EE20E94051A80E30E94051A80E333
:1056A0000E94051A89E30E94051A8FE30E94051AD9
:1056B00080E00E94051A87E00E94051A83E00E949C
:1056C000051A80E10E94051A8AE20E94C91980E049
:1056D0000E94051A80E00E94051A80E00E94051AC7
:1056E0008FE70E94051A8BE20E94C91980E00E9490
:1056F000051A80E00E94051A80E00E94051A8FE9D1
:105700000E94051A80EF0E94C91981E00E94051AC3
:1057100086EF0E94C91980E00E94051A8AE30E9460
:10572000C91985E00E94051A2CC181E10E94C9199E
:1057300064E170E080E090E00E94B42580ED0E947A
:10574000C91987E00E94051A82E40E94051A88E1BF
:105750000E94051A81ED0E94C91980E00E94051A75
:1057600087E00E94051A80E10E94051A82ED0E94DE
:10577000C91981E00E94051A82E00E94051A80EC96
:105780000E94C91980E10E94051A8BE30E94051A44
:1057900080E00E94051A82E00E94051A81E10E94C1
:1057A000051A85EC0E94C91983E00E94051A88EC4D
:1057B0000E94C91980E00E94051A82E30E94051A1E
:1057C00086E30E94051A85E40E94051A86E00E947D
:1057D000051A86E10E94051A87E30E94051A85E7EB
:1057E0000E94051A87E70E94051A84E50E94051A9F
:1057F0008CE00E94051A80E00E94051A86E30E9450
:10580000C9198AE092C08BEC0E94C91989E30E94F1
:10581000051A8CE20E94051A80E00E94051A84E3B2
:105820000E94051A82E00E94051A8FEC0E94C91995
:1058300080E00E94051A81EC0E94051A80E30E9414
:10584000051A88EE0E94C91985E80E94051A80E0B1
:105850000E94051A88E70E94051A8AEE0E94C9195B
:1058600080E00E94051A80E00E94051A8DEE0E94D9
:10587000C91984E60E94051A83E00E94051A82E194
:105880000E94051A81E80E94051A87EF0E94C91933
:1058900080E20E94051A80EC0E94C91983E20E94EE
:1058A000051A81EC0E94C91980E10E94051A85EC55
:1058B0000E94C9198EE30E94051A88E20E94051A07
:1058C00087EC0E94C91986E80E94051A86E30E94A7
:1058D000C91988E40E94051A8AE30E94C91985E55E
:1058E0000E94051A81EB0E94C91980E00E94051AE6
:1058F00088E10E94051A86EB0E94C91988E00E947F
:10590000051A82E80E94051A87E20E94051A81E1C1
:105910000E94C91968E770E080E090E00E94B42519
:1059200089E20E94C9198CE22DC00E94051A8AE3FF
:105930000E94C91985E50E94051A8AE20E94C919C8
:1059400080E00E94051A80E00E94051A81E00E9412
:10595000051A8FE30E94051A8BE20E94C91980E0A4
:105960000E94051A80E00E94051A81E00E94051A33
:1059700080EE0E94051A68E770E080E090E00E94E7
:10598000B42589E20E94C919E091A703F091A80308
:1059900090818091B303892B80838FEF8093930351
:1059A0008093940310929503109296031092C30370
:1059B0001092BE031092BD038EE792E00E941C2558
:1059C000FF24F39481E693E00E94B91F85E893E0F9
:1059D0000E94B91F84EC92E00E947E1A892B09F480
:1059E0004CC16FEB72E0CE0143960E94441F0E94AF
:1059F000FA2597FD06C0682FCE0143960E94082520
:105A0000F6CF2F89388DC90101978217930720F4AB
:105A1000EB89FC89309729F41092C102E1ECF2E0A5
:105A200002C0E80FF91F1082CE0143960E9457254D
:105A30004F89588D4115510521F0EB89FC8930972C
:105A400021F41092C102E1ECF2E080818336E9F5A5
:105A5000BE016D5E7F4FCE0101960E947826BE0189
:105A60006F5F7F4FCE0143960E94BF1ECE0101960D
:105A70000E943F1F8B899C890E941C25E0917F0317
:105A8000F091800362817381CE0107960E94441FCA
:105A900067E872E0CE0101960E94441FBE01695F73
:105AA0007F4FCE0101960E940B1F0E946A25BE0106
:105AB0006D5E7F4F0E940B1F0E945725CE010196FD
:105AC0000E943F1FCE010796D2C04115510521F01B
:105AD000EB89FC89309721F41092C102E1ECF2E0ED
